{
	"contracts/Demo1.sol": {
		"Demo2": {
			"abi": [
				{
					"inputs": [],
					"name": "num",
					"outputs": [
						{
							"internalType": "uint256",
							"name": "",
							"type": "uint256"
						}
					],
					"stateMutability": "view",
					"type": "function"
				},
				{
					"inputs": [
						{
							"internalType": "address",
							"name": "addr",
							"type": "address"
						}
					],
					"name": "setNum",
					"outputs": [
						{
							"internalType": "uint256",
							"name": "result",
							"type": "uint256"
						}
					],
					"stateMutability": "nonpayable",
					"type": "function"
				}
			],
			"devdoc": {
				"kind": "dev",
				"methods": {},
				"version": 1
			},
			"evm": {
				"assembly": "    /* \"contracts/Demo1.sol\":816:1147  contract Demo2{... */\n  mstore(0x40, 0x80)\n  callvalue\n  dup1\n  iszero\n  tag_1\n  jumpi\n  0x00\n  dup1\n  revert\ntag_1:\n  pop\n  dataSize(sub_0)\n  dup1\n  dataOffset(sub_0)\n  0x00\n  codecopy\n  0x00\n  return\nstop\n\nsub_0: assembly {\n        /* \"contracts/Demo1.sol\":816:1147  contract Demo2{... */\n      mstore(0x40, 0x80)\n      callvalue\n      dup1\n      iszero\n      tag_1\n      jumpi\n      0x00\n      dup1\n      revert\n    tag_1:\n      pop\n      jumpi(tag_2, lt(calldatasize, 0x04))\n      shr(0xe0, calldataload(0x00))\n      dup1\n      0x1be383fc\n      eq\n      tag_3\n      jumpi\n      dup1\n      0x4e70b1dc\n      eq\n      tag_4\n      jumpi\n    tag_2:\n      0x00\n      dup1\n      revert\n        /* \"contracts/Demo1.sol\":862:1144  function setNum(address addr) public returns(uint256 result){... */\n    tag_3:\n      tag_5\n      0x04\n      dup1\n      calldatasize\n      sub\n      dup2\n      add\n      swap1\n      tag_6\n      swap2\n      swap1\n      tag_7\n      jump\t// in\n    tag_6:\n      tag_8\n      jump\t// in\n    tag_5:\n      mload(0x40)\n      tag_9\n      swap2\n      swap1\n      tag_10\n      jump\t// in\n    tag_9:\n      mload(0x40)\n      dup1\n      swap2\n      sub\n      swap1\n      return\n        /* \"contracts/Demo1.sol\":837:855  uint256 public num */\n    tag_4:\n      tag_11\n      tag_12\n      jump\t// in\n    tag_11:\n      mload(0x40)\n      tag_13\n      swap2\n      swap1\n      tag_10\n      jump\t// in\n    tag_13:\n      mload(0x40)\n      dup1\n      swap2\n      sub\n      swap1\n      return\n        /* \"contracts/Demo1.sol\":862:1144  function setNum(address addr) public returns(uint256 result){... */\n    tag_8:\n        /* \"contracts/Demo1.sol\":907:921  uint256 result */\n      0x00\n        /* \"contracts/Demo1.sol\":933:950  bytes memory sign */\n      dup1\n        /* \"contracts/Demo1.sol\":954:989  abi.encodeWithSignature(\"setNum()\") */\n      add(0x24, mload(0x40))\n      mload(0x40)\n      0x20\n      dup2\n      dup4\n      sub\n      sub\n      dup2\n      mstore\n      swap1\n      0x40\n      mstore\n      and(not(0xffffffffffffffffffffffffffffffffffffffffffffffffffffffff), 0xac3afa4300000000000000000000000000000000000000000000000000000000)\n      0x20\n      dup3\n      add\n      dup1\n      mload\n      0xffffffffffffffffffffffffffffffffffffffffffffffffffffffff\n      dup4\n      dup2\n      dup4\n      and\n      or\n      dup4\n      mstore\n      pop\n      pop\n      pop\n      pop\n        /* \"contracts/Demo1.sol\":933:989  bytes memory sign =  abi.encodeWithSignature(\"setNum()\") */\n      swap1\n      pop\n        /* \"contracts/Demo1.sol\":1001:1013  bool success */\n      0x00\n        /* \"contracts/Demo1.sol\":1014:1031  bytes memory data */\n      dup1\n        /* \"contracts/Demo1.sol\":1035:1039  addr */\n      dup5\n        /* \"contracts/Demo1.sol\":1035:1044  addr.call */\n      0xffffffffffffffffffffffffffffffffffffffff\n      and\n        /* \"contracts/Demo1.sol\":1045:1049  sign */\n      dup4\n        /* \"contracts/Demo1.sol\":1035:1050  addr.call(sign) */\n      mload(0x40)\n      tag_15\n      swap2\n      swap1\n      tag_16\n      jump\t// in\n    tag_15:\n      0x00\n      mload(0x40)\n      dup1\n      dup4\n      sub\n      dup2\n      0x00\n      dup7\n      gas\n      call\n      swap2\n      pop\n      pop\n      returndatasize\n      dup1\n      0x00\n      dup2\n      eq\n      tag_19\n      jumpi\n      mload(0x40)\n      swap2\n      pop\n      and(add(returndatasize, 0x3f), not(0x1f))\n      dup3\n      add\n      0x40\n      mstore\n      returndatasize\n      dup3\n      mstore\n      returndatasize\n      0x00\n      0x20\n      dup5\n      add\n      returndatacopy\n      jump(tag_18)\n    tag_19:\n      0x60\n      swap2\n      pop\n    tag_18:\n      pop\n        /* \"contracts/Demo1.sol\":1000:1050  (bool success,bytes memory data) = addr.call(sign) */\n      swap2\n      pop\n      swap2\n      pop\n        /* \"contracts/Demo1.sol\":1069:1076  success */\n      dup2\n        /* \"contracts/Demo1.sol\":1061:1090  require(success,\"call error\") */\n      tag_20\n      jumpi\n      mload(0x40)\n      0x08c379a000000000000000000000000000000000000000000000000000000000\n      dup2\n      mstore\n      0x04\n      add\n      tag_21\n      swap1\n      tag_22\n      jump\t// in\n    tag_21:\n      mload(0x40)\n      dup1\n      swap2\n      sub\n      swap1\n      revert\n    tag_20:\n        /* \"contracts/Demo1.sol\":1121:1125  data */\n      dup1\n        /* \"contracts/Demo1.sol\":1110:1136  abi.decode(data,(uint256)) */\n      dup1\n      0x20\n      add\n      swap1\n      mload\n      dup2\n      add\n      swap1\n      tag_23\n      swap2\n      swap1\n      tag_24\n      jump\t// in\n    tag_23:\n        /* \"contracts/Demo1.sol\":1101:1136  result = abi.decode(data,(uint256)) */\n      swap4\n      pop\n        /* \"contracts/Demo1.sol\":922:1144  {... */\n      pop\n      pop\n      pop\n        /* \"contracts/Demo1.sol\":862:1144  function setNum(address addr) public returns(uint256 result){... */\n      swap2\n      swap1\n      pop\n      jump\t// out\n        /* \"contracts/Demo1.sol\":837:855  uint256 public num */\n    tag_12:\n      sload(0x00)\n      dup2\n      jump\t// out\n        /* \"#utility.yul\":88:205   */\n    tag_26:\n        /* \"#utility.yul\":197:198   */\n      0x00\n        /* \"#utility.yul\":194:195   */\n      dup1\n        /* \"#utility.yul\":187:199   */\n      revert\n        /* \"#utility.yul\":334:460   */\n    tag_28:\n        /* \"#utility.yul\":371:378   */\n      0x00\n        /* \"#utility.yul\":411:453   */\n      0xffffffffffffffffffffffffffffffffffffffff\n        /* \"#utility.yul\":404:409   */\n      dup3\n        /* \"#utility.yul\":400:454   */\n      and\n        /* \"#utility.yul\":389:454   */\n      swap1\n      pop\n        /* \"#utility.yul\":334:460   */\n      swap2\n      swap1\n      pop\n      jump\t// out\n        /* \"#utility.yul\":466:562   */\n    tag_29:\n        /* \"#utility.yul\":503:510   */\n      0x00\n        /* \"#utility.yul\":532:556   */\n      tag_49\n        /* \"#utility.yul\":550:555   */\n      dup3\n        /* \"#utility.yul\":532:556   */\n      tag_28\n      jump\t// in\n    tag_49:\n        /* \"#utility.yul\":521:556   */\n      swap1\n      pop\n        /* \"#utility.yul\":466:562   */\n      swap2\n      swap1\n      pop\n      jump\t// out\n        /* \"#utility.yul\":568:690   */\n    tag_30:\n        /* \"#utility.yul\":641:665   */\n      tag_51\n        /* \"#utility.yul\":659:664   */\n      dup2\n        /* \"#utility.yul\":641:665   */\n      tag_29\n      jump\t// in\n    tag_51:\n        /* \"#utility.yul\":634:639   */\n      dup2\n        /* \"#utility.yul\":631:666   */\n      eq\n        /* \"#utility.yul\":621:684   */\n      tag_52\n      jumpi\n        /* \"#utility.yul\":680:681   */\n      0x00\n        /* \"#utility.yul\":677:678   */\n      dup1\n        /* \"#utility.yul\":670:682   */\n      revert\n        /* \"#utility.yul\":621:684   */\n    tag_52:\n        /* \"#utility.yul\":568:690   */\n      pop\n      jump\t// out\n        /* \"#utility.yul\":696:835   */\n    tag_31:\n        /* \"#utility.yul\":742:747   */\n      0x00\n        /* \"#utility.yul\":780:786   */\n      dup2\n        /* \"#utility.yul\":767:787   */\n      calldataload\n        /* \"#utility.yul\":758:787   */\n      swap1\n      pop\n        /* \"#utility.yul\":796:829   */\n      tag_54\n        /* \"#utility.yul\":823:828   */\n      dup2\n        /* \"#utility.yul\":796:829   */\n      tag_30\n      jump\t// in\n    tag_54:\n        /* \"#utility.yul\":696:835   */\n      swap3\n      swap2\n      pop\n      pop\n      jump\t// out\n        /* \"#utility.yul\":841:1170   */\n    tag_7:\n        /* \"#utility.yul\":900:906   */\n      0x00\n        /* \"#utility.yul\":949:951   */\n      0x20\n        /* \"#utility.yul\":937:946   */\n      dup3\n        /* \"#utility.yul\":928:935   */\n      dup5\n        /* \"#utility.yul\":924:947   */\n      sub\n        /* \"#utility.yul\":920:952   */\n      slt\n        /* \"#utility.yul\":917:1036   */\n      iszero\n      tag_56\n      jumpi\n        /* \"#utility.yul\":955:1034   */\n      tag_57\n      tag_26\n      jump\t// in\n    tag_57:\n        /* \"#utility.yul\":917:1036   */\n    tag_56:\n        /* \"#utility.yul\":1075:1076   */\n      0x00\n        /* \"#utility.yul\":1100:1153   */\n      tag_58\n        /* \"#utility.yul\":1145:1152   */\n      dup5\n        /* \"#utility.yul\":1136:1142   */\n      dup3\n        /* \"#utility.yul\":1125:1134   */\n      dup6\n        /* \"#utility.yul\":1121:1143   */\n      add\n        /* \"#utility.yul\":1100:1153   */\n      tag_31\n      jump\t// in\n    tag_58:\n        /* \"#utility.yul\":1090:1153   */\n      swap2\n      pop\n        /* \"#utility.yul\":1046:1163   */\n      pop\n        /* \"#utility.yul\":841:1170   */\n      swap3\n      swap2\n      pop\n      pop\n      jump\t// out\n        /* \"#utility.yul\":1176:1253   */\n    tag_32:\n        /* \"#utility.yul\":1213:1220   */\n      0x00\n        /* \"#utility.yul\":1242:1247   */\n      dup2\n        /* \"#utility.yul\":1231:1247   */\n      swap1\n      pop\n        /* \"#utility.yul\":1176:1253   */\n      swap2\n      swap1\n      pop\n      jump\t// out\n        /* \"#utility.yul\":1259:1377   */\n    tag_33:\n        /* \"#utility.yul\":1346:1370   */\n      tag_61\n        /* \"#utility.yul\":1364:1369   */\n      dup2\n        /* \"#utility.yul\":1346:1370   */\n      tag_32\n      jump\t// in\n    tag_61:\n        /* \"#utility.yul\":1341:1344   */\n      dup3\n        /* \"#utility.yul\":1334:1371   */\n      mstore\n        /* \"#utility.yul\":1259:1377   */\n      pop\n      pop\n      jump\t// out\n        /* \"#utility.yul\":1383:1605   */\n    tag_10:\n        /* \"#utility.yul\":1476:1480   */\n      0x00\n        /* \"#utility.yul\":1514:1516   */\n      0x20\n        /* \"#utility.yul\":1503:1512   */\n      dup3\n        /* \"#utility.yul\":1499:1517   */\n      add\n        /* \"#utility.yul\":1491:1517   */\n      swap1\n      pop\n        /* \"#utility.yul\":1527:1598   */\n      tag_63\n        /* \"#utility.yul\":1595:1596   */\n      0x00\n        /* \"#utility.yul\":1584:1593   */\n      dup4\n        /* \"#utility.yul\":1580:1597   */\n      add\n        /* \"#utility.yul\":1571:1577   */\n      dup5\n        /* \"#utility.yul\":1527:1598   */\n      tag_33\n      jump\t// in\n    tag_63:\n        /* \"#utility.yul\":1383:1605   */\n      swap3\n      swap2\n      pop\n      pop\n      jump\t// out\n        /* \"#utility.yul\":1611:1709   */\n    tag_34:\n        /* \"#utility.yul\":1662:1668   */\n      0x00\n        /* \"#utility.yul\":1696:1701   */\n      dup2\n        /* \"#utility.yul\":1690:1702   */\n      mload\n        /* \"#utility.yul\":1680:1702   */\n      swap1\n      pop\n        /* \"#utility.yul\":1611:1709   */\n      swap2\n      swap1\n      pop\n      jump\t// out\n        /* \"#utility.yul\":1715:1862   */\n    tag_35:\n        /* \"#utility.yul\":1816:1827   */\n      0x00\n        /* \"#utility.yul\":1853:1856   */\n      dup2\n        /* \"#utility.yul\":1838:1856   */\n      swap1\n      pop\n        /* \"#utility.yul\":1715:1862   */\n      swap3\n      swap2\n      pop\n      pop\n      jump\t// out\n        /* \"#utility.yul\":1868:2114   */\n    tag_36:\n        /* \"#utility.yul\":1949:1950   */\n      0x00\n        /* \"#utility.yul\":1959:2072   */\n    tag_67:\n        /* \"#utility.yul\":1973:1979   */\n      dup4\n        /* \"#utility.yul\":1970:1971   */\n      dup2\n        /* \"#utility.yul\":1967:1980   */\n      lt\n        /* \"#utility.yul\":1959:2072   */\n      iszero\n      tag_69\n      jumpi\n        /* \"#utility.yul\":2058:2059   */\n      dup1\n        /* \"#utility.yul\":2053:2056   */\n      dup3\n        /* \"#utility.yul\":2049:2060   */\n      add\n        /* \"#utility.yul\":2043:2061   */\n      mload\n        /* \"#utility.yul\":2039:2040   */\n      dup2\n        /* \"#utility.yul\":2034:2037   */\n      dup5\n        /* \"#utility.yul\":2030:2041   */\n      add\n        /* \"#utility.yul\":2023:2062   */\n      mstore\n        /* \"#utility.yul\":1995:1997   */\n      0x20\n        /* \"#utility.yul\":1992:1993   */\n      dup2\n        /* \"#utility.yul\":1988:1998   */\n      add\n        /* \"#utility.yul\":1983:1998   */\n      swap1\n      pop\n        /* \"#utility.yul\":1959:2072   */\n      jump(tag_67)\n    tag_69:\n        /* \"#utility.yul\":2106:2107   */\n      0x00\n        /* \"#utility.yul\":2097:2103   */\n      dup5\n        /* \"#utility.yul\":2092:2095   */\n      dup5\n        /* \"#utility.yul\":2088:2104   */\n      add\n        /* \"#utility.yul\":2081:2108   */\n      mstore\n        /* \"#utility.yul\":1930:2114   */\n      pop\n        /* \"#utility.yul\":1868:2114   */\n      pop\n      pop\n      pop\n      jump\t// out\n        /* \"#utility.yul\":2120:2506   */\n    tag_37:\n        /* \"#utility.yul\":2224:2227   */\n      0x00\n        /* \"#utility.yul\":2252:2290   */\n      tag_71\n        /* \"#utility.yul\":2284:2289   */\n      dup3\n        /* \"#utility.yul\":2252:2290   */\n      tag_34\n      jump\t// in\n    tag_71:\n        /* \"#utility.yul\":2306:2394   */\n      tag_72\n        /* \"#utility.yul\":2387:2393   */\n      dup2\n        /* \"#utility.yul\":2382:2385   */\n      dup6\n        /* \"#utility.yul\":2306:2394   */\n      tag_35\n      jump\t// in\n    tag_72:\n        /* \"#utility.yul\":2299:2394   */\n      swap4\n      pop\n        /* \"#utility.yul\":2403:2468   */\n      tag_73\n        /* \"#utility.yul\":2461:2467   */\n      dup2\n        /* \"#utility.yul\":2456:2459   */\n      dup6\n        /* \"#utility.yul\":2449:2453   */\n      0x20\n        /* \"#utility.yul\":2442:2447   */\n      dup7\n        /* \"#utility.yul\":2438:2454   */\n      add\n        /* \"#utility.yul\":2403:2468   */\n      tag_36\n      jump\t// in\n    tag_73:\n        /* \"#utility.yul\":2493:2499   */\n      dup1\n        /* \"#utility.yul\":2488:2491   */\n      dup5\n        /* \"#utility.yul\":2484:2500   */\n      add\n        /* \"#utility.yul\":2477:2500   */\n      swap2\n      pop\n        /* \"#utility.yul\":2228:2506   */\n      pop\n        /* \"#utility.yul\":2120:2506   */\n      swap3\n      swap2\n      pop\n      pop\n      jump\t// out\n        /* \"#utility.yul\":2512:2783   */\n    tag_16:\n        /* \"#utility.yul\":2642:2645   */\n      0x00\n        /* \"#utility.yul\":2664:2757   */\n      tag_75\n        /* \"#utility.yul\":2753:2756   */\n      dup3\n        /* \"#utility.yul\":2744:2750   */\n      dup5\n        /* \"#utility.yul\":2664:2757   */\n      tag_37\n      jump\t// in\n    tag_75:\n        /* \"#utility.yul\":2657:2757   */\n      swap2\n      pop\n        /* \"#utility.yul\":2774:2777   */\n      dup2\n        /* \"#utility.yul\":2767:2777   */\n      swap1\n      pop\n        /* \"#utility.yul\":2512:2783   */\n      swap3\n      swap2\n      pop\n      pop\n      jump\t// out\n        /* \"#utility.yul\":2789:2958   */\n    tag_38:\n        /* \"#utility.yul\":2873:2884   */\n      0x00\n        /* \"#utility.yul\":2907:2913   */\n      dup3\n        /* \"#utility.yul\":2902:2905   */\n      dup3\n        /* \"#utility.yul\":2895:2914   */\n      mstore\n        /* \"#utility.yul\":2947:2951   */\n      0x20\n        /* \"#utility.yul\":2942:2945   */\n      dup3\n        /* \"#utility.yul\":2938:2952   */\n      add\n        /* \"#utility.yul\":2923:2952   */\n      swap1\n      pop\n        /* \"#utility.yul\":2789:2958   */\n      swap3\n      swap2\n      pop\n      pop\n      jump\t// out\n        /* \"#utility.yul\":2964:3124   */\n    tag_39:\n        /* \"#utility.yul\":3104:3116   */\n      0x63616c6c206572726f7200000000000000000000000000000000000000000000\n        /* \"#utility.yul\":3100:3101   */\n      0x00\n        /* \"#utility.yul\":3092:3098   */\n      dup3\n        /* \"#utility.yul\":3088:3102   */\n      add\n        /* \"#utility.yul\":3081:3117   */\n      mstore\n        /* \"#utility.yul\":2964:3124   */\n      pop\n      jump\t// out\n        /* \"#utility.yul\":3130:3496   */\n    tag_40:\n        /* \"#utility.yul\":3272:3275   */\n      0x00\n        /* \"#utility.yul\":3293:3360   */\n      tag_79\n        /* \"#utility.yul\":3357:3359   */\n      0x0a\n        /* \"#utility.yul\":3352:3355   */\n      dup4\n        /* \"#utility.yul\":3293:3360   */\n      tag_38\n      jump\t// in\n    tag_79:\n        /* \"#utility.yul\":3286:3360   */\n      swap2\n      pop\n        /* \"#utility.yul\":3369:3462   */\n      tag_80\n        /* \"#utility.yul\":3458:3461   */\n      dup3\n        /* \"#utility.yul\":3369:3462   */\n      tag_39\n      jump\t// in\n    tag_80:\n        /* \"#utility.yul\":3487:3489   */\n      0x20\n        /* \"#utility.yul\":3482:3485   */\n      dup3\n        /* \"#utility.yul\":3478:3490   */\n      add\n        /* \"#utility.yul\":3471:3490   */\n      swap1\n      pop\n        /* \"#utility.yul\":3130:3496   */\n      swap2\n      swap1\n      pop\n      jump\t// out\n        /* \"#utility.yul\":3502:3921   */\n    tag_22:\n        /* \"#utility.yul\":3668:3672   */\n      0x00\n        /* \"#utility.yul\":3706:3708   */\n      0x20\n        /* \"#utility.yul\":3695:3704   */\n      dup3\n        /* \"#utility.yul\":3691:3709   */\n      add\n        /* \"#utility.yul\":3683:3709   */\n      swap1\n      pop\n        /* \"#utility.yul\":3755:3764   */\n      dup2\n        /* \"#utility.yul\":3749:3753   */\n      dup2\n        /* \"#utility.yul\":3745:3765   */\n      sub\n        /* \"#utility.yul\":3741:3742   */\n      0x00\n        /* \"#utility.yul\":3730:3739   */\n      dup4\n        /* \"#utility.yul\":3726:3743   */\n      add\n        /* \"#utility.yul\":3719:3766   */\n      mstore\n        /* \"#utility.yul\":3783:3914   */\n      tag_82\n        /* \"#utility.yul\":3909:3913   */\n      dup2\n        /* \"#utility.yul\":3783:3914   */\n      tag_40\n      jump\t// in\n    tag_82:\n        /* \"#utility.yul\":3775:3914   */\n      swap1\n      pop\n        /* \"#utility.yul\":3502:3921   */\n      swap2\n      swap1\n      pop\n      jump\t// out\n        /* \"#utility.yul\":3927:4049   */\n    tag_41:\n        /* \"#utility.yul\":4000:4024   */\n      tag_84\n        /* \"#utility.yul\":4018:4023   */\n      dup2\n        /* \"#utility.yul\":4000:4024   */\n      tag_32\n      jump\t// in\n    tag_84:\n        /* \"#utility.yul\":3993:3998   */\n      dup2\n        /* \"#utility.yul\":3990:4025   */\n      eq\n        /* \"#utility.yul\":3980:4043   */\n      tag_85\n      jumpi\n        /* \"#utility.yul\":4039:4040   */\n      0x00\n        /* \"#utility.yul\":4036:4037   */\n      dup1\n        /* \"#utility.yul\":4029:4041   */\n      revert\n        /* \"#utility.yul\":3980:4043   */\n    tag_85:\n        /* \"#utility.yul\":3927:4049   */\n      pop\n      jump\t// out\n        /* \"#utility.yul\":4055:4198   */\n    tag_42:\n        /* \"#utility.yul\":4112:4117   */\n      0x00\n        /* \"#utility.yul\":4143:4149   */\n      dup2\n        /* \"#utility.yul\":4137:4150   */\n      mload\n        /* \"#utility.yul\":4128:4150   */\n      swap1\n      pop\n        /* \"#utility.yul\":4159:4192   */\n      tag_87\n        /* \"#utility.yul\":4186:4191   */\n      dup2\n        /* \"#utility.yul\":4159:4192   */\n      tag_41\n      jump\t// in\n    tag_87:\n        /* \"#utility.yul\":4055:4198   */\n      swap3\n      swap2\n      pop\n      pop\n      jump\t// out\n        /* \"#utility.yul\":4204:4555   */\n    tag_24:\n        /* \"#utility.yul\":4274:4280   */\n      0x00\n        /* \"#utility.yul\":4323:4325   */\n      0x20\n        /* \"#utility.yul\":4311:4320   */\n      dup3\n        /* \"#utility.yul\":4302:4309   */\n      dup5\n        /* \"#utility.yul\":4298:4321   */\n      sub\n        /* \"#utility.yul\":4294:4326   */\n      slt\n        /* \"#utility.yul\":4291:4410   */\n      iszero\n      tag_89\n      jumpi\n        /* \"#utility.yul\":4329:4408   */\n      tag_90\n      tag_26\n      jump\t// in\n    tag_90:\n        /* \"#utility.yul\":4291:4410   */\n    tag_89:\n        /* \"#utility.yul\":4449:4450   */\n      0x00\n        /* \"#utility.yul\":4474:4538   */\n      tag_91\n        /* \"#utility.yul\":4530:4537   */\n      dup5\n        /* \"#utility.yul\":4521:4527   */\n      dup3\n        /* \"#utility.yul\":4510:4519   */\n      dup6\n        /* \"#utility.yul\":4506:4528   */\n      add\n        /* \"#utility.yul\":4474:4538   */\n      tag_42\n      jump\t// in\n    tag_91:\n        /* \"#utility.yul\":4464:4538   */\n      swap2\n      pop\n        /* \"#utility.yul\":4420:4548   */\n      pop\n        /* \"#utility.yul\":4204:4555   */\n      swap3\n      swap2\n      pop\n      pop\n      jump\t// out\n\n    auxdata: 0xa2646970667358221220d7b6768ba2bc835ea20fb2aa86cd398c7ded1843480cdb5ac982bc1c2a59f21364736f6c63430008140033\n}\n",
				"bytecode": {
					"linkReferences": {},
					"object": "608060405234801561000f575f80fd5b506104198061001d5f395ff3fe608060405234801561000f575f80fd5b5060043610610034575f3560e01c80631be383fc146100385780634e70b1dc14610068575b5f80fd5b610052600480360381019061004d9190610238565b610086565b60405161005f919061027b565b60405180910390f35b6100706101d5565b60405161007d919061027b565b60405180910390f35b5f806040516024016040516020818303038152906040527fac3afa43000000000000000000000000000000000000000000000000000000007bffffffffffffffffffffffffffffffffffffffffffffffffffffffff19166020820180517bffffffffffffffffffffffffffffffffffffffffffffffffffffffff838183161783525050505090505f808473ffffffffffffffffffffffffffffffffffffffff16836040516101349190610300565b5f604051808303815f865af19150503d805f811461016d576040519150601f19603f3d011682016040523d82523d5f602084013e610172565b606091505b5091509150816101b7576040517f08c379a00000000000000000000000000000000000000000000000000000000081526004016101ae90610370565b60405180910390fd5b808060200190518101906101cb91906103b8565b9350505050919050565b5f5481565b5f80fd5b5f73ffffffffffffffffffffffffffffffffffffffff82169050919050565b5f610207826101de565b9050919050565b610217816101fd565b8114610221575f80fd5b50565b5f813590506102328161020e565b92915050565b5f6020828403121561024d5761024c6101da565b5b5f61025a84828501610224565b91505092915050565b5f819050919050565b61027581610263565b82525050565b5f60208201905061028e5f83018461026c565b92915050565b5f81519050919050565b5f81905092915050565b5f5b838110156102c55780820151818401526020810190506102aa565b5f8484015250505050565b5f6102da82610294565b6102e4818561029e565b93506102f48185602086016102a8565b80840191505092915050565b5f61030b82846102d0565b915081905092915050565b5f82825260208201905092915050565b7f63616c6c206572726f72000000000000000000000000000000000000000000005f82015250565b5f61035a600a83610316565b915061036582610326565b602082019050919050565b5f6020820190508181035f8301526103878161034e565b9050919050565b61039781610263565b81146103a1575f80fd5b50565b5f815190506103b28161038e565b92915050565b5f602082840312156103cd576103cc6101da565b5b5f6103da848285016103a4565b9150509291505056fea2646970667358221220d7b6768ba2bc835ea20fb2aa86cd398c7ded1843480cdb5ac982bc1c2a59f21364736f6c63430008140033",
					"opcodes": "PUSH1 0x80 PUSH1 0x40 MSTORE CALLVALUE DUP1 ISZERO PUSH2 0xF JUMPI PUSH0 DUP1 REVERT JUMPDEST POP PUSH2 0x419 DUP1 PUSH2 0x1D PUSH0 CODECOPY PUSH0 RETURN INVALID PUSH1 0x80 PUSH1 0x40 MSTORE CALLVALUE DUP1 ISZERO PUSH2 0xF JUMPI PUSH0 DUP1 REVERT JUMPDEST POP PUSH1 0x4 CALLDATASIZE LT PUSH2 0x34 JUMPI PUSH0 CALLDATALOAD PUSH1 0xE0 SHR DUP1 PUSH4 0x1BE383FC EQ PUSH2 0x38 JUMPI DUP1 PUSH4 0x4E70B1DC EQ PUSH2 0x68 JUMPI JUMPDEST PUSH0 DUP1 REVERT JUMPDEST PUSH2 0x52 PUSH1 0x4 DUP1 CALLDATASIZE SUB DUP2 ADD SWAP1 PUSH2 0x4D SWAP2 SWAP1 PUSH2 0x238 JUMP JUMPDEST PUSH2 0x86 JUMP JUMPDEST PUSH1 0x40 MLOAD PUSH2 0x5F SWAP2 SWAP1 PUSH2 0x27B JUMP JUMPDEST PUSH1 0x40 MLOAD DUP1 SWAP2 SUB SWAP1 RETURN JUMPDEST PUSH2 0x70 PUSH2 0x1D5 JUMP JUMPDEST PUSH1 0x40 MLOAD PUSH2 0x7D SWAP2 SWAP1 PUSH2 0x27B JUMP JUMPDEST PUSH1 0x40 MLOAD DUP1 SWAP2 SUB SWAP1 RETURN JUMPDEST PUSH0 DUP1 PUSH1 0x40 MLOAD PUSH1 0x24 ADD PUSH1 0x40 MLOAD PUSH1 0x20 DUP2 DUP4 SUB SUB DUP2 MSTORE SWAP1 PUSH1 0x40 MSTORE PUSH32 0xAC3AFA4300000000000000000000000000000000000000000000000000000000 PUSH28 0xFFFFFFFFFFFFFFFFFFFFFFFFFFFFFFFFFFFFFFFFFFFFFFFFFFFFFFFF NOT AND PUSH1 0x20 DUP3 ADD DUP1 MLOAD PUSH28 0xFFFFFFFFFFFFFFFFFFFFFFFFFFFFFFFFFFFFFFFFFFFFFFFFFFFFFFFF DUP4 DUP2 DUP4 AND OR DUP4 MSTORE POP POP POP POP SWAP1 POP PUSH0 DUP1 DUP5 PUSH20 0xFFFFFFFFFFFFFFFFFFFFFFFFFFFFFFFFFFFFFFFF AND DUP4 PUSH1 0x40 MLOAD PUSH2 0x134 SWAP2 SWAP1 PUSH2 0x300 JUMP JUMPDEST PUSH0 PUSH1 0x40 MLOAD DUP1 DUP4 SUB DUP2 PUSH0 DUP7 GAS CALL SWAP2 POP POP RETURNDATASIZE DUP1 PUSH0 DUP2 EQ PUSH2 0x16D JUMPI PUSH1 0x40 MLOAD SWAP2 POP PUSH1 0x1F NOT PUSH1 0x3F RETURNDATASIZE ADD AND DUP3 ADD PUSH1 0x40 MSTORE RETURNDATASIZE DUP3 MSTORE RETURNDATASIZE PUSH0 PUSH1 0x20 DUP5 ADD RETURNDATACOPY PUSH2 0x172 JUMP JUMPDEST PUSH1 0x60 SWAP2 POP JUMPDEST POP SWAP2 POP SWAP2 POP DUP2 PUSH2 0x1B7 JUMPI PUSH1 0x40 MLOAD PUSH32 0x8C379A000000000000000000000000000000000000000000000000000000000 DUP2 MSTORE PUSH1 0x4 ADD PUSH2 0x1AE SWAP1 PUSH2 0x370 JUMP JUMPDEST PUSH1 0x40 MLOAD DUP1 SWAP2 SUB SWAP1 REVERT JUMPDEST DUP1 DUP1 PUSH1 0x20 ADD SWAP1 MLOAD DUP2 ADD SWAP1 PUSH2 0x1CB SWAP2 SWAP1 PUSH2 0x3B8 JUMP JUMPDEST SWAP4 POP POP POP POP SWAP2 SWAP1 POP JUMP JUMPDEST PUSH0 SLOAD DUP2 JUMP JUMPDEST PUSH0 DUP1 REVERT JUMPDEST PUSH0 PUSH20 0xFFFFFFFFFFFFFFFFFFFFFFFFFFFFFFFFFFFFFFFF DUP3 AND SWAP1 POP SWAP2 SWAP1 POP JUMP JUMPDEST PUSH0 PUSH2 0x207 DUP3 PUSH2 0x1DE JUMP JUMPDEST SWAP1 POP SWAP2 SWAP1 POP JUMP JUMPDEST PUSH2 0x217 DUP2 PUSH2 0x1FD JUMP JUMPDEST DUP2 EQ PUSH2 0x221 JUMPI PUSH0 DUP1 REVERT JUMPDEST POP JUMP JUMPDEST PUSH0 DUP2 CALLDATALOAD SWAP1 POP PUSH2 0x232 DUP2 PUSH2 0x20E JUMP JUMPDEST SWAP3 SWAP2 POP POP JUMP JUMPDEST PUSH0 PUSH1 0x20 DUP3 DUP5 SUB SLT ISZERO PUSH2 0x24D JUMPI PUSH2 0x24C PUSH2 0x1DA JUMP JUMPDEST JUMPDEST PUSH0 PUSH2 0x25A DUP5 DUP3 DUP6 ADD PUSH2 0x224 JUMP JUMPDEST SWAP2 POP POP SWAP3 SWAP2 POP POP JUMP JUMPDEST PUSH0 DUP2 SWAP1 POP SWAP2 SWAP1 POP JUMP JUMPDEST PUSH2 0x275 DUP2 PUSH2 0x263 JUMP JUMPDEST DUP3 MSTORE POP POP JUMP JUMPDEST PUSH0 PUSH1 0x20 DUP3 ADD SWAP1 POP PUSH2 0x28E PUSH0 DUP4 ADD DUP5 PUSH2 0x26C JUMP JUMPDEST SWAP3 SWAP2 POP POP JUMP JUMPDEST PUSH0 DUP2 MLOAD SWAP1 POP SWAP2 SWAP1 POP JUMP JUMPDEST PUSH0 DUP2 SWAP1 POP SWAP3 SWAP2 POP POP JUMP JUMPDEST PUSH0 JUMPDEST DUP4 DUP2 LT ISZERO PUSH2 0x2C5 JUMPI DUP1 DUP3 ADD MLOAD DUP2 DUP5 ADD MSTORE PUSH1 0x20 DUP2 ADD SWAP1 POP PUSH2 0x2AA JUMP JUMPDEST PUSH0 DUP5 DUP5 ADD MSTORE POP POP POP POP JUMP JUMPDEST PUSH0 PUSH2 0x2DA DUP3 PUSH2 0x294 JUMP JUMPDEST PUSH2 0x2E4 DUP2 DUP6 PUSH2 0x29E JUMP JUMPDEST SWAP4 POP PUSH2 0x2F4 DUP2 DUP6 PUSH1 0x20 DUP7 ADD PUSH2 0x2A8 JUMP JUMPDEST DUP1 DUP5 ADD SWAP2 POP POP SWAP3 SWAP2 POP POP JUMP JUMPDEST PUSH0 PUSH2 0x30B DUP3 DUP5 PUSH2 0x2D0 JUMP JUMPDEST SWAP2 POP DUP2 SWAP1 POP SWAP3 SWAP2 POP POP JUMP JUMPDEST PUSH0 DUP3 DUP3 MSTORE PUSH1 0x20 DUP3 ADD SWAP1 POP SWAP3 SWAP2 POP POP JUMP JUMPDEST PUSH32 0x63616C6C206572726F7200000000000000000000000000000000000000000000 PUSH0 DUP3 ADD MSTORE POP JUMP JUMPDEST PUSH0 PUSH2 0x35A PUSH1 0xA DUP4 PUSH2 0x316 JUMP JUMPDEST SWAP2 POP PUSH2 0x365 DUP3 PUSH2 0x326 JUMP JUMPDEST PUSH1 0x20 DUP3 ADD SWAP1 POP SWAP2 SWAP1 POP JUMP JUMPDEST PUSH0 PUSH1 0x20 DUP3 ADD SWAP1 POP DUP2 DUP2 SUB PUSH0 DUP4 ADD MSTORE PUSH2 0x387 DUP2 PUSH2 0x34E JUMP JUMPDEST SWAP1 POP SWAP2 SWAP1 POP JUMP JUMPDEST PUSH2 0x397 DUP2 PUSH2 0x263 JUMP JUMPDEST DUP2 EQ PUSH2 0x3A1 JUMPI PUSH0 DUP1 REVERT JUMPDEST POP JUMP JUMPDEST PUSH0 DUP2 MLOAD SWAP1 POP PUSH2 0x3B2 DUP2 PUSH2 0x38E JUMP JUMPDEST SWAP3 SWAP2 POP POP JUMP JUMPDEST PUSH0 PUSH1 0x20 DUP3 DUP5 SUB SLT ISZERO PUSH2 0x3CD JUMPI PUSH2 0x3CC PUSH2 0x1DA JUMP JUMPDEST JUMPDEST PUSH0 PUSH2 0x3DA DUP5 DUP3 DUP6 ADD PUSH2 0x3A4 JUMP JUMPDEST SWAP2 POP POP SWAP3 SWAP2 POP POP JUMP INVALID LOG2 PUSH5 0x6970667358 0x22 SLT KECCAK256 0xD7 0xB6 PUSH23 0x8BA2BC835EA20FB2AA86CD398C7DED1843480CDB5AC982 0xBC SHR 0x2A MSIZE CALLCODE SGT PUSH5 0x736F6C6343 STOP ADDMOD EQ STOP CALLER "
				},
				"gasEstimates": {
					"creation": {
						"codeDepositCost": "209800",
						"executionCost": "249",
						"totalCost": "210049"
					},
					"external": {
						"num()": "2424",
						"setNum(address)": "infinite"
					}
				},
				"methodIdentifiers": {
					"num()": "4e70b1dc",
					"setNum(address)": "1be383fc"
				}
			},
			"storageLayout": {
				"storage": [
					{
						"astId": 48,
						"contract": "contracts/Demo1.sol:Demo2",
						"label": "num",
						"offset": 0,
						"slot": "0",
						"type": "t_uint256"
					}
				],
				"types": {
					"t_uint256": {
						"encoding": "inplace",
						"label": "uint256",
						"numberOfBytes": "32"
					}
				}
			},
			"userdoc": {
				"kind": "user",
				"methods": {},
				"version": 1
			}
		}
	}
}