{
	"contracts/DemoV2.sol": {
		"Demo": {
			"abi": [
				{
					"inputs": [],
					"name": "InvalidInitialization",
					"type": "error"
				},
				{
					"inputs": [],
					"name": "NotInitializing",
					"type": "error"
				},
				{
					"anonymous": false,
					"inputs": [
						{
							"indexed": false,
							"internalType": "uint64",
							"name": "version",
							"type": "uint64"
						}
					],
					"name": "Initialized",
					"type": "event"
				},
				{
					"inputs": [],
					"name": "getNumber",
					"outputs": [
						{
							"internalType": "uint256",
							"name": "",
							"type": "uint256"
						}
					],
					"stateMutability": "view",
					"type": "function"
				},
				{
					"inputs": [],
					"name": "getNumber1",
					"outputs": [
						{
							"internalType": "uint256",
							"name": "",
							"type": "uint256"
						}
					],
					"stateMutability": "view",
					"type": "function"
				},
				{
					"inputs": [
						{
							"internalType": "string",
							"name": "str",
							"type": "string"
						},
						{
							"internalType": "uint256",
							"name": "value",
							"type": "uint256"
						}
					],
					"name": "getSign",
					"outputs": [
						{
							"internalType": "bytes",
							"name": "",
							"type": "bytes"
						}
					],
					"stateMutability": "pure",
					"type": "function"
				},
				{
					"inputs": [
						{
							"internalType": "uint256",
							"name": "_number",
							"type": "uint256"
						}
					],
					"name": "initialize",
					"outputs": [],
					"stateMutability": "nonpayable",
					"type": "function"
				},
				{
					"inputs": [],
					"name": "number",
					"outputs": [
						{
							"internalType": "uint256",
							"name": "",
							"type": "uint256"
						}
					],
					"stateMutability": "view",
					"type": "function"
				},
				{
					"inputs": [],
					"name": "number1",
					"outputs": [
						{
							"internalType": "uint256",
							"name": "",
							"type": "uint256"
						}
					],
					"stateMutability": "view",
					"type": "function"
				},
				{
					"inputs": [],
					"name": "setNumber",
					"outputs": [],
					"stateMutability": "nonpayable",
					"type": "function"
				},
				{
					"inputs": [],
					"name": "setNumber1",
					"outputs": [],
					"stateMutability": "nonpayable",
					"type": "function"
				}
			],
			"devdoc": {
				"errors": {
					"InvalidInitialization()": [
						{
							"details": "The contract is already initialized."
						}
					],
					"NotInitializing()": [
						{
							"details": "The contract is not initializing."
						}
					]
				},
				"events": {
					"Initialized(uint64)": {
						"details": "Triggered when the contract has been initialized or reinitialized."
					}
				},
				"kind": "dev",
				"methods": {},
				"version": 1
			},
			"evm": {
				"assembly": "    /* \"contracts/DemoV2.sol\":164:878  contract Demo is Initializable{... */\n  mstore(0x40, 0x80)\n  callvalue\n  dup1\n  iszero\n  tag_1\n  jumpi\n  0x00\n  dup1\n  revert\ntag_1:\n  pop\n  dataSize(sub_0)\n  dup1\n  dataOffset(sub_0)\n  0x00\n  codecopy\n  0x00\n  return\nstop\n\nsub_0: assembly {\n        /* \"contracts/DemoV2.sol\":164:878  contract Demo is Initializable{... */\n      mstore(0x40, 0x80)\n      callvalue\n      dup1\n      iszero\n      tag_1\n      jumpi\n      0x00\n      dup1\n      revert\n    tag_1:\n      pop\n      jumpi(tag_2, lt(calldatasize, 0x04))\n      shr(0xe0, calldataload(0x00))\n      dup1\n      0x9e911f4c\n      gt\n      tag_11\n      jumpi\n      dup1\n      0x9e911f4c\n      eq\n      tag_7\n      jumpi\n      dup1\n      0xc223a39e\n      eq\n      tag_8\n      jumpi\n      dup1\n      0xf2c9ecd8\n      eq\n      tag_9\n      jumpi\n      dup1\n      0xfe4b84df\n      eq\n      tag_10\n      jumpi\n      jump(tag_2)\n    tag_11:\n      dup1\n      0x3aeb111a\n      eq\n      tag_3\n      jumpi\n      dup1\n      0x4154b243\n      eq\n      tag_4\n      jumpi\n      dup1\n      0x8381f58a\n      eq\n      tag_5\n      jumpi\n      dup1\n      0x94f37149\n      eq\n      tag_6\n      jumpi\n    tag_2:\n      0x00\n      dup1\n      revert\n        /* \"contracts/DemoV2.sol\":617:683  function setNumber1() public{... */\n    tag_3:\n      tag_12\n      tag_13\n      jump\t// in\n    tag_12:\n      stop\n        /* \"contracts/DemoV2.sol\":454:519  function setNumber() public{... */\n    tag_4:\n      tag_14\n      tag_15\n      jump\t// in\n    tag_14:\n      stop\n        /* \"contracts/DemoV2.sol\":201:222  uint256 public number */\n    tag_5:\n      tag_16\n      tag_17\n      jump\t// in\n    tag_16:\n      mload(0x40)\n      tag_18\n      swap2\n      swap1\n      tag_19\n      jump\t// in\n    tag_18:\n      mload(0x40)\n      dup1\n      swap2\n      sub\n      swap1\n      return\n        /* \"contracts/DemoV2.sol\":691:875  function getSign(string memory str,uint256 value) public pure returns(bytes memory){... */\n    tag_6:\n      tag_20\n      0x04\n      dup1\n      calldatasize\n      sub\n      dup2\n      add\n      swap1\n      tag_21\n      swap2\n      swap1\n      tag_22\n      jump\t// in\n    tag_21:\n      tag_23\n      jump\t// in\n    tag_20:\n      mload(0x40)\n      tag_24\n      swap2\n      swap1\n      tag_25\n      jump\t// in\n    tag_24:\n      mload(0x40)\n      dup1\n      swap2\n      sub\n      swap1\n      return\n        /* \"contracts/DemoV2.sol\":527:609  function getNumber1() public view returns(uint256){... */\n    tag_7:\n      tag_26\n      tag_27\n      jump\t// in\n    tag_26:\n      mload(0x40)\n      tag_28\n      swap2\n      swap1\n      tag_19\n      jump\t// in\n    tag_28:\n      mload(0x40)\n      dup1\n      swap2\n      sub\n      swap1\n      return\n        /* \"contracts/DemoV2.sol\":229:251  uint256 public number1 */\n    tag_8:\n      tag_29\n      tag_30\n      jump\t// in\n    tag_29:\n      mload(0x40)\n      tag_31\n      swap2\n      swap1\n      tag_19\n      jump\t// in\n    tag_31:\n      mload(0x40)\n      dup1\n      swap2\n      sub\n      swap1\n      return\n        /* \"contracts/DemoV2.sol\":365:446  function getNumber() public view returns(uint256){... */\n    tag_9:\n      tag_32\n      tag_33\n      jump\t// in\n    tag_32:\n      mload(0x40)\n      tag_34\n      swap2\n      swap1\n      tag_19\n      jump\t// in\n    tag_34:\n      mload(0x40)\n      dup1\n      swap2\n      sub\n      swap1\n      return\n        /* \"contracts/DemoV2.sol\":260:357  function initialize(uint256 _number) public reinitializer(2) {... */\n    tag_10:\n      tag_35\n      0x04\n      dup1\n      calldatasize\n      sub\n      dup2\n      add\n      swap1\n      tag_36\n      swap2\n      swap1\n      tag_37\n      jump\t// in\n    tag_36:\n      tag_38\n      jump\t// in\n    tag_35:\n      stop\n        /* \"contracts/DemoV2.sol\":617:683  function setNumber1() public{... */\n    tag_13:\n        /* \"contracts/DemoV2.sol\":674:675  1 */\n      0x01\n        /* \"contracts/DemoV2.sol\":665:671  number */\n      sload(0x00)\n        /* \"contracts/DemoV2.sol\":665:675  number + 1 */\n      tag_40\n      swap2\n      swap1\n      tag_41\n      jump\t// in\n    tag_40:\n        /* \"contracts/DemoV2.sol\":656:662  number */\n      0x00\n        /* \"contracts/DemoV2.sol\":656:675  number = number + 1 */\n      dup2\n      swap1\n      sstore\n      pop\n        /* \"contracts/DemoV2.sol\":617:683  function setNumber1() public{... */\n      jump\t// out\n        /* \"contracts/DemoV2.sol\":454:519  function setNumber() public{... */\n    tag_15:\n        /* \"contracts/DemoV2.sol\":510:511  1 */\n      0x01\n        /* \"contracts/DemoV2.sol\":501:507  number */\n      sload(0x00)\n        /* \"contracts/DemoV2.sol\":501:511  number + 1 */\n      tag_43\n      swap2\n      swap1\n      tag_41\n      jump\t// in\n    tag_43:\n        /* \"contracts/DemoV2.sol\":492:498  number */\n      0x00\n        /* \"contracts/DemoV2.sol\":492:511  number = number + 1 */\n      dup2\n      swap1\n      sstore\n      pop\n        /* \"contracts/DemoV2.sol\":454:519  function setNumber() public{... */\n      jump\t// out\n        /* \"contracts/DemoV2.sol\":201:222  uint256 public number */\n    tag_17:\n      sload(0x00)\n      dup2\n      jump\t// out\n        /* \"contracts/DemoV2.sol\":691:875  function getSign(string memory str,uint256 value) public pure returns(bytes memory){... */\n    tag_23:\n        /* \"contracts/DemoV2.sol\":761:773  bytes memory */\n      0x60\n        /* \"contracts/DemoV2.sol\":801:802  0 */\n      0x00\n        /* \"contracts/DemoV2.sol\":792:797  value */\n      dup3\n        /* \"contracts/DemoV2.sol\":792:802  value == 0 */\n      eq\n        /* \"contracts/DemoV2.sol\":792:867  value == 0 ?abi.encodeWithSignature(str):abi.encodeWithSignature(str,value) */\n      tag_45\n      jumpi\n        /* \"contracts/DemoV2.sol\":857:860  str */\n      dup3\n        /* \"contracts/DemoV2.sol\":861:866  value */\n      dup3\n        /* \"contracts/DemoV2.sol\":833:867  abi.encodeWithSignature(str,value) */\n      add(0x24, mload(0x40))\n      tag_46\n      swap2\n      swap1\n      tag_19\n      jump\t// in\n    tag_46:\n      mload(0x40)\n      0x20\n      dup2\n      dup4\n      sub\n      sub\n      dup2\n      mstore\n      swap1\n      0x40\n      mstore\n      swap1\n      mload(0x40)\n      tag_47\n      swap2\n      swap1\n      tag_48\n      jump\t// in\n    tag_47:\n      mload(0x40)\n      dup1\n      swap2\n      sub\n      swap1\n      keccak256\n      not(0xffffffffffffffffffffffffffffffffffffffffffffffffffffffff)\n      and\n      0x20\n      dup3\n      add\n      dup1\n      mload\n      0xffffffffffffffffffffffffffffffffffffffffffffffffffffffff\n      dup4\n      dup2\n      dup4\n      and\n      or\n      dup4\n      mstore\n      pop\n      pop\n      pop\n      pop\n        /* \"contracts/DemoV2.sol\":792:867  value == 0 ?abi.encodeWithSignature(str):abi.encodeWithSignature(str,value) */\n      jump(tag_49)\n    tag_45:\n        /* \"contracts/DemoV2.sol\":828:831  str */\n      dup3\n        /* \"contracts/DemoV2.sol\":804:832  abi.encodeWithSignature(str) */\n      add(0x24, mload(0x40))\n      mload(0x40)\n      0x20\n      dup2\n      dup4\n      sub\n      sub\n      dup2\n      mstore\n      swap1\n      0x40\n      mstore\n      swap1\n      mload(0x40)\n      tag_50\n      swap2\n      swap1\n      tag_48\n      jump\t// in\n    tag_50:\n      mload(0x40)\n      dup1\n      swap2\n      sub\n      swap1\n      keccak256\n      not(0xffffffffffffffffffffffffffffffffffffffffffffffffffffffff)\n      and\n      0x20\n      dup3\n      add\n      dup1\n      mload\n      0xffffffffffffffffffffffffffffffffffffffffffffffffffffffff\n      dup4\n      dup2\n      dup4\n      and\n      or\n      dup4\n      mstore\n      pop\n      pop\n      pop\n      pop\n        /* \"contracts/DemoV2.sol\":792:867  value == 0 ?abi.encodeWithSignature(str):abi.encodeWithSignature(str,value) */\n    tag_49:\n        /* \"contracts/DemoV2.sol\":785:867  return value == 0 ?abi.encodeWithSignature(str):abi.encodeWithSignature(str,value) */\n      swap1\n      pop\n        /* \"contracts/DemoV2.sol\":691:875  function getSign(string memory str,uint256 value) public pure returns(bytes memory){... */\n      swap3\n      swap2\n      pop\n      pop\n      jump\t// out\n        /* \"contracts/DemoV2.sol\":527:609  function getNumber1() public view returns(uint256){... */\n    tag_27:\n        /* \"contracts/DemoV2.sol\":569:576  uint256 */\n      0x00\n        /* \"contracts/DemoV2.sol\":595:601  number */\n      dup1\n      sload\n        /* \"contracts/DemoV2.sol\":588:601  return number */\n      swap1\n      pop\n        /* \"contracts/DemoV2.sol\":527:609  function getNumber1() public view returns(uint256){... */\n      swap1\n      jump\t// out\n        /* \"contracts/DemoV2.sol\":229:251  uint256 public number1 */\n    tag_30:\n      sload(0x01)\n      dup2\n      jump\t// out\n        /* \"contracts/DemoV2.sol\":365:446  function getNumber() public view returns(uint256){... */\n    tag_33:\n        /* \"contracts/DemoV2.sol\":406:413  uint256 */\n      0x00\n        /* \"contracts/DemoV2.sol\":432:438  number */\n      dup1\n      sload\n        /* \"contracts/DemoV2.sol\":425:438  return number */\n      swap1\n      pop\n        /* \"contracts/DemoV2.sol\":365:446  function getNumber() public view returns(uint256){... */\n      swap1\n      jump\t// out\n        /* \"contracts/DemoV2.sol\":260:357  function initialize(uint256 _number) public reinitializer(2) {... */\n    tag_38:\n        /* \"contracts/DemoV2.sol\":318:319  2 */\n      0x02\n        /* \"@openzeppelin/contracts/proxy/utils/Initializable.sol\":6357:6387  InitializableStorage storage $ */\n      0x00\n        /* \"@openzeppelin/contracts/proxy/utils/Initializable.sol\":6390:6416  _getInitializableStorage() */\n      tag_54\n        /* \"@openzeppelin/contracts/proxy/utils/Initializable.sol\":6390:6414  _getInitializableStorage */\n      tag_55\n        /* \"@openzeppelin/contracts/proxy/utils/Initializable.sol\":6390:6416  _getInitializableStorage() */\n      jump\t// in\n    tag_54:\n        /* \"@openzeppelin/contracts/proxy/utils/Initializable.sol\":6357:6416  InitializableStorage storage $ = _getInitializableStorage() */\n      swap1\n      pop\n        /* \"@openzeppelin/contracts/proxy/utils/Initializable.sol\":6431:6432  $ */\n      dup1\n        /* \"@openzeppelin/contracts/proxy/utils/Initializable.sol\":6431:6446  $._initializing */\n      0x00\n      add\n      0x08\n      swap1\n      sload\n      swap1\n      0x0100\n      exp\n      swap1\n      div\n      0xff\n      and\n        /* \"@openzeppelin/contracts/proxy/utils/Initializable.sol\":6431:6475  $._initializing || $._initialized >= version */\n      dup1\n      tag_56\n      jumpi\n      pop\n        /* \"@openzeppelin/contracts/proxy/utils/Initializable.sol\":6468:6475  version */\n      dup2\n        /* \"@openzeppelin/contracts/proxy/utils/Initializable.sol\":6450:6475  $._initialized >= version */\n      0xffffffffffffffff\n      and\n        /* \"@openzeppelin/contracts/proxy/utils/Initializable.sol\":6450:6451  $ */\n      dup2\n        /* \"@openzeppelin/contracts/proxy/utils/Initializable.sol\":6450:6464  $._initialized */\n      0x00\n      add\n      0x00\n      swap1\n      sload\n      swap1\n      0x0100\n      exp\n      swap1\n      div\n      0xffffffffffffffff\n      and\n        /* \"@openzeppelin/contracts/proxy/utils/Initializable.sol\":6450:6475  $._initialized >= version */\n      0xffffffffffffffff\n      and\n      lt\n      iszero\n        /* \"@openzeppelin/contracts/proxy/utils/Initializable.sol\":6431:6475  $._initializing || $._initialized >= version */\n    tag_56:\n        /* \"@openzeppelin/contracts/proxy/utils/Initializable.sol\":6427:6532  if ($._initializing || $._initialized >= version) {... */\n      iszero\n      tag_57\n      jumpi\n        /* \"@openzeppelin/contracts/proxy/utils/Initializable.sol\":6498:6521  InvalidInitialization() */\n      mload(0x40)\n      0xf92ee8a900000000000000000000000000000000000000000000000000000000\n      dup2\n      mstore\n      0x04\n      add\n      mload(0x40)\n      dup1\n      swap2\n      sub\n      swap1\n      revert\n        /* \"@openzeppelin/contracts/proxy/utils/Initializable.sol\":6427:6532  if ($._initializing || $._initialized >= version) {... */\n    tag_57:\n        /* \"@openzeppelin/contracts/proxy/utils/Initializable.sol\":6558:6565  version */\n      dup2\n        /* \"@openzeppelin/contracts/proxy/utils/Initializable.sol\":6541:6542  $ */\n      dup2\n        /* \"@openzeppelin/contracts/proxy/utils/Initializable.sol\":6541:6555  $._initialized */\n      0x00\n      add\n      0x00\n        /* \"@openzeppelin/contracts/proxy/utils/Initializable.sol\":6541:6565  $._initialized = version */\n      0x0100\n      exp\n      dup2\n      sload\n      dup2\n      0xffffffffffffffff\n      mul\n      not\n      and\n      swap1\n      dup4\n      0xffffffffffffffff\n      and\n      mul\n      or\n      swap1\n      sstore\n      pop\n        /* \"@openzeppelin/contracts/proxy/utils/Initializable.sol\":6593:6597  true */\n      0x01\n        /* \"@openzeppelin/contracts/proxy/utils/Initializable.sol\":6575:6576  $ */\n      dup2\n        /* \"@openzeppelin/contracts/proxy/utils/Initializable.sol\":6575:6590  $._initializing */\n      0x00\n      add\n      0x08\n        /* \"@openzeppelin/contracts/proxy/utils/Initializable.sol\":6575:6597  $._initializing = true */\n      0x0100\n      exp\n      dup2\n      sload\n      dup2\n      0xff\n      mul\n      not\n      and\n      swap1\n      dup4\n      iszero\n      iszero\n      mul\n      or\n      swap1\n      sstore\n      pop\n        /* \"contracts/DemoV2.sol\":342:349  _number */\n      dup3\n        /* \"contracts/DemoV2.sol\":332:339  number1 */\n      0x01\n        /* \"contracts/DemoV2.sol\":332:349  number1 = _number */\n      dup2\n      swap1\n      sstore\n      pop\n        /* \"@openzeppelin/contracts/proxy/utils/Initializable.sol\":6636:6641  false */\n      0x00\n        /* \"@openzeppelin/contracts/proxy/utils/Initializable.sol\":6618:6619  $ */\n      dup2\n        /* \"@openzeppelin/contracts/proxy/utils/Initializable.sol\":6618:6633  $._initializing */\n      0x00\n      add\n      0x08\n        /* \"@openzeppelin/contracts/proxy/utils/Initializable.sol\":6618:6641  $._initializing = false */\n      0x0100\n      exp\n      dup2\n      sload\n      dup2\n      0xff\n      mul\n      not\n      and\n      swap1\n      dup4\n      iszero\n      iszero\n      mul\n      or\n      swap1\n      sstore\n      pop\n        /* \"@openzeppelin/contracts/proxy/utils/Initializable.sol\":6656:6676  Initialized(version) */\n      0xc7f505b2f371ae2175ee4913f4499e1f2633a7b5936321eed1cdaeb6115181d2\n        /* \"@openzeppelin/contracts/proxy/utils/Initializable.sol\":6668:6675  version */\n      dup3\n        /* \"@openzeppelin/contracts/proxy/utils/Initializable.sol\":6656:6676  Initialized(version) */\n      mload(0x40)\n      tag_59\n      swap2\n      swap1\n      tag_60\n      jump\t// in\n    tag_59:\n      mload(0x40)\n      dup1\n      swap2\n      sub\n      swap1\n      log1\n        /* \"@openzeppelin/contracts/proxy/utils/Initializable.sol\":6291:6683  {... */\n      pop\n        /* \"contracts/DemoV2.sol\":260:357  function initialize(uint256 _number) public reinitializer(2) {... */\n      pop\n      pop\n      jump\t// out\n        /* \"@openzeppelin/contracts/proxy/utils/Initializable.sol\":8737:8907  function _getInitializableStorage() private pure returns (InitializableStorage storage $) {... */\n    tag_55:\n        /* \"@openzeppelin/contracts/proxy/utils/Initializable.sol\":8795:8825  InitializableStorage storage $ */\n      0x00\n        /* \"@openzeppelin/contracts/proxy/utils/Initializable.sol\":8870:8891  INITIALIZABLE_STORAGE */\n      0xf0c57e16840df040f15088dc2f81fe391c3923bec73e23a9662efc9c229c6a00\n        /* \"@openzeppelin/contracts/proxy/utils/Initializable.sol\":8860:8891  $.slot := INITIALIZABLE_STORAGE */\n      swap1\n      pop\n        /* \"@openzeppelin/contracts/proxy/utils/Initializable.sol\":8737:8907  function _getInitializableStorage() private pure returns (InitializableStorage storage $) {... */\n      swap1\n      jump\t// out\n        /* \"#utility.yul\":7:84   */\n    tag_62:\n        /* \"#utility.yul\":44:51   */\n      0x00\n        /* \"#utility.yul\":73:78   */\n      dup2\n        /* \"#utility.yul\":62:78   */\n      swap1\n      pop\n        /* \"#utility.yul\":7:84   */\n      swap2\n      swap1\n      pop\n      jump\t// out\n        /* \"#utility.yul\":90:208   */\n    tag_63:\n        /* \"#utility.yul\":177:201   */\n      tag_92\n        /* \"#utility.yul\":195:200   */\n      dup2\n        /* \"#utility.yul\":177:201   */\n      tag_62\n      jump\t// in\n    tag_92:\n        /* \"#utility.yul\":172:175   */\n      dup3\n        /* \"#utility.yul\":165:202   */\n      mstore\n        /* \"#utility.yul\":90:208   */\n      pop\n      pop\n      jump\t// out\n        /* \"#utility.yul\":214:436   */\n    tag_19:\n        /* \"#utility.yul\":307:311   */\n      0x00\n        /* \"#utility.yul\":345:347   */\n      0x20\n        /* \"#utility.yul\":334:343   */\n      dup3\n        /* \"#utility.yul\":330:348   */\n      add\n        /* \"#utility.yul\":322:348   */\n      swap1\n      pop\n        /* \"#utility.yul\":358:429   */\n      tag_94\n        /* \"#utility.yul\":426:427   */\n      0x00\n        /* \"#utility.yul\":415:424   */\n      dup4\n        /* \"#utility.yul\":411:428   */\n      add\n        /* \"#utility.yul\":402:408   */\n      dup5\n        /* \"#utility.yul\":358:429   */\n      tag_63\n      jump\t// in\n    tag_94:\n        /* \"#utility.yul\":214:436   */\n      swap3\n      swap2\n      pop\n      pop\n      jump\t// out\n        /* \"#utility.yul\":442:517   */\n    tag_64:\n        /* \"#utility.yul\":475:481   */\n      0x00\n        /* \"#utility.yul\":508:510   */\n      0x40\n        /* \"#utility.yul\":502:511   */\n      mload\n        /* \"#utility.yul\":492:511   */\n      swap1\n      pop\n        /* \"#utility.yul\":442:517   */\n      swap1\n      jump\t// out\n        /* \"#utility.yul\":523:640   */\n    tag_65:\n        /* \"#utility.yul\":632:633   */\n      0x00\n        /* \"#utility.yul\":629:630   */\n      dup1\n        /* \"#utility.yul\":622:634   */\n      revert\n        /* \"#utility.yul\":646:763   */\n    tag_66:\n        /* \"#utility.yul\":755:756   */\n      0x00\n        /* \"#utility.yul\":752:753   */\n      dup1\n        /* \"#utility.yul\":745:757   */\n      revert\n        /* \"#utility.yul\":769:886   */\n    tag_67:\n        /* \"#utility.yul\":878:879   */\n      0x00\n        /* \"#utility.yul\":875:876   */\n      dup1\n        /* \"#utility.yul\":868:880   */\n      revert\n        /* \"#utility.yul\":892:1009   */\n    tag_68:\n        /* \"#utility.yul\":1001:1002   */\n      0x00\n        /* \"#utility.yul\":998:999   */\n      dup1\n        /* \"#utility.yul\":991:1003   */\n      revert\n        /* \"#utility.yul\":1015:1117   */\n    tag_69:\n        /* \"#utility.yul\":1056:1062   */\n      0x00\n        /* \"#utility.yul\":1107:1109   */\n      0x1f\n        /* \"#utility.yul\":1103:1110   */\n      not\n        /* \"#utility.yul\":1098:1100   */\n      0x1f\n        /* \"#utility.yul\":1091:1096   */\n      dup4\n        /* \"#utility.yul\":1087:1101   */\n      add\n        /* \"#utility.yul\":1083:1111   */\n      and\n        /* \"#utility.yul\":1073:1111   */\n      swap1\n      pop\n        /* \"#utility.yul\":1015:1117   */\n      swap2\n      swap1\n      pop\n      jump\t// out\n        /* \"#utility.yul\":1123:1303   */\n    tag_70:\n        /* \"#utility.yul\":1171:1248   */\n      0x4e487b7100000000000000000000000000000000000000000000000000000000\n        /* \"#utility.yul\":1168:1169   */\n      0x00\n        /* \"#utility.yul\":1161:1249   */\n      mstore\n        /* \"#utility.yul\":1268:1272   */\n      0x41\n        /* \"#utility.yul\":1265:1266   */\n      0x04\n        /* \"#utility.yul\":1258:1273   */\n      mstore\n        /* \"#utility.yul\":1292:1296   */\n      0x24\n        /* \"#utility.yul\":1289:1290   */\n      0x00\n        /* \"#utility.yul\":1282:1297   */\n      revert\n        /* \"#utility.yul\":1309:1590   */\n    tag_71:\n        /* \"#utility.yul\":1392:1419   */\n      tag_103\n        /* \"#utility.yul\":1414:1418   */\n      dup3\n        /* \"#utility.yul\":1392:1419   */\n      tag_69\n      jump\t// in\n    tag_103:\n        /* \"#utility.yul\":1384:1390   */\n      dup2\n        /* \"#utility.yul\":1380:1420   */\n      add\n        /* \"#utility.yul\":1522:1528   */\n      dup2\n        /* \"#utility.yul\":1510:1520   */\n      dup2\n        /* \"#utility.yul\":1507:1529   */\n      lt\n        /* \"#utility.yul\":1486:1504   */\n      0xffffffffffffffff\n        /* \"#utility.yul\":1474:1484   */\n      dup3\n        /* \"#utility.yul\":1471:1505   */\n      gt\n        /* \"#utility.yul\":1468:1530   */\n      or\n        /* \"#utility.yul\":1465:1553   */\n      iszero\n      tag_104\n      jumpi\n        /* \"#utility.yul\":1533:1551   */\n      tag_105\n      tag_70\n      jump\t// in\n    tag_105:\n        /* \"#utility.yul\":1465:1553   */\n    tag_104:\n        /* \"#utility.yul\":1573:1583   */\n      dup1\n        /* \"#utility.yul\":1569:1571   */\n      0x40\n        /* \"#utility.yul\":1562:1584   */\n      mstore\n        /* \"#utility.yul\":1352:1590   */\n      pop\n        /* \"#utility.yul\":1309:1590   */\n      pop\n      pop\n      jump\t// out\n        /* \"#utility.yul\":1596:1725   */\n    tag_72:\n        /* \"#utility.yul\":1630:1636   */\n      0x00\n        /* \"#utility.yul\":1657:1677   */\n      tag_107\n      tag_64\n      jump\t// in\n    tag_107:\n        /* \"#utility.yul\":1647:1677   */\n      swap1\n      pop\n        /* \"#utility.yul\":1686:1719   */\n      tag_108\n        /* \"#utility.yul\":1714:1718   */\n      dup3\n        /* \"#utility.yul\":1706:1712   */\n      dup3\n        /* \"#utility.yul\":1686:1719   */\n      tag_71\n      jump\t// in\n    tag_108:\n        /* \"#utility.yul\":1596:1725   */\n      swap2\n      swap1\n      pop\n      jump\t// out\n        /* \"#utility.yul\":1731:2039   */\n    tag_73:\n        /* \"#utility.yul\":1793:1797   */\n      0x00\n        /* \"#utility.yul\":1883:1901   */\n      0xffffffffffffffff\n        /* \"#utility.yul\":1875:1881   */\n      dup3\n        /* \"#utility.yul\":1872:1902   */\n      gt\n        /* \"#utility.yul\":1869:1925   */\n      iszero\n      tag_110\n      jumpi\n        /* \"#utility.yul\":1905:1923   */\n      tag_111\n      tag_70\n      jump\t// in\n    tag_111:\n        /* \"#utility.yul\":1869:1925   */\n    tag_110:\n        /* \"#utility.yul\":1943:1972   */\n      tag_112\n        /* \"#utility.yul\":1965:1971   */\n      dup3\n        /* \"#utility.yul\":1943:1972   */\n      tag_69\n      jump\t// in\n    tag_112:\n        /* \"#utility.yul\":1935:1972   */\n      swap1\n      pop\n        /* \"#utility.yul\":2027:2031   */\n      0x20\n        /* \"#utility.yul\":2021:2025   */\n      dup2\n        /* \"#utility.yul\":2017:2032   */\n      add\n        /* \"#utility.yul\":2009:2032   */\n      swap1\n      pop\n        /* \"#utility.yul\":1731:2039   */\n      swap2\n      swap1\n      pop\n      jump\t// out\n        /* \"#utility.yul\":2045:2191   */\n    tag_74:\n        /* \"#utility.yul\":2142:2148   */\n      dup3\n        /* \"#utility.yul\":2137:2140   */\n      dup2\n        /* \"#utility.yul\":2132:2135   */\n      dup4\n        /* \"#utility.yul\":2119:2149   */\n      calldatacopy\n        /* \"#utility.yul\":2183:2184   */\n      0x00\n        /* \"#utility.yul\":2174:2180   */\n      dup4\n        /* \"#utility.yul\":2169:2172   */\n      dup4\n        /* \"#utility.yul\":2165:2181   */\n      add\n        /* \"#utility.yul\":2158:2185   */\n      mstore\n        /* \"#utility.yul\":2045:2191   */\n      pop\n      pop\n      pop\n      jump\t// out\n        /* \"#utility.yul\":2197:2622   */\n    tag_75:\n        /* \"#utility.yul\":2275:2280   */\n      0x00\n        /* \"#utility.yul\":2300:2366   */\n      tag_115\n        /* \"#utility.yul\":2316:2365   */\n      tag_116\n        /* \"#utility.yul\":2358:2364   */\n      dup5\n        /* \"#utility.yul\":2316:2365   */\n      tag_73\n      jump\t// in\n    tag_116:\n        /* \"#utility.yul\":2300:2366   */\n      tag_72\n      jump\t// in\n    tag_115:\n        /* \"#utility.yul\":2291:2366   */\n      swap1\n      pop\n        /* \"#utility.yul\":2389:2395   */\n      dup3\n        /* \"#utility.yul\":2382:2387   */\n      dup2\n        /* \"#utility.yul\":2375:2396   */\n      mstore\n        /* \"#utility.yul\":2427:2431   */\n      0x20\n        /* \"#utility.yul\":2420:2425   */\n      dup2\n        /* \"#utility.yul\":2416:2432   */\n      add\n        /* \"#utility.yul\":2465:2468   */\n      dup5\n        /* \"#utility.yul\":2456:2462   */\n      dup5\n        /* \"#utility.yul\":2451:2454   */\n      dup5\n        /* \"#utility.yul\":2447:2463   */\n      add\n        /* \"#utility.yul\":2444:2469   */\n      gt\n        /* \"#utility.yul\":2441:2553   */\n      iszero\n      tag_117\n      jumpi\n        /* \"#utility.yul\":2472:2551   */\n      tag_118\n      tag_68\n      jump\t// in\n    tag_118:\n        /* \"#utility.yul\":2441:2553   */\n    tag_117:\n        /* \"#utility.yul\":2562:2616   */\n      tag_119\n        /* \"#utility.yul\":2609:2615   */\n      dup5\n        /* \"#utility.yul\":2604:2607   */\n      dup3\n        /* \"#utility.yul\":2599:2602   */\n      dup6\n        /* \"#utility.yul\":2562:2616   */\n      tag_74\n      jump\t// in\n    tag_119:\n        /* \"#utility.yul\":2281:2622   */\n      pop\n        /* \"#utility.yul\":2197:2622   */\n      swap4\n      swap3\n      pop\n      pop\n      pop\n      jump\t// out\n        /* \"#utility.yul\":2642:2982   */\n    tag_76:\n        /* \"#utility.yul\":2698:2703   */\n      0x00\n        /* \"#utility.yul\":2747:2750   */\n      dup3\n        /* \"#utility.yul\":2740:2744   */\n      0x1f\n        /* \"#utility.yul\":2732:2738   */\n      dup4\n        /* \"#utility.yul\":2728:2745   */\n      add\n        /* \"#utility.yul\":2724:2751   */\n      slt\n        /* \"#utility.yul\":2714:2836   */\n      tag_121\n      jumpi\n        /* \"#utility.yul\":2755:2834   */\n      tag_122\n      tag_67\n      jump\t// in\n    tag_122:\n        /* \"#utility.yul\":2714:2836   */\n    tag_121:\n        /* \"#utility.yul\":2872:2878   */\n      dup2\n        /* \"#utility.yul\":2859:2879   */\n      calldataload\n        /* \"#utility.yul\":2897:2976   */\n      tag_123\n        /* \"#utility.yul\":2972:2975   */\n      dup5\n        /* \"#utility.yul\":2964:2970   */\n      dup3\n        /* \"#utility.yul\":2957:2961   */\n      0x20\n        /* \"#utility.yul\":2949:2955   */\n      dup7\n        /* \"#utility.yul\":2945:2962   */\n      add\n        /* \"#utility.yul\":2897:2976   */\n      tag_75\n      jump\t// in\n    tag_123:\n        /* \"#utility.yul\":2888:2976   */\n      swap2\n      pop\n        /* \"#utility.yul\":2704:2982   */\n      pop\n        /* \"#utility.yul\":2642:2982   */\n      swap3\n      swap2\n      pop\n      pop\n      jump\t// out\n        /* \"#utility.yul\":2988:3110   */\n    tag_77:\n        /* \"#utility.yul\":3061:3085   */\n      tag_125\n        /* \"#utility.yul\":3079:3084   */\n      dup2\n        /* \"#utility.yul\":3061:3085   */\n      tag_62\n      jump\t// in\n    tag_125:\n        /* \"#utility.yul\":3054:3059   */\n      dup2\n        /* \"#utility.yul\":3051:3086   */\n      eq\n        /* \"#utility.yul\":3041:3104   */\n      tag_126\n      jumpi\n        /* \"#utility.yul\":3100:3101   */\n      0x00\n        /* \"#utility.yul\":3097:3098   */\n      dup1\n        /* \"#utility.yul\":3090:3102   */\n      revert\n        /* \"#utility.yul\":3041:3104   */\n    tag_126:\n        /* \"#utility.yul\":2988:3110   */\n      pop\n      jump\t// out\n        /* \"#utility.yul\":3116:3255   */\n    tag_78:\n        /* \"#utility.yul\":3162:3167   */\n      0x00\n        /* \"#utility.yul\":3200:3206   */\n      dup2\n        /* \"#utility.yul\":3187:3207   */\n      calldataload\n        /* \"#utility.yul\":3178:3207   */\n      swap1\n      pop\n        /* \"#utility.yul\":3216:3249   */\n      tag_128\n        /* \"#utility.yul\":3243:3248   */\n      dup2\n        /* \"#utility.yul\":3216:3249   */\n      tag_77\n      jump\t// in\n    tag_128:\n        /* \"#utility.yul\":3116:3255   */\n      swap3\n      swap2\n      pop\n      pop\n      jump\t// out\n        /* \"#utility.yul\":3261:3915   */\n    tag_22:\n        /* \"#utility.yul\":3339:3345   */\n      0x00\n        /* \"#utility.yul\":3347:3353   */\n      dup1\n        /* \"#utility.yul\":3396:3398   */\n      0x40\n        /* \"#utility.yul\":3384:3393   */\n      dup4\n        /* \"#utility.yul\":3375:3382   */\n      dup6\n        /* \"#utility.yul\":3371:3394   */\n      sub\n        /* \"#utility.yul\":3367:3399   */\n      slt\n        /* \"#utility.yul\":3364:3483   */\n      iszero\n      tag_130\n      jumpi\n        /* \"#utility.yul\":3402:3481   */\n      tag_131\n      tag_65\n      jump\t// in\n    tag_131:\n        /* \"#utility.yul\":3364:3483   */\n    tag_130:\n        /* \"#utility.yul\":3550:3551   */\n      0x00\n        /* \"#utility.yul\":3539:3548   */\n      dup4\n        /* \"#utility.yul\":3535:3552   */\n      add\n        /* \"#utility.yul\":3522:3553   */\n      calldataload\n        /* \"#utility.yul\":3580:3598   */\n      0xffffffffffffffff\n        /* \"#utility.yul\":3572:3578   */\n      dup2\n        /* \"#utility.yul\":3569:3599   */\n      gt\n        /* \"#utility.yul\":3566:3683   */\n      iszero\n      tag_132\n      jumpi\n        /* \"#utility.yul\":3602:3681   */\n      tag_133\n      tag_66\n      jump\t// in\n    tag_133:\n        /* \"#utility.yul\":3566:3683   */\n    tag_132:\n        /* \"#utility.yul\":3707:3770   */\n      tag_134\n        /* \"#utility.yul\":3762:3769   */\n      dup6\n        /* \"#utility.yul\":3753:3759   */\n      dup3\n        /* \"#utility.yul\":3742:3751   */\n      dup7\n        /* \"#utility.yul\":3738:3760   */\n      add\n        /* \"#utility.yul\":3707:3770   */\n      tag_76\n      jump\t// in\n    tag_134:\n        /* \"#utility.yul\":3697:3770   */\n      swap3\n      pop\n        /* \"#utility.yul\":3493:3780   */\n      pop\n        /* \"#utility.yul\":3819:3821   */\n      0x20\n        /* \"#utility.yul\":3845:3898   */\n      tag_135\n        /* \"#utility.yul\":3890:3897   */\n      dup6\n        /* \"#utility.yul\":3881:3887   */\n      dup3\n        /* \"#utility.yul\":3870:3879   */\n      dup7\n        /* \"#utility.yul\":3866:3888   */\n      add\n        /* \"#utility.yul\":3845:3898   */\n      tag_78\n      jump\t// in\n    tag_135:\n        /* \"#utility.yul\":3835:3898   */\n      swap2\n      pop\n        /* \"#utility.yul\":3790:3908   */\n      pop\n        /* \"#utility.yul\":3261:3915   */\n      swap3\n      pop\n      swap3\n      swap1\n      pop\n      jump\t// out\n        /* \"#utility.yul\":3921:4019   */\n    tag_79:\n        /* \"#utility.yul\":3972:3978   */\n      0x00\n        /* \"#utility.yul\":4006:4011   */\n      dup2\n        /* \"#utility.yul\":4000:4012   */\n      mload\n        /* \"#utility.yul\":3990:4012   */\n      swap1\n      pop\n        /* \"#utility.yul\":3921:4019   */\n      swap2\n      swap1\n      pop\n      jump\t// out\n        /* \"#utility.yul\":4025:4193   */\n    tag_80:\n        /* \"#utility.yul\":4108:4119   */\n      0x00\n        /* \"#utility.yul\":4142:4148   */\n      dup3\n        /* \"#utility.yul\":4137:4140   */\n      dup3\n        /* \"#utility.yul\":4130:4149   */\n      mstore\n        /* \"#utility.yul\":4182:4186   */\n      0x20\n        /* \"#utility.yul\":4177:4180   */\n      dup3\n        /* \"#utility.yul\":4173:4187   */\n      add\n        /* \"#utility.yul\":4158:4187   */\n      swap1\n      pop\n        /* \"#utility.yul\":4025:4193   */\n      swap3\n      swap2\n      pop\n      pop\n      jump\t// out\n        /* \"#utility.yul\":4199:4445   */\n    tag_81:\n        /* \"#utility.yul\":4280:4281   */\n      0x00\n        /* \"#utility.yul\":4290:4403   */\n    tag_139:\n        /* \"#utility.yul\":4304:4310   */\n      dup4\n        /* \"#utility.yul\":4301:4302   */\n      dup2\n        /* \"#utility.yul\":4298:4311   */\n      lt\n        /* \"#utility.yul\":4290:4403   */\n      iszero\n      tag_141\n      jumpi\n        /* \"#utility.yul\":4389:4390   */\n      dup1\n        /* \"#utility.yul\":4384:4387   */\n      dup3\n        /* \"#utility.yul\":4380:4391   */\n      add\n        /* \"#utility.yul\":4374:4392   */\n      mload\n        /* \"#utility.yul\":4370:4371   */\n      dup2\n        /* \"#utility.yul\":4365:4368   */\n      dup5\n        /* \"#utility.yul\":4361:4372   */\n      add\n        /* \"#utility.yul\":4354:4393   */\n      mstore\n        /* \"#utility.yul\":4326:4328   */\n      0x20\n        /* \"#utility.yul\":4323:4324   */\n      dup2\n        /* \"#utility.yul\":4319:4329   */\n      add\n        /* \"#utility.yul\":4314:4329   */\n      swap1\n      pop\n        /* \"#utility.yul\":4290:4403   */\n      jump(tag_139)\n    tag_141:\n        /* \"#utility.yul\":4437:4438   */\n      0x00\n        /* \"#utility.yul\":4428:4434   */\n      dup5\n        /* \"#utility.yul\":4423:4426   */\n      dup5\n        /* \"#utility.yul\":4419:4435   */\n      add\n        /* \"#utility.yul\":4412:4439   */\n      mstore\n        /* \"#utility.yul\":4261:4445   */\n      pop\n        /* \"#utility.yul\":4199:4445   */\n      pop\n      pop\n      pop\n      jump\t// out\n        /* \"#utility.yul\":4451:4824   */\n    tag_82:\n        /* \"#utility.yul\":4537:4540   */\n      0x00\n        /* \"#utility.yul\":4565:4603   */\n      tag_143\n        /* \"#utility.yul\":4597:4602   */\n      dup3\n        /* \"#utility.yul\":4565:4603   */\n      tag_79\n      jump\t// in\n    tag_143:\n        /* \"#utility.yul\":4619:4689   */\n      tag_144\n        /* \"#utility.yul\":4682:4688   */\n      dup2\n        /* \"#utility.yul\":4677:4680   */\n      dup6\n        /* \"#utility.yul\":4619:4689   */\n      tag_80\n      jump\t// in\n    tag_144:\n        /* \"#utility.yul\":4612:4689   */\n      swap4\n      pop\n        /* \"#utility.yul\":4698:4763   */\n      tag_145\n        /* \"#utility.yul\":4756:4762   */\n      dup2\n        /* \"#utility.yul\":4751:4754   */\n      dup6\n        /* \"#utility.yul\":4744:4748   */\n      0x20\n        /* \"#utility.yul\":4737:4742   */\n      dup7\n        /* \"#utility.yul\":4733:4749   */\n      add\n        /* \"#utility.yul\":4698:4763   */\n      tag_81\n      jump\t// in\n    tag_145:\n        /* \"#utility.yul\":4788:4817   */\n      tag_146\n        /* \"#utility.yul\":4810:4816   */\n      dup2\n        /* \"#utility.yul\":4788:4817   */\n      tag_69\n      jump\t// in\n    tag_146:\n        /* \"#utility.yul\":4783:4786   */\n      dup5\n        /* \"#utility.yul\":4779:4818   */\n      add\n        /* \"#utility.yul\":4772:4818   */\n      swap2\n      pop\n        /* \"#utility.yul\":4541:4824   */\n      pop\n        /* \"#utility.yul\":4451:4824   */\n      swap3\n      swap2\n      pop\n      pop\n      jump\t// out\n        /* \"#utility.yul\":4830:5139   */\n    tag_25:\n        /* \"#utility.yul\":4941:4945   */\n      0x00\n        /* \"#utility.yul\":4979:4981   */\n      0x20\n        /* \"#utility.yul\":4968:4977   */\n      dup3\n        /* \"#utility.yul\":4964:4982   */\n      add\n        /* \"#utility.yul\":4956:4982   */\n      swap1\n      pop\n        /* \"#utility.yul\":5028:5037   */\n      dup2\n        /* \"#utility.yul\":5022:5026   */\n      dup2\n        /* \"#utility.yul\":5018:5038   */\n      sub\n        /* \"#utility.yul\":5014:5015   */\n      0x00\n        /* \"#utility.yul\":5003:5012   */\n      dup4\n        /* \"#utility.yul\":4999:5016   */\n      add\n        /* \"#utility.yul\":4992:5039   */\n      mstore\n        /* \"#utility.yul\":5056:5132   */\n      tag_148\n        /* \"#utility.yul\":5127:5131   */\n      dup2\n        /* \"#utility.yul\":5118:5124   */\n      dup5\n        /* \"#utility.yul\":5056:5132   */\n      tag_82\n      jump\t// in\n    tag_148:\n        /* \"#utility.yul\":5048:5132   */\n      swap1\n      pop\n        /* \"#utility.yul\":4830:5139   */\n      swap3\n      swap2\n      pop\n      pop\n      jump\t// out\n        /* \"#utility.yul\":5145:5474   */\n    tag_37:\n        /* \"#utility.yul\":5204:5210   */\n      0x00\n        /* \"#utility.yul\":5253:5255   */\n      0x20\n        /* \"#utility.yul\":5241:5250   */\n      dup3\n        /* \"#utility.yul\":5232:5239   */\n      dup5\n        /* \"#utility.yul\":5228:5251   */\n      sub\n        /* \"#utility.yul\":5224:5256   */\n      slt\n        /* \"#utility.yul\":5221:5340   */\n      iszero\n      tag_150\n      jumpi\n        /* \"#utility.yul\":5259:5338   */\n      tag_151\n      tag_65\n      jump\t// in\n    tag_151:\n        /* \"#utility.yul\":5221:5340   */\n    tag_150:\n        /* \"#utility.yul\":5379:5380   */\n      0x00\n        /* \"#utility.yul\":5404:5457   */\n      tag_152\n        /* \"#utility.yul\":5449:5456   */\n      dup5\n        /* \"#utility.yul\":5440:5446   */\n      dup3\n        /* \"#utility.yul\":5429:5438   */\n      dup6\n        /* \"#utility.yul\":5425:5447   */\n      add\n        /* \"#utility.yul\":5404:5457   */\n      tag_78\n      jump\t// in\n    tag_152:\n        /* \"#utility.yul\":5394:5457   */\n      swap2\n      pop\n        /* \"#utility.yul\":5350:5467   */\n      pop\n        /* \"#utility.yul\":5145:5474   */\n      swap3\n      swap2\n      pop\n      pop\n      jump\t// out\n        /* \"#utility.yul\":5480:5660   */\n    tag_83:\n        /* \"#utility.yul\":5528:5605   */\n      0x4e487b7100000000000000000000000000000000000000000000000000000000\n        /* \"#utility.yul\":5525:5526   */\n      0x00\n        /* \"#utility.yul\":5518:5606   */\n      mstore\n        /* \"#utility.yul\":5625:5629   */\n      0x11\n        /* \"#utility.yul\":5622:5623   */\n      0x04\n        /* \"#utility.yul\":5615:5630   */\n      mstore\n        /* \"#utility.yul\":5649:5653   */\n      0x24\n        /* \"#utility.yul\":5646:5647   */\n      0x00\n        /* \"#utility.yul\":5639:5654   */\n      revert\n        /* \"#utility.yul\":5666:5857   */\n    tag_41:\n        /* \"#utility.yul\":5706:5709   */\n      0x00\n        /* \"#utility.yul\":5725:5745   */\n      tag_155\n        /* \"#utility.yul\":5743:5744   */\n      dup3\n        /* \"#utility.yul\":5725:5745   */\n      tag_62\n      jump\t// in\n    tag_155:\n        /* \"#utility.yul\":5720:5745   */\n      swap2\n      pop\n        /* \"#utility.yul\":5759:5779   */\n      tag_156\n        /* \"#utility.yul\":5777:5778   */\n      dup4\n        /* \"#utility.yul\":5759:5779   */\n      tag_62\n      jump\t// in\n    tag_156:\n        /* \"#utility.yul\":5754:5779   */\n      swap3\n      pop\n        /* \"#utility.yul\":5802:5803   */\n      dup3\n        /* \"#utility.yul\":5799:5800   */\n      dup3\n        /* \"#utility.yul\":5795:5804   */\n      add\n        /* \"#utility.yul\":5788:5804   */\n      swap1\n      pop\n        /* \"#utility.yul\":5823:5826   */\n      dup1\n        /* \"#utility.yul\":5820:5821   */\n      dup3\n        /* \"#utility.yul\":5817:5827   */\n      gt\n        /* \"#utility.yul\":5814:5850   */\n      iszero\n      tag_157\n      jumpi\n        /* \"#utility.yul\":5830:5848   */\n      tag_158\n      tag_83\n      jump\t// in\n    tag_158:\n        /* \"#utility.yul\":5814:5850   */\n    tag_157:\n        /* \"#utility.yul\":5666:5857   */\n      swap3\n      swap2\n      pop\n      pop\n      jump\t// out\n        /* \"#utility.yul\":5863:5962   */\n    tag_84:\n        /* \"#utility.yul\":5915:5921   */\n      0x00\n        /* \"#utility.yul\":5949:5954   */\n      dup2\n        /* \"#utility.yul\":5943:5955   */\n      mload\n        /* \"#utility.yul\":5933:5955   */\n      swap1\n      pop\n        /* \"#utility.yul\":5863:5962   */\n      swap2\n      swap1\n      pop\n      jump\t// out\n        /* \"#utility.yul\":5968:6116   */\n    tag_85:\n        /* \"#utility.yul\":6070:6081   */\n      0x00\n        /* \"#utility.yul\":6107:6110   */\n      dup2\n        /* \"#utility.yul\":6092:6110   */\n      swap1\n      pop\n        /* \"#utility.yul\":5968:6116   */\n      swap3\n      swap2\n      pop\n      pop\n      jump\t// out\n        /* \"#utility.yul\":6122:6512   */\n    tag_86:\n        /* \"#utility.yul\":6228:6231   */\n      0x00\n        /* \"#utility.yul\":6256:6295   */\n      tag_162\n        /* \"#utility.yul\":6289:6294   */\n      dup3\n        /* \"#utility.yul\":6256:6295   */\n      tag_84\n      jump\t// in\n    tag_162:\n        /* \"#utility.yul\":6311:6400   */\n      tag_163\n        /* \"#utility.yul\":6393:6399   */\n      dup2\n        /* \"#utility.yul\":6388:6391   */\n      dup6\n        /* \"#utility.yul\":6311:6400   */\n      tag_85\n      jump\t// in\n    tag_163:\n        /* \"#utility.yul\":6304:6400   */\n      swap4\n      pop\n        /* \"#utility.yul\":6409:6474   */\n      tag_164\n        /* \"#utility.yul\":6467:6473   */\n      dup2\n        /* \"#utility.yul\":6462:6465   */\n      dup6\n        /* \"#utility.yul\":6455:6459   */\n      0x20\n        /* \"#utility.yul\":6448:6453   */\n      dup7\n        /* \"#utility.yul\":6444:6460   */\n      add\n        /* \"#utility.yul\":6409:6474   */\n      tag_81\n      jump\t// in\n    tag_164:\n        /* \"#utility.yul\":6499:6505   */\n      dup1\n        /* \"#utility.yul\":6494:6497   */\n      dup5\n        /* \"#utility.yul\":6490:6506   */\n      add\n        /* \"#utility.yul\":6483:6506   */\n      swap2\n      pop\n        /* \"#utility.yul\":6232:6512   */\n      pop\n        /* \"#utility.yul\":6122:6512   */\n      swap3\n      swap2\n      pop\n      pop\n      jump\t// out\n        /* \"#utility.yul\":6518:6793   */\n    tag_48:\n        /* \"#utility.yul\":6650:6653   */\n      0x00\n        /* \"#utility.yul\":6672:6767   */\n      tag_166\n        /* \"#utility.yul\":6763:6766   */\n      dup3\n        /* \"#utility.yul\":6754:6760   */\n      dup5\n        /* \"#utility.yul\":6672:6767   */\n      tag_86\n      jump\t// in\n    tag_166:\n        /* \"#utility.yul\":6665:6767   */\n      swap2\n      pop\n        /* \"#utility.yul\":6784:6787   */\n      dup2\n        /* \"#utility.yul\":6777:6787   */\n      swap1\n      pop\n        /* \"#utility.yul\":6518:6793   */\n      swap3\n      swap2\n      pop\n      pop\n      jump\t// out\n        /* \"#utility.yul\":6799:6900   */\n    tag_87:\n        /* \"#utility.yul\":6835:6842   */\n      0x00\n        /* \"#utility.yul\":6875:6893   */\n      0xffffffffffffffff\n        /* \"#utility.yul\":6868:6873   */\n      dup3\n        /* \"#utility.yul\":6864:6894   */\n      and\n        /* \"#utility.yul\":6853:6894   */\n      swap1\n      pop\n        /* \"#utility.yul\":6799:6900   */\n      swap2\n      swap1\n      pop\n      jump\t// out\n        /* \"#utility.yul\":6906:7021   */\n    tag_88:\n        /* \"#utility.yul\":6991:7014   */\n      tag_169\n        /* \"#utility.yul\":7008:7013   */\n      dup2\n        /* \"#utility.yul\":6991:7014   */\n      tag_87\n      jump\t// in\n    tag_169:\n        /* \"#utility.yul\":6986:6989   */\n      dup3\n        /* \"#utility.yul\":6979:7015   */\n      mstore\n        /* \"#utility.yul\":6906:7021   */\n      pop\n      pop\n      jump\t// out\n        /* \"#utility.yul\":7027:7245   */\n    tag_60:\n        /* \"#utility.yul\":7118:7122   */\n      0x00\n        /* \"#utility.yul\":7156:7158   */\n      0x20\n        /* \"#utility.yul\":7145:7154   */\n      dup3\n        /* \"#utility.yul\":7141:7159   */\n      add\n        /* \"#utility.yul\":7133:7159   */\n      swap1\n      pop\n        /* \"#utility.yul\":7169:7238   */\n      tag_171\n        /* \"#utility.yul\":7235:7236   */\n      0x00\n        /* \"#utility.yul\":7224:7233   */\n      dup4\n        /* \"#utility.yul\":7220:7237   */\n      add\n        /* \"#utility.yul\":7211:7217   */\n      dup5\n        /* \"#utility.yul\":7169:7238   */\n      tag_88\n      jump\t// in\n    tag_171:\n        /* \"#utility.yul\":7027:7245   */\n      swap3\n      swap2\n      pop\n      pop\n      jump\t// out\n\n    auxdata: 0xa26469706673582212200e81b78217af90ccf5005b86e8f06f3a4fb335be4095c21e93a6ebca07cf205464736f6c63430008140033\n}\n",
				"bytecode": {
					"linkReferences": {},
					"object": "608060405234801561000f575f80fd5b506108018061001d5f395ff3fe608060405234801561000f575f80fd5b5060043610610086575f3560e01c80639e911f4c116100595780639e911f4c146100ec578063c223a39e1461010a578063f2c9ecd814610128578063fe4b84df1461014657610086565b80633aeb111a1461008a5780634154b243146100945780638381f58a1461009e57806394f37149146100bc575b5f80fd5b610092610162565b005b61009c610177565b005b6100a661018c565b6040516100b39190610427565b60405180910390f35b6100d660048036038101906100d191906105b7565b610191565b6040516100e3919061068b565b60405180910390f35b6100f46102a5565b6040516101019190610427565b60405180910390f35b6101126102ad565b60405161011f9190610427565b60405180910390f35b6101306102b3565b60405161013d9190610427565b60405180910390f35b610160600480360381019061015b91906106ab565b6102bb565b005b60015f546101709190610703565b5f81905550565b60015f546101859190610703565b5f81905550565b5f5481565b60605f82146102235782826040516024016101ac9190610427565b604051602081830303815290604052906040516101c9919061077a565b60405180910390207bffffffffffffffffffffffffffffffffffffffffffffffffffffffff19166020820180517bffffffffffffffffffffffffffffffffffffffffffffffffffffffff838183161783525050505061029d565b8260405160240160405160208183030381529060405290604051610247919061077a565b60405180910390207bffffffffffffffffffffffffffffffffffffffffffffffffffffffff19166020820180517bffffffffffffffffffffffffffffffffffffffffffffffffffffffff83818316178352505050505b905092915050565b5f8054905090565b60015481565b5f8054905090565b60025f6102c66103e8565b9050805f0160089054906101000a900460ff168061030e57508167ffffffffffffffff16815f015f9054906101000a900467ffffffffffffffff1667ffffffffffffffff1610155b15610345576040517ff92ee8a900000000000000000000000000000000000000000000000000000000815260040160405180910390fd5b81815f015f6101000a81548167ffffffffffffffff021916908367ffffffffffffffff1602179055506001815f0160086101000a81548160ff021916908315150217905550826001819055505f815f0160086101000a81548160ff0219169083151502179055507fc7f505b2f371ae2175ee4913f4499e1f2633a7b5936321eed1cdaeb6115181d2826040516103db91906107b2565b60405180910390a1505050565b5f7ff0c57e16840df040f15088dc2f81fe391c3923bec73e23a9662efc9c229c6a00905090565b5f819050919050565b6104218161040f565b82525050565b5f60208201905061043a5f830184610418565b92915050565b5f604051905090565b5f80fd5b5f80fd5b5f80fd5b5f80fd5b5f601f19601f8301169050919050565b7f4e487b71000000000000000000000000000000000000000000000000000000005f52604160045260245ffd5b61049f82610459565b810181811067ffffffffffffffff821117156104be576104bd610469565b5b80604052505050565b5f6104d0610440565b90506104dc8282610496565b919050565b5f67ffffffffffffffff8211156104fb576104fa610469565b5b61050482610459565b9050602081019050919050565b828183375f83830152505050565b5f61053161052c846104e1565b6104c7565b90508281526020810184848401111561054d5761054c610455565b5b610558848285610511565b509392505050565b5f82601f83011261057457610573610451565b5b813561058484826020860161051f565b91505092915050565b6105968161040f565b81146105a0575f80fd5b50565b5f813590506105b18161058d565b92915050565b5f80604083850312156105cd576105cc610449565b5b5f83013567ffffffffffffffff8111156105ea576105e961044d565b5b6105f685828601610560565b9250506020610607858286016105a3565b9150509250929050565b5f81519050919050565b5f82825260208201905092915050565b5f5b8381101561064857808201518184015260208101905061062d565b5f8484015250505050565b5f61065d82610611565b610667818561061b565b935061067781856020860161062b565b61068081610459565b840191505092915050565b5f6020820190508181035f8301526106a38184610653565b905092915050565b5f602082840312156106c0576106bf610449565b5b5f6106cd848285016105a3565b91505092915050565b7f4e487b71000000000000000000000000000000000000000000000000000000005f52601160045260245ffd5b5f61070d8261040f565b91506107188361040f565b92508282019050808211156107305761072f6106d6565b5b92915050565b5f81519050919050565b5f81905092915050565b5f61075482610736565b61075e8185610740565b935061076e81856020860161062b565b80840191505092915050565b5f610785828461074a565b915081905092915050565b5f67ffffffffffffffff82169050919050565b6107ac81610790565b82525050565b5f6020820190506107c55f8301846107a3565b9291505056fea26469706673582212200e81b78217af90ccf5005b86e8f06f3a4fb335be4095c21e93a6ebca07cf205464736f6c63430008140033",
					"opcodes": "PUSH1 0x80 PUSH1 0x40 MSTORE CALLVALUE DUP1 ISZERO PUSH2 0xF JUMPI PUSH0 DUP1 REVERT JUMPDEST POP PUSH2 0x801 DUP1 PUSH2 0x1D PUSH0 CODECOPY PUSH0 RETURN INVALID PUSH1 0x80 PUSH1 0x40 MSTORE CALLVALUE DUP1 ISZERO PUSH2 0xF JUMPI PUSH0 DUP1 REVERT JUMPDEST POP PUSH1 0x4 CALLDATASIZE LT PUSH2 0x86 JUMPI PUSH0 CALLDATALOAD PUSH1 0xE0 SHR DUP1 PUSH4 0x9E911F4C GT PUSH2 0x59 JUMPI DUP1 PUSH4 0x9E911F4C EQ PUSH2 0xEC JUMPI DUP1 PUSH4 0xC223A39E EQ PUSH2 0x10A JUMPI DUP1 PUSH4 0xF2C9ECD8 EQ PUSH2 0x128 JUMPI DUP1 PUSH4 0xFE4B84DF EQ PUSH2 0x146 JUMPI PUSH2 0x86 JUMP JUMPDEST DUP1 PUSH4 0x3AEB111A EQ PUSH2 0x8A JUMPI DUP1 PUSH4 0x4154B243 EQ PUSH2 0x94 JUMPI DUP1 PUSH4 0x8381F58A EQ PUSH2 0x9E JUMPI DUP1 PUSH4 0x94F37149 EQ PUSH2 0xBC JUMPI JUMPDEST PUSH0 DUP1 REVERT JUMPDEST PUSH2 0x92 PUSH2 0x162 JUMP JUMPDEST STOP JUMPDEST PUSH2 0x9C PUSH2 0x177 JUMP JUMPDEST STOP JUMPDEST PUSH2 0xA6 PUSH2 0x18C JUMP JUMPDEST PUSH1 0x40 MLOAD PUSH2 0xB3 SWAP2 SWAP1 PUSH2 0x427 JUMP JUMPDEST PUSH1 0x40 MLOAD DUP1 SWAP2 SUB SWAP1 RETURN JUMPDEST PUSH2 0xD6 PUSH1 0x4 DUP1 CALLDATASIZE SUB DUP2 ADD SWAP1 PUSH2 0xD1 SWAP2 SWAP1 PUSH2 0x5B7 JUMP JUMPDEST PUSH2 0x191 JUMP JUMPDEST PUSH1 0x40 MLOAD PUSH2 0xE3 SWAP2 SWAP1 PUSH2 0x68B JUMP JUMPDEST PUSH1 0x40 MLOAD DUP1 SWAP2 SUB SWAP1 RETURN JUMPDEST PUSH2 0xF4 PUSH2 0x2A5 JUMP JUMPDEST PUSH1 0x40 MLOAD PUSH2 0x101 SWAP2 SWAP1 PUSH2 0x427 JUMP JUMPDEST PUSH1 0x40 MLOAD DUP1 SWAP2 SUB SWAP1 RETURN JUMPDEST PUSH2 0x112 PUSH2 0x2AD JUMP JUMPDEST PUSH1 0x40 MLOAD PUSH2 0x11F SWAP2 SWAP1 PUSH2 0x427 JUMP JUMPDEST PUSH1 0x40 MLOAD DUP1 SWAP2 SUB SWAP1 RETURN JUMPDEST PUSH2 0x130 PUSH2 0x2B3 JUMP JUMPDEST PUSH1 0x40 MLOAD PUSH2 0x13D SWAP2 SWAP1 PUSH2 0x427 JUMP JUMPDEST PUSH1 0x40 MLOAD DUP1 SWAP2 SUB SWAP1 RETURN JUMPDEST PUSH2 0x160 PUSH1 0x4 DUP1 CALLDATASIZE SUB DUP2 ADD SWAP1 PUSH2 0x15B SWAP2 SWAP1 PUSH2 0x6AB JUMP JUMPDEST PUSH2 0x2BB JUMP JUMPDEST STOP JUMPDEST PUSH1 0x1 PUSH0 SLOAD PUSH2 0x170 SWAP2 SWAP1 PUSH2 0x703 JUMP JUMPDEST PUSH0 DUP2 SWAP1 SSTORE POP JUMP JUMPDEST PUSH1 0x1 PUSH0 SLOAD PUSH2 0x185 SWAP2 SWAP1 PUSH2 0x703 JUMP JUMPDEST PUSH0 DUP2 SWAP1 SSTORE POP JUMP JUMPDEST PUSH0 SLOAD DUP2 JUMP JUMPDEST PUSH1 0x60 PUSH0 DUP3 EQ PUSH2 0x223 JUMPI DUP3 DUP3 PUSH1 0x40 MLOAD PUSH1 0x24 ADD PUSH2 0x1AC SWAP2 SWAP1 PUSH2 0x427 JUMP JUMPDEST PUSH1 0x40 MLOAD PUSH1 0x20 DUP2 DUP4 SUB SUB DUP2 MSTORE SWAP1 PUSH1 0x40 MSTORE SWAP1 PUSH1 0x40 MLOAD PUSH2 0x1C9 SWAP2 SWAP1 PUSH2 0x77A JUMP JUMPDEST PUSH1 0x40 MLOAD DUP1 SWAP2 SUB SWAP1 KECCAK256 PUSH28 0xFFFFFFFFFFFFFFFFFFFFFFFFFFFFFFFFFFFFFFFFFFFFFFFFFFFFFFFF NOT AND PUSH1 0x20 DUP3 ADD DUP1 MLOAD PUSH28 0xFFFFFFFFFFFFFFFFFFFFFFFFFFFFFFFFFFFFFFFFFFFFFFFFFFFFFFFF DUP4 DUP2 DUP4 AND OR DUP4 MSTORE POP POP POP POP PUSH2 0x29D JUMP JUMPDEST DUP3 PUSH1 0x40 MLOAD PUSH1 0x24 ADD PUSH1 0x40 MLOAD PUSH1 0x20 DUP2 DUP4 SUB SUB DUP2 MSTORE SWAP1 PUSH1 0x40 MSTORE SWAP1 PUSH1 0x40 MLOAD PUSH2 0x247 SWAP2 SWAP1 PUSH2 0x77A JUMP JUMPDEST PUSH1 0x40 MLOAD DUP1 SWAP2 SUB SWAP1 KECCAK256 PUSH28 0xFFFFFFFFFFFFFFFFFFFFFFFFFFFFFFFFFFFFFFFFFFFFFFFFFFFFFFFF NOT AND PUSH1 0x20 DUP3 ADD DUP1 MLOAD PUSH28 0xFFFFFFFFFFFFFFFFFFFFFFFFFFFFFFFFFFFFFFFFFFFFFFFFFFFFFFFF DUP4 DUP2 DUP4 AND OR DUP4 MSTORE POP POP POP POP JUMPDEST SWAP1 POP SWAP3 SWAP2 POP POP JUMP JUMPDEST PUSH0 DUP1 SLOAD SWAP1 POP SWAP1 JUMP JUMPDEST PUSH1 0x1 SLOAD DUP2 JUMP JUMPDEST PUSH0 DUP1 SLOAD SWAP1 POP SWAP1 JUMP JUMPDEST PUSH1 0x2 PUSH0 PUSH2 0x2C6 PUSH2 0x3E8 JUMP JUMPDEST SWAP1 POP DUP1 PUSH0 ADD PUSH1 0x8 SWAP1 SLOAD SWAP1 PUSH2 0x100 EXP SWAP1 DIV PUSH1 0xFF AND DUP1 PUSH2 0x30E JUMPI POP DUP2 PUSH8 0xFFFFFFFFFFFFFFFF AND DUP2 PUSH0 ADD PUSH0 SWAP1 SLOAD SWAP1 PUSH2 0x100 EXP SWAP1 DIV PUSH8 0xFFFFFFFFFFFFFFFF AND PUSH8 0xFFFFFFFFFFFFFFFF AND LT ISZERO JUMPDEST ISZERO PUSH2 0x345 JUMPI PUSH1 0x40 MLOAD PUSH32 0xF92EE8A900000000000000000000000000000000000000000000000000000000 DUP2 MSTORE PUSH1 0x4 ADD PUSH1 0x40 MLOAD DUP1 SWAP2 SUB SWAP1 REVERT JUMPDEST DUP2 DUP2 PUSH0 ADD PUSH0 PUSH2 0x100 EXP DUP2 SLOAD DUP2 PUSH8 0xFFFFFFFFFFFFFFFF MUL NOT AND SWAP1 DUP4 PUSH8 0xFFFFFFFFFFFFFFFF AND MUL OR SWAP1 SSTORE POP PUSH1 0x1 DUP2 PUSH0 ADD PUSH1 0x8 PUSH2 0x100 EXP DUP2 SLOAD DUP2 PUSH1 0xFF MUL NOT AND SWAP1 DUP4 ISZERO ISZERO MUL OR SWAP1 SSTORE POP DUP3 PUSH1 0x1 DUP2 SWAP1 SSTORE POP PUSH0 DUP2 PUSH0 ADD PUSH1 0x8 PUSH2 0x100 EXP DUP2 SLOAD DUP2 PUSH1 0xFF MUL NOT AND SWAP1 DUP4 ISZERO ISZERO MUL OR SWAP1 SSTORE POP PUSH32 0xC7F505B2F371AE2175EE4913F4499E1F2633A7B5936321EED1CDAEB6115181D2 DUP3 PUSH1 0x40 MLOAD PUSH2 0x3DB SWAP2 SWAP1 PUSH2 0x7B2 JUMP JUMPDEST PUSH1 0x40 MLOAD DUP1 SWAP2 SUB SWAP1 LOG1 POP POP POP JUMP JUMPDEST PUSH0 PUSH32 0xF0C57E16840DF040F15088DC2F81FE391C3923BEC73E23A9662EFC9C229C6A00 SWAP1 POP SWAP1 JUMP JUMPDEST PUSH0 DUP2 SWAP1 POP SWAP2 SWAP1 POP JUMP JUMPDEST PUSH2 0x421 DUP2 PUSH2 0x40F JUMP JUMPDEST DUP3 MSTORE POP POP JUMP JUMPDEST PUSH0 PUSH1 0x20 DUP3 ADD SWAP1 POP PUSH2 0x43A PUSH0 DUP4 ADD DUP5 PUSH2 0x418 JUMP JUMPDEST SWAP3 SWAP2 POP POP JUMP JUMPDEST PUSH0 PUSH1 0x40 MLOAD SWAP1 POP SWAP1 JUMP JUMPDEST PUSH0 DUP1 REVERT JUMPDEST PUSH0 DUP1 REVERT JUMPDEST PUSH0 DUP1 REVERT JUMPDEST PUSH0 DUP1 REVERT JUMPDEST PUSH0 PUSH1 0x1F NOT PUSH1 0x1F DUP4 ADD AND SWAP1 POP SWAP2 SWAP1 POP JUMP JUMPDEST PUSH32 0x4E487B7100000000000000000000000000000000000000000000000000000000 PUSH0 MSTORE PUSH1 0x41 PUSH1 0x4 MSTORE PUSH1 0x24 PUSH0 REVERT JUMPDEST PUSH2 0x49F DUP3 PUSH2 0x459 JUMP JUMPDEST DUP2 ADD DUP2 DUP2 LT PUSH8 0xFFFFFFFFFFFFFFFF DUP3 GT OR ISZERO PUSH2 0x4BE JUMPI PUSH2 0x4BD PUSH2 0x469 JUMP JUMPDEST JUMPDEST DUP1 PUSH1 0x40 MSTORE POP POP POP JUMP JUMPDEST PUSH0 PUSH2 0x4D0 PUSH2 0x440 JUMP JUMPDEST SWAP1 POP PUSH2 0x4DC DUP3 DUP3 PUSH2 0x496 JUMP JUMPDEST SWAP2 SWAP1 POP JUMP JUMPDEST PUSH0 PUSH8 0xFFFFFFFFFFFFFFFF DUP3 GT ISZERO PUSH2 0x4FB JUMPI PUSH2 0x4FA PUSH2 0x469 JUMP JUMPDEST JUMPDEST PUSH2 0x504 DUP3 PUSH2 0x459 JUMP JUMPDEST SWAP1 POP PUSH1 0x20 DUP2 ADD SWAP1 POP SWAP2 SWAP1 POP JUMP JUMPDEST DUP3 DUP2 DUP4 CALLDATACOPY PUSH0 DUP4 DUP4 ADD MSTORE POP POP POP JUMP JUMPDEST PUSH0 PUSH2 0x531 PUSH2 0x52C DUP5 PUSH2 0x4E1 JUMP JUMPDEST PUSH2 0x4C7 JUMP JUMPDEST SWAP1 POP DUP3 DUP2 MSTORE PUSH1 0x20 DUP2 ADD DUP5 DUP5 DUP5 ADD GT ISZERO PUSH2 0x54D JUMPI PUSH2 0x54C PUSH2 0x455 JUMP JUMPDEST JUMPDEST PUSH2 0x558 DUP5 DUP3 DUP6 PUSH2 0x511 JUMP JUMPDEST POP SWAP4 SWAP3 POP POP POP JUMP JUMPDEST PUSH0 DUP3 PUSH1 0x1F DUP4 ADD SLT PUSH2 0x574 JUMPI PUSH2 0x573 PUSH2 0x451 JUMP JUMPDEST JUMPDEST DUP2 CALLDATALOAD PUSH2 0x584 DUP5 DUP3 PUSH1 0x20 DUP7 ADD PUSH2 0x51F JUMP JUMPDEST SWAP2 POP POP SWAP3 SWAP2 POP POP JUMP JUMPDEST PUSH2 0x596 DUP2 PUSH2 0x40F JUMP JUMPDEST DUP2 EQ PUSH2 0x5A0 JUMPI PUSH0 DUP1 REVERT JUMPDEST POP JUMP JUMPDEST PUSH0 DUP2 CALLDATALOAD SWAP1 POP PUSH2 0x5B1 DUP2 PUSH2 0x58D JUMP JUMPDEST SWAP3 SWAP2 POP POP JUMP JUMPDEST PUSH0 DUP1 PUSH1 0x40 DUP4 DUP6 SUB SLT ISZERO PUSH2 0x5CD JUMPI PUSH2 0x5CC PUSH2 0x449 JUMP JUMPDEST JUMPDEST PUSH0 DUP4 ADD CALLDATALOAD PUSH8 0xFFFFFFFFFFFFFFFF DUP2 GT ISZERO PUSH2 0x5EA JUMPI PUSH2 0x5E9 PUSH2 0x44D JUMP JUMPDEST JUMPDEST PUSH2 0x5F6 DUP6 DUP3 DUP7 ADD PUSH2 0x560 JUMP JUMPDEST SWAP3 POP POP PUSH1 0x20 PUSH2 0x607 DUP6 DUP3 DUP7 ADD PUSH2 0x5A3 JUMP JUMPDEST SWAP2 POP POP SWAP3 POP SWAP3 SWAP1 POP JUMP JUMPDEST PUSH0 DUP2 MLOAD SWAP1 POP SWAP2 SWAP1 POP JUMP JUMPDEST PUSH0 DUP3 DUP3 MSTORE PUSH1 0x20 DUP3 ADD SWAP1 POP SWAP3 SWAP2 POP POP JUMP JUMPDEST PUSH0 JUMPDEST DUP4 DUP2 LT ISZERO PUSH2 0x648 JUMPI DUP1 DUP3 ADD MLOAD DUP2 DUP5 ADD MSTORE PUSH1 0x20 DUP2 ADD SWAP1 POP PUSH2 0x62D JUMP JUMPDEST PUSH0 DUP5 DUP5 ADD MSTORE POP POP POP POP JUMP JUMPDEST PUSH0 PUSH2 0x65D DUP3 PUSH2 0x611 JUMP JUMPDEST PUSH2 0x667 DUP2 DUP6 PUSH2 0x61B JUMP JUMPDEST SWAP4 POP PUSH2 0x677 DUP2 DUP6 PUSH1 0x20 DUP7 ADD PUSH2 0x62B JUMP JUMPDEST PUSH2 0x680 DUP2 PUSH2 0x459 JUMP JUMPDEST DUP5 ADD SWAP2 POP POP SWAP3 SWAP2 POP POP JUMP JUMPDEST PUSH0 PUSH1 0x20 DUP3 ADD SWAP1 POP DUP2 DUP2 SUB PUSH0 DUP4 ADD MSTORE PUSH2 0x6A3 DUP2 DUP5 PUSH2 0x653 JUMP JUMPDEST SWAP1 POP SWAP3 SWAP2 POP POP JUMP JUMPDEST PUSH0 PUSH1 0x20 DUP3 DUP5 SUB SLT ISZERO PUSH2 0x6C0 JUMPI PUSH2 0x6BF PUSH2 0x449 JUMP JUMPDEST JUMPDEST PUSH0 PUSH2 0x6CD DUP5 DUP3 DUP6 ADD PUSH2 0x5A3 JUMP JUMPDEST SWAP2 POP POP SWAP3 SWAP2 POP POP JUMP JUMPDEST PUSH32 0x4E487B7100000000000000000000000000000000000000000000000000000000 PUSH0 MSTORE PUSH1 0x11 PUSH1 0x4 MSTORE PUSH1 0x24 PUSH0 REVERT JUMPDEST PUSH0 PUSH2 0x70D DUP3 PUSH2 0x40F JUMP JUMPDEST SWAP2 POP PUSH2 0x718 DUP4 PUSH2 0x40F JUMP JUMPDEST SWAP3 POP DUP3 DUP3 ADD SWAP1 POP DUP1 DUP3 GT ISZERO PUSH2 0x730 JUMPI PUSH2 0x72F PUSH2 0x6D6 JUMP JUMPDEST JUMPDEST SWAP3 SWAP2 POP POP JUMP JUMPDEST PUSH0 DUP2 MLOAD SWAP1 POP SWAP2 SWAP1 POP JUMP JUMPDEST PUSH0 DUP2 SWAP1 POP SWAP3 SWAP2 POP POP JUMP JUMPDEST PUSH0 PUSH2 0x754 DUP3 PUSH2 0x736 JUMP JUMPDEST PUSH2 0x75E DUP2 DUP6 PUSH2 0x740 JUMP JUMPDEST SWAP4 POP PUSH2 0x76E DUP2 DUP6 PUSH1 0x20 DUP7 ADD PUSH2 0x62B JUMP JUMPDEST DUP1 DUP5 ADD SWAP2 POP POP SWAP3 SWAP2 POP POP JUMP JUMPDEST PUSH0 PUSH2 0x785 DUP3 DUP5 PUSH2 0x74A JUMP JUMPDEST SWAP2 POP DUP2 SWAP1 POP SWAP3 SWAP2 POP POP JUMP JUMPDEST PUSH0 PUSH8 0xFFFFFFFFFFFFFFFF DUP3 AND SWAP1 POP SWAP2 SWAP1 POP JUMP JUMPDEST PUSH2 0x7AC DUP2 PUSH2 0x790 JUMP JUMPDEST DUP3 MSTORE POP POP JUMP JUMPDEST PUSH0 PUSH1 0x20 DUP3 ADD SWAP1 POP PUSH2 0x7C5 PUSH0 DUP4 ADD DUP5 PUSH2 0x7A3 JUMP JUMPDEST SWAP3 SWAP2 POP POP JUMP INVALID LOG2 PUSH5 0x6970667358 0x22 SLT KECCAK256 0xE DUP2 0xB7 DUP3 OR 0xAF SWAP1 0xCC CREATE2 STOP JUMPDEST DUP7 0xE8 CREATE PUSH16 0x3A4FB335BE4095C21E93A6EBCA07CF20 SLOAD PUSH5 0x736F6C6343 STOP ADDMOD EQ STOP CALLER "
				},
				"gasEstimates": {
					"creation": {
						"codeDepositCost": "409800",
						"executionCost": "447",
						"totalCost": "410247"
					},
					"external": {
						"getNumber()": "2476",
						"getNumber1()": "2432",
						"getSign(string,uint256)": "infinite",
						"initialize(uint256)": "101134",
						"number()": "2469",
						"number1()": "2447",
						"setNumber()": "infinite",
						"setNumber1()": "infinite"
					}
				},
				"methodIdentifiers": {
					"getNumber()": "f2c9ecd8",
					"getNumber1()": "9e911f4c",
					"getSign(string,uint256)": "94f37149",
					"initialize(uint256)": "fe4b84df",
					"number()": "8381f58a",
					"number1()": "c223a39e",
					"setNumber()": "4154b243",
					"setNumber1()": "3aeb111a"
				}
			},
			"storageLayout": {
				"storage": [
					{
						"astId": 261,
						"contract": "contracts/DemoV2.sol:Demo",
						"label": "number",
						"offset": 0,
						"slot": "0",
						"type": "t_uint256"
					},
					{
						"astId": 263,
						"contract": "contracts/DemoV2.sol:Demo",
						"label": "number1",
						"offset": 0,
						"slot": "1",
						"type": "t_uint256"
					}
				],
				"types": {
					"t_uint256": {
						"encoding": "inplace",
						"label": "uint256",
						"numberOfBytes": "32"
					}
				}
			},
			"userdoc": {
				"kind": "user",
				"methods": {},
				"version": 1
			}
		}
	}
}