{
	"contracts/UUPSUpgrade/DemoV1.sol": {
		"Demo": {
			"abi": [
				{
					"inputs": [
						{
							"internalType": "address",
							"name": "target",
							"type": "address"
						}
					],
					"name": "AddressEmptyCode",
					"type": "error"
				},
				{
					"inputs": [
						{
							"internalType": "address",
							"name": "implementation",
							"type": "address"
						}
					],
					"name": "ERC1967InvalidImplementation",
					"type": "error"
				},
				{
					"inputs": [],
					"name": "ERC1967NonPayable",
					"type": "error"
				},
				{
					"inputs": [],
					"name": "FailedInnerCall",
					"type": "error"
				},
				{
					"inputs": [],
					"name": "InvalidInitialization",
					"type": "error"
				},
				{
					"inputs": [],
					"name": "NotInitializing",
					"type": "error"
				},
				{
					"inputs": [
						{
							"internalType": "address",
							"name": "owner",
							"type": "address"
						}
					],
					"name": "OwnableInvalidOwner",
					"type": "error"
				},
				{
					"inputs": [
						{
							"internalType": "address",
							"name": "account",
							"type": "address"
						}
					],
					"name": "OwnableUnauthorizedAccount",
					"type": "error"
				},
				{
					"inputs": [],
					"name": "UUPSUnauthorizedCallContext",
					"type": "error"
				},
				{
					"inputs": [
						{
							"internalType": "bytes32",
							"name": "slot",
							"type": "bytes32"
						}
					],
					"name": "UUPSUnsupportedProxiableUUID",
					"type": "error"
				},
				{
					"anonymous": false,
					"inputs": [
						{
							"indexed": false,
							"internalType": "uint64",
							"name": "version",
							"type": "uint64"
						}
					],
					"name": "Initialized",
					"type": "event"
				},
				{
					"anonymous": false,
					"inputs": [
						{
							"indexed": true,
							"internalType": "address",
							"name": "previousOwner",
							"type": "address"
						},
						{
							"indexed": true,
							"internalType": "address",
							"name": "newOwner",
							"type": "address"
						}
					],
					"name": "OwnershipTransferred",
					"type": "event"
				},
				{
					"anonymous": false,
					"inputs": [
						{
							"indexed": true,
							"internalType": "address",
							"name": "implementation",
							"type": "address"
						}
					],
					"name": "Upgraded",
					"type": "event"
				},
				{
					"inputs": [],
					"name": "UPGRADE_INTERFACE_VERSION",
					"outputs": [
						{
							"internalType": "string",
							"name": "",
							"type": "string"
						}
					],
					"stateMutability": "view",
					"type": "function"
				},
				{
					"inputs": [],
					"name": "getNumber",
					"outputs": [
						{
							"internalType": "uint256",
							"name": "",
							"type": "uint256"
						}
					],
					"stateMutability": "view",
					"type": "function"
				},
				{
					"inputs": [
						{
							"internalType": "string",
							"name": "str",
							"type": "string"
						},
						{
							"internalType": "address",
							"name": "initialOwner",
							"type": "address"
						},
						{
							"internalType": "uint256",
							"name": "_number",
							"type": "uint256"
						}
					],
					"name": "getSign",
					"outputs": [
						{
							"internalType": "bytes",
							"name": "",
							"type": "bytes"
						}
					],
					"stateMutability": "pure",
					"type": "function"
				},
				{
					"inputs": [
						{
							"internalType": "address",
							"name": "addr_",
							"type": "address"
						},
						{
							"internalType": "bytes",
							"name": "data",
							"type": "bytes"
						}
					],
					"name": "helper",
					"outputs": [
						{
							"internalType": "bytes",
							"name": "",
							"type": "bytes"
						}
					],
					"stateMutability": "pure",
					"type": "function"
				},
				{
					"inputs": [
						{
							"internalType": "address",
							"name": "initialOwner",
							"type": "address"
						},
						{
							"internalType": "uint256",
							"name": "_number",
							"type": "uint256"
						}
					],
					"name": "initialize",
					"outputs": [],
					"stateMutability": "nonpayable",
					"type": "function"
				},
				{
					"inputs": [],
					"name": "number",
					"outputs": [
						{
							"internalType": "uint256",
							"name": "",
							"type": "uint256"
						}
					],
					"stateMutability": "view",
					"type": "function"
				},
				{
					"inputs": [],
					"name": "owner",
					"outputs": [
						{
							"internalType": "address",
							"name": "",
							"type": "address"
						}
					],
					"stateMutability": "view",
					"type": "function"
				},
				{
					"inputs": [],
					"name": "proxiableUUID",
					"outputs": [
						{
							"internalType": "bytes32",
							"name": "",
							"type": "bytes32"
						}
					],
					"stateMutability": "view",
					"type": "function"
				},
				{
					"inputs": [],
					"name": "renounceOwnership",
					"outputs": [],
					"stateMutability": "nonpayable",
					"type": "function"
				},
				{
					"inputs": [],
					"name": "setNumber",
					"outputs": [],
					"stateMutability": "nonpayable",
					"type": "function"
				},
				{
					"inputs": [
						{
							"internalType": "address",
							"name": "newOwner",
							"type": "address"
						}
					],
					"name": "transferOwnership",
					"outputs": [],
					"stateMutability": "nonpayable",
					"type": "function"
				},
				{
					"inputs": [
						{
							"internalType": "address",
							"name": "newImplementation",
							"type": "address"
						},
						{
							"internalType": "bytes",
							"name": "data",
							"type": "bytes"
						}
					],
					"name": "upgradeToAndCall",
					"outputs": [],
					"stateMutability": "payable",
					"type": "function"
				}
			],
			"devdoc": {
				"errors": {
					"AddressEmptyCode(address)": [
						{
							"details": "There's no code at `target` (it is not a contract)."
						}
					],
					"ERC1967InvalidImplementation(address)": [
						{
							"details": "The `implementation` of the proxy is invalid."
						}
					],
					"ERC1967NonPayable()": [
						{
							"details": "An upgrade function sees `msg.value > 0` that may be lost."
						}
					],
					"FailedInnerCall()": [
						{
							"details": "A call to an address target failed. The target may have reverted."
						}
					],
					"InvalidInitialization()": [
						{
							"details": "The contract is already initialized."
						}
					],
					"NotInitializing()": [
						{
							"details": "The contract is not initializing."
						}
					],
					"OwnableInvalidOwner(address)": [
						{
							"details": "The owner is not a valid owner account. (eg. `address(0)`)"
						}
					],
					"OwnableUnauthorizedAccount(address)": [
						{
							"details": "The caller account is not authorized to perform an operation."
						}
					],
					"UUPSUnauthorizedCallContext()": [
						{
							"details": "The call is from an unauthorized context."
						}
					],
					"UUPSUnsupportedProxiableUUID(bytes32)": [
						{
							"details": "The storage `slot` is unsupported as a UUID."
						}
					]
				},
				"events": {
					"Initialized(uint64)": {
						"details": "Triggered when the contract has been initialized or reinitialized."
					},
					"Upgraded(address)": {
						"details": "Emitted when the implementation is upgraded."
					}
				},
				"kind": "dev",
				"methods": {
					"owner()": {
						"details": "Returns the address of the current owner."
					},
					"proxiableUUID()": {
						"details": "Implementation of the ERC1822 {proxiableUUID} function. This returns the storage slot used by the implementation. It is used to validate the implementation's compatibility when performing an upgrade. IMPORTANT: A proxy pointing at a proxiable contract should not be considered proxiable itself, because this risks bricking a proxy that upgrades to it, by delegating to itself until out of gas. Thus it is critical that this function revert if invoked through a proxy. This is guaranteed by the `notDelegated` modifier."
					},
					"renounceOwnership()": {
						"details": "Leaves the contract without owner. It will not be possible to call `onlyOwner` functions. Can only be called by the current owner. NOTE: Renouncing ownership will leave the contract without an owner, thereby disabling any functionality that is only available to the owner."
					},
					"transferOwnership(address)": {
						"details": "Transfers ownership of the contract to a new account (`newOwner`). Can only be called by the current owner."
					},
					"upgradeToAndCall(address,bytes)": {
						"custom:oz-upgrades-unsafe-allow-reachable": "delegatecall",
						"details": "Upgrade the implementation of the proxy to `newImplementation`, and subsequently execute the function call encoded in `data`. Calls {_authorizeUpgrade}. Emits an {Upgraded} event."
					}
				},
				"version": 1
			},
			"evm": {
				"assembly": "    /* \"contracts/UUPSUpgrade/DemoV1.sol\":309:1449  contract Demo is Initializable,UUPSUpgradeable,OwnableUpgradeable{... */\n  mstore(0x40, 0xa0)\n    /* \"@openzeppelin/contracts-upgradeable/proxy/utils/UUPSUpgradeable.sol\":1171:1175  this */\n  address\n    /* \"@openzeppelin/contracts-upgradeable/proxy/utils/UUPSUpgradeable.sol\":1128:1176  address private immutable __self = address(this) */\n  0xffffffffffffffffffffffffffffffffffffffff\n  and\n  0x80\n  swap1\n  0xffffffffffffffffffffffffffffffffffffffff\n  and\n  dup2\n  mstore\n  pop\n    /* \"contracts/UUPSUpgrade/DemoV1.sol\":309:1449  contract Demo is Initializable,UUPSUpgradeable,OwnableUpgradeable{... */\n  callvalue\n  dup1\n  iszero\n  tag_1\n  jumpi\n  0x00\n  dup1\n  revert\ntag_1:\n  pop\n  mload(0x80)\n  codecopy(0x00, dataOffset(sub_0), dataSize(sub_0))\n  0x00\n  assignImmutable(\"0x0b83f23a4eeb8c3f5f7d5934a2289bcf0186d09a12e1b7f20adf54e4b179db15\")\n  return(0x00, dataSize(sub_0))\nstop\n\nsub_0: assembly {\n        /* \"contracts/UUPSUpgrade/DemoV1.sol\":309:1449  contract Demo is Initializable,UUPSUpgradeable,OwnableUpgradeable{... */\n      mstore(0x40, 0x80)\n      jumpi(tag_1, lt(calldatasize, 0x04))\n      shr(0xe0, calldataload(0x00))\n      dup1\n      0xad3cb1cc\n      gt\n      tag_14\n      jumpi\n      dup1\n      0xad3cb1cc\n      eq\n      tag_8\n      jumpi\n      dup1\n      0xcd6dc687\n      eq\n      tag_9\n      jumpi\n      dup1\n      0xcdb6ed1b\n      eq\n      tag_10\n      jumpi\n      dup1\n      0xf2c9ecd8\n      eq\n      tag_11\n      jumpi\n      dup1\n      0xf2fde38b\n      eq\n      tag_12\n      jumpi\n      dup1\n      0xf879333e\n      eq\n      tag_13\n      jumpi\n      jump(tag_1)\n    tag_14:\n      dup1\n      0x4154b243\n      eq\n      tag_2\n      jumpi\n      dup1\n      0x4f1ef286\n      eq\n      tag_3\n      jumpi\n      dup1\n      0x52d1902d\n      eq\n      tag_4\n      jumpi\n      dup1\n      0x715018a6\n      eq\n      tag_5\n      jumpi\n      dup1\n      0x8381f58a\n      eq\n      tag_6\n      jumpi\n      dup1\n      0x8da5cb5b\n      eq\n      tag_7\n      jumpi\n    tag_1:\n      0x00\n      dup1\n      revert\n        /* \"contracts/UUPSUpgrade/DemoV1.sol\":719:794  function setNumber() public onlyProxy{... */\n    tag_2:\n      callvalue\n      dup1\n      iszero\n      tag_15\n      jumpi\n      0x00\n      dup1\n      revert\n    tag_15:\n      pop\n      tag_16\n      tag_17\n      jump\t// in\n    tag_16:\n      stop\n        /* \"@openzeppelin/contracts-upgradeable/proxy/utils/UUPSUpgradeable.sol\":4158:4372  function upgradeToAndCall(address newImplementation, bytes memory data) public payable virtual onlyProxy {... */\n    tag_3:\n      tag_18\n      0x04\n      dup1\n      calldatasize\n      sub\n      dup2\n      add\n      swap1\n      tag_19\n      swap2\n      swap1\n      tag_20\n      jump\t// in\n    tag_19:\n      tag_21\n      jump\t// in\n    tag_18:\n      stop\n        /* \"@openzeppelin/contracts-upgradeable/proxy/utils/UUPSUpgradeable.sol\":3705:3839  function proxiableUUID() external view virtual notDelegated returns (bytes32) {... */\n    tag_4:\n      callvalue\n      dup1\n      iszero\n      tag_22\n      jumpi\n      0x00\n      dup1\n      revert\n    tag_22:\n      pop\n      tag_23\n      tag_24\n      jump\t// in\n    tag_23:\n      mload(0x40)\n      tag_25\n      swap2\n      swap1\n      tag_26\n      jump\t// in\n    tag_25:\n      mload(0x40)\n      dup1\n      swap2\n      sub\n      swap1\n      return\n        /* \"@openzeppelin/contracts-upgradeable/access/OwnableUpgradeable.sol\":3155:3256  function renounceOwnership() public virtual onlyOwner {... */\n    tag_5:\n      callvalue\n      dup1\n      iszero\n      tag_27\n      jumpi\n      0x00\n      dup1\n      revert\n    tag_27:\n      pop\n      tag_28\n      tag_29\n      jump\t// in\n    tag_28:\n      stop\n        /* \"contracts/UUPSUpgrade/DemoV1.sol\":381:402  uint256 public number */\n    tag_6:\n      callvalue\n      dup1\n      iszero\n      tag_30\n      jumpi\n      0x00\n      dup1\n      revert\n    tag_30:\n      pop\n      tag_31\n      tag_32\n      jump\t// in\n    tag_31:\n      mload(0x40)\n      tag_33\n      swap2\n      swap1\n      tag_34\n      jump\t// in\n    tag_33:\n      mload(0x40)\n      dup1\n      swap2\n      sub\n      swap1\n      return\n        /* \"@openzeppelin/contracts-upgradeable/access/OwnableUpgradeable.sol\":2441:2585  function owner() public view virtual returns (address) {... */\n    tag_7:\n      callvalue\n      dup1\n      iszero\n      tag_35\n      jumpi\n      0x00\n      dup1\n      revert\n    tag_35:\n      pop\n      tag_36\n      tag_37\n      jump\t// in\n    tag_36:\n      mload(0x40)\n      tag_38\n      swap2\n      swap1\n      tag_39\n      jump\t// in\n    tag_38:\n      mload(0x40)\n      dup1\n      swap2\n      sub\n      swap1\n      return\n        /* \"@openzeppelin/contracts-upgradeable/proxy/utils/UUPSUpgradeable.sol\":1819:1877  string public constant UPGRADE_INTERFACE_VERSION = \"5.0.0\" */\n    tag_8:\n      callvalue\n      dup1\n      iszero\n      tag_40\n      jumpi\n      0x00\n      dup1\n      revert\n    tag_40:\n      pop\n      tag_41\n      tag_42\n      jump\t// in\n    tag_41:\n      mload(0x40)\n      tag_43\n      swap2\n      swap1\n      tag_44\n      jump\t// in\n    tag_43:\n      mload(0x40)\n      dup1\n      swap2\n      sub\n      swap1\n      return\n        /* \"contracts/UUPSUpgrade/DemoV1.sol\":411:611  function initialize(address initialOwner,uint256 _number) public initializer {... */\n    tag_9:\n      callvalue\n      dup1\n      iszero\n      tag_45\n      jumpi\n      0x00\n      dup1\n      revert\n    tag_45:\n      pop\n      tag_46\n      0x04\n      dup1\n      calldatasize\n      sub\n      dup2\n      add\n      swap1\n      tag_47\n      swap2\n      swap1\n      tag_48\n      jump\t// in\n    tag_47:\n      tag_49\n      jump\t// in\n    tag_46:\n      stop\n        /* \"contracts/UUPSUpgrade/DemoV1.sol\":1034:1322  function helper(address addr_,bytes memory data) public  pure returns(bytes memory){... */\n    tag_10:\n      callvalue\n      dup1\n      iszero\n      tag_50\n      jumpi\n      0x00\n      dup1\n      revert\n    tag_50:\n      pop\n      tag_51\n      0x04\n      dup1\n      calldatasize\n      sub\n      dup2\n      add\n      swap1\n      tag_52\n      swap2\n      swap1\n      tag_20\n      jump\t// in\n    tag_52:\n      tag_53\n      jump\t// in\n    tag_51:\n      mload(0x40)\n      tag_54\n      swap2\n      swap1\n      tag_55\n      jump\t// in\n    tag_54:\n      mload(0x40)\n      dup1\n      swap2\n      sub\n      swap1\n      return\n        /* \"contracts/UUPSUpgrade/DemoV1.sol\":619:711  function getNumber() public view onlyProxy returns(uint256) {... */\n    tag_11:\n      callvalue\n      dup1\n      iszero\n      tag_56\n      jumpi\n      0x00\n      dup1\n      revert\n    tag_56:\n      pop\n      tag_57\n      tag_58\n      jump\t// in\n    tag_57:\n      mload(0x40)\n      tag_59\n      swap2\n      swap1\n      tag_34\n      jump\t// in\n    tag_59:\n      mload(0x40)\n      dup1\n      swap2\n      sub\n      swap1\n      return\n        /* \"@openzeppelin/contracts-upgradeable/access/OwnableUpgradeable.sol\":3405:3620  function transferOwnership(address newOwner) public virtual onlyOwner {... */\n    tag_12:\n      callvalue\n      dup1\n      iszero\n      tag_60\n      jumpi\n      0x00\n      dup1\n      revert\n    tag_60:\n      pop\n      tag_61\n      0x04\n      dup1\n      calldatasize\n      sub\n      dup2\n      add\n      swap1\n      tag_62\n      swap2\n      swap1\n      tag_63\n      jump\t// in\n    tag_62:\n      tag_64\n      jump\t// in\n    tag_61:\n      stop\n        /* \"contracts/UUPSUpgrade/DemoV1.sol\":802:1026  function getSign(string memory str,address initialOwner,uint256 _number) public pure returns(bytes memory){... */\n    tag_13:\n      callvalue\n      dup1\n      iszero\n      tag_65\n      jumpi\n      0x00\n      dup1\n      revert\n    tag_65:\n      pop\n      tag_66\n      0x04\n      dup1\n      calldatasize\n      sub\n      dup2\n      add\n      swap1\n      tag_67\n      swap2\n      swap1\n      tag_68\n      jump\t// in\n    tag_67:\n      tag_69\n      jump\t// in\n    tag_66:\n      mload(0x40)\n      tag_70\n      swap2\n      swap1\n      tag_55\n      jump\t// in\n    tag_70:\n      mload(0x40)\n      dup1\n      swap2\n      sub\n      swap1\n      return\n        /* \"contracts/UUPSUpgrade/DemoV1.sol\":719:794  function setNumber() public onlyProxy{... */\n    tag_17:\n        /* \"@openzeppelin/contracts-upgradeable/proxy/utils/UUPSUpgradeable.sol\":2653:2666  _checkProxy() */\n      tag_72\n        /* \"@openzeppelin/contracts-upgradeable/proxy/utils/UUPSUpgradeable.sol\":2653:2664  _checkProxy */\n      tag_73\n        /* \"@openzeppelin/contracts-upgradeable/proxy/utils/UUPSUpgradeable.sol\":2653:2666  _checkProxy() */\n      jump\t// in\n    tag_72:\n        /* \"contracts/UUPSUpgrade/DemoV1.sol\":785:786  2 */\n      0x02\n        /* \"contracts/UUPSUpgrade/DemoV1.sol\":776:782  number */\n      sload(0x00)\n        /* \"contracts/UUPSUpgrade/DemoV1.sol\":776:786  number * 2 */\n      tag_75\n      swap2\n      swap1\n      tag_76\n      jump\t// in\n    tag_75:\n        /* \"contracts/UUPSUpgrade/DemoV1.sol\":767:773  number */\n      0x00\n        /* \"contracts/UUPSUpgrade/DemoV1.sol\":767:786  number = number * 2 */\n      dup2\n      swap1\n      sstore\n      pop\n        /* \"contracts/UUPSUpgrade/DemoV1.sol\":719:794  function setNumber() public onlyProxy{... */\n      jump\t// out\n        /* \"@openzeppelin/contracts-upgradeable/proxy/utils/UUPSUpgradeable.sol\":4158:4372  function upgradeToAndCall(address newImplementation, bytes memory data) public payable virtual onlyProxy {... */\n    tag_21:\n        /* \"@openzeppelin/contracts-upgradeable/proxy/utils/UUPSUpgradeable.sol\":2653:2666  _checkProxy() */\n      tag_78\n        /* \"@openzeppelin/contracts-upgradeable/proxy/utils/UUPSUpgradeable.sol\":2653:2664  _checkProxy */\n      tag_73\n        /* \"@openzeppelin/contracts-upgradeable/proxy/utils/UUPSUpgradeable.sol\":2653:2666  _checkProxy() */\n      jump\t// in\n    tag_78:\n        /* \"@openzeppelin/contracts-upgradeable/proxy/utils/UUPSUpgradeable.sol\":4273:4309  _authorizeUpgrade(newImplementation) */\n      tag_80\n        /* \"@openzeppelin/contracts-upgradeable/proxy/utils/UUPSUpgradeable.sol\":4291:4308  newImplementation */\n      dup3\n        /* \"@openzeppelin/contracts-upgradeable/proxy/utils/UUPSUpgradeable.sol\":4273:4290  _authorizeUpgrade */\n      tag_81\n        /* \"@openzeppelin/contracts-upgradeable/proxy/utils/UUPSUpgradeable.sol\":4273:4309  _authorizeUpgrade(newImplementation) */\n      jump\t// in\n    tag_80:\n        /* \"@openzeppelin/contracts-upgradeable/proxy/utils/UUPSUpgradeable.sol\":4319:4365  _upgradeToAndCallUUPS(newImplementation, data) */\n      tag_82\n        /* \"@openzeppelin/contracts-upgradeable/proxy/utils/UUPSUpgradeable.sol\":4341:4358  newImplementation */\n      dup3\n        /* \"@openzeppelin/contracts-upgradeable/proxy/utils/UUPSUpgradeable.sol\":4360:4364  data */\n      dup3\n        /* \"@openzeppelin/contracts-upgradeable/proxy/utils/UUPSUpgradeable.sol\":4319:4340  _upgradeToAndCallUUPS */\n      tag_83\n        /* \"@openzeppelin/contracts-upgradeable/proxy/utils/UUPSUpgradeable.sol\":4319:4365  _upgradeToAndCallUUPS(newImplementation, data) */\n      jump\t// in\n    tag_82:\n        /* \"@openzeppelin/contracts-upgradeable/proxy/utils/UUPSUpgradeable.sol\":4158:4372  function upgradeToAndCall(address newImplementation, bytes memory data) public payable virtual onlyProxy {... */\n      pop\n      pop\n      jump\t// out\n        /* \"@openzeppelin/contracts-upgradeable/proxy/utils/UUPSUpgradeable.sol\":3705:3839  function proxiableUUID() external view virtual notDelegated returns (bytes32) {... */\n    tag_24:\n        /* \"@openzeppelin/contracts-upgradeable/proxy/utils/UUPSUpgradeable.sol\":3774:3781  bytes32 */\n      0x00\n        /* \"@openzeppelin/contracts-upgradeable/proxy/utils/UUPSUpgradeable.sol\":2924:2944  _checkNotDelegated() */\n      tag_85\n        /* \"@openzeppelin/contracts-upgradeable/proxy/utils/UUPSUpgradeable.sol\":2924:2942  _checkNotDelegated */\n      tag_86\n        /* \"@openzeppelin/contracts-upgradeable/proxy/utils/UUPSUpgradeable.sol\":2924:2944  _checkNotDelegated() */\n      jump\t// in\n    tag_85:\n        /* \"@openzeppelin/contracts/proxy/ERC1967/ERC1967Utils.sol\":1327:1393  0x360894a13ba1a3210667c828492db98dca3e2076cc3735a920a3ca505d382bbc */\n      0x360894a13ba1a3210667c828492db98dca3e2076cc3735a920a3ca505d382bbc\n        /* \"@openzeppelin/contracts-upgradeable/proxy/utils/UUPSUpgradeable.sol\":3800:3832  ERC1967Utils.IMPLEMENTATION_SLOT */\n      0x00\n      shl\n        /* \"@openzeppelin/contracts-upgradeable/proxy/utils/UUPSUpgradeable.sol\":3793:3832  return ERC1967Utils.IMPLEMENTATION_SLOT */\n      swap1\n      pop\n        /* \"@openzeppelin/contracts-upgradeable/proxy/utils/UUPSUpgradeable.sol\":3705:3839  function proxiableUUID() external view virtual notDelegated returns (bytes32) {... */\n      swap1\n      jump\t// out\n        /* \"@openzeppelin/contracts-upgradeable/access/OwnableUpgradeable.sol\":3155:3256  function renounceOwnership() public virtual onlyOwner {... */\n    tag_29:\n        /* \"@openzeppelin/contracts-upgradeable/access/OwnableUpgradeable.sol\":2334:2347  _checkOwner() */\n      tag_89\n        /* \"@openzeppelin/contracts-upgradeable/access/OwnableUpgradeable.sol\":2334:2345  _checkOwner */\n      tag_90\n        /* \"@openzeppelin/contracts-upgradeable/access/OwnableUpgradeable.sol\":2334:2347  _checkOwner() */\n      jump\t// in\n    tag_89:\n        /* \"@openzeppelin/contracts-upgradeable/access/OwnableUpgradeable.sol\":3219:3249  _transferOwnership(address(0)) */\n      tag_92\n        /* \"@openzeppelin/contracts-upgradeable/access/OwnableUpgradeable.sol\":3246:3247  0 */\n      0x00\n        /* \"@openzeppelin/contracts-upgradeable/access/OwnableUpgradeable.sol\":3219:3237  _transferOwnership */\n      tag_93\n        /* \"@openzeppelin/contracts-upgradeable/access/OwnableUpgradeable.sol\":3219:3249  _transferOwnership(address(0)) */\n      jump\t// in\n    tag_92:\n        /* \"@openzeppelin/contracts-upgradeable/access/OwnableUpgradeable.sol\":3155:3256  function renounceOwnership() public virtual onlyOwner {... */\n      jump\t// out\n        /* \"contracts/UUPSUpgrade/DemoV1.sol\":381:402  uint256 public number */\n    tag_32:\n      sload(0x00)\n      dup2\n      jump\t// out\n        /* \"@openzeppelin/contracts-upgradeable/access/OwnableUpgradeable.sol\":2441:2585  function owner() public view virtual returns (address) {... */\n    tag_37:\n        /* \"@openzeppelin/contracts-upgradeable/access/OwnableUpgradeable.sol\":2487:2494  address */\n      0x00\n        /* \"@openzeppelin/contracts-upgradeable/access/OwnableUpgradeable.sol\":2506:2530  OwnableStorage storage $ */\n      dup1\n        /* \"@openzeppelin/contracts-upgradeable/access/OwnableUpgradeable.sol\":2533:2553  _getOwnableStorage() */\n      tag_95\n        /* \"@openzeppelin/contracts-upgradeable/access/OwnableUpgradeable.sol\":2533:2551  _getOwnableStorage */\n      tag_96\n        /* \"@openzeppelin/contracts-upgradeable/access/OwnableUpgradeable.sol\":2533:2553  _getOwnableStorage() */\n      jump\t// in\n    tag_95:\n        /* \"@openzeppelin/contracts-upgradeable/access/OwnableUpgradeable.sol\":2506:2553  OwnableStorage storage $ = _getOwnableStorage() */\n      swap1\n      pop\n        /* \"@openzeppelin/contracts-upgradeable/access/OwnableUpgradeable.sol\":2570:2571  $ */\n      dup1\n        /* \"@openzeppelin/contracts-upgradeable/access/OwnableUpgradeable.sol\":2570:2578  $._owner */\n      0x00\n      add\n      0x00\n      swap1\n      sload\n      swap1\n      0x0100\n      exp\n      swap1\n      div\n      0xffffffffffffffffffffffffffffffffffffffff\n      and\n        /* \"@openzeppelin/contracts-upgradeable/access/OwnableUpgradeable.sol\":2563:2578  return $._owner */\n      swap2\n      pop\n      pop\n        /* \"@openzeppelin/contracts-upgradeable/access/OwnableUpgradeable.sol\":2441:2585  function owner() public view virtual returns (address) {... */\n      swap1\n      jump\t// out\n        /* \"@openzeppelin/contracts-upgradeable/proxy/utils/UUPSUpgradeable.sol\":1819:1877  string public constant UPGRADE_INTERFACE_VERSION = \"5.0.0\" */\n    tag_42:\n      mload(0x40)\n      dup1\n      0x40\n      add\n      0x40\n      mstore\n      dup1\n      0x05\n      dup2\n      mstore\n      0x20\n      add\n      0x352e302e30000000000000000000000000000000000000000000000000000000\n      dup2\n      mstore\n      pop\n      dup2\n      jump\t// out\n        /* \"contracts/UUPSUpgrade/DemoV1.sol\":411:611  function initialize(address initialOwner,uint256 _number) public initializer {... */\n    tag_49:\n        /* \"@openzeppelin/contracts-upgradeable/proxy/utils/Initializable.sol\":4158:4188  InitializableStorage storage $ */\n      0x00\n        /* \"@openzeppelin/contracts-upgradeable/proxy/utils/Initializable.sol\":4191:4217  _getInitializableStorage() */\n      tag_98\n        /* \"@openzeppelin/contracts-upgradeable/proxy/utils/Initializable.sol\":4191:4215  _getInitializableStorage */\n      tag_99\n        /* \"@openzeppelin/contracts-upgradeable/proxy/utils/Initializable.sol\":4191:4217  _getInitializableStorage() */\n      jump\t// in\n    tag_98:\n        /* \"@openzeppelin/contracts-upgradeable/proxy/utils/Initializable.sol\":4158:4217  InitializableStorage storage $ = _getInitializableStorage() */\n      swap1\n      pop\n        /* \"@openzeppelin/contracts-upgradeable/proxy/utils/Initializable.sol\":4279:4298  bool isTopLevelCall */\n      0x00\n        /* \"@openzeppelin/contracts-upgradeable/proxy/utils/Initializable.sol\":4302:4303  $ */\n      dup2\n        /* \"@openzeppelin/contracts-upgradeable/proxy/utils/Initializable.sol\":4302:4317  $._initializing */\n      0x00\n      add\n      0x08\n      swap1\n      sload\n      swap1\n      0x0100\n      exp\n      swap1\n      div\n      0xff\n      and\n        /* \"@openzeppelin/contracts-upgradeable/proxy/utils/Initializable.sol\":4301:4317  !$._initializing */\n      iszero\n        /* \"@openzeppelin/contracts-upgradeable/proxy/utils/Initializable.sol\":4279:4317  bool isTopLevelCall = !$._initializing */\n      swap1\n      pop\n        /* \"@openzeppelin/contracts-upgradeable/proxy/utils/Initializable.sol\":4327:4345  uint64 initialized */\n      0x00\n        /* \"@openzeppelin/contracts-upgradeable/proxy/utils/Initializable.sol\":4348:4349  $ */\n      dup3\n        /* \"@openzeppelin/contracts-upgradeable/proxy/utils/Initializable.sol\":4348:4362  $._initialized */\n      0x00\n      add\n      0x00\n      swap1\n      sload\n      swap1\n      0x0100\n      exp\n      swap1\n      div\n      0xffffffffffffffff\n      and\n        /* \"@openzeppelin/contracts-upgradeable/proxy/utils/Initializable.sol\":4327:4362  uint64 initialized = $._initialized */\n      swap1\n      pop\n        /* \"@openzeppelin/contracts-upgradeable/proxy/utils/Initializable.sol\":4706:4723  bool initialSetup */\n      0x00\n        /* \"@openzeppelin/contracts-upgradeable/proxy/utils/Initializable.sol\":4741:4742  0 */\n      dup1\n        /* \"@openzeppelin/contracts-upgradeable/proxy/utils/Initializable.sol\":4726:4737  initialized */\n      dup3\n        /* \"@openzeppelin/contracts-upgradeable/proxy/utils/Initializable.sol\":4726:4742  initialized == 0 */\n      0xffffffffffffffff\n      and\n      eq\n        /* \"@openzeppelin/contracts-upgradeable/proxy/utils/Initializable.sol\":4726:4760  initialized == 0 && isTopLevelCall */\n      dup1\n      iszero\n      tag_100\n      jumpi\n      pop\n        /* \"@openzeppelin/contracts-upgradeable/proxy/utils/Initializable.sol\":4746:4760  isTopLevelCall */\n      dup3\n        /* \"@openzeppelin/contracts-upgradeable/proxy/utils/Initializable.sol\":4726:4760  initialized == 0 && isTopLevelCall */\n    tag_100:\n        /* \"@openzeppelin/contracts-upgradeable/proxy/utils/Initializable.sol\":4706:4760  bool initialSetup = initialized == 0 && isTopLevelCall */\n      swap1\n      pop\n        /* \"@openzeppelin/contracts-upgradeable/proxy/utils/Initializable.sol\":4770:4787  bool construction */\n      0x00\n        /* \"@openzeppelin/contracts-upgradeable/proxy/utils/Initializable.sol\":4805:4806  1 */\n      0x01\n        /* \"@openzeppelin/contracts-upgradeable/proxy/utils/Initializable.sol\":4790:4801  initialized */\n      dup4\n        /* \"@openzeppelin/contracts-upgradeable/proxy/utils/Initializable.sol\":4790:4806  initialized == 1 */\n      0xffffffffffffffff\n      and\n      eq\n        /* \"@openzeppelin/contracts-upgradeable/proxy/utils/Initializable.sol\":4790:4840  initialized == 1 && address(this).code.length == 0 */\n      dup1\n      iszero\n      tag_101\n      jumpi\n      pop\n        /* \"@openzeppelin/contracts-upgradeable/proxy/utils/Initializable.sol\":4839:4840  0 */\n      0x00\n        /* \"@openzeppelin/contracts-upgradeable/proxy/utils/Initializable.sol\":4818:4822  this */\n      address\n        /* \"@openzeppelin/contracts-upgradeable/proxy/utils/Initializable.sol\":4810:4835  address(this).code.length */\n      0xffffffffffffffffffffffffffffffffffffffff\n      and\n      extcodesize\n        /* \"@openzeppelin/contracts-upgradeable/proxy/utils/Initializable.sol\":4810:4840  address(this).code.length == 0 */\n      eq\n        /* \"@openzeppelin/contracts-upgradeable/proxy/utils/Initializable.sol\":4790:4840  initialized == 1 && address(this).code.length == 0 */\n    tag_101:\n        /* \"@openzeppelin/contracts-upgradeable/proxy/utils/Initializable.sol\":4770:4840  bool construction = initialized == 1 && address(this).code.length == 0 */\n      swap1\n      pop\n        /* \"@openzeppelin/contracts-upgradeable/proxy/utils/Initializable.sol\":4856:4868  initialSetup */\n      dup2\n        /* \"@openzeppelin/contracts-upgradeable/proxy/utils/Initializable.sol\":4855:4868  !initialSetup */\n      iszero\n        /* \"@openzeppelin/contracts-upgradeable/proxy/utils/Initializable.sol\":4855:4885  !initialSetup && !construction */\n      dup1\n      iszero\n      tag_102\n      jumpi\n      pop\n        /* \"@openzeppelin/contracts-upgradeable/proxy/utils/Initializable.sol\":4873:4885  construction */\n      dup1\n        /* \"@openzeppelin/contracts-upgradeable/proxy/utils/Initializable.sol\":4872:4885  !construction */\n      iszero\n        /* \"@openzeppelin/contracts-upgradeable/proxy/utils/Initializable.sol\":4855:4885  !initialSetup && !construction */\n    tag_102:\n        /* \"@openzeppelin/contracts-upgradeable/proxy/utils/Initializable.sol\":4851:4942  if (!initialSetup && !construction) {... */\n      iszero\n      tag_103\n      jumpi\n        /* \"@openzeppelin/contracts-upgradeable/proxy/utils/Initializable.sol\":4908:4931  InvalidInitialization() */\n      mload(0x40)\n      0xf92ee8a900000000000000000000000000000000000000000000000000000000\n      dup2\n      mstore\n      0x04\n      add\n      mload(0x40)\n      dup1\n      swap2\n      sub\n      swap1\n      revert\n        /* \"@openzeppelin/contracts-upgradeable/proxy/utils/Initializable.sol\":4851:4942  if (!initialSetup && !construction) {... */\n    tag_103:\n        /* \"@openzeppelin/contracts-upgradeable/proxy/utils/Initializable.sol\":4968:4969  1 */\n      0x01\n        /* \"@openzeppelin/contracts-upgradeable/proxy/utils/Initializable.sol\":4951:4952  $ */\n      dup6\n        /* \"@openzeppelin/contracts-upgradeable/proxy/utils/Initializable.sol\":4951:4965  $._initialized */\n      0x00\n      add\n      0x00\n        /* \"@openzeppelin/contracts-upgradeable/proxy/utils/Initializable.sol\":4951:4969  $._initialized = 1 */\n      0x0100\n      exp\n      dup2\n      sload\n      dup2\n      0xffffffffffffffff\n      mul\n      not\n      and\n      swap1\n      dup4\n      0xffffffffffffffff\n      and\n      mul\n      or\n      swap1\n      sstore\n      pop\n        /* \"@openzeppelin/contracts-upgradeable/proxy/utils/Initializable.sol\":4983:4997  isTopLevelCall */\n      dup4\n        /* \"@openzeppelin/contracts-upgradeable/proxy/utils/Initializable.sol\":4979:5046  if (isTopLevelCall) {... */\n      iszero\n      tag_104\n      jumpi\n        /* \"@openzeppelin/contracts-upgradeable/proxy/utils/Initializable.sol\":5031:5035  true */\n      0x01\n        /* \"@openzeppelin/contracts-upgradeable/proxy/utils/Initializable.sol\":5013:5014  $ */\n      dup6\n        /* \"@openzeppelin/contracts-upgradeable/proxy/utils/Initializable.sol\":5013:5028  $._initializing */\n      0x00\n      add\n      0x08\n        /* \"@openzeppelin/contracts-upgradeable/proxy/utils/Initializable.sol\":5013:5035  $._initializing = true */\n      0x0100\n      exp\n      dup2\n      sload\n      dup2\n      0xff\n      mul\n      not\n      and\n      swap1\n      dup4\n      iszero\n      iszero\n      mul\n      or\n      swap1\n      sstore\n      pop\n        /* \"@openzeppelin/contracts-upgradeable/proxy/utils/Initializable.sol\":4979:5046  if (isTopLevelCall) {... */\n    tag_104:\n        /* \"contracts/UUPSUpgrade/DemoV1.sol\":499:527  __Ownable_init(initialOwner) */\n      tag_106\n        /* \"contracts/UUPSUpgrade/DemoV1.sol\":514:526  initialOwner */\n      dup8\n        /* \"contracts/UUPSUpgrade/DemoV1.sol\":499:513  __Ownable_init */\n      tag_107\n        /* \"contracts/UUPSUpgrade/DemoV1.sol\":499:527  __Ownable_init(initialOwner) */\n      jump\t// in\n    tag_106:\n        /* \"contracts/UUPSUpgrade/DemoV1.sol\":596:603  _number */\n      dup6\n        /* \"contracts/UUPSUpgrade/DemoV1.sol\":587:593  number */\n      0x00\n        /* \"contracts/UUPSUpgrade/DemoV1.sol\":587:603  number = _number */\n      dup2\n      swap1\n      sstore\n      pop\n        /* \"@openzeppelin/contracts-upgradeable/proxy/utils/Initializable.sol\":5070:5084  isTopLevelCall */\n      dup4\n        /* \"@openzeppelin/contracts-upgradeable/proxy/utils/Initializable.sol\":5066:5167  if (isTopLevelCall) {... */\n      iszero\n      tag_108\n      jumpi\n        /* \"@openzeppelin/contracts-upgradeable/proxy/utils/Initializable.sol\":5118:5123  false */\n      0x00\n        /* \"@openzeppelin/contracts-upgradeable/proxy/utils/Initializable.sol\":5100:5101  $ */\n      dup6\n        /* \"@openzeppelin/contracts-upgradeable/proxy/utils/Initializable.sol\":5100:5115  $._initializing */\n      0x00\n      add\n      0x08\n        /* \"@openzeppelin/contracts-upgradeable/proxy/utils/Initializable.sol\":5100:5123  $._initializing = false */\n      0x0100\n      exp\n      dup2\n      sload\n      dup2\n      0xff\n      mul\n      not\n      and\n      swap1\n      dup4\n      iszero\n      iszero\n      mul\n      or\n      swap1\n      sstore\n      pop\n        /* \"@openzeppelin/contracts-upgradeable/proxy/utils/Initializable.sol\":5142:5156  Initialized(1) */\n      0xc7f505b2f371ae2175ee4913f4499e1f2633a7b5936321eed1cdaeb6115181d2\n        /* \"@openzeppelin/contracts-upgradeable/proxy/utils/Initializable.sol\":5154:5155  1 */\n      0x01\n        /* \"@openzeppelin/contracts-upgradeable/proxy/utils/Initializable.sol\":5142:5156  Initialized(1) */\n      mload(0x40)\n      tag_109\n      swap2\n      swap1\n      tag_110\n      jump\t// in\n    tag_109:\n      mload(0x40)\n      dup1\n      swap2\n      sub\n      swap1\n      log1\n        /* \"@openzeppelin/contracts-upgradeable/proxy/utils/Initializable.sol\":5066:5167  if (isTopLevelCall) {... */\n    tag_108:\n        /* \"@openzeppelin/contracts-upgradeable/proxy/utils/Initializable.sol\":4092:5173  {... */\n      pop\n      pop\n      pop\n      pop\n      pop\n        /* \"contracts/UUPSUpgrade/DemoV1.sol\":411:611  function initialize(address initialOwner,uint256 _number) public initializer {... */\n      pop\n      pop\n      jump\t// out\n        /* \"contracts/UUPSUpgrade/DemoV1.sol\":1034:1322  function helper(address addr_,bytes memory data) public  pure returns(bytes memory){... */\n    tag_53:\n        /* \"contracts/UUPSUpgrade/DemoV1.sol\":1104:1116  bytes memory */\n      0x60\n        /* \"contracts/UUPSUpgrade/DemoV1.sol\":1303:1308  addr_ */\n      dup3\n        /* \"contracts/UUPSUpgrade/DemoV1.sol\":1309:1313  data */\n      dup3\n        /* \"contracts/UUPSUpgrade/DemoV1.sol\":1245:1314  abi.encodeWithSignature(\"upgradeToAndCall(address,bytes)\",addr_,data) */\n      add(0x24, mload(0x40))\n      tag_112\n      swap3\n      swap2\n      swap1\n      tag_113\n      jump\t// in\n    tag_112:\n      mload(0x40)\n      0x20\n      dup2\n      dup4\n      sub\n      sub\n      dup2\n      mstore\n      swap1\n      0x40\n      mstore\n      and(not(0xffffffffffffffffffffffffffffffffffffffffffffffffffffffff), 0x4f1ef28600000000000000000000000000000000000000000000000000000000)\n      0x20\n      dup3\n      add\n      dup1\n      mload\n      0xffffffffffffffffffffffffffffffffffffffffffffffffffffffff\n      dup4\n      dup2\n      dup4\n      and\n      or\n      dup4\n      mstore\n      pop\n      pop\n      pop\n      pop\n        /* \"contracts/UUPSUpgrade/DemoV1.sol\":1238:1314  return abi.encodeWithSignature(\"upgradeToAndCall(address,bytes)\",addr_,data) */\n      swap1\n      pop\n        /* \"contracts/UUPSUpgrade/DemoV1.sol\":1034:1322  function helper(address addr_,bytes memory data) public  pure returns(bytes memory){... */\n      swap3\n      swap2\n      pop\n      pop\n      jump\t// out\n        /* \"contracts/UUPSUpgrade/DemoV1.sol\":619:711  function getNumber() public view onlyProxy returns(uint256) {... */\n    tag_58:\n        /* \"contracts/UUPSUpgrade/DemoV1.sol\":670:677  uint256 */\n      0x00\n        /* \"@openzeppelin/contracts-upgradeable/proxy/utils/UUPSUpgradeable.sol\":2653:2666  _checkProxy() */\n      tag_115\n        /* \"@openzeppelin/contracts-upgradeable/proxy/utils/UUPSUpgradeable.sol\":2653:2664  _checkProxy */\n      tag_73\n        /* \"@openzeppelin/contracts-upgradeable/proxy/utils/UUPSUpgradeable.sol\":2653:2666  _checkProxy() */\n      jump\t// in\n    tag_115:\n        /* \"contracts/UUPSUpgrade/DemoV1.sol\":697:703  number */\n      sload(0x00)\n        /* \"contracts/UUPSUpgrade/DemoV1.sol\":690:703  return number */\n      swap1\n      pop\n        /* \"contracts/UUPSUpgrade/DemoV1.sol\":619:711  function getNumber() public view onlyProxy returns(uint256) {... */\n      swap1\n      jump\t// out\n        /* \"@openzeppelin/contracts-upgradeable/access/OwnableUpgradeable.sol\":3405:3620  function transferOwnership(address newOwner) public virtual onlyOwner {... */\n    tag_64:\n        /* \"@openzeppelin/contracts-upgradeable/access/OwnableUpgradeable.sol\":2334:2347  _checkOwner() */\n      tag_118\n        /* \"@openzeppelin/contracts-upgradeable/access/OwnableUpgradeable.sol\":2334:2345  _checkOwner */\n      tag_90\n        /* \"@openzeppelin/contracts-upgradeable/access/OwnableUpgradeable.sol\":2334:2347  _checkOwner() */\n      jump\t// in\n    tag_118:\n        /* \"@openzeppelin/contracts-upgradeable/access/OwnableUpgradeable.sol\":3509:3510  0 */\n      0x00\n        /* \"@openzeppelin/contracts-upgradeable/access/OwnableUpgradeable.sol\":3489:3511  newOwner == address(0) */\n      0xffffffffffffffffffffffffffffffffffffffff\n      and\n        /* \"@openzeppelin/contracts-upgradeable/access/OwnableUpgradeable.sol\":3489:3497  newOwner */\n      dup2\n        /* \"@openzeppelin/contracts-upgradeable/access/OwnableUpgradeable.sol\":3489:3511  newOwner == address(0) */\n      0xffffffffffffffffffffffffffffffffffffffff\n      and\n      sub\n        /* \"@openzeppelin/contracts-upgradeable/access/OwnableUpgradeable.sol\":3485:3576  if (newOwner == address(0)) {... */\n      tag_120\n      jumpi\n        /* \"@openzeppelin/contracts-upgradeable/access/OwnableUpgradeable.sol\":3562:3563  0 */\n      0x00\n        /* \"@openzeppelin/contracts-upgradeable/access/OwnableUpgradeable.sol\":3534:3565  OwnableInvalidOwner(address(0)) */\n      mload(0x40)\n      0x1e4fbdf700000000000000000000000000000000000000000000000000000000\n      dup2\n      mstore\n      0x04\n      add\n      tag_121\n      swap2\n      swap1\n      tag_39\n      jump\t// in\n    tag_121:\n      mload(0x40)\n      dup1\n      swap2\n      sub\n      swap1\n      revert\n        /* \"@openzeppelin/contracts-upgradeable/access/OwnableUpgradeable.sol\":3485:3576  if (newOwner == address(0)) {... */\n    tag_120:\n        /* \"@openzeppelin/contracts-upgradeable/access/OwnableUpgradeable.sol\":3585:3613  _transferOwnership(newOwner) */\n      tag_122\n        /* \"@openzeppelin/contracts-upgradeable/access/OwnableUpgradeable.sol\":3604:3612  newOwner */\n      dup2\n        /* \"@openzeppelin/contracts-upgradeable/access/OwnableUpgradeable.sol\":3585:3603  _transferOwnership */\n      tag_93\n        /* \"@openzeppelin/contracts-upgradeable/access/OwnableUpgradeable.sol\":3585:3613  _transferOwnership(newOwner) */\n      jump\t// in\n    tag_122:\n        /* \"@openzeppelin/contracts-upgradeable/access/OwnableUpgradeable.sol\":3405:3620  function transferOwnership(address newOwner) public virtual onlyOwner {... */\n      pop\n      jump\t// out\n        /* \"contracts/UUPSUpgrade/DemoV1.sol\":802:1026  function getSign(string memory str,address initialOwner,uint256 _number) public pure returns(bytes memory){... */\n    tag_69:\n        /* \"contracts/UUPSUpgrade/DemoV1.sol\":895:907  bytes memory */\n      0x60\n        /* \"contracts/UUPSUpgrade/DemoV1.sol\":937:938  0 */\n      0x00\n        /* \"contracts/UUPSUpgrade/DemoV1.sol\":926:933  _number */\n      dup3\n        /* \"contracts/UUPSUpgrade/DemoV1.sol\":926:938  _number == 0 */\n      eq\n        /* \"contracts/UUPSUpgrade/DemoV1.sol\":926:1018  _number == 0 ?abi.encodeWithSignature(str):abi.encodeWithSignature(str,initialOwner,_number) */\n      tag_124\n      jumpi\n        /* \"contracts/UUPSUpgrade/DemoV1.sol\":993:996  str */\n      dup4\n        /* \"contracts/UUPSUpgrade/DemoV1.sol\":997:1009  initialOwner */\n      dup4\n        /* \"contracts/UUPSUpgrade/DemoV1.sol\":1010:1017  _number */\n      dup4\n        /* \"contracts/UUPSUpgrade/DemoV1.sol\":969:1018  abi.encodeWithSignature(str,initialOwner,_number) */\n      add(0x24, mload(0x40))\n      tag_125\n      swap3\n      swap2\n      swap1\n      tag_126\n      jump\t// in\n    tag_125:\n      mload(0x40)\n      0x20\n      dup2\n      dup4\n      sub\n      sub\n      dup2\n      mstore\n      swap1\n      0x40\n      mstore\n      swap1\n      mload(0x40)\n      tag_127\n      swap2\n      swap1\n      tag_128\n      jump\t// in\n    tag_127:\n      mload(0x40)\n      dup1\n      swap2\n      sub\n      swap1\n      keccak256\n      not(0xffffffffffffffffffffffffffffffffffffffffffffffffffffffff)\n      and\n      0x20\n      dup3\n      add\n      dup1\n      mload\n      0xffffffffffffffffffffffffffffffffffffffffffffffffffffffff\n      dup4\n      dup2\n      dup4\n      and\n      or\n      dup4\n      mstore\n      pop\n      pop\n      pop\n      pop\n        /* \"contracts/UUPSUpgrade/DemoV1.sol\":926:1018  _number == 0 ?abi.encodeWithSignature(str):abi.encodeWithSignature(str,initialOwner,_number) */\n      jump(tag_129)\n    tag_124:\n        /* \"contracts/UUPSUpgrade/DemoV1.sol\":964:967  str */\n      dup4\n        /* \"contracts/UUPSUpgrade/DemoV1.sol\":940:968  abi.encodeWithSignature(str) */\n      add(0x24, mload(0x40))\n      mload(0x40)\n      0x20\n      dup2\n      dup4\n      sub\n      sub\n      dup2\n      mstore\n      swap1\n      0x40\n      mstore\n      swap1\n      mload(0x40)\n      tag_130\n      swap2\n      swap1\n      tag_128\n      jump\t// in\n    tag_130:\n      mload(0x40)\n      dup1\n      swap2\n      sub\n      swap1\n      keccak256\n      not(0xffffffffffffffffffffffffffffffffffffffffffffffffffffffff)\n      and\n      0x20\n      dup3\n      add\n      dup1\n      mload\n      0xffffffffffffffffffffffffffffffffffffffffffffffffffffffff\n      dup4\n      dup2\n      dup4\n      and\n      or\n      dup4\n      mstore\n      pop\n      pop\n      pop\n      pop\n        /* \"contracts/UUPSUpgrade/DemoV1.sol\":926:1018  _number == 0 ?abi.encodeWithSignature(str):abi.encodeWithSignature(str,initialOwner,_number) */\n    tag_129:\n        /* \"contracts/UUPSUpgrade/DemoV1.sol\":919:1018  return _number == 0 ?abi.encodeWithSignature(str):abi.encodeWithSignature(str,initialOwner,_number) */\n      swap1\n      pop\n        /* \"contracts/UUPSUpgrade/DemoV1.sol\":802:1026  function getSign(string memory str,address initialOwner,uint256 _number) public pure returns(bytes memory){... */\n      swap4\n      swap3\n      pop\n      pop\n      pop\n      jump\t// out\n        /* \"@openzeppelin/contracts-upgradeable/proxy/utils/UUPSUpgradeable.sol\":4599:4911  function _checkProxy() internal view virtual {... */\n    tag_73:\n        /* \"@openzeppelin/contracts-upgradeable/proxy/utils/UUPSUpgradeable.sol\":4688:4694  __self */\n      immutable(\"0x0b83f23a4eeb8c3f5f7d5934a2289bcf0186d09a12e1b7f20adf54e4b179db15\")\n        /* \"@openzeppelin/contracts-upgradeable/proxy/utils/UUPSUpgradeable.sol\":4671:4694  address(this) == __self */\n      0xffffffffffffffffffffffffffffffffffffffff\n      and\n        /* \"@openzeppelin/contracts-upgradeable/proxy/utils/UUPSUpgradeable.sol\":4679:4683  this */\n      address\n        /* \"@openzeppelin/contracts-upgradeable/proxy/utils/UUPSUpgradeable.sol\":4671:4694  address(this) == __self */\n      0xffffffffffffffffffffffffffffffffffffffff\n      and\n      eq\n        /* \"@openzeppelin/contracts-upgradeable/proxy/utils/UUPSUpgradeable.sol\":4671:4791  address(this) == __self || // Must be called through delegatecall... */\n      dup1\n      tag_132\n      jumpi\n      pop\n        /* \"@openzeppelin/contracts-upgradeable/proxy/utils/UUPSUpgradeable.sol\":4785:4791  __self */\n      immutable(\"0x0b83f23a4eeb8c3f5f7d5934a2289bcf0186d09a12e1b7f20adf54e4b179db15\")\n        /* \"@openzeppelin/contracts-upgradeable/proxy/utils/UUPSUpgradeable.sol\":4749:4791  ERC1967Utils.getImplementation() != __self */\n      0xffffffffffffffffffffffffffffffffffffffff\n      and\n        /* \"@openzeppelin/contracts-upgradeable/proxy/utils/UUPSUpgradeable.sol\":4749:4781  ERC1967Utils.getImplementation() */\n      tag_133\n        /* \"@openzeppelin/contracts-upgradeable/proxy/utils/UUPSUpgradeable.sol\":4749:4779  ERC1967Utils.getImplementation */\n      tag_134\n        /* \"@openzeppelin/contracts-upgradeable/proxy/utils/UUPSUpgradeable.sol\":4749:4781  ERC1967Utils.getImplementation() */\n      jump\t// in\n    tag_133:\n        /* \"@openzeppelin/contracts-upgradeable/proxy/utils/UUPSUpgradeable.sol\":4749:4791  ERC1967Utils.getImplementation() != __self */\n      0xffffffffffffffffffffffffffffffffffffffff\n      and\n      eq\n      iszero\n        /* \"@openzeppelin/contracts-upgradeable/proxy/utils/UUPSUpgradeable.sol\":4671:4791  address(this) == __self || // Must be called through delegatecall... */\n    tag_132:\n        /* \"@openzeppelin/contracts-upgradeable/proxy/utils/UUPSUpgradeable.sol\":4654:4905  if (... */\n      iszero\n      tag_135\n      jumpi\n        /* \"@openzeppelin/contracts-upgradeable/proxy/utils/UUPSUpgradeable.sol\":4865:4894  UUPSUnauthorizedCallContext() */\n      mload(0x40)\n      0xe07c8dba00000000000000000000000000000000000000000000000000000000\n      dup2\n      mstore\n      0x04\n      add\n      mload(0x40)\n      dup1\n      swap2\n      sub\n      swap1\n      revert\n        /* \"@openzeppelin/contracts-upgradeable/proxy/utils/UUPSUpgradeable.sol\":4654:4905  if (... */\n    tag_135:\n        /* \"@openzeppelin/contracts-upgradeable/proxy/utils/UUPSUpgradeable.sol\":4599:4911  function _checkProxy() internal view virtual {... */\n      jump\t// out\n        /* \"contracts/UUPSUpgrade/DemoV1.sol\":1330:1446  function _authorizeUpgrade(address newImplementation)... */\n    tag_81:\n        /* \"@openzeppelin/contracts-upgradeable/access/OwnableUpgradeable.sol\":2334:2347  _checkOwner() */\n      tag_137\n        /* \"@openzeppelin/contracts-upgradeable/access/OwnableUpgradeable.sol\":2334:2345  _checkOwner */\n      tag_90\n        /* \"@openzeppelin/contracts-upgradeable/access/OwnableUpgradeable.sol\":2334:2347  _checkOwner() */\n      jump\t// in\n    tag_137:\n        /* \"contracts/UUPSUpgrade/DemoV1.sol\":1330:1446  function _authorizeUpgrade(address newImplementation)... */\n      pop\n      jump\t// out\n        /* \"@openzeppelin/contracts-upgradeable/proxy/utils/UUPSUpgradeable.sol\":6052:6590  function _upgradeToAndCallUUPS(address newImplementation, bytes memory data) private {... */\n    tag_83:\n        /* \"@openzeppelin/contracts-upgradeable/proxy/utils/UUPSUpgradeable.sol\":6169:6186  newImplementation */\n      dup2\n        /* \"@openzeppelin/contracts-upgradeable/proxy/utils/UUPSUpgradeable.sol\":6151:6201  IERC1822Proxiable(newImplementation).proxiableUUID */\n      0xffffffffffffffffffffffffffffffffffffffff\n      and\n      0x52d1902d\n        /* \"@openzeppelin/contracts-upgradeable/proxy/utils/UUPSUpgradeable.sol\":6151:6203  IERC1822Proxiable(newImplementation).proxiableUUID() */\n      mload(0x40)\n      dup2\n      0xffffffff\n      and\n      0xe0\n      shl\n      dup2\n      mstore\n      0x04\n      add\n      0x20\n      mload(0x40)\n      dup1\n      dup4\n      sub\n      dup2\n      dup7\n      gas\n      staticcall\n      swap3\n      pop\n      pop\n      pop\n      dup1\n      iszero\n      tag_140\n      jumpi\n      pop\n      mload(0x40)\n      returndatasize\n      not(0x1f)\n      0x1f\n      dup3\n      add\n      and\n      dup3\n      add\n      dup1\n      0x40\n      mstore\n      pop\n      dup2\n      add\n      swap1\n      tag_141\n      swap2\n      swap1\n      tag_142\n      jump\t// in\n    tag_141:\n      0x01\n    tag_140:\n        /* \"@openzeppelin/contracts-upgradeable/proxy/utils/UUPSUpgradeable.sol\":6147:6584  try IERC1822Proxiable(newImplementation).proxiableUUID() returns (bytes32 slot) {... */\n      tag_143\n      jumpi\n        /* \"@openzeppelin/contracts-upgradeable/proxy/utils/UUPSUpgradeable.sol\":6555:6572  newImplementation */\n      dup2\n        /* \"@openzeppelin/contracts-upgradeable/proxy/utils/UUPSUpgradeable.sol\":6513:6573  ERC1967Utils.ERC1967InvalidImplementation(newImplementation) */\n      mload(0x40)\n      0x4c9c8ce300000000000000000000000000000000000000000000000000000000\n      dup2\n      mstore\n      0x04\n      add\n      tag_147\n      swap2\n      swap1\n      tag_39\n      jump\t// in\n    tag_147:\n      mload(0x40)\n      dup1\n      swap2\n      sub\n      swap1\n      revert\n        /* \"@openzeppelin/contracts-upgradeable/proxy/utils/UUPSUpgradeable.sol\":6147:6584  try IERC1822Proxiable(newImplementation).proxiableUUID() returns (bytes32 slot) {... */\n    tag_143:\n        /* \"@openzeppelin/contracts/proxy/ERC1967/ERC1967Utils.sol\":1327:1393  0x360894a13ba1a3210667c828492db98dca3e2076cc3735a920a3ca505d382bbc */\n      0x360894a13ba1a3210667c828492db98dca3e2076cc3735a920a3ca505d382bbc\n        /* \"@openzeppelin/contracts-upgradeable/proxy/utils/UUPSUpgradeable.sol\":6253:6285  ERC1967Utils.IMPLEMENTATION_SLOT */\n      0x00\n      shl\n        /* \"@openzeppelin/contracts-upgradeable/proxy/utils/UUPSUpgradeable.sol\":6245:6249  slot */\n      dup2\n        /* \"@openzeppelin/contracts-upgradeable/proxy/utils/UUPSUpgradeable.sol\":6245:6285  slot != ERC1967Utils.IMPLEMENTATION_SLOT */\n      eq\n        /* \"@openzeppelin/contracts-upgradeable/proxy/utils/UUPSUpgradeable.sol\":6241:6361  if (slot != ERC1967Utils.IMPLEMENTATION_SLOT) {... */\n      tag_149\n      jumpi\n        /* \"@openzeppelin/contracts-upgradeable/proxy/utils/UUPSUpgradeable.sol\":6341:6345  slot */\n      dup1\n        /* \"@openzeppelin/contracts-upgradeable/proxy/utils/UUPSUpgradeable.sol\":6312:6346  UUPSUnsupportedProxiableUUID(slot) */\n      mload(0x40)\n      0xaa1d49a400000000000000000000000000000000000000000000000000000000\n      dup2\n      mstore\n      0x04\n      add\n      tag_150\n      swap2\n      swap1\n      tag_26\n      jump\t// in\n    tag_150:\n      mload(0x40)\n      dup1\n      swap2\n      sub\n      swap1\n      revert\n        /* \"@openzeppelin/contracts-upgradeable/proxy/utils/UUPSUpgradeable.sol\":6241:6361  if (slot != ERC1967Utils.IMPLEMENTATION_SLOT) {... */\n    tag_149:\n        /* \"@openzeppelin/contracts-upgradeable/proxy/utils/UUPSUpgradeable.sol\":6374:6428  ERC1967Utils.upgradeToAndCall(newImplementation, data) */\n      tag_151\n        /* \"@openzeppelin/contracts-upgradeable/proxy/utils/UUPSUpgradeable.sol\":6404:6421  newImplementation */\n      dup4\n        /* \"@openzeppelin/contracts-upgradeable/proxy/utils/UUPSUpgradeable.sol\":6423:6427  data */\n      dup4\n        /* \"@openzeppelin/contracts-upgradeable/proxy/utils/UUPSUpgradeable.sol\":6374:6403  ERC1967Utils.upgradeToAndCall */\n      tag_152\n        /* \"@openzeppelin/contracts-upgradeable/proxy/utils/UUPSUpgradeable.sol\":6374:6428  ERC1967Utils.upgradeToAndCall(newImplementation, data) */\n      jump\t// in\n    tag_151:\n        /* \"@openzeppelin/contracts-upgradeable/proxy/utils/UUPSUpgradeable.sol\":6204:6439  returns (bytes32 slot) {... */\n      pop\n        /* \"@openzeppelin/contracts-upgradeable/proxy/utils/UUPSUpgradeable.sol\":6052:6590  function _upgradeToAndCallUUPS(address newImplementation, bytes memory data) private {... */\n      pop\n      pop\n      jump\t// out\n        /* \"@openzeppelin/contracts-upgradeable/proxy/utils/UUPSUpgradeable.sol\":5028:5241  function _checkNotDelegated() internal view virtual {... */\n    tag_86:\n        /* \"@openzeppelin/contracts-upgradeable/proxy/utils/UUPSUpgradeable.sol\":5111:5117  __self */\n      immutable(\"0x0b83f23a4eeb8c3f5f7d5934a2289bcf0186d09a12e1b7f20adf54e4b179db15\")\n        /* \"@openzeppelin/contracts-upgradeable/proxy/utils/UUPSUpgradeable.sol\":5094:5117  address(this) != __self */\n      0xffffffffffffffffffffffffffffffffffffffff\n      and\n        /* \"@openzeppelin/contracts-upgradeable/proxy/utils/UUPSUpgradeable.sol\":5102:5106  this */\n      address\n        /* \"@openzeppelin/contracts-upgradeable/proxy/utils/UUPSUpgradeable.sol\":5094:5117  address(this) != __self */\n      0xffffffffffffffffffffffffffffffffffffffff\n      and\n      eq\n        /* \"@openzeppelin/contracts-upgradeable/proxy/utils/UUPSUpgradeable.sol\":5090:5235  if (address(this) != __self) {... */\n      tag_154\n      jumpi\n        /* \"@openzeppelin/contracts-upgradeable/proxy/utils/UUPSUpgradeable.sol\":5195:5224  UUPSUnauthorizedCallContext() */\n      mload(0x40)\n      0xe07c8dba00000000000000000000000000000000000000000000000000000000\n      dup2\n      mstore\n      0x04\n      add\n      mload(0x40)\n      dup1\n      swap2\n      sub\n      swap1\n      revert\n        /* \"@openzeppelin/contracts-upgradeable/proxy/utils/UUPSUpgradeable.sol\":5090:5235  if (address(this) != __self) {... */\n    tag_154:\n        /* \"@openzeppelin/contracts-upgradeable/proxy/utils/UUPSUpgradeable.sol\":5028:5241  function _checkNotDelegated() internal view virtual {... */\n      jump\t// out\n        /* \"@openzeppelin/contracts-upgradeable/access/OwnableUpgradeable.sol\":2658:2820  function _checkOwner() internal view virtual {... */\n    tag_90:\n        /* \"@openzeppelin/contracts-upgradeable/access/OwnableUpgradeable.sol\":2728:2740  _msgSender() */\n      tag_156\n        /* \"@openzeppelin/contracts-upgradeable/access/OwnableUpgradeable.sol\":2728:2738  _msgSender */\n      tag_157\n        /* \"@openzeppelin/contracts-upgradeable/access/OwnableUpgradeable.sol\":2728:2740  _msgSender() */\n      jump\t// in\n    tag_156:\n        /* \"@openzeppelin/contracts-upgradeable/access/OwnableUpgradeable.sol\":2717:2740  owner() != _msgSender() */\n      0xffffffffffffffffffffffffffffffffffffffff\n      and\n        /* \"@openzeppelin/contracts-upgradeable/access/OwnableUpgradeable.sol\":2717:2724  owner() */\n      tag_158\n        /* \"@openzeppelin/contracts-upgradeable/access/OwnableUpgradeable.sol\":2717:2722  owner */\n      tag_37\n        /* \"@openzeppelin/contracts-upgradeable/access/OwnableUpgradeable.sol\":2717:2724  owner() */\n      jump\t// in\n    tag_158:\n        /* \"@openzeppelin/contracts-upgradeable/access/OwnableUpgradeable.sol\":2717:2740  owner() != _msgSender() */\n      0xffffffffffffffffffffffffffffffffffffffff\n      and\n      eq\n        /* \"@openzeppelin/contracts-upgradeable/access/OwnableUpgradeable.sol\":2713:2814  if (owner() != _msgSender()) {... */\n      tag_159\n      jumpi\n        /* \"@openzeppelin/contracts-upgradeable/access/OwnableUpgradeable.sol\":2790:2802  _msgSender() */\n      tag_160\n        /* \"@openzeppelin/contracts-upgradeable/access/OwnableUpgradeable.sol\":2790:2800  _msgSender */\n      tag_157\n        /* \"@openzeppelin/contracts-upgradeable/access/OwnableUpgradeable.sol\":2790:2802  _msgSender() */\n      jump\t// in\n    tag_160:\n        /* \"@openzeppelin/contracts-upgradeable/access/OwnableUpgradeable.sol\":2763:2803  OwnableUnauthorizedAccount(_msgSender()) */\n      mload(0x40)\n      0x118cdaa700000000000000000000000000000000000000000000000000000000\n      dup2\n      mstore\n      0x04\n      add\n      tag_161\n      swap2\n      swap1\n      tag_39\n      jump\t// in\n    tag_161:\n      mload(0x40)\n      dup1\n      swap2\n      sub\n      swap1\n      revert\n        /* \"@openzeppelin/contracts-upgradeable/access/OwnableUpgradeable.sol\":2713:2814  if (owner() != _msgSender()) {... */\n    tag_159:\n        /* \"@openzeppelin/contracts-upgradeable/access/OwnableUpgradeable.sol\":2658:2820  function _checkOwner() internal view virtual {... */\n      jump\t// out\n        /* \"@openzeppelin/contracts-upgradeable/access/OwnableUpgradeable.sol\":3774:4022  function _transferOwnership(address newOwner) internal virtual {... */\n    tag_93:\n        /* \"@openzeppelin/contracts-upgradeable/access/OwnableUpgradeable.sol\":3847:3871  OwnableStorage storage $ */\n      0x00\n        /* \"@openzeppelin/contracts-upgradeable/access/OwnableUpgradeable.sol\":3874:3894  _getOwnableStorage() */\n      tag_163\n        /* \"@openzeppelin/contracts-upgradeable/access/OwnableUpgradeable.sol\":3874:3892  _getOwnableStorage */\n      tag_96\n        /* \"@openzeppelin/contracts-upgradeable/access/OwnableUpgradeable.sol\":3874:3894  _getOwnableStorage() */\n      jump\t// in\n    tag_163:\n        /* \"@openzeppelin/contracts-upgradeable/access/OwnableUpgradeable.sol\":3847:3894  OwnableStorage storage $ = _getOwnableStorage() */\n      swap1\n      pop\n        /* \"@openzeppelin/contracts-upgradeable/access/OwnableUpgradeable.sol\":3904:3920  address oldOwner */\n      0x00\n        /* \"@openzeppelin/contracts-upgradeable/access/OwnableUpgradeable.sol\":3923:3924  $ */\n      dup2\n        /* \"@openzeppelin/contracts-upgradeable/access/OwnableUpgradeable.sol\":3923:3931  $._owner */\n      0x00\n      add\n      0x00\n      swap1\n      sload\n      swap1\n      0x0100\n      exp\n      swap1\n      div\n      0xffffffffffffffffffffffffffffffffffffffff\n      and\n        /* \"@openzeppelin/contracts-upgradeable/access/OwnableUpgradeable.sol\":3904:3931  address oldOwner = $._owner */\n      swap1\n      pop\n        /* \"@openzeppelin/contracts-upgradeable/access/OwnableUpgradeable.sol\":3952:3960  newOwner */\n      dup3\n        /* \"@openzeppelin/contracts-upgradeable/access/OwnableUpgradeable.sol\":3941:3942  $ */\n      dup3\n        /* \"@openzeppelin/contracts-upgradeable/access/OwnableUpgradeable.sol\":3941:3949  $._owner */\n      0x00\n      add\n      0x00\n        /* \"@openzeppelin/contracts-upgradeable/access/OwnableUpgradeable.sol\":3941:3960  $._owner = newOwner */\n      0x0100\n      exp\n      dup2\n      sload\n      dup2\n      0xffffffffffffffffffffffffffffffffffffffff\n      mul\n      not\n      and\n      swap1\n      dup4\n      0xffffffffffffffffffffffffffffffffffffffff\n      and\n      mul\n      or\n      swap1\n      sstore\n      pop\n        /* \"@openzeppelin/contracts-upgradeable/access/OwnableUpgradeable.sol\":4006:4014  newOwner */\n      dup3\n        /* \"@openzeppelin/contracts-upgradeable/access/OwnableUpgradeable.sol\":3975:4015  OwnershipTransferred(oldOwner, newOwner) */\n      0xffffffffffffffffffffffffffffffffffffffff\n      and\n        /* \"@openzeppelin/contracts-upgradeable/access/OwnableUpgradeable.sol\":3996:4004  oldOwner */\n      dup2\n        /* \"@openzeppelin/contracts-upgradeable/access/OwnableUpgradeable.sol\":3975:4015  OwnershipTransferred(oldOwner, newOwner) */\n      0xffffffffffffffffffffffffffffffffffffffff\n      and\n      0x8be0079c531659141344cd1fd0a4f28419497f9722a3daafe3b4186f6b6457e0\n      mload(0x40)\n      mload(0x40)\n      dup1\n      swap2\n      sub\n      swap1\n      log3\n        /* \"@openzeppelin/contracts-upgradeable/access/OwnableUpgradeable.sol\":3837:4022  {... */\n      pop\n      pop\n        /* \"@openzeppelin/contracts-upgradeable/access/OwnableUpgradeable.sol\":3774:4022  function _transferOwnership(address newOwner) internal virtual {... */\n      pop\n      jump\t// out\n        /* \"@openzeppelin/contracts-upgradeable/access/OwnableUpgradeable.sol\":1192:1351  function _getOwnableStorage() private pure returns (OwnableStorage storage $) {... */\n    tag_96:\n        /* \"@openzeppelin/contracts-upgradeable/access/OwnableUpgradeable.sol\":1244:1268  OwnableStorage storage $ */\n      0x00\n        /* \"@openzeppelin/contracts-upgradeable/access/OwnableUpgradeable.sol\":1313:1335  OwnableStorageLocation */\n      0x9016d09d72d40fdae2fd8ceac6b6234c7706214fd39c1cd1e609a0528c199300\n        /* \"@openzeppelin/contracts-upgradeable/access/OwnableUpgradeable.sol\":1303:1335  $.slot := OwnableStorageLocation */\n      swap1\n      pop\n        /* \"@openzeppelin/contracts-upgradeable/access/OwnableUpgradeable.sol\":1192:1351  function _getOwnableStorage() private pure returns (OwnableStorage storage $) {... */\n      swap1\n      jump\t// out\n        /* \"@openzeppelin/contracts-upgradeable/proxy/utils/Initializable.sol\":8737:8907  function _getInitializableStorage() private pure returns (InitializableStorage storage $) {... */\n    tag_99:\n        /* \"@openzeppelin/contracts-upgradeable/proxy/utils/Initializable.sol\":8795:8825  InitializableStorage storage $ */\n      0x00\n        /* \"@openzeppelin/contracts-upgradeable/proxy/utils/Initializable.sol\":8870:8891  INITIALIZABLE_STORAGE */\n      0xf0c57e16840df040f15088dc2f81fe391c3923bec73e23a9662efc9c229c6a00\n        /* \"@openzeppelin/contracts-upgradeable/proxy/utils/Initializable.sol\":8860:8891  $.slot := INITIALIZABLE_STORAGE */\n      swap1\n      pop\n        /* \"@openzeppelin/contracts-upgradeable/proxy/utils/Initializable.sol\":8737:8907  function _getInitializableStorage() private pure returns (InitializableStorage storage $) {... */\n      swap1\n      jump\t// out\n        /* \"@openzeppelin/contracts-upgradeable/access/OwnableUpgradeable.sol\":1847:1974  function __Ownable_init(address initialOwner) internal onlyInitializing {... */\n    tag_107:\n        /* \"@openzeppelin/contracts-upgradeable/proxy/utils/Initializable.sol\":6931:6951  _checkInitializing() */\n      tag_167\n        /* \"@openzeppelin/contracts-upgradeable/proxy/utils/Initializable.sol\":6931:6949  _checkInitializing */\n      tag_168\n        /* \"@openzeppelin/contracts-upgradeable/proxy/utils/Initializable.sol\":6931:6951  _checkInitializing() */\n      jump\t// in\n    tag_167:\n        /* \"@openzeppelin/contracts-upgradeable/access/OwnableUpgradeable.sol\":1929:1967  __Ownable_init_unchained(initialOwner) */\n      tag_170\n        /* \"@openzeppelin/contracts-upgradeable/access/OwnableUpgradeable.sol\":1954:1966  initialOwner */\n      dup2\n        /* \"@openzeppelin/contracts-upgradeable/access/OwnableUpgradeable.sol\":1929:1953  __Ownable_init_unchained */\n      tag_171\n        /* \"@openzeppelin/contracts-upgradeable/access/OwnableUpgradeable.sol\":1929:1967  __Ownable_init_unchained(initialOwner) */\n      jump\t// in\n    tag_170:\n        /* \"@openzeppelin/contracts-upgradeable/access/OwnableUpgradeable.sol\":1847:1974  function __Ownable_init(address initialOwner) internal onlyInitializing {... */\n      pop\n      jump\t// out\n        /* \"@openzeppelin/contracts/proxy/ERC1967/ERC1967Utils.sol\":1957:2095  function getImplementation() internal view returns (address) {... */\n    tag_134:\n        /* \"@openzeppelin/contracts/proxy/ERC1967/ERC1967Utils.sol\":2009:2016  address */\n      0x00\n        /* \"@openzeppelin/contracts/proxy/ERC1967/ERC1967Utils.sol\":2035:2082  StorageSlot.getAddressSlot(IMPLEMENTATION_SLOT) */\n      tag_173\n        /* \"@openzeppelin/contracts/proxy/ERC1967/ERC1967Utils.sol\":1327:1393  0x360894a13ba1a3210667c828492db98dca3e2076cc3735a920a3ca505d382bbc */\n      0x360894a13ba1a3210667c828492db98dca3e2076cc3735a920a3ca505d382bbc\n        /* \"@openzeppelin/contracts/proxy/ERC1967/ERC1967Utils.sol\":2062:2081  IMPLEMENTATION_SLOT */\n      0x00\n      shl\n        /* \"@openzeppelin/contracts/proxy/ERC1967/ERC1967Utils.sol\":2035:2061  StorageSlot.getAddressSlot */\n      tag_174\n        /* \"@openzeppelin/contracts/proxy/ERC1967/ERC1967Utils.sol\":2035:2082  StorageSlot.getAddressSlot(IMPLEMENTATION_SLOT) */\n      jump\t// in\n    tag_173:\n        /* \"@openzeppelin/contracts/proxy/ERC1967/ERC1967Utils.sol\":2035:2088  StorageSlot.getAddressSlot(IMPLEMENTATION_SLOT).value */\n      0x00\n      add\n      0x00\n      swap1\n      sload\n      swap1\n      0x0100\n      exp\n      swap1\n      div\n      0xffffffffffffffffffffffffffffffffffffffff\n      and\n        /* \"@openzeppelin/contracts/proxy/ERC1967/ERC1967Utils.sol\":2028:2088  return StorageSlot.getAddressSlot(IMPLEMENTATION_SLOT).value */\n      swap1\n      pop\n        /* \"@openzeppelin/contracts/proxy/ERC1967/ERC1967Utils.sol\":1957:2095  function getImplementation() internal view returns (address) {... */\n      swap1\n      jump\t// out\n        /* \"@openzeppelin/contracts/proxy/ERC1967/ERC1967Utils.sol\":2779:3114  function upgradeToAndCall(address newImplementation, bytes memory data) internal {... */\n    tag_152:\n        /* \"@openzeppelin/contracts/proxy/ERC1967/ERC1967Utils.sol\":2870:2907  _setImplementation(newImplementation) */\n      tag_176\n        /* \"@openzeppelin/contracts/proxy/ERC1967/ERC1967Utils.sol\":2889:2906  newImplementation */\n      dup3\n        /* \"@openzeppelin/contracts/proxy/ERC1967/ERC1967Utils.sol\":2870:2888  _setImplementation */\n      tag_177\n        /* \"@openzeppelin/contracts/proxy/ERC1967/ERC1967Utils.sol\":2870:2907  _setImplementation(newImplementation) */\n      jump\t// in\n    tag_176:\n        /* \"@openzeppelin/contracts/proxy/ERC1967/ERC1967Utils.sol\":2931:2948  newImplementation */\n      dup2\n        /* \"@openzeppelin/contracts/proxy/ERC1967/ERC1967Utils.sol\":2922:2949  Upgraded(newImplementation) */\n      0xffffffffffffffffffffffffffffffffffffffff\n      and\n      0xbc7cd75a20ee27fd9adebab32041f755214dbc6bffa90cc0225b39da2e5c2d3b\n      mload(0x40)\n      mload(0x40)\n      dup1\n      swap2\n      sub\n      swap1\n      log2\n        /* \"@openzeppelin/contracts/proxy/ERC1967/ERC1967Utils.sol\":2978:2979  0 */\n      0x00\n        /* \"@openzeppelin/contracts/proxy/ERC1967/ERC1967Utils.sol\":2964:2968  data */\n      dup2\n        /* \"@openzeppelin/contracts/proxy/ERC1967/ERC1967Utils.sol\":2964:2975  data.length */\n      mload\n        /* \"@openzeppelin/contracts/proxy/ERC1967/ERC1967Utils.sol\":2964:2979  data.length > 0 */\n      gt\n        /* \"@openzeppelin/contracts/proxy/ERC1967/ERC1967Utils.sol\":2960:3108  if (data.length > 0) {... */\n      iszero\n      tag_178\n      jumpi\n        /* \"@openzeppelin/contracts/proxy/ERC1967/ERC1967Utils.sol\":2995:3048  Address.functionDelegateCall(newImplementation, data) */\n      tag_179\n        /* \"@openzeppelin/contracts/proxy/ERC1967/ERC1967Utils.sol\":3024:3041  newImplementation */\n      dup3\n        /* \"@openzeppelin/contracts/proxy/ERC1967/ERC1967Utils.sol\":3043:3047  data */\n      dup3\n        /* \"@openzeppelin/contracts/proxy/ERC1967/ERC1967Utils.sol\":2995:3023  Address.functionDelegateCall */\n      tag_180\n        /* \"@openzeppelin/contracts/proxy/ERC1967/ERC1967Utils.sol\":2995:3048  Address.functionDelegateCall(newImplementation, data) */\n      jump\t// in\n    tag_179:\n      pop\n        /* \"@openzeppelin/contracts/proxy/ERC1967/ERC1967Utils.sol\":2960:3108  if (data.length > 0) {... */\n      jump(tag_181)\n    tag_178:\n        /* \"@openzeppelin/contracts/proxy/ERC1967/ERC1967Utils.sol\":3079:3097  _checkNonPayable() */\n      tag_182\n        /* \"@openzeppelin/contracts/proxy/ERC1967/ERC1967Utils.sol\":3079:3095  _checkNonPayable */\n      tag_183\n        /* \"@openzeppelin/contracts/proxy/ERC1967/ERC1967Utils.sol\":3079:3097  _checkNonPayable() */\n      jump\t// in\n    tag_182:\n        /* \"@openzeppelin/contracts/proxy/ERC1967/ERC1967Utils.sol\":2960:3108  if (data.length > 0) {... */\n    tag_181:\n        /* \"@openzeppelin/contracts/proxy/ERC1967/ERC1967Utils.sol\":2779:3114  function upgradeToAndCall(address newImplementation, bytes memory data) internal {... */\n      pop\n      pop\n      jump\t// out\n        /* \"@openzeppelin/contracts-upgradeable/utils/ContextUpgradeable.sol\":887:983  function _msgSender() internal view virtual returns (address) {... */\n    tag_157:\n        /* \"@openzeppelin/contracts-upgradeable/utils/ContextUpgradeable.sol\":940:947  address */\n      0x00\n        /* \"@openzeppelin/contracts-upgradeable/utils/ContextUpgradeable.sol\":966:976  msg.sender */\n      caller\n        /* \"@openzeppelin/contracts-upgradeable/utils/ContextUpgradeable.sol\":959:976  return msg.sender */\n      swap1\n      pop\n        /* \"@openzeppelin/contracts-upgradeable/utils/ContextUpgradeable.sol\":887:983  function _msgSender() internal view virtual returns (address) {... */\n      swap1\n      jump\t// out\n        /* \"@openzeppelin/contracts-upgradeable/proxy/utils/Initializable.sol\":7084:7225  function _checkInitializing() internal view virtual {... */\n    tag_168:\n        /* \"@openzeppelin/contracts-upgradeable/proxy/utils/Initializable.sol\":7151:7168  _isInitializing() */\n      tag_186\n        /* \"@openzeppelin/contracts-upgradeable/proxy/utils/Initializable.sol\":7151:7166  _isInitializing */\n      tag_187\n        /* \"@openzeppelin/contracts-upgradeable/proxy/utils/Initializable.sol\":7151:7168  _isInitializing() */\n      jump\t// in\n    tag_186:\n        /* \"@openzeppelin/contracts-upgradeable/proxy/utils/Initializable.sol\":7146:7219  if (!_isInitializing()) {... */\n      tag_188\n      jumpi\n        /* \"@openzeppelin/contracts-upgradeable/proxy/utils/Initializable.sol\":7191:7208  NotInitializing() */\n      mload(0x40)\n      0xd7e6bcf800000000000000000000000000000000000000000000000000000000\n      dup2\n      mstore\n      0x04\n      add\n      mload(0x40)\n      dup1\n      swap2\n      sub\n      swap1\n      revert\n        /* \"@openzeppelin/contracts-upgradeable/proxy/utils/Initializable.sol\":7146:7219  if (!_isInitializing()) {... */\n    tag_188:\n        /* \"@openzeppelin/contracts-upgradeable/proxy/utils/Initializable.sol\":7084:7225  function _checkInitializing() internal view virtual {... */\n      jump\t// out\n        /* \"@openzeppelin/contracts-upgradeable/access/OwnableUpgradeable.sol\":1980:2215  function __Ownable_init_unchained(address initialOwner) internal onlyInitializing {... */\n    tag_171:\n        /* \"@openzeppelin/contracts-upgradeable/proxy/utils/Initializable.sol\":6931:6951  _checkInitializing() */\n      tag_190\n        /* \"@openzeppelin/contracts-upgradeable/proxy/utils/Initializable.sol\":6931:6949  _checkInitializing */\n      tag_168\n        /* \"@openzeppelin/contracts-upgradeable/proxy/utils/Initializable.sol\":6931:6951  _checkInitializing() */\n      jump\t// in\n    tag_190:\n        /* \"@openzeppelin/contracts-upgradeable/access/OwnableUpgradeable.sol\":2100:2101  0 */\n      0x00\n        /* \"@openzeppelin/contracts-upgradeable/access/OwnableUpgradeable.sol\":2076:2102  initialOwner == address(0) */\n      0xffffffffffffffffffffffffffffffffffffffff\n      and\n        /* \"@openzeppelin/contracts-upgradeable/access/OwnableUpgradeable.sol\":2076:2088  initialOwner */\n      dup2\n        /* \"@openzeppelin/contracts-upgradeable/access/OwnableUpgradeable.sol\":2076:2102  initialOwner == address(0) */\n      0xffffffffffffffffffffffffffffffffffffffff\n      and\n      sub\n        /* \"@openzeppelin/contracts-upgradeable/access/OwnableUpgradeable.sol\":2072:2167  if (initialOwner == address(0)) {... */\n      tag_192\n      jumpi\n        /* \"@openzeppelin/contracts-upgradeable/access/OwnableUpgradeable.sol\":2153:2154  0 */\n      0x00\n        /* \"@openzeppelin/contracts-upgradeable/access/OwnableUpgradeable.sol\":2125:2156  OwnableInvalidOwner(address(0)) */\n      mload(0x40)\n      0x1e4fbdf700000000000000000000000000000000000000000000000000000000\n      dup2\n      mstore\n      0x04\n      add\n      tag_193\n      swap2\n      swap1\n      tag_39\n      jump\t// in\n    tag_193:\n      mload(0x40)\n      dup1\n      swap2\n      sub\n      swap1\n      revert\n        /* \"@openzeppelin/contracts-upgradeable/access/OwnableUpgradeable.sol\":2072:2167  if (initialOwner == address(0)) {... */\n    tag_192:\n        /* \"@openzeppelin/contracts-upgradeable/access/OwnableUpgradeable.sol\":2176:2208  _transferOwnership(initialOwner) */\n      tag_194\n        /* \"@openzeppelin/contracts-upgradeable/access/OwnableUpgradeable.sol\":2195:2207  initialOwner */\n      dup2\n        /* \"@openzeppelin/contracts-upgradeable/access/OwnableUpgradeable.sol\":2176:2194  _transferOwnership */\n      tag_93\n        /* \"@openzeppelin/contracts-upgradeable/access/OwnableUpgradeable.sol\":2176:2208  _transferOwnership(initialOwner) */\n      jump\t// in\n    tag_194:\n        /* \"@openzeppelin/contracts-upgradeable/access/OwnableUpgradeable.sol\":1980:2215  function __Ownable_init_unchained(address initialOwner) internal onlyInitializing {... */\n      pop\n      jump\t// out\n        /* \"@openzeppelin/contracts/utils/StorageSlot.sol\":1684:1874  function getAddressSlot(bytes32 slot) internal pure returns (AddressSlot storage r) {... */\n    tag_174:\n        /* \"@openzeppelin/contracts/utils/StorageSlot.sol\":1745:1766  AddressSlot storage r */\n      0x00\n        /* \"@openzeppelin/contracts/utils/StorageSlot.sol\":1854:1858  slot */\n      dup2\n        /* \"@openzeppelin/contracts/utils/StorageSlot.sol\":1844:1858  r.slot := slot */\n      swap1\n      pop\n        /* \"@openzeppelin/contracts/utils/StorageSlot.sol\":1684:1874  function getAddressSlot(bytes32 slot) internal pure returns (AddressSlot storage r) {... */\n      swap2\n      swap1\n      pop\n      jump\t// out\n        /* \"@openzeppelin/contracts/proxy/ERC1967/ERC1967Utils.sol\":2186:2467  function _setImplementation(address newImplementation) private {... */\n    tag_177:\n        /* \"@openzeppelin/contracts/proxy/ERC1967/ERC1967Utils.sol\":2296:2297  0 */\n      0x00\n        /* \"@openzeppelin/contracts/proxy/ERC1967/ERC1967Utils.sol\":2263:2280  newImplementation */\n      dup2\n        /* \"@openzeppelin/contracts/proxy/ERC1967/ERC1967Utils.sol\":2263:2292  newImplementation.code.length */\n      0xffffffffffffffffffffffffffffffffffffffff\n      and\n      extcodesize\n        /* \"@openzeppelin/contracts/proxy/ERC1967/ERC1967Utils.sol\":2263:2297  newImplementation.code.length == 0 */\n      sub\n        /* \"@openzeppelin/contracts/proxy/ERC1967/ERC1967Utils.sol\":2259:2378  if (newImplementation.code.length == 0) {... */\n      tag_197\n      jumpi\n        /* \"@openzeppelin/contracts/proxy/ERC1967/ERC1967Utils.sol\":2349:2366  newImplementation */\n      dup1\n        /* \"@openzeppelin/contracts/proxy/ERC1967/ERC1967Utils.sol\":2320:2367  ERC1967InvalidImplementation(newImplementation) */\n      mload(0x40)\n      0x4c9c8ce300000000000000000000000000000000000000000000000000000000\n      dup2\n      mstore\n      0x04\n      add\n      tag_198\n      swap2\n      swap1\n      tag_39\n      jump\t// in\n    tag_198:\n      mload(0x40)\n      dup1\n      swap2\n      sub\n      swap1\n      revert\n        /* \"@openzeppelin/contracts/proxy/ERC1967/ERC1967Utils.sol\":2259:2378  if (newImplementation.code.length == 0) {... */\n    tag_197:\n        /* \"@openzeppelin/contracts/proxy/ERC1967/ERC1967Utils.sol\":2443:2460  newImplementation */\n      dup1\n        /* \"@openzeppelin/contracts/proxy/ERC1967/ERC1967Utils.sol\":2387:2434  StorageSlot.getAddressSlot(IMPLEMENTATION_SLOT) */\n      tag_199\n        /* \"@openzeppelin/contracts/proxy/ERC1967/ERC1967Utils.sol\":1327:1393  0x360894a13ba1a3210667c828492db98dca3e2076cc3735a920a3ca505d382bbc */\n      0x360894a13ba1a3210667c828492db98dca3e2076cc3735a920a3ca505d382bbc\n        /* \"@openzeppelin/contracts/proxy/ERC1967/ERC1967Utils.sol\":2414:2433  IMPLEMENTATION_SLOT */\n      0x00\n      shl\n        /* \"@openzeppelin/contracts/proxy/ERC1967/ERC1967Utils.sol\":2387:2413  StorageSlot.getAddressSlot */\n      tag_174\n        /* \"@openzeppelin/contracts/proxy/ERC1967/ERC1967Utils.sol\":2387:2434  StorageSlot.getAddressSlot(IMPLEMENTATION_SLOT) */\n      jump\t// in\n    tag_199:\n        /* \"@openzeppelin/contracts/proxy/ERC1967/ERC1967Utils.sol\":2387:2440  StorageSlot.getAddressSlot(IMPLEMENTATION_SLOT).value */\n      0x00\n      add\n      0x00\n        /* \"@openzeppelin/contracts/proxy/ERC1967/ERC1967Utils.sol\":2387:2460  StorageSlot.getAddressSlot(IMPLEMENTATION_SLOT).value = newImplementation */\n      0x0100\n      exp\n      dup2\n      sload\n      dup2\n      0xffffffffffffffffffffffffffffffffffffffff\n      mul\n      not\n      and\n      swap1\n      dup4\n      0xffffffffffffffffffffffffffffffffffffffff\n      and\n      mul\n      or\n      swap1\n      sstore\n      pop\n        /* \"@openzeppelin/contracts/proxy/ERC1967/ERC1967Utils.sol\":2186:2467  function _setImplementation(address newImplementation) private {... */\n      pop\n      jump\t// out\n        /* \"@openzeppelin/contracts/utils/Address.sol\":4106:4359  function functionDelegateCall(address target, bytes memory data) internal returns (bytes memory) {... */\n    tag_180:\n        /* \"@openzeppelin/contracts/utils/Address.sol\":4189:4201  bytes memory */\n      0x60\n        /* \"@openzeppelin/contracts/utils/Address.sol\":4214:4226  bool success */\n      0x00\n        /* \"@openzeppelin/contracts/utils/Address.sol\":4228:4251  bytes memory returndata */\n      dup1\n        /* \"@openzeppelin/contracts/utils/Address.sol\":4255:4261  target */\n      dup5\n        /* \"@openzeppelin/contracts/utils/Address.sol\":4255:4274  target.delegatecall */\n      0xffffffffffffffffffffffffffffffffffffffff\n      and\n        /* \"@openzeppelin/contracts/utils/Address.sol\":4275:4279  data */\n      dup5\n        /* \"@openzeppelin/contracts/utils/Address.sol\":4255:4280  target.delegatecall(data) */\n      mload(0x40)\n      tag_201\n      swap2\n      swap1\n      tag_202\n      jump\t// in\n    tag_201:\n      0x00\n      mload(0x40)\n      dup1\n      dup4\n      sub\n      dup2\n      dup6\n      gas\n      delegatecall\n      swap2\n      pop\n      pop\n      returndatasize\n      dup1\n      0x00\n      dup2\n      eq\n      tag_205\n      jumpi\n      mload(0x40)\n      swap2\n      pop\n      and(add(returndatasize, 0x3f), not(0x1f))\n      dup3\n      add\n      0x40\n      mstore\n      returndatasize\n      dup3\n      mstore\n      returndatasize\n      0x00\n      0x20\n      dup5\n      add\n      returndatacopy\n      jump(tag_204)\n    tag_205:\n      0x60\n      swap2\n      pop\n    tag_204:\n      pop\n        /* \"@openzeppelin/contracts/utils/Address.sol\":4213:4280  (bool success, bytes memory returndata) = target.delegatecall(data) */\n      swap2\n      pop\n      swap2\n      pop\n        /* \"@openzeppelin/contracts/utils/Address.sol\":4297:4352  verifyCallResultFromTarget(target, success, returndata) */\n      tag_206\n        /* \"@openzeppelin/contracts/utils/Address.sol\":4324:4330  target */\n      dup6\n        /* \"@openzeppelin/contracts/utils/Address.sol\":4332:4339  success */\n      dup4\n        /* \"@openzeppelin/contracts/utils/Address.sol\":4341:4351  returndata */\n      dup4\n        /* \"@openzeppelin/contracts/utils/Address.sol\":4297:4323  verifyCallResultFromTarget */\n      tag_207\n        /* \"@openzeppelin/contracts/utils/Address.sol\":4297:4352  verifyCallResultFromTarget(target, success, returndata) */\n      jump\t// in\n    tag_206:\n        /* \"@openzeppelin/contracts/utils/Address.sol\":4290:4352  return verifyCallResultFromTarget(target, success, returndata) */\n      swap3\n      pop\n      pop\n      pop\n        /* \"@openzeppelin/contracts/utils/Address.sol\":4106:4359  function functionDelegateCall(address target, bytes memory data) internal returns (bytes memory) {... */\n      swap3\n      swap2\n      pop\n      pop\n      jump\t// out\n        /* \"@openzeppelin/contracts/proxy/ERC1967/ERC1967Utils.sol\":6598:6720  function _checkNonPayable() private {... */\n    tag_183:\n        /* \"@openzeppelin/contracts/proxy/ERC1967/ERC1967Utils.sol\":6660:6661  0 */\n      0x00\n        /* \"@openzeppelin/contracts/proxy/ERC1967/ERC1967Utils.sol\":6648:6657  msg.value */\n      callvalue\n        /* \"@openzeppelin/contracts/proxy/ERC1967/ERC1967Utils.sol\":6648:6661  msg.value > 0 */\n      gt\n        /* \"@openzeppelin/contracts/proxy/ERC1967/ERC1967Utils.sol\":6644:6714  if (msg.value > 0) {... */\n      iszero\n      tag_209\n      jumpi\n        /* \"@openzeppelin/contracts/proxy/ERC1967/ERC1967Utils.sol\":6684:6703  ERC1967NonPayable() */\n      mload(0x40)\n      0xb398979f00000000000000000000000000000000000000000000000000000000\n      dup2\n      mstore\n      0x04\n      add\n      mload(0x40)\n      dup1\n      swap2\n      sub\n      swap1\n      revert\n        /* \"@openzeppelin/contracts/proxy/ERC1967/ERC1967Utils.sol\":6644:6714  if (msg.value > 0) {... */\n    tag_209:\n        /* \"@openzeppelin/contracts/proxy/ERC1967/ERC1967Utils.sol\":6598:6720  function _checkNonPayable() private {... */\n      jump\t// out\n        /* \"@openzeppelin/contracts-upgradeable/proxy/utils/Initializable.sol\":8487:8607  function _isInitializing() internal view returns (bool) {... */\n    tag_187:\n        /* \"@openzeppelin/contracts-upgradeable/proxy/utils/Initializable.sol\":8537:8541  bool */\n      0x00\n        /* \"@openzeppelin/contracts-upgradeable/proxy/utils/Initializable.sol\":8560:8586  _getInitializableStorage() */\n      tag_211\n        /* \"@openzeppelin/contracts-upgradeable/proxy/utils/Initializable.sol\":8560:8584  _getInitializableStorage */\n      tag_99\n        /* \"@openzeppelin/contracts-upgradeable/proxy/utils/Initializable.sol\":8560:8586  _getInitializableStorage() */\n      jump\t// in\n    tag_211:\n        /* \"@openzeppelin/contracts-upgradeable/proxy/utils/Initializable.sol\":8560:8600  _getInitializableStorage()._initializing */\n      0x00\n      add\n      0x08\n      swap1\n      sload\n      swap1\n      0x0100\n      exp\n      swap1\n      div\n      0xff\n      and\n        /* \"@openzeppelin/contracts-upgradeable/proxy/utils/Initializable.sol\":8553:8600  return _getInitializableStorage()._initializing */\n      swap1\n      pop\n        /* \"@openzeppelin/contracts-upgradeable/proxy/utils/Initializable.sol\":8487:8607  function _isInitializing() internal view returns (bool) {... */\n      swap1\n      jump\t// out\n        /* \"@openzeppelin/contracts/utils/Address.sol\":4625:5207  function verifyCallResultFromTarget(... */\n    tag_207:\n        /* \"@openzeppelin/contracts/utils/Address.sol\":4769:4781  bytes memory */\n      0x60\n        /* \"@openzeppelin/contracts/utils/Address.sol\":4798:4805  success */\n      dup3\n        /* \"@openzeppelin/contracts/utils/Address.sol\":4793:5201  if (!success) {... */\n      tag_213\n      jumpi\n        /* \"@openzeppelin/contracts/utils/Address.sol\":4821:4840  _revert(returndata) */\n      tag_214\n        /* \"@openzeppelin/contracts/utils/Address.sol\":4829:4839  returndata */\n      dup3\n        /* \"@openzeppelin/contracts/utils/Address.sol\":4821:4828  _revert */\n      tag_215\n        /* \"@openzeppelin/contracts/utils/Address.sol\":4821:4840  _revert(returndata) */\n      jump\t// in\n    tag_214:\n        /* \"@openzeppelin/contracts/utils/Address.sol\":4793:5201  if (!success) {... */\n      jump(tag_216)\n    tag_213:\n        /* \"@openzeppelin/contracts/utils/Address.sol\":5066:5067  0 */\n      0x00\n        /* \"@openzeppelin/contracts/utils/Address.sol\":5045:5055  returndata */\n      dup3\n        /* \"@openzeppelin/contracts/utils/Address.sol\":5045:5062  returndata.length */\n      mload\n        /* \"@openzeppelin/contracts/utils/Address.sol\":5045:5067  returndata.length == 0 */\n      eq\n        /* \"@openzeppelin/contracts/utils/Address.sol\":5045:5094  returndata.length == 0 && target.code.length == 0 */\n      dup1\n      iszero\n      tag_217\n      jumpi\n      pop\n        /* \"@openzeppelin/contracts/utils/Address.sol\":5093:5094  0 */\n      0x00\n        /* \"@openzeppelin/contracts/utils/Address.sol\":5071:5077  target */\n      dup5\n        /* \"@openzeppelin/contracts/utils/Address.sol\":5071:5089  target.code.length */\n      0xffffffffffffffffffffffffffffffffffffffff\n      and\n      extcodesize\n        /* \"@openzeppelin/contracts/utils/Address.sol\":5071:5094  target.code.length == 0 */\n      eq\n        /* \"@openzeppelin/contracts/utils/Address.sol\":5045:5094  returndata.length == 0 && target.code.length == 0 */\n    tag_217:\n        /* \"@openzeppelin/contracts/utils/Address.sol\":5041:5160  if (returndata.length == 0 && target.code.length == 0) {... */\n      iszero\n      tag_218\n      jumpi\n        /* \"@openzeppelin/contracts/utils/Address.sol\":5138:5144  target */\n      dup4\n        /* \"@openzeppelin/contracts/utils/Address.sol\":5121:5145  AddressEmptyCode(target) */\n      mload(0x40)\n      0x9996b31500000000000000000000000000000000000000000000000000000000\n      dup2\n      mstore\n      0x04\n      add\n      tag_219\n      swap2\n      swap1\n      tag_39\n      jump\t// in\n    tag_219:\n      mload(0x40)\n      dup1\n      swap2\n      sub\n      swap1\n      revert\n        /* \"@openzeppelin/contracts/utils/Address.sol\":5041:5160  if (returndata.length == 0 && target.code.length == 0) {... */\n    tag_218:\n        /* \"@openzeppelin/contracts/utils/Address.sol\":5180:5190  returndata */\n      dup2\n        /* \"@openzeppelin/contracts/utils/Address.sol\":5173:5190  return returndata */\n      swap1\n      pop\n      jump(tag_212)\n        /* \"@openzeppelin/contracts/utils/Address.sol\":4793:5201  if (!success) {... */\n    tag_216:\n        /* \"@openzeppelin/contracts/utils/Address.sol\":4625:5207  function verifyCallResultFromTarget(... */\n    tag_212:\n      swap4\n      swap3\n      pop\n      pop\n      pop\n      jump\t// out\n        /* \"@openzeppelin/contracts/utils/Address.sol\":5743:6259  function _revert(bytes memory returndata) private pure {... */\n    tag_215:\n        /* \"@openzeppelin/contracts/utils/Address.sol\":5894:5895  0 */\n      0x00\n        /* \"@openzeppelin/contracts/utils/Address.sol\":5874:5884  returndata */\n      dup2\n        /* \"@openzeppelin/contracts/utils/Address.sol\":5874:5891  returndata.length */\n      mload\n        /* \"@openzeppelin/contracts/utils/Address.sol\":5874:5895  returndata.length > 0 */\n      gt\n        /* \"@openzeppelin/contracts/utils/Address.sol\":5870:6253  if (returndata.length > 0) {... */\n      iszero\n      tag_221\n      jumpi\n        /* \"@openzeppelin/contracts/utils/Address.sol\":6102:6112  returndata */\n      dup1\n        /* \"@openzeppelin/contracts/utils/Address.sol\":6096:6113  mload(returndata) */\n      mload\n        /* \"@openzeppelin/contracts/utils/Address.sol\":6158:6173  returndata_size */\n      dup1\n        /* \"@openzeppelin/contracts/utils/Address.sol\":6145:6155  returndata */\n      dup3\n        /* \"@openzeppelin/contracts/utils/Address.sol\":6141:6143  32 */\n      0x20\n        /* \"@openzeppelin/contracts/utils/Address.sol\":6137:6156  add(32, returndata) */\n      add\n        /* \"@openzeppelin/contracts/utils/Address.sol\":6130:6174  revert(add(32, returndata), returndata_size) */\n      revert\n        /* \"@openzeppelin/contracts/utils/Address.sol\":5870:6253  if (returndata.length > 0) {... */\n    tag_221:\n        /* \"@openzeppelin/contracts/utils/Address.sol\":6225:6242  FailedInnerCall() */\n      mload(0x40)\n      0x1425ea4200000000000000000000000000000000000000000000000000000000\n      dup2\n      mstore\n      0x04\n      add\n      mload(0x40)\n      dup1\n      swap2\n      sub\n      swap1\n      revert\n        /* \"#utility.yul\":7:82   */\n    tag_223:\n        /* \"#utility.yul\":40:46   */\n      0x00\n        /* \"#utility.yul\":73:75   */\n      0x40\n        /* \"#utility.yul\":67:76   */\n      mload\n        /* \"#utility.yul\":57:76   */\n      swap1\n      pop\n        /* \"#utility.yul\":7:82   */\n      swap1\n      jump\t// out\n        /* \"#utility.yul\":88:205   */\n    tag_224:\n        /* \"#utility.yul\":197:198   */\n      0x00\n        /* \"#utility.yul\":194:195   */\n      dup1\n        /* \"#utility.yul\":187:199   */\n      revert\n        /* \"#utility.yul\":211:328   */\n    tag_225:\n        /* \"#utility.yul\":320:321   */\n      0x00\n        /* \"#utility.yul\":317:318   */\n      dup1\n        /* \"#utility.yul\":310:322   */\n      revert\n        /* \"#utility.yul\":334:460   */\n    tag_226:\n        /* \"#utility.yul\":371:378   */\n      0x00\n        /* \"#utility.yul\":411:453   */\n      0xffffffffffffffffffffffffffffffffffffffff\n        /* \"#utility.yul\":404:409   */\n      dup3\n        /* \"#utility.yul\":400:454   */\n      and\n        /* \"#utility.yul\":389:454   */\n      swap1\n      pop\n        /* \"#utility.yul\":334:460   */\n      swap2\n      swap1\n      pop\n      jump\t// out\n        /* \"#utility.yul\":466:562   */\n    tag_227:\n        /* \"#utility.yul\":503:510   */\n      0x00\n        /* \"#utility.yul\":532:556   */\n      tag_275\n        /* \"#utility.yul\":550:555   */\n      dup3\n        /* \"#utility.yul\":532:556   */\n      tag_226\n      jump\t// in\n    tag_275:\n        /* \"#utility.yul\":521:556   */\n      swap1\n      pop\n        /* \"#utility.yul\":466:562   */\n      swap2\n      swap1\n      pop\n      jump\t// out\n        /* \"#utility.yul\":568:690   */\n    tag_228:\n        /* \"#utility.yul\":641:665   */\n      tag_277\n        /* \"#utility.yul\":659:664   */\n      dup2\n        /* \"#utility.yul\":641:665   */\n      tag_227\n      jump\t// in\n    tag_277:\n        /* \"#utility.yul\":634:639   */\n      dup2\n        /* \"#utility.yul\":631:666   */\n      eq\n        /* \"#utility.yul\":621:684   */\n      tag_278\n      jumpi\n        /* \"#utility.yul\":680:681   */\n      0x00\n        /* \"#utility.yul\":677:678   */\n      dup1\n        /* \"#utility.yul\":670:682   */\n      revert\n        /* \"#utility.yul\":621:684   */\n    tag_278:\n        /* \"#utility.yul\":568:690   */\n      pop\n      jump\t// out\n        /* \"#utility.yul\":696:835   */\n    tag_229:\n        /* \"#utility.yul\":742:747   */\n      0x00\n        /* \"#utility.yul\":780:786   */\n      dup2\n        /* \"#utility.yul\":767:787   */\n      calldataload\n        /* \"#utility.yul\":758:787   */\n      swap1\n      pop\n        /* \"#utility.yul\":796:829   */\n      tag_280\n        /* \"#utility.yul\":823:828   */\n      dup2\n        /* \"#utility.yul\":796:829   */\n      tag_228\n      jump\t// in\n    tag_280:\n        /* \"#utility.yul\":696:835   */\n      swap3\n      swap2\n      pop\n      pop\n      jump\t// out\n        /* \"#utility.yul\":841:958   */\n    tag_230:\n        /* \"#utility.yul\":950:951   */\n      0x00\n        /* \"#utility.yul\":947:948   */\n      dup1\n        /* \"#utility.yul\":940:952   */\n      revert\n        /* \"#utility.yul\":964:1081   */\n    tag_231:\n        /* \"#utility.yul\":1073:1074   */\n      0x00\n        /* \"#utility.yul\":1070:1071   */\n      dup1\n        /* \"#utility.yul\":1063:1075   */\n      revert\n        /* \"#utility.yul\":1087:1189   */\n    tag_232:\n        /* \"#utility.yul\":1128:1134   */\n      0x00\n        /* \"#utility.yul\":1179:1181   */\n      0x1f\n        /* \"#utility.yul\":1175:1182   */\n      not\n        /* \"#utility.yul\":1170:1172   */\n      0x1f\n        /* \"#utility.yul\":1163:1168   */\n      dup4\n        /* \"#utility.yul\":1159:1173   */\n      add\n        /* \"#utility.yul\":1155:1183   */\n      and\n        /* \"#utility.yul\":1145:1183   */\n      swap1\n      pop\n        /* \"#utility.yul\":1087:1189   */\n      swap2\n      swap1\n      pop\n      jump\t// out\n        /* \"#utility.yul\":1195:1375   */\n    tag_233:\n        /* \"#utility.yul\":1243:1320   */\n      0x4e487b7100000000000000000000000000000000000000000000000000000000\n        /* \"#utility.yul\":1240:1241   */\n      0x00\n        /* \"#utility.yul\":1233:1321   */\n      mstore\n        /* \"#utility.yul\":1340:1344   */\n      0x41\n        /* \"#utility.yul\":1337:1338   */\n      0x04\n        /* \"#utility.yul\":1330:1345   */\n      mstore\n        /* \"#utility.yul\":1364:1368   */\n      0x24\n        /* \"#utility.yul\":1361:1362   */\n      0x00\n        /* \"#utility.yul\":1354:1369   */\n      revert\n        /* \"#utility.yul\":1381:1662   */\n    tag_234:\n        /* \"#utility.yul\":1464:1491   */\n      tag_286\n        /* \"#utility.yul\":1486:1490   */\n      dup3\n        /* \"#utility.yul\":1464:1491   */\n      tag_232\n      jump\t// in\n    tag_286:\n        /* \"#utility.yul\":1456:1462   */\n      dup2\n        /* \"#utility.yul\":1452:1492   */\n      add\n        /* \"#utility.yul\":1594:1600   */\n      dup2\n        /* \"#utility.yul\":1582:1592   */\n      dup2\n        /* \"#utility.yul\":1579:1601   */\n      lt\n        /* \"#utility.yul\":1558:1576   */\n      0xffffffffffffffff\n        /* \"#utility.yul\":1546:1556   */\n      dup3\n        /* \"#utility.yul\":1543:1577   */\n      gt\n        /* \"#utility.yul\":1540:1602   */\n      or\n        /* \"#utility.yul\":1537:1625   */\n      iszero\n      tag_287\n      jumpi\n        /* \"#utility.yul\":1605:1623   */\n      tag_288\n      tag_233\n      jump\t// in\n    tag_288:\n        /* \"#utility.yul\":1537:1625   */\n    tag_287:\n        /* \"#utility.yul\":1645:1655   */\n      dup1\n        /* \"#utility.yul\":1641:1643   */\n      0x40\n        /* \"#utility.yul\":1634:1656   */\n      mstore\n        /* \"#utility.yul\":1424:1662   */\n      pop\n        /* \"#utility.yul\":1381:1662   */\n      pop\n      pop\n      jump\t// out\n        /* \"#utility.yul\":1668:1797   */\n    tag_235:\n        /* \"#utility.yul\":1702:1708   */\n      0x00\n        /* \"#utility.yul\":1729:1749   */\n      tag_290\n      tag_223\n      jump\t// in\n    tag_290:\n        /* \"#utility.yul\":1719:1749   */\n      swap1\n      pop\n        /* \"#utility.yul\":1758:1791   */\n      tag_291\n        /* \"#utility.yul\":1786:1790   */\n      dup3\n        /* \"#utility.yul\":1778:1784   */\n      dup3\n        /* \"#utility.yul\":1758:1791   */\n      tag_234\n      jump\t// in\n    tag_291:\n        /* \"#utility.yul\":1668:1797   */\n      swap2\n      swap1\n      pop\n      jump\t// out\n        /* \"#utility.yul\":1803:2110   */\n    tag_236:\n        /* \"#utility.yul\":1864:1868   */\n      0x00\n        /* \"#utility.yul\":1954:1972   */\n      0xffffffffffffffff\n        /* \"#utility.yul\":1946:1952   */\n      dup3\n        /* \"#utility.yul\":1943:1973   */\n      gt\n        /* \"#utility.yul\":1940:1996   */\n      iszero\n      tag_293\n      jumpi\n        /* \"#utility.yul\":1976:1994   */\n      tag_294\n      tag_233\n      jump\t// in\n    tag_294:\n        /* \"#utility.yul\":1940:1996   */\n    tag_293:\n        /* \"#utility.yul\":2014:2043   */\n      tag_295\n        /* \"#utility.yul\":2036:2042   */\n      dup3\n        /* \"#utility.yul\":2014:2043   */\n      tag_232\n      jump\t// in\n    tag_295:\n        /* \"#utility.yul\":2006:2043   */\n      swap1\n      pop\n        /* \"#utility.yul\":2098:2102   */\n      0x20\n        /* \"#utility.yul\":2092:2096   */\n      dup2\n        /* \"#utility.yul\":2088:2103   */\n      add\n        /* \"#utility.yul\":2080:2103   */\n      swap1\n      pop\n        /* \"#utility.yul\":1803:2110   */\n      swap2\n      swap1\n      pop\n      jump\t// out\n        /* \"#utility.yul\":2116:2262   */\n    tag_237:\n        /* \"#utility.yul\":2213:2219   */\n      dup3\n        /* \"#utility.yul\":2208:2211   */\n      dup2\n        /* \"#utility.yul\":2203:2206   */\n      dup4\n        /* \"#utility.yul\":2190:2220   */\n      calldatacopy\n        /* \"#utility.yul\":2254:2255   */\n      0x00\n        /* \"#utility.yul\":2245:2251   */\n      dup4\n        /* \"#utility.yul\":2240:2243   */\n      dup4\n        /* \"#utility.yul\":2236:2252   */\n      add\n        /* \"#utility.yul\":2229:2256   */\n      mstore\n        /* \"#utility.yul\":2116:2262   */\n      pop\n      pop\n      pop\n      jump\t// out\n        /* \"#utility.yul\":2268:2691   */\n    tag_238:\n        /* \"#utility.yul\":2345:2350   */\n      0x00\n        /* \"#utility.yul\":2370:2435   */\n      tag_298\n        /* \"#utility.yul\":2386:2434   */\n      tag_299\n        /* \"#utility.yul\":2427:2433   */\n      dup5\n        /* \"#utility.yul\":2386:2434   */\n      tag_236\n      jump\t// in\n    tag_299:\n        /* \"#utility.yul\":2370:2435   */\n      tag_235\n      jump\t// in\n    tag_298:\n        /* \"#utility.yul\":2361:2435   */\n      swap1\n      pop\n        /* \"#utility.yul\":2458:2464   */\n      dup3\n        /* \"#utility.yul\":2451:2456   */\n      dup2\n        /* \"#utility.yul\":2444:2465   */\n      mstore\n        /* \"#utility.yul\":2496:2500   */\n      0x20\n        /* \"#utility.yul\":2489:2494   */\n      dup2\n        /* \"#utility.yul\":2485:2501   */\n      add\n        /* \"#utility.yul\":2534:2537   */\n      dup5\n        /* \"#utility.yul\":2525:2531   */\n      dup5\n        /* \"#utility.yul\":2520:2523   */\n      dup5\n        /* \"#utility.yul\":2516:2532   */\n      add\n        /* \"#utility.yul\":2513:2538   */\n      gt\n        /* \"#utility.yul\":2510:2622   */\n      iszero\n      tag_300\n      jumpi\n        /* \"#utility.yul\":2541:2620   */\n      tag_301\n      tag_231\n      jump\t// in\n    tag_301:\n        /* \"#utility.yul\":2510:2622   */\n    tag_300:\n        /* \"#utility.yul\":2631:2685   */\n      tag_302\n        /* \"#utility.yul\":2678:2684   */\n      dup5\n        /* \"#utility.yul\":2673:2676   */\n      dup3\n        /* \"#utility.yul\":2668:2671   */\n      dup6\n        /* \"#utility.yul\":2631:2685   */\n      tag_237\n      jump\t// in\n    tag_302:\n        /* \"#utility.yul\":2351:2691   */\n      pop\n        /* \"#utility.yul\":2268:2691   */\n      swap4\n      swap3\n      pop\n      pop\n      pop\n      jump\t// out\n        /* \"#utility.yul\":2710:3048   */\n    tag_239:\n        /* \"#utility.yul\":2765:2770   */\n      0x00\n        /* \"#utility.yul\":2814:2817   */\n      dup3\n        /* \"#utility.yul\":2807:2811   */\n      0x1f\n        /* \"#utility.yul\":2799:2805   */\n      dup4\n        /* \"#utility.yul\":2795:2812   */\n      add\n        /* \"#utility.yul\":2791:2818   */\n      slt\n        /* \"#utility.yul\":2781:2903   */\n      tag_304\n      jumpi\n        /* \"#utility.yul\":2822:2901   */\n      tag_305\n      tag_230\n      jump\t// in\n    tag_305:\n        /* \"#utility.yul\":2781:2903   */\n    tag_304:\n        /* \"#utility.yul\":2939:2945   */\n      dup2\n        /* \"#utility.yul\":2926:2946   */\n      calldataload\n        /* \"#utility.yul\":2964:3042   */\n      tag_306\n        /* \"#utility.yul\":3038:3041   */\n      dup5\n        /* \"#utility.yul\":3030:3036   */\n      dup3\n        /* \"#utility.yul\":3023:3027   */\n      0x20\n        /* \"#utility.yul\":3015:3021   */\n      dup7\n        /* \"#utility.yul\":3011:3028   */\n      add\n        /* \"#utility.yul\":2964:3042   */\n      tag_238\n      jump\t// in\n    tag_306:\n        /* \"#utility.yul\":2955:3042   */\n      swap2\n      pop\n        /* \"#utility.yul\":2771:3048   */\n      pop\n        /* \"#utility.yul\":2710:3048   */\n      swap3\n      swap2\n      pop\n      pop\n      jump\t// out\n        /* \"#utility.yul\":3054:3706   */\n    tag_20:\n        /* \"#utility.yul\":3131:3137   */\n      0x00\n        /* \"#utility.yul\":3139:3145   */\n      dup1\n        /* \"#utility.yul\":3188:3190   */\n      0x40\n        /* \"#utility.yul\":3176:3185   */\n      dup4\n        /* \"#utility.yul\":3167:3174   */\n      dup6\n        /* \"#utility.yul\":3163:3186   */\n      sub\n        /* \"#utility.yul\":3159:3191   */\n      slt\n        /* \"#utility.yul\":3156:3275   */\n      iszero\n      tag_308\n      jumpi\n        /* \"#utility.yul\":3194:3273   */\n      tag_309\n      tag_224\n      jump\t// in\n    tag_309:\n        /* \"#utility.yul\":3156:3275   */\n    tag_308:\n        /* \"#utility.yul\":3314:3315   */\n      0x00\n        /* \"#utility.yul\":3339:3392   */\n      tag_310\n        /* \"#utility.yul\":3384:3391   */\n      dup6\n        /* \"#utility.yul\":3375:3381   */\n      dup3\n        /* \"#utility.yul\":3364:3373   */\n      dup7\n        /* \"#utility.yul\":3360:3382   */\n      add\n        /* \"#utility.yul\":3339:3392   */\n      tag_229\n      jump\t// in\n    tag_310:\n        /* \"#utility.yul\":3329:3392   */\n      swap3\n      pop\n        /* \"#utility.yul\":3285:3402   */\n      pop\n        /* \"#utility.yul\":3469:3471   */\n      0x20\n        /* \"#utility.yul\":3458:3467   */\n      dup4\n        /* \"#utility.yul\":3454:3472   */\n      add\n        /* \"#utility.yul\":3441:3473   */\n      calldataload\n        /* \"#utility.yul\":3500:3518   */\n      0xffffffffffffffff\n        /* \"#utility.yul\":3492:3498   */\n      dup2\n        /* \"#utility.yul\":3489:3519   */\n      gt\n        /* \"#utility.yul\":3486:3603   */\n      iszero\n      tag_311\n      jumpi\n        /* \"#utility.yul\":3522:3601   */\n      tag_312\n      tag_225\n      jump\t// in\n    tag_312:\n        /* \"#utility.yul\":3486:3603   */\n    tag_311:\n        /* \"#utility.yul\":3627:3689   */\n      tag_313\n        /* \"#utility.yul\":3681:3688   */\n      dup6\n        /* \"#utility.yul\":3672:3678   */\n      dup3\n        /* \"#utility.yul\":3661:3670   */\n      dup7\n        /* \"#utility.yul\":3657:3679   */\n      add\n        /* \"#utility.yul\":3627:3689   */\n      tag_239\n      jump\t// in\n    tag_313:\n        /* \"#utility.yul\":3617:3689   */\n      swap2\n      pop\n        /* \"#utility.yul\":3412:3699   */\n      pop\n        /* \"#utility.yul\":3054:3706   */\n      swap3\n      pop\n      swap3\n      swap1\n      pop\n      jump\t// out\n        /* \"#utility.yul\":3712:3789   */\n    tag_240:\n        /* \"#utility.yul\":3749:3756   */\n      0x00\n        /* \"#utility.yul\":3778:3783   */\n      dup2\n        /* \"#utility.yul\":3767:3783   */\n      swap1\n      pop\n        /* \"#utility.yul\":3712:3789   */\n      swap2\n      swap1\n      pop\n      jump\t// out\n        /* \"#utility.yul\":3795:3913   */\n    tag_241:\n        /* \"#utility.yul\":3882:3906   */\n      tag_316\n        /* \"#utility.yul\":3900:3905   */\n      dup2\n        /* \"#utility.yul\":3882:3906   */\n      tag_240\n      jump\t// in\n    tag_316:\n        /* \"#utility.yul\":3877:3880   */\n      dup3\n        /* \"#utility.yul\":3870:3907   */\n      mstore\n        /* \"#utility.yul\":3795:3913   */\n      pop\n      pop\n      jump\t// out\n        /* \"#utility.yul\":3919:4141   */\n    tag_26:\n        /* \"#utility.yul\":4012:4016   */\n      0x00\n        /* \"#utility.yul\":4050:4052   */\n      0x20\n        /* \"#utility.yul\":4039:4048   */\n      dup3\n        /* \"#utility.yul\":4035:4053   */\n      add\n        /* \"#utility.yul\":4027:4053   */\n      swap1\n      pop\n        /* \"#utility.yul\":4063:4134   */\n      tag_318\n        /* \"#utility.yul\":4131:4132   */\n      0x00\n        /* \"#utility.yul\":4120:4129   */\n      dup4\n        /* \"#utility.yul\":4116:4133   */\n      add\n        /* \"#utility.yul\":4107:4113   */\n      dup5\n        /* \"#utility.yul\":4063:4134   */\n      tag_241\n      jump\t// in\n    tag_318:\n        /* \"#utility.yul\":3919:4141   */\n      swap3\n      swap2\n      pop\n      pop\n      jump\t// out\n        /* \"#utility.yul\":4147:4224   */\n    tag_242:\n        /* \"#utility.yul\":4184:4191   */\n      0x00\n        /* \"#utility.yul\":4213:4218   */\n      dup2\n        /* \"#utility.yul\":4202:4218   */\n      swap1\n      pop\n        /* \"#utility.yul\":4147:4224   */\n      swap2\n      swap1\n      pop\n      jump\t// out\n        /* \"#utility.yul\":4230:4348   */\n    tag_243:\n        /* \"#utility.yul\":4317:4341   */\n      tag_321\n        /* \"#utility.yul\":4335:4340   */\n      dup2\n        /* \"#utility.yul\":4317:4341   */\n      tag_242\n      jump\t// in\n    tag_321:\n        /* \"#utility.yul\":4312:4315   */\n      dup3\n        /* \"#utility.yul\":4305:4342   */\n      mstore\n        /* \"#utility.yul\":4230:4348   */\n      pop\n      pop\n      jump\t// out\n        /* \"#utility.yul\":4354:4576   */\n    tag_34:\n        /* \"#utility.yul\":4447:4451   */\n      0x00\n        /* \"#utility.yul\":4485:4487   */\n      0x20\n        /* \"#utility.yul\":4474:4483   */\n      dup3\n        /* \"#utility.yul\":4470:4488   */\n      add\n        /* \"#utility.yul\":4462:4488   */\n      swap1\n      pop\n        /* \"#utility.yul\":4498:4569   */\n      tag_323\n        /* \"#utility.yul\":4566:4567   */\n      0x00\n        /* \"#utility.yul\":4555:4564   */\n      dup4\n        /* \"#utility.yul\":4551:4568   */\n      add\n        /* \"#utility.yul\":4542:4548   */\n      dup5\n        /* \"#utility.yul\":4498:4569   */\n      tag_243\n      jump\t// in\n    tag_323:\n        /* \"#utility.yul\":4354:4576   */\n      swap3\n      swap2\n      pop\n      pop\n      jump\t// out\n        /* \"#utility.yul\":4582:4700   */\n    tag_244:\n        /* \"#utility.yul\":4669:4693   */\n      tag_325\n        /* \"#utility.yul\":4687:4692   */\n      dup2\n        /* \"#utility.yul\":4669:4693   */\n      tag_227\n      jump\t// in\n    tag_325:\n        /* \"#utility.yul\":4664:4667   */\n      dup3\n        /* \"#utility.yul\":4657:4694   */\n      mstore\n        /* \"#utility.yul\":4582:4700   */\n      pop\n      pop\n      jump\t// out\n        /* \"#utility.yul\":4706:4928   */\n    tag_39:\n        /* \"#utility.yul\":4799:4803   */\n      0x00\n        /* \"#utility.yul\":4837:4839   */\n      0x20\n        /* \"#utility.yul\":4826:4835   */\n      dup3\n        /* \"#utility.yul\":4822:4840   */\n      add\n        /* \"#utility.yul\":4814:4840   */\n      swap1\n      pop\n        /* \"#utility.yul\":4850:4921   */\n      tag_327\n        /* \"#utility.yul\":4918:4919   */\n      0x00\n        /* \"#utility.yul\":4907:4916   */\n      dup4\n        /* \"#utility.yul\":4903:4920   */\n      add\n        /* \"#utility.yul\":4894:4900   */\n      dup5\n        /* \"#utility.yul\":4850:4921   */\n      tag_244\n      jump\t// in\n    tag_327:\n        /* \"#utility.yul\":4706:4928   */\n      swap3\n      swap2\n      pop\n      pop\n      jump\t// out\n        /* \"#utility.yul\":4934:5033   */\n    tag_245:\n        /* \"#utility.yul\":4986:4992   */\n      0x00\n        /* \"#utility.yul\":5020:5025   */\n      dup2\n        /* \"#utility.yul\":5014:5026   */\n      mload\n        /* \"#utility.yul\":5004:5026   */\n      swap1\n      pop\n        /* \"#utility.yul\":4934:5033   */\n      swap2\n      swap1\n      pop\n      jump\t// out\n        /* \"#utility.yul\":5039:5208   */\n    tag_246:\n        /* \"#utility.yul\":5123:5134   */\n      0x00\n        /* \"#utility.yul\":5157:5163   */\n      dup3\n        /* \"#utility.yul\":5152:5155   */\n      dup3\n        /* \"#utility.yul\":5145:5164   */\n      mstore\n        /* \"#utility.yul\":5197:5201   */\n      0x20\n        /* \"#utility.yul\":5192:5195   */\n      dup3\n        /* \"#utility.yul\":5188:5202   */\n      add\n        /* \"#utility.yul\":5173:5202   */\n      swap1\n      pop\n        /* \"#utility.yul\":5039:5208   */\n      swap3\n      swap2\n      pop\n      pop\n      jump\t// out\n        /* \"#utility.yul\":5214:5460   */\n    tag_247:\n        /* \"#utility.yul\":5295:5296   */\n      0x00\n        /* \"#utility.yul\":5305:5418   */\n    tag_331:\n        /* \"#utility.yul\":5319:5325   */\n      dup4\n        /* \"#utility.yul\":5316:5317   */\n      dup2\n        /* \"#utility.yul\":5313:5326   */\n      lt\n        /* \"#utility.yul\":5305:5418   */\n      iszero\n      tag_333\n      jumpi\n        /* \"#utility.yul\":5404:5405   */\n      dup1\n        /* \"#utility.yul\":5399:5402   */\n      dup3\n        /* \"#utility.yul\":5395:5406   */\n      add\n        /* \"#utility.yul\":5389:5407   */\n      mload\n        /* \"#utility.yul\":5385:5386   */\n      dup2\n        /* \"#utility.yul\":5380:5383   */\n      dup5\n        /* \"#utility.yul\":5376:5387   */\n      add\n        /* \"#utility.yul\":5369:5408   */\n      mstore\n        /* \"#utility.yul\":5341:5343   */\n      0x20\n        /* \"#utility.yul\":5338:5339   */\n      dup2\n        /* \"#utility.yul\":5334:5344   */\n      add\n        /* \"#utility.yul\":5329:5344   */\n      swap1\n      pop\n        /* \"#utility.yul\":5305:5418   */\n      jump(tag_331)\n    tag_333:\n        /* \"#utility.yul\":5452:5453   */\n      0x00\n        /* \"#utility.yul\":5443:5449   */\n      dup5\n        /* \"#utility.yul\":5438:5441   */\n      dup5\n        /* \"#utility.yul\":5434:5450   */\n      add\n        /* \"#utility.yul\":5427:5454   */\n      mstore\n        /* \"#utility.yul\":5276:5460   */\n      pop\n        /* \"#utility.yul\":5214:5460   */\n      pop\n      pop\n      pop\n      jump\t// out\n        /* \"#utility.yul\":5466:5843   */\n    tag_248:\n        /* \"#utility.yul\":5554:5557   */\n      0x00\n        /* \"#utility.yul\":5582:5621   */\n      tag_335\n        /* \"#utility.yul\":5615:5620   */\n      dup3\n        /* \"#utility.yul\":5582:5621   */\n      tag_245\n      jump\t// in\n    tag_335:\n        /* \"#utility.yul\":5637:5708   */\n      tag_336\n        /* \"#utility.yul\":5701:5707   */\n      dup2\n        /* \"#utility.yul\":5696:5699   */\n      dup6\n        /* \"#utility.yul\":5637:5708   */\n      tag_246\n      jump\t// in\n    tag_336:\n        /* \"#utility.yul\":5630:5708   */\n      swap4\n      pop\n        /* \"#utility.yul\":5717:5782   */\n      tag_337\n        /* \"#utility.yul\":5775:5781   */\n      dup2\n        /* \"#utility.yul\":5770:5773   */\n      dup6\n        /* \"#utility.yul\":5763:5767   */\n      0x20\n        /* \"#utility.yul\":5756:5761   */\n      dup7\n        /* \"#utility.yul\":5752:5768   */\n      add\n        /* \"#utility.yul\":5717:5782   */\n      tag_247\n      jump\t// in\n    tag_337:\n        /* \"#utility.yul\":5807:5836   */\n      tag_338\n        /* \"#utility.yul\":5829:5835   */\n      dup2\n        /* \"#utility.yul\":5807:5836   */\n      tag_232\n      jump\t// in\n    tag_338:\n        /* \"#utility.yul\":5802:5805   */\n      dup5\n        /* \"#utility.yul\":5798:5837   */\n      add\n        /* \"#utility.yul\":5791:5837   */\n      swap2\n      pop\n        /* \"#utility.yul\":5558:5843   */\n      pop\n        /* \"#utility.yul\":5466:5843   */\n      swap3\n      swap2\n      pop\n      pop\n      jump\t// out\n        /* \"#utility.yul\":5849:6162   */\n    tag_44:\n        /* \"#utility.yul\":5962:5966   */\n      0x00\n        /* \"#utility.yul\":6000:6002   */\n      0x20\n        /* \"#utility.yul\":5989:5998   */\n      dup3\n        /* \"#utility.yul\":5985:6003   */\n      add\n        /* \"#utility.yul\":5977:6003   */\n      swap1\n      pop\n        /* \"#utility.yul\":6049:6058   */\n      dup2\n        /* \"#utility.yul\":6043:6047   */\n      dup2\n        /* \"#utility.yul\":6039:6059   */\n      sub\n        /* \"#utility.yul\":6035:6036   */\n      0x00\n        /* \"#utility.yul\":6024:6033   */\n      dup4\n        /* \"#utility.yul\":6020:6037   */\n      add\n        /* \"#utility.yul\":6013:6060   */\n      mstore\n        /* \"#utility.yul\":6077:6155   */\n      tag_340\n        /* \"#utility.yul\":6150:6154   */\n      dup2\n        /* \"#utility.yul\":6141:6147   */\n      dup5\n        /* \"#utility.yul\":6077:6155   */\n      tag_248\n      jump\t// in\n    tag_340:\n        /* \"#utility.yul\":6069:6155   */\n      swap1\n      pop\n        /* \"#utility.yul\":5849:6162   */\n      swap3\n      swap2\n      pop\n      pop\n      jump\t// out\n        /* \"#utility.yul\":6168:6290   */\n    tag_249:\n        /* \"#utility.yul\":6241:6265   */\n      tag_342\n        /* \"#utility.yul\":6259:6264   */\n      dup2\n        /* \"#utility.yul\":6241:6265   */\n      tag_242\n      jump\t// in\n    tag_342:\n        /* \"#utility.yul\":6234:6239   */\n      dup2\n        /* \"#utility.yul\":6231:6266   */\n      eq\n        /* \"#utility.yul\":6221:6284   */\n      tag_343\n      jumpi\n        /* \"#utility.yul\":6280:6281   */\n      0x00\n        /* \"#utility.yul\":6277:6278   */\n      dup1\n        /* \"#utility.yul\":6270:6282   */\n      revert\n        /* \"#utility.yul\":6221:6284   */\n    tag_343:\n        /* \"#utility.yul\":6168:6290   */\n      pop\n      jump\t// out\n        /* \"#utility.yul\":6296:6435   */\n    tag_250:\n        /* \"#utility.yul\":6342:6347   */\n      0x00\n        /* \"#utility.yul\":6380:6386   */\n      dup2\n        /* \"#utility.yul\":6367:6387   */\n      calldataload\n        /* \"#utility.yul\":6358:6387   */\n      swap1\n      pop\n        /* \"#utility.yul\":6396:6429   */\n      tag_345\n        /* \"#utility.yul\":6423:6428   */\n      dup2\n        /* \"#utility.yul\":6396:6429   */\n      tag_249\n      jump\t// in\n    tag_345:\n        /* \"#utility.yul\":6296:6435   */\n      swap3\n      swap2\n      pop\n      pop\n      jump\t// out\n        /* \"#utility.yul\":6441:6915   */\n    tag_48:\n        /* \"#utility.yul\":6509:6515   */\n      0x00\n        /* \"#utility.yul\":6517:6523   */\n      dup1\n        /* \"#utility.yul\":6566:6568   */\n      0x40\n        /* \"#utility.yul\":6554:6563   */\n      dup4\n        /* \"#utility.yul\":6545:6552   */\n      dup6\n        /* \"#utility.yul\":6541:6564   */\n      sub\n        /* \"#utility.yul\":6537:6569   */\n      slt\n        /* \"#utility.yul\":6534:6653   */\n      iszero\n      tag_347\n      jumpi\n        /* \"#utility.yul\":6572:6651   */\n      tag_348\n      tag_224\n      jump\t// in\n    tag_348:\n        /* \"#utility.yul\":6534:6653   */\n    tag_347:\n        /* \"#utility.yul\":6692:6693   */\n      0x00\n        /* \"#utility.yul\":6717:6770   */\n      tag_349\n        /* \"#utility.yul\":6762:6769   */\n      dup6\n        /* \"#utility.yul\":6753:6759   */\n      dup3\n        /* \"#utility.yul\":6742:6751   */\n      dup7\n        /* \"#utility.yul\":6738:6760   */\n      add\n        /* \"#utility.yul\":6717:6770   */\n      tag_229\n      jump\t// in\n    tag_349:\n        /* \"#utility.yul\":6707:6770   */\n      swap3\n      pop\n        /* \"#utility.yul\":6663:6780   */\n      pop\n        /* \"#utility.yul\":6819:6821   */\n      0x20\n        /* \"#utility.yul\":6845:6898   */\n      tag_350\n        /* \"#utility.yul\":6890:6897   */\n      dup6\n        /* \"#utility.yul\":6881:6887   */\n      dup3\n        /* \"#utility.yul\":6870:6879   */\n      dup7\n        /* \"#utility.yul\":6866:6888   */\n      add\n        /* \"#utility.yul\":6845:6898   */\n      tag_250\n      jump\t// in\n    tag_350:\n        /* \"#utility.yul\":6835:6898   */\n      swap2\n      pop\n        /* \"#utility.yul\":6790:6908   */\n      pop\n        /* \"#utility.yul\":6441:6915   */\n      swap3\n      pop\n      swap3\n      swap1\n      pop\n      jump\t// out\n        /* \"#utility.yul\":6921:7019   */\n    tag_251:\n        /* \"#utility.yul\":6972:6978   */\n      0x00\n        /* \"#utility.yul\":7006:7011   */\n      dup2\n        /* \"#utility.yul\":7000:7012   */\n      mload\n        /* \"#utility.yul\":6990:7012   */\n      swap1\n      pop\n        /* \"#utility.yul\":6921:7019   */\n      swap2\n      swap1\n      pop\n      jump\t// out\n        /* \"#utility.yul\":7025:7193   */\n    tag_252:\n        /* \"#utility.yul\":7108:7119   */\n      0x00\n        /* \"#utility.yul\":7142:7148   */\n      dup3\n        /* \"#utility.yul\":7137:7140   */\n      dup3\n        /* \"#utility.yul\":7130:7149   */\n      mstore\n        /* \"#utility.yul\":7182:7186   */\n      0x20\n        /* \"#utility.yul\":7177:7180   */\n      dup3\n        /* \"#utility.yul\":7173:7187   */\n      add\n        /* \"#utility.yul\":7158:7187   */\n      swap1\n      pop\n        /* \"#utility.yul\":7025:7193   */\n      swap3\n      swap2\n      pop\n      pop\n      jump\t// out\n        /* \"#utility.yul\":7199:7572   */\n    tag_253:\n        /* \"#utility.yul\":7285:7288   */\n      0x00\n        /* \"#utility.yul\":7313:7351   */\n      tag_354\n        /* \"#utility.yul\":7345:7350   */\n      dup3\n        /* \"#utility.yul\":7313:7351   */\n      tag_251\n      jump\t// in\n    tag_354:\n        /* \"#utility.yul\":7367:7437   */\n      tag_355\n        /* \"#utility.yul\":7430:7436   */\n      dup2\n        /* \"#utility.yul\":7425:7428   */\n      dup6\n        /* \"#utility.yul\":7367:7437   */\n      tag_252\n      jump\t// in\n    tag_355:\n        /* \"#utility.yul\":7360:7437   */\n      swap4\n      pop\n        /* \"#utility.yul\":7446:7511   */\n      tag_356\n        /* \"#utility.yul\":7504:7510   */\n      dup2\n        /* \"#utility.yul\":7499:7502   */\n      dup6\n        /* \"#utility.yul\":7492:7496   */\n      0x20\n        /* \"#utility.yul\":7485:7490   */\n      dup7\n        /* \"#utility.yul\":7481:7497   */\n      add\n        /* \"#utility.yul\":7446:7511   */\n      tag_247\n      jump\t// in\n    tag_356:\n        /* \"#utility.yul\":7536:7565   */\n      tag_357\n        /* \"#utility.yul\":7558:7564   */\n      dup2\n        /* \"#utility.yul\":7536:7565   */\n      tag_232\n      jump\t// in\n    tag_357:\n        /* \"#utility.yul\":7531:7534   */\n      dup5\n        /* \"#utility.yul\":7527:7566   */\n      add\n        /* \"#utility.yul\":7520:7566   */\n      swap2\n      pop\n        /* \"#utility.yul\":7289:7572   */\n      pop\n        /* \"#utility.yul\":7199:7572   */\n      swap3\n      swap2\n      pop\n      pop\n      jump\t// out\n        /* \"#utility.yul\":7578:7887   */\n    tag_55:\n        /* \"#utility.yul\":7689:7693   */\n      0x00\n        /* \"#utility.yul\":7727:7729   */\n      0x20\n        /* \"#utility.yul\":7716:7725   */\n      dup3\n        /* \"#utility.yul\":7712:7730   */\n      add\n        /* \"#utility.yul\":7704:7730   */\n      swap1\n      pop\n        /* \"#utility.yul\":7776:7785   */\n      dup2\n        /* \"#utility.yul\":7770:7774   */\n      dup2\n        /* \"#utility.yul\":7766:7786   */\n      sub\n        /* \"#utility.yul\":7762:7763   */\n      0x00\n        /* \"#utility.yul\":7751:7760   */\n      dup4\n        /* \"#utility.yul\":7747:7764   */\n      add\n        /* \"#utility.yul\":7740:7787   */\n      mstore\n        /* \"#utility.yul\":7804:7880   */\n      tag_359\n        /* \"#utility.yul\":7875:7879   */\n      dup2\n        /* \"#utility.yul\":7866:7872   */\n      dup5\n        /* \"#utility.yul\":7804:7880   */\n      tag_253\n      jump\t// in\n    tag_359:\n        /* \"#utility.yul\":7796:7880   */\n      swap1\n      pop\n        /* \"#utility.yul\":7578:7887   */\n      swap3\n      swap2\n      pop\n      pop\n      jump\t// out\n        /* \"#utility.yul\":7893:8222   */\n    tag_63:\n        /* \"#utility.yul\":7952:7958   */\n      0x00\n        /* \"#utility.yul\":8001:8003   */\n      0x20\n        /* \"#utility.yul\":7989:7998   */\n      dup3\n        /* \"#utility.yul\":7980:7987   */\n      dup5\n        /* \"#utility.yul\":7976:7999   */\n      sub\n        /* \"#utility.yul\":7972:8004   */\n      slt\n        /* \"#utility.yul\":7969:8088   */\n      iszero\n      tag_361\n      jumpi\n        /* \"#utility.yul\":8007:8086   */\n      tag_362\n      tag_224\n      jump\t// in\n    tag_362:\n        /* \"#utility.yul\":7969:8088   */\n    tag_361:\n        /* \"#utility.yul\":8127:8128   */\n      0x00\n        /* \"#utility.yul\":8152:8205   */\n      tag_363\n        /* \"#utility.yul\":8197:8204   */\n      dup5\n        /* \"#utility.yul\":8188:8194   */\n      dup3\n        /* \"#utility.yul\":8177:8186   */\n      dup6\n        /* \"#utility.yul\":8173:8195   */\n      add\n        /* \"#utility.yul\":8152:8205   */\n      tag_229\n      jump\t// in\n    tag_363:\n        /* \"#utility.yul\":8142:8205   */\n      swap2\n      pop\n        /* \"#utility.yul\":8098:8215   */\n      pop\n        /* \"#utility.yul\":7893:8222   */\n      swap3\n      swap2\n      pop\n      pop\n      jump\t// out\n        /* \"#utility.yul\":8228:8536   */\n    tag_254:\n        /* \"#utility.yul\":8290:8294   */\n      0x00\n        /* \"#utility.yul\":8380:8398   */\n      0xffffffffffffffff\n        /* \"#utility.yul\":8372:8378   */\n      dup3\n        /* \"#utility.yul\":8369:8399   */\n      gt\n        /* \"#utility.yul\":8366:8422   */\n      iszero\n      tag_365\n      jumpi\n        /* \"#utility.yul\":8402:8420   */\n      tag_366\n      tag_233\n      jump\t// in\n    tag_366:\n        /* \"#utility.yul\":8366:8422   */\n    tag_365:\n        /* \"#utility.yul\":8440:8469   */\n      tag_367\n        /* \"#utility.yul\":8462:8468   */\n      dup3\n        /* \"#utility.yul\":8440:8469   */\n      tag_232\n      jump\t// in\n    tag_367:\n        /* \"#utility.yul\":8432:8469   */\n      swap1\n      pop\n        /* \"#utility.yul\":8524:8528   */\n      0x20\n        /* \"#utility.yul\":8518:8522   */\n      dup2\n        /* \"#utility.yul\":8514:8529   */\n      add\n        /* \"#utility.yul\":8506:8529   */\n      swap1\n      pop\n        /* \"#utility.yul\":8228:8536   */\n      swap2\n      swap1\n      pop\n      jump\t// out\n        /* \"#utility.yul\":8542:8967   */\n    tag_255:\n        /* \"#utility.yul\":8620:8625   */\n      0x00\n        /* \"#utility.yul\":8645:8711   */\n      tag_369\n        /* \"#utility.yul\":8661:8710   */\n      tag_370\n        /* \"#utility.yul\":8703:8709   */\n      dup5\n        /* \"#utility.yul\":8661:8710   */\n      tag_254\n      jump\t// in\n    tag_370:\n        /* \"#utility.yul\":8645:8711   */\n      tag_235\n      jump\t// in\n    tag_369:\n        /* \"#utility.yul\":8636:8711   */\n      swap1\n      pop\n        /* \"#utility.yul\":8734:8740   */\n      dup3\n        /* \"#utility.yul\":8727:8732   */\n      dup2\n        /* \"#utility.yul\":8720:8741   */\n      mstore\n        /* \"#utility.yul\":8772:8776   */\n      0x20\n        /* \"#utility.yul\":8765:8770   */\n      dup2\n        /* \"#utility.yul\":8761:8777   */\n      add\n        /* \"#utility.yul\":8810:8813   */\n      dup5\n        /* \"#utility.yul\":8801:8807   */\n      dup5\n        /* \"#utility.yul\":8796:8799   */\n      dup5\n        /* \"#utility.yul\":8792:8808   */\n      add\n        /* \"#utility.yul\":8789:8814   */\n      gt\n        /* \"#utility.yul\":8786:8898   */\n      iszero\n      tag_371\n      jumpi\n        /* \"#utility.yul\":8817:8896   */\n      tag_372\n      tag_231\n      jump\t// in\n    tag_372:\n        /* \"#utility.yul\":8786:8898   */\n    tag_371:\n        /* \"#utility.yul\":8907:8961   */\n      tag_373\n        /* \"#utility.yul\":8954:8960   */\n      dup5\n        /* \"#utility.yul\":8949:8952   */\n      dup3\n        /* \"#utility.yul\":8944:8947   */\n      dup6\n        /* \"#utility.yul\":8907:8961   */\n      tag_237\n      jump\t// in\n    tag_373:\n        /* \"#utility.yul\":8626:8967   */\n      pop\n        /* \"#utility.yul\":8542:8967   */\n      swap4\n      swap3\n      pop\n      pop\n      pop\n      jump\t// out\n        /* \"#utility.yul\":8987:9327   */\n    tag_256:\n        /* \"#utility.yul\":9043:9048   */\n      0x00\n        /* \"#utility.yul\":9092:9095   */\n      dup3\n        /* \"#utility.yul\":9085:9089   */\n      0x1f\n        /* \"#utility.yul\":9077:9083   */\n      dup4\n        /* \"#utility.yul\":9073:9090   */\n      add\n        /* \"#utility.yul\":9069:9096   */\n      slt\n        /* \"#utility.yul\":9059:9181   */\n      tag_375\n      jumpi\n        /* \"#utility.yul\":9100:9179   */\n      tag_376\n      tag_230\n      jump\t// in\n    tag_376:\n        /* \"#utility.yul\":9059:9181   */\n    tag_375:\n        /* \"#utility.yul\":9217:9223   */\n      dup2\n        /* \"#utility.yul\":9204:9224   */\n      calldataload\n        /* \"#utility.yul\":9242:9321   */\n      tag_377\n        /* \"#utility.yul\":9317:9320   */\n      dup5\n        /* \"#utility.yul\":9309:9315   */\n      dup3\n        /* \"#utility.yul\":9302:9306   */\n      0x20\n        /* \"#utility.yul\":9294:9300   */\n      dup7\n        /* \"#utility.yul\":9290:9307   */\n      add\n        /* \"#utility.yul\":9242:9321   */\n      tag_255\n      jump\t// in\n    tag_377:\n        /* \"#utility.yul\":9233:9321   */\n      swap2\n      pop\n        /* \"#utility.yul\":9049:9327   */\n      pop\n        /* \"#utility.yul\":8987:9327   */\n      swap3\n      swap2\n      pop\n      pop\n      jump\t// out\n        /* \"#utility.yul\":9333:10132   */\n    tag_68:\n        /* \"#utility.yul\":9420:9426   */\n      0x00\n        /* \"#utility.yul\":9428:9434   */\n      dup1\n        /* \"#utility.yul\":9436:9442   */\n      0x00\n        /* \"#utility.yul\":9485:9487   */\n      0x60\n        /* \"#utility.yul\":9473:9482   */\n      dup5\n        /* \"#utility.yul\":9464:9471   */\n      dup7\n        /* \"#utility.yul\":9460:9483   */\n      sub\n        /* \"#utility.yul\":9456:9488   */\n      slt\n        /* \"#utility.yul\":9453:9572   */\n      iszero\n      tag_379\n      jumpi\n        /* \"#utility.yul\":9491:9570   */\n      tag_380\n      tag_224\n      jump\t// in\n    tag_380:\n        /* \"#utility.yul\":9453:9572   */\n    tag_379:\n        /* \"#utility.yul\":9639:9640   */\n      0x00\n        /* \"#utility.yul\":9628:9637   */\n      dup5\n        /* \"#utility.yul\":9624:9641   */\n      add\n        /* \"#utility.yul\":9611:9642   */\n      calldataload\n        /* \"#utility.yul\":9669:9687   */\n      0xffffffffffffffff\n        /* \"#utility.yul\":9661:9667   */\n      dup2\n        /* \"#utility.yul\":9658:9688   */\n      gt\n        /* \"#utility.yul\":9655:9772   */\n      iszero\n      tag_381\n      jumpi\n        /* \"#utility.yul\":9691:9770   */\n      tag_382\n      tag_225\n      jump\t// in\n    tag_382:\n        /* \"#utility.yul\":9655:9772   */\n    tag_381:\n        /* \"#utility.yul\":9796:9859   */\n      tag_383\n        /* \"#utility.yul\":9851:9858   */\n      dup7\n        /* \"#utility.yul\":9842:9848   */\n      dup3\n        /* \"#utility.yul\":9831:9840   */\n      dup8\n        /* \"#utility.yul\":9827:9849   */\n      add\n        /* \"#utility.yul\":9796:9859   */\n      tag_256\n      jump\t// in\n    tag_383:\n        /* \"#utility.yul\":9786:9859   */\n      swap4\n      pop\n        /* \"#utility.yul\":9582:9869   */\n      pop\n        /* \"#utility.yul\":9908:9910   */\n      0x20\n        /* \"#utility.yul\":9934:9987   */\n      tag_384\n        /* \"#utility.yul\":9979:9986   */\n      dup7\n        /* \"#utility.yul\":9970:9976   */\n      dup3\n        /* \"#utility.yul\":9959:9968   */\n      dup8\n        /* \"#utility.yul\":9955:9977   */\n      add\n        /* \"#utility.yul\":9934:9987   */\n      tag_229\n      jump\t// in\n    tag_384:\n        /* \"#utility.yul\":9924:9987   */\n      swap3\n      pop\n        /* \"#utility.yul\":9879:9997   */\n      pop\n        /* \"#utility.yul\":10036:10038   */\n      0x40\n        /* \"#utility.yul\":10062:10115   */\n      tag_385\n        /* \"#utility.yul\":10107:10114   */\n      dup7\n        /* \"#utility.yul\":10098:10104   */\n      dup3\n        /* \"#utility.yul\":10087:10096   */\n      dup8\n        /* \"#utility.yul\":10083:10105   */\n      add\n        /* \"#utility.yul\":10062:10115   */\n      tag_250\n      jump\t// in\n    tag_385:\n        /* \"#utility.yul\":10052:10115   */\n      swap2\n      pop\n        /* \"#utility.yul\":10007:10125   */\n      pop\n        /* \"#utility.yul\":9333:10132   */\n      swap3\n      pop\n      swap3\n      pop\n      swap3\n      jump\t// out\n        /* \"#utility.yul\":10138:10318   */\n    tag_257:\n        /* \"#utility.yul\":10186:10263   */\n      0x4e487b7100000000000000000000000000000000000000000000000000000000\n        /* \"#utility.yul\":10183:10184   */\n      0x00\n        /* \"#utility.yul\":10176:10264   */\n      mstore\n        /* \"#utility.yul\":10283:10287   */\n      0x11\n        /* \"#utility.yul\":10280:10281   */\n      0x04\n        /* \"#utility.yul\":10273:10288   */\n      mstore\n        /* \"#utility.yul\":10307:10311   */\n      0x24\n        /* \"#utility.yul\":10304:10305   */\n      0x00\n        /* \"#utility.yul\":10297:10312   */\n      revert\n        /* \"#utility.yul\":10324:10734   */\n    tag_76:\n        /* \"#utility.yul\":10364:10371   */\n      0x00\n        /* \"#utility.yul\":10387:10407   */\n      tag_388\n        /* \"#utility.yul\":10405:10406   */\n      dup3\n        /* \"#utility.yul\":10387:10407   */\n      tag_242\n      jump\t// in\n    tag_388:\n        /* \"#utility.yul\":10382:10407   */\n      swap2\n      pop\n        /* \"#utility.yul\":10421:10441   */\n      tag_389\n        /* \"#utility.yul\":10439:10440   */\n      dup4\n        /* \"#utility.yul\":10421:10441   */\n      tag_242\n      jump\t// in\n    tag_389:\n        /* \"#utility.yul\":10416:10441   */\n      swap3\n      pop\n        /* \"#utility.yul\":10476:10477   */\n      dup3\n        /* \"#utility.yul\":10473:10474   */\n      dup3\n        /* \"#utility.yul\":10469:10478   */\n      mul\n        /* \"#utility.yul\":10498:10528   */\n      tag_390\n        /* \"#utility.yul\":10516:10527   */\n      dup2\n        /* \"#utility.yul\":10498:10528   */\n      tag_242\n      jump\t// in\n    tag_390:\n        /* \"#utility.yul\":10487:10528   */\n      swap2\n      pop\n        /* \"#utility.yul\":10677:10678   */\n      dup3\n        /* \"#utility.yul\":10668:10675   */\n      dup3\n        /* \"#utility.yul\":10664:10679   */\n      div\n        /* \"#utility.yul\":10661:10662   */\n      dup5\n        /* \"#utility.yul\":10658:10680   */\n      eq\n        /* \"#utility.yul\":10638:10639   */\n      dup4\n        /* \"#utility.yul\":10631:10640   */\n      iszero\n        /* \"#utility.yul\":10611:10694   */\n      or\n        /* \"#utility.yul\":10588:10727   */\n      tag_391\n      jumpi\n        /* \"#utility.yul\":10707:10725   */\n      tag_392\n      tag_257\n      jump\t// in\n    tag_392:\n        /* \"#utility.yul\":10588:10727   */\n    tag_391:\n        /* \"#utility.yul\":10372:10734   */\n      pop\n        /* \"#utility.yul\":10324:10734   */\n      swap3\n      swap2\n      pop\n      pop\n      jump\t// out\n        /* \"#utility.yul\":10740:10825   */\n    tag_258:\n        /* \"#utility.yul\":10785:10792   */\n      0x00\n        /* \"#utility.yul\":10814:10819   */\n      dup2\n        /* \"#utility.yul\":10803:10819   */\n      swap1\n      pop\n        /* \"#utility.yul\":10740:10825   */\n      swap2\n      swap1\n      pop\n      jump\t// out\n        /* \"#utility.yul\":10831:10932   */\n    tag_259:\n        /* \"#utility.yul\":10867:10874   */\n      0x00\n        /* \"#utility.yul\":10907:10925   */\n      0xffffffffffffffff\n        /* \"#utility.yul\":10900:10905   */\n      dup3\n        /* \"#utility.yul\":10896:10926   */\n      and\n        /* \"#utility.yul\":10885:10926   */\n      swap1\n      pop\n        /* \"#utility.yul\":10831:10932   */\n      swap2\n      swap1\n      pop\n      jump\t// out\n        /* \"#utility.yul\":10938:10998   */\n    tag_260:\n        /* \"#utility.yul\":10966:10969   */\n      0x00\n        /* \"#utility.yul\":10987:10992   */\n      dup2\n        /* \"#utility.yul\":10980:10992   */\n      swap1\n      pop\n        /* \"#utility.yul\":10938:10998   */\n      swap2\n      swap1\n      pop\n      jump\t// out\n        /* \"#utility.yul\":11004:11160   */\n    tag_261:\n        /* \"#utility.yul\":11061:11070   */\n      0x00\n        /* \"#utility.yul\":11094:11154   */\n      tag_397\n        /* \"#utility.yul\":11111:11153   */\n      tag_398\n        /* \"#utility.yul\":11120:11152   */\n      tag_399\n        /* \"#utility.yul\":11146:11151   */\n      dup5\n        /* \"#utility.yul\":11120:11152   */\n      tag_258\n      jump\t// in\n    tag_399:\n        /* \"#utility.yul\":11111:11153   */\n      tag_260\n      jump\t// in\n    tag_398:\n        /* \"#utility.yul\":11094:11154   */\n      tag_259\n      jump\t// in\n    tag_397:\n        /* \"#utility.yul\":11081:11154   */\n      swap1\n      pop\n        /* \"#utility.yul\":11004:11160   */\n      swap2\n      swap1\n      pop\n      jump\t// out\n        /* \"#utility.yul\":11166:11311   */\n    tag_262:\n        /* \"#utility.yul\":11260:11304   */\n      tag_401\n        /* \"#utility.yul\":11298:11303   */\n      dup2\n        /* \"#utility.yul\":11260:11304   */\n      tag_261\n      jump\t// in\n    tag_401:\n        /* \"#utility.yul\":11255:11258   */\n      dup3\n        /* \"#utility.yul\":11248:11305   */\n      mstore\n        /* \"#utility.yul\":11166:11311   */\n      pop\n      pop\n      jump\t// out\n        /* \"#utility.yul\":11317:11553   */\n    tag_110:\n        /* \"#utility.yul\":11417:11421   */\n      0x00\n        /* \"#utility.yul\":11455:11457   */\n      0x20\n        /* \"#utility.yul\":11444:11453   */\n      dup3\n        /* \"#utility.yul\":11440:11458   */\n      add\n        /* \"#utility.yul\":11432:11458   */\n      swap1\n      pop\n        /* \"#utility.yul\":11468:11546   */\n      tag_403\n        /* \"#utility.yul\":11543:11544   */\n      0x00\n        /* \"#utility.yul\":11532:11541   */\n      dup4\n        /* \"#utility.yul\":11528:11545   */\n      add\n        /* \"#utility.yul\":11519:11525   */\n      dup5\n        /* \"#utility.yul\":11468:11546   */\n      tag_262\n      jump\t// in\n    tag_403:\n        /* \"#utility.yul\":11317:11553   */\n      swap3\n      swap2\n      pop\n      pop\n      jump\t// out\n        /* \"#utility.yul\":11559:11978   */\n    tag_113:\n        /* \"#utility.yul\":11698:11702   */\n      0x00\n        /* \"#utility.yul\":11736:11738   */\n      0x40\n        /* \"#utility.yul\":11725:11734   */\n      dup3\n        /* \"#utility.yul\":11721:11739   */\n      add\n        /* \"#utility.yul\":11713:11739   */\n      swap1\n      pop\n        /* \"#utility.yul\":11749:11820   */\n      tag_405\n        /* \"#utility.yul\":11817:11818   */\n      0x00\n        /* \"#utility.yul\":11806:11815   */\n      dup4\n        /* \"#utility.yul\":11802:11819   */\n      add\n        /* \"#utility.yul\":11793:11799   */\n      dup6\n        /* \"#utility.yul\":11749:11820   */\n      tag_244\n      jump\t// in\n    tag_405:\n        /* \"#utility.yul\":11867:11876   */\n      dup2\n        /* \"#utility.yul\":11861:11865   */\n      dup2\n        /* \"#utility.yul\":11857:11877   */\n      sub\n        /* \"#utility.yul\":11852:11854   */\n      0x20\n        /* \"#utility.yul\":11841:11850   */\n      dup4\n        /* \"#utility.yul\":11837:11855   */\n      add\n        /* \"#utility.yul\":11830:11878   */\n      mstore\n        /* \"#utility.yul\":11895:11971   */\n      tag_406\n        /* \"#utility.yul\":11966:11970   */\n      dup2\n        /* \"#utility.yul\":11957:11963   */\n      dup5\n        /* \"#utility.yul\":11895:11971   */\n      tag_253\n      jump\t// in\n    tag_406:\n        /* \"#utility.yul\":11887:11971   */\n      swap1\n      pop\n        /* \"#utility.yul\":11559:11978   */\n      swap4\n      swap3\n      pop\n      pop\n      pop\n      jump\t// out\n        /* \"#utility.yul\":11984:12316   */\n    tag_126:\n        /* \"#utility.yul\":12105:12109   */\n      0x00\n        /* \"#utility.yul\":12143:12145   */\n      0x40\n        /* \"#utility.yul\":12132:12141   */\n      dup3\n        /* \"#utility.yul\":12128:12146   */\n      add\n        /* \"#utility.yul\":12120:12146   */\n      swap1\n      pop\n        /* \"#utility.yul\":12156:12227   */\n      tag_408\n        /* \"#utility.yul\":12224:12225   */\n      0x00\n        /* \"#utility.yul\":12213:12222   */\n      dup4\n        /* \"#utility.yul\":12209:12226   */\n      add\n        /* \"#utility.yul\":12200:12206   */\n      dup6\n        /* \"#utility.yul\":12156:12227   */\n      tag_244\n      jump\t// in\n    tag_408:\n        /* \"#utility.yul\":12237:12309   */\n      tag_409\n        /* \"#utility.yul\":12305:12307   */\n      0x20\n        /* \"#utility.yul\":12294:12303   */\n      dup4\n        /* \"#utility.yul\":12290:12308   */\n      add\n        /* \"#utility.yul\":12281:12287   */\n      dup5\n        /* \"#utility.yul\":12237:12309   */\n      tag_243\n      jump\t// in\n    tag_409:\n        /* \"#utility.yul\":11984:12316   */\n      swap4\n      swap3\n      pop\n      pop\n      pop\n      jump\t// out\n        /* \"#utility.yul\":12322:12470   */\n    tag_263:\n        /* \"#utility.yul\":12424:12435   */\n      0x00\n        /* \"#utility.yul\":12461:12464   */\n      dup2\n        /* \"#utility.yul\":12446:12464   */\n      swap1\n      pop\n        /* \"#utility.yul\":12322:12470   */\n      swap3\n      swap2\n      pop\n      pop\n      jump\t// out\n        /* \"#utility.yul\":12476:12866   */\n    tag_264:\n        /* \"#utility.yul\":12582:12585   */\n      0x00\n        /* \"#utility.yul\":12610:12649   */\n      tag_412\n        /* \"#utility.yul\":12643:12648   */\n      dup3\n        /* \"#utility.yul\":12610:12649   */\n      tag_245\n      jump\t// in\n    tag_412:\n        /* \"#utility.yul\":12665:12754   */\n      tag_413\n        /* \"#utility.yul\":12747:12753   */\n      dup2\n        /* \"#utility.yul\":12742:12745   */\n      dup6\n        /* \"#utility.yul\":12665:12754   */\n      tag_263\n      jump\t// in\n    tag_413:\n        /* \"#utility.yul\":12658:12754   */\n      swap4\n      pop\n        /* \"#utility.yul\":12763:12828   */\n      tag_414\n        /* \"#utility.yul\":12821:12827   */\n      dup2\n        /* \"#utility.yul\":12816:12819   */\n      dup6\n        /* \"#utility.yul\":12809:12813   */\n      0x20\n        /* \"#utility.yul\":12802:12807   */\n      dup7\n        /* \"#utility.yul\":12798:12814   */\n      add\n        /* \"#utility.yul\":12763:12828   */\n      tag_247\n      jump\t// in\n    tag_414:\n        /* \"#utility.yul\":12853:12859   */\n      dup1\n        /* \"#utility.yul\":12848:12851   */\n      dup5\n        /* \"#utility.yul\":12844:12860   */\n      add\n        /* \"#utility.yul\":12837:12860   */\n      swap2\n      pop\n        /* \"#utility.yul\":12586:12866   */\n      pop\n        /* \"#utility.yul\":12476:12866   */\n      swap3\n      swap2\n      pop\n      pop\n      jump\t// out\n        /* \"#utility.yul\":12872:13147   */\n    tag_128:\n        /* \"#utility.yul\":13004:13007   */\n      0x00\n        /* \"#utility.yul\":13026:13121   */\n      tag_416\n        /* \"#utility.yul\":13117:13120   */\n      dup3\n        /* \"#utility.yul\":13108:13114   */\n      dup5\n        /* \"#utility.yul\":13026:13121   */\n      tag_264\n      jump\t// in\n    tag_416:\n        /* \"#utility.yul\":13019:13121   */\n      swap2\n      pop\n        /* \"#utility.yul\":13138:13141   */\n      dup2\n        /* \"#utility.yul\":13131:13141   */\n      swap1\n      pop\n        /* \"#utility.yul\":12872:13147   */\n      swap3\n      swap2\n      pop\n      pop\n      jump\t// out\n        /* \"#utility.yul\":13153:13275   */\n    tag_265:\n        /* \"#utility.yul\":13226:13250   */\n      tag_418\n        /* \"#utility.yul\":13244:13249   */\n      dup2\n        /* \"#utility.yul\":13226:13250   */\n      tag_240\n      jump\t// in\n    tag_418:\n        /* \"#utility.yul\":13219:13224   */\n      dup2\n        /* \"#utility.yul\":13216:13251   */\n      eq\n        /* \"#utility.yul\":13206:13269   */\n      tag_419\n      jumpi\n        /* \"#utility.yul\":13265:13266   */\n      0x00\n        /* \"#utility.yul\":13262:13263   */\n      dup1\n        /* \"#utility.yul\":13255:13267   */\n      revert\n        /* \"#utility.yul\":13206:13269   */\n    tag_419:\n        /* \"#utility.yul\":13153:13275   */\n      pop\n      jump\t// out\n        /* \"#utility.yul\":13281:13424   */\n    tag_266:\n        /* \"#utility.yul\":13338:13343   */\n      0x00\n        /* \"#utility.yul\":13369:13375   */\n      dup2\n        /* \"#utility.yul\":13363:13376   */\n      mload\n        /* \"#utility.yul\":13354:13376   */\n      swap1\n      pop\n        /* \"#utility.yul\":13385:13418   */\n      tag_421\n        /* \"#utility.yul\":13412:13417   */\n      dup2\n        /* \"#utility.yul\":13385:13418   */\n      tag_265\n      jump\t// in\n    tag_421:\n        /* \"#utility.yul\":13281:13424   */\n      swap3\n      swap2\n      pop\n      pop\n      jump\t// out\n        /* \"#utility.yul\":13430:13781   */\n    tag_142:\n        /* \"#utility.yul\":13500:13506   */\n      0x00\n        /* \"#utility.yul\":13549:13551   */\n      0x20\n        /* \"#utility.yul\":13537:13546   */\n      dup3\n        /* \"#utility.yul\":13528:13535   */\n      dup5\n        /* \"#utility.yul\":13524:13547   */\n      sub\n        /* \"#utility.yul\":13520:13552   */\n      slt\n        /* \"#utility.yul\":13517:13636   */\n      iszero\n      tag_423\n      jumpi\n        /* \"#utility.yul\":13555:13634   */\n      tag_424\n      tag_224\n      jump\t// in\n    tag_424:\n        /* \"#utility.yul\":13517:13636   */\n    tag_423:\n        /* \"#utility.yul\":13675:13676   */\n      0x00\n        /* \"#utility.yul\":13700:13764   */\n      tag_425\n        /* \"#utility.yul\":13756:13763   */\n      dup5\n        /* \"#utility.yul\":13747:13753   */\n      dup3\n        /* \"#utility.yul\":13736:13745   */\n      dup6\n        /* \"#utility.yul\":13732:13754   */\n      add\n        /* \"#utility.yul\":13700:13764   */\n      tag_266\n      jump\t// in\n    tag_425:\n        /* \"#utility.yul\":13690:13764   */\n      swap2\n      pop\n        /* \"#utility.yul\":13646:13774   */\n      pop\n        /* \"#utility.yul\":13430:13781   */\n      swap3\n      swap2\n      pop\n      pop\n      jump\t// out\n        /* \"#utility.yul\":13787:13934   */\n    tag_267:\n        /* \"#utility.yul\":13888:13899   */\n      0x00\n        /* \"#utility.yul\":13925:13928   */\n      dup2\n        /* \"#utility.yul\":13910:13928   */\n      swap1\n      pop\n        /* \"#utility.yul\":13787:13934   */\n      swap3\n      swap2\n      pop\n      pop\n      jump\t// out\n        /* \"#utility.yul\":13940:14326   */\n    tag_268:\n        /* \"#utility.yul\":14044:14047   */\n      0x00\n        /* \"#utility.yul\":14072:14110   */\n      tag_428\n        /* \"#utility.yul\":14104:14109   */\n      dup3\n        /* \"#utility.yul\":14072:14110   */\n      tag_251\n      jump\t// in\n    tag_428:\n        /* \"#utility.yul\":14126:14214   */\n      tag_429\n        /* \"#utility.yul\":14207:14213   */\n      dup2\n        /* \"#utility.yul\":14202:14205   */\n      dup6\n        /* \"#utility.yul\":14126:14214   */\n      tag_267\n      jump\t// in\n    tag_429:\n        /* \"#utility.yul\":14119:14214   */\n      swap4\n      pop\n        /* \"#utility.yul\":14223:14288   */\n      tag_430\n        /* \"#utility.yul\":14281:14287   */\n      dup2\n        /* \"#utility.yul\":14276:14279   */\n      dup6\n        /* \"#utility.yul\":14269:14273   */\n      0x20\n        /* \"#utility.yul\":14262:14267   */\n      dup7\n        /* \"#utility.yul\":14258:14274   */\n      add\n        /* \"#utility.yul\":14223:14288   */\n      tag_247\n      jump\t// in\n    tag_430:\n        /* \"#utility.yul\":14313:14319   */\n      dup1\n        /* \"#utility.yul\":14308:14311   */\n      dup5\n        /* \"#utility.yul\":14304:14320   */\n      add\n        /* \"#utility.yul\":14297:14320   */\n      swap2\n      pop\n        /* \"#utility.yul\":14048:14326   */\n      pop\n        /* \"#utility.yul\":13940:14326   */\n      swap3\n      swap2\n      pop\n      pop\n      jump\t// out\n        /* \"#utility.yul\":14332:14603   */\n    tag_202:\n        /* \"#utility.yul\":14462:14465   */\n      0x00\n        /* \"#utility.yul\":14484:14577   */\n      tag_432\n        /* \"#utility.yul\":14573:14576   */\n      dup3\n        /* \"#utility.yul\":14564:14570   */\n      dup5\n        /* \"#utility.yul\":14484:14577   */\n      tag_268\n      jump\t// in\n    tag_432:\n        /* \"#utility.yul\":14477:14577   */\n      swap2\n      pop\n        /* \"#utility.yul\":14594:14597   */\n      dup2\n        /* \"#utility.yul\":14587:14597   */\n      swap1\n      pop\n        /* \"#utility.yul\":14332:14603   */\n      swap3\n      swap2\n      pop\n      pop\n      jump\t// out\n\n    auxdata: 0xa2646970667358221220bd88bcf3f8c990cc4347b93ca57da9e2916b18a2ee7d33c4d5f4a7e11f34db0464736f6c63430008160033\n}\n",
				"bytecode": {
					"linkReferences": {},
					"object": "60a06040523073ffffffffffffffffffffffffffffffffffffffff1660809073ffffffffffffffffffffffffffffffffffffffff16815250348015610042575f80fd5b506080516117396100695f395f818161074e015281816107a3015261095d01526117395ff3fe6080604052600436106100a6575f3560e01c8063ad3cb1cc11610063578063ad3cb1cc14610170578063cd6dc6871461019a578063cdb6ed1b146101c2578063f2c9ecd8146101fe578063f2fde38b14610228578063f879333e14610250576100a6565b80634154b243146100aa5780634f1ef286146100c057806352d1902d146100dc578063715018a6146101065780638381f58a1461011c5780638da5cb5b14610146575b5f80fd5b3480156100b5575f80fd5b506100be61028c565b005b6100da60048036038101906100d59190611150565b6102a9565b005b3480156100e7575f80fd5b506100f06102c8565b6040516100fd91906111c2565b60405180910390f35b348015610111575f80fd5b5061011a6102f9565b005b348015610127575f80fd5b5061013061030c565b60405161013d91906111f3565b60405180910390f35b348015610151575f80fd5b5061015a610311565b604051610167919061121b565b60405180910390f35b34801561017b575f80fd5b50610184610346565b60405161019191906112ae565b60405180910390f35b3480156101a5575f80fd5b506101c060048036038101906101bb91906112f8565b61037f565b005b3480156101cd575f80fd5b506101e860048036038101906101e39190611150565b610507565b6040516101f59190611388565b60405180910390f35b348015610209575f80fd5b506102126105a1565b60405161021f91906111f3565b60405180910390f35b348015610233575f80fd5b5061024e600480360381019061024991906113a8565b6105b1565b005b34801561025b575f80fd5b5061027660048036038101906102719190611471565b610635565b6040516102839190611388565b60405180910390f35b61029461074c565b60025f546102a2919061150a565b5f81905550565b6102b161074c565b6102ba82610832565b6102c4828261083d565b5050565b5f6102d161095b565b7f360894a13ba1a3210667c828492db98dca3e2076cc3735a920a3ca505d382bbc5f1b905090565b6103016109e2565b61030a5f610a69565b565b5f5481565b5f8061031b610b3a565b9050805f015f9054906101000a900473ffffffffffffffffffffffffffffffffffffffff1691505090565b6040518060400160405280600581526020017f352e302e3000000000000000000000000000000000000000000000000000000081525081565b5f610388610b61565b90505f815f0160089054906101000a900460ff161590505f825f015f9054906101000a900467ffffffffffffffff1690505f808267ffffffffffffffff161480156103d05750825b90505f60018367ffffffffffffffff1614801561040357505f3073ffffffffffffffffffffffffffffffffffffffff163b145b905081158015610411575080155b15610448576040517ff92ee8a900000000000000000000000000000000000000000000000000000000815260040160405180910390fd5b6001855f015f6101000a81548167ffffffffffffffff021916908367ffffffffffffffff1602179055508315610495576001855f0160086101000a81548160ff0219169083151502179055505b61049e87610b88565b855f8190555083156104fe575f855f0160086101000a81548160ff0219169083151502179055507fc7f505b2f371ae2175ee4913f4499e1f2633a7b5936321eed1cdaeb6115181d260016040516104f591906115a0565b60405180910390a15b50505050505050565b6060828260405160240161051c9291906115b9565b6040516020818303038152906040527f4f1ef286000000000000000000000000000000000000000000000000000000007bffffffffffffffffffffffffffffffffffffffffffffffffffffffff19166020820180517bffffffffffffffffffffffffffffffffffffffffffffffffffffffff8381831617835250505050905092915050565b5f6105aa61074c565b5f54905090565b6105b96109e2565b5f73ffffffffffffffffffffffffffffffffffffffff168173ffffffffffffffffffffffffffffffffffffffff1603610629575f6040517f1e4fbdf7000000000000000000000000000000000000000000000000000000008152600401610620919061121b565b60405180910390fd5b61063281610a69565b50565b60605f82146106c9578383836040516024016106529291906115e7565b6040516020818303038152906040529060405161066f9190611648565b60405180910390207bffffffffffffffffffffffffffffffffffffffffffffffffffffffff19166020820180517bffffffffffffffffffffffffffffffffffffffffffffffffffffffff8381831617835250505050610743565b83604051602401604051602081830303815290604052906040516106ed9190611648565b60405180910390207bffffffffffffffffffffffffffffffffffffffffffffffffffffffff19166020820180517bffffffffffffffffffffffffffffffffffffffffffffffffffffffff83818316178352505050505b90509392505050565b7f000000000000000000000000000000000000000000000000000000000000000073ffffffffffffffffffffffffffffffffffffffff163073ffffffffffffffffffffffffffffffffffffffff1614806107f957507f000000000000000000000000000000000000000000000000000000000000000073ffffffffffffffffffffffffffffffffffffffff166107e0610b9c565b73ffffffffffffffffffffffffffffffffffffffff1614155b15610830576040517fe07c8dba00000000000000000000000000000000000000000000000000000000815260040160405180910390fd5b565b61083a6109e2565b50565b8173ffffffffffffffffffffffffffffffffffffffff166352d1902d6040518163ffffffff1660e01b8152600401602060405180830381865afa9250505080156108a557506040513d601f19601f820116820180604052508101906108a29190611688565b60015b6108e657816040517f4c9c8ce30000000000000000000000000000000000000000000000000000000081526004016108dd919061121b565b60405180910390fd5b7f360894a13ba1a3210667c828492db98dca3e2076cc3735a920a3ca505d382bbc5f1b811461094c57806040517faa1d49a400000000000000000000000000000000000000000000000000000000815260040161094391906111c2565b60405180910390fd5b6109568383610bef565b505050565b7f000000000000000000000000000000000000000000000000000000000000000073ffffffffffffffffffffffffffffffffffffffff163073ffffffffffffffffffffffffffffffffffffffff16146109e0576040517fe07c8dba00000000000000000000000000000000000000000000000000000000815260040160405180910390fd5b565b6109ea610c61565b73ffffffffffffffffffffffffffffffffffffffff16610a08610311565b73ffffffffffffffffffffffffffffffffffffffff1614610a6757610a2b610c61565b6040517f118cdaa7000000000000000000000000000000000000000000000000000000008152600401610a5e919061121b565b60405180910390fd5b565b5f610a72610b3a565b90505f815f015f9054906101000a900473ffffffffffffffffffffffffffffffffffffffff16905082825f015f6101000a81548173ffffffffffffffffffffffffffffffffffffffff021916908373ffffffffffffffffffffffffffffffffffffffff1602179055508273ffffffffffffffffffffffffffffffffffffffff168173ffffffffffffffffffffffffffffffffffffffff167f8be0079c531659141344cd1fd0a4f28419497f9722a3daafe3b4186f6b6457e060405160405180910390a3505050565b5f7f9016d09d72d40fdae2fd8ceac6b6234c7706214fd39c1cd1e609a0528c199300905090565b5f7ff0c57e16840df040f15088dc2f81fe391c3923bec73e23a9662efc9c229c6a00905090565b610b90610c68565b610b9981610ca8565b50565b5f610bc87f360894a13ba1a3210667c828492db98dca3e2076cc3735a920a3ca505d382bbc5f1b610d2c565b5f015f9054906101000a900473ffffffffffffffffffffffffffffffffffffffff16905090565b610bf882610d35565b8173ffffffffffffffffffffffffffffffffffffffff167fbc7cd75a20ee27fd9adebab32041f755214dbc6bffa90cc0225b39da2e5c2d3b60405160405180910390a25f81511115610c5457610c4e8282610dfe565b50610c5d565b610c5c610e7e565b5b5050565b5f33905090565b610c70610eba565b610ca6576040517fd7e6bcf800000000000000000000000000000000000000000000000000000000815260040160405180910390fd5b565b610cb0610c68565b5f73ffffffffffffffffffffffffffffffffffffffff168173ffffffffffffffffffffffffffffffffffffffff1603610d20575f6040517f1e4fbdf7000000000000000000000000000000000000000000000000000000008152600401610d17919061121b565b60405180910390fd5b610d2981610a69565b50565b5f819050919050565b5f8173ffffffffffffffffffffffffffffffffffffffff163b03610d9057806040517f4c9c8ce3000000000000000000000000000000000000000000000000000000008152600401610d87919061121b565b60405180910390fd5b80610dbc7f360894a13ba1a3210667c828492db98dca3e2076cc3735a920a3ca505d382bbc5f1b610d2c565b5f015f6101000a81548173ffffffffffffffffffffffffffffffffffffffff021916908373ffffffffffffffffffffffffffffffffffffffff16021790555050565b60605f808473ffffffffffffffffffffffffffffffffffffffff1684604051610e2791906116ed565b5f60405180830381855af49150503d805f8114610e5f576040519150601f19603f3d011682016040523d82523d5f602084013e610e64565b606091505b5091509150610e74858383610ed8565b9250505092915050565b5f341115610eb8576040517fb398979f00000000000000000000000000000000000000000000000000000000815260040160405180910390fd5b565b5f610ec3610b61565b5f0160089054906101000a900460ff16905090565b606082610eed57610ee882610f65565b610f5d565b5f8251148015610f1357505f8473ffffffffffffffffffffffffffffffffffffffff163b145b15610f5557836040517f9996b315000000000000000000000000000000000000000000000000000000008152600401610f4c919061121b565b60405180910390fd5b819050610f5e565b5b9392505050565b5f81511115610f775780518082602001fd5b6040517f1425ea4200000000000000000000000000000000000000000000000000000000815260040160405180910390fd5b5f604051905090565b5f80fd5b5f80fd5b5f73ffffffffffffffffffffffffffffffffffffffff82169050919050565b5f610fe382610fba565b9050919050565b610ff381610fd9565b8114610ffd575f80fd5b50565b5f8135905061100e81610fea565b92915050565b5f80fd5b5f80fd5b5f601f19601f8301169050919050565b7f4e487b71000000000000000000000000000000000000000000000000000000005f52604160045260245ffd5b6110628261101c565b810181811067ffffffffffffffff821117156110815761108061102c565b5b80604052505050565b5f611093610fa9565b905061109f8282611059565b919050565b5f67ffffffffffffffff8211156110be576110bd61102c565b5b6110c78261101c565b9050602081019050919050565b828183375f83830152505050565b5f6110f46110ef846110a4565b61108a565b9050828152602081018484840111156111105761110f611018565b5b61111b8482856110d4565b509392505050565b5f82601f83011261113757611136611014565b5b81356111478482602086016110e2565b91505092915050565b5f806040838503121561116657611165610fb2565b5b5f61117385828601611000565b925050602083013567ffffffffffffffff81111561119457611193610fb6565b5b6111a085828601611123565b9150509250929050565b5f819050919050565b6111bc816111aa565b82525050565b5f6020820190506111d55f8301846111b3565b92915050565b5f819050919050565b6111ed816111db565b82525050565b5f6020820190506112065f8301846111e4565b92915050565b61121581610fd9565b82525050565b5f60208201905061122e5f83018461120c565b92915050565b5f81519050919050565b5f82825260208201905092915050565b5f5b8381101561126b578082015181840152602081019050611250565b5f8484015250505050565b5f61128082611234565b61128a818561123e565b935061129a81856020860161124e565b6112a38161101c565b840191505092915050565b5f6020820190508181035f8301526112c68184611276565b905092915050565b6112d7816111db565b81146112e1575f80fd5b50565b5f813590506112f2816112ce565b92915050565b5f806040838503121561130e5761130d610fb2565b5b5f61131b85828601611000565b925050602061132c858286016112e4565b9150509250929050565b5f81519050919050565b5f82825260208201905092915050565b5f61135a82611336565b6113648185611340565b935061137481856020860161124e565b61137d8161101c565b840191505092915050565b5f6020820190508181035f8301526113a08184611350565b905092915050565b5f602082840312156113bd576113bc610fb2565b5b5f6113ca84828501611000565b91505092915050565b5f67ffffffffffffffff8211156113ed576113ec61102c565b5b6113f68261101c565b9050602081019050919050565b5f611415611410846113d3565b61108a565b90508281526020810184848401111561143157611430611018565b5b61143c8482856110d4565b509392505050565b5f82601f83011261145857611457611014565b5b8135611468848260208601611403565b91505092915050565b5f805f6060848603121561148857611487610fb2565b5b5f84013567ffffffffffffffff8111156114a5576114a4610fb6565b5b6114b186828701611444565b93505060206114c286828701611000565b92505060406114d3868287016112e4565b9150509250925092565b7f4e487b71000000000000000000000000000000000000000000000000000000005f52601160045260245ffd5b5f611514826111db565b915061151f836111db565b925082820261152d816111db565b91508282048414831517611544576115436114dd565b5b5092915050565b5f819050919050565b5f67ffffffffffffffff82169050919050565b5f819050919050565b5f61158a6115856115808461154b565b611567565b611554565b9050919050565b61159a81611570565b82525050565b5f6020820190506115b35f830184611591565b92915050565b5f6040820190506115cc5f83018561120c565b81810360208301526115de8184611350565b90509392505050565b5f6040820190506115fa5f83018561120c565b61160760208301846111e4565b9392505050565b5f81905092915050565b5f61162282611234565b61162c818561160e565b935061163c81856020860161124e565b80840191505092915050565b5f6116538284611618565b915081905092915050565b611667816111aa565b8114611671575f80fd5b50565b5f815190506116828161165e565b92915050565b5f6020828403121561169d5761169c610fb2565b5b5f6116aa84828501611674565b91505092915050565b5f81905092915050565b5f6116c782611336565b6116d181856116b3565b93506116e181856020860161124e565b80840191505092915050565b5f6116f882846116bd565b91508190509291505056fea2646970667358221220bd88bcf3f8c990cc4347b93ca57da9e2916b18a2ee7d33c4d5f4a7e11f34db0464736f6c63430008160033",
					"opcodes": "PUSH1 0xA0 PUSH1 0x40 MSTORE ADDRESS PUSH20 0xFFFFFFFFFFFFFFFFFFFFFFFFFFFFFFFFFFFFFFFF AND PUSH1 0x80 SWAP1 PUSH20 0xFFFFFFFFFFFFFFFFFFFFFFFFFFFFFFFFFFFFFFFF AND DUP2 MSTORE POP CALLVALUE DUP1 ISZERO PUSH2 0x42 JUMPI PUSH0 DUP1 REVERT JUMPDEST POP PUSH1 0x80 MLOAD PUSH2 0x1739 PUSH2 0x69 PUSH0 CODECOPY PUSH0 DUP2 DUP2 PUSH2 0x74E ADD MSTORE DUP2 DUP2 PUSH2 0x7A3 ADD MSTORE PUSH2 0x95D ADD MSTORE PUSH2 0x1739 PUSH0 RETURN INVALID PUSH1 0x80 PUSH1 0x40 MSTORE PUSH1 0x4 CALLDATASIZE LT PUSH2 0xA6 JUMPI PUSH0 CALLDATALOAD PUSH1 0xE0 SHR DUP1 PUSH4 0xAD3CB1CC GT PUSH2 0x63 JUMPI DUP1 PUSH4 0xAD3CB1CC EQ PUSH2 0x170 JUMPI DUP1 PUSH4 0xCD6DC687 EQ PUSH2 0x19A JUMPI DUP1 PUSH4 0xCDB6ED1B EQ PUSH2 0x1C2 JUMPI DUP1 PUSH4 0xF2C9ECD8 EQ PUSH2 0x1FE JUMPI DUP1 PUSH4 0xF2FDE38B EQ PUSH2 0x228 JUMPI DUP1 PUSH4 0xF879333E EQ PUSH2 0x250 JUMPI PUSH2 0xA6 JUMP JUMPDEST DUP1 PUSH4 0x4154B243 EQ PUSH2 0xAA JUMPI DUP1 PUSH4 0x4F1EF286 EQ PUSH2 0xC0 JUMPI DUP1 PUSH4 0x52D1902D EQ PUSH2 0xDC JUMPI DUP1 PUSH4 0x715018A6 EQ PUSH2 0x106 JUMPI DUP1 PUSH4 0x8381F58A EQ PUSH2 0x11C JUMPI DUP1 PUSH4 0x8DA5CB5B EQ PUSH2 0x146 JUMPI JUMPDEST PUSH0 DUP1 REVERT JUMPDEST CALLVALUE DUP1 ISZERO PUSH2 0xB5 JUMPI PUSH0 DUP1 REVERT JUMPDEST POP PUSH2 0xBE PUSH2 0x28C JUMP JUMPDEST STOP JUMPDEST PUSH2 0xDA PUSH1 0x4 DUP1 CALLDATASIZE SUB DUP2 ADD SWAP1 PUSH2 0xD5 SWAP2 SWAP1 PUSH2 0x1150 JUMP JUMPDEST PUSH2 0x2A9 JUMP JUMPDEST STOP JUMPDEST CALLVALUE DUP1 ISZERO PUSH2 0xE7 JUMPI PUSH0 DUP1 REVERT JUMPDEST POP PUSH2 0xF0 PUSH2 0x2C8 JUMP JUMPDEST PUSH1 0x40 MLOAD PUSH2 0xFD SWAP2 SWAP1 PUSH2 0x11C2 JUMP JUMPDEST PUSH1 0x40 MLOAD DUP1 SWAP2 SUB SWAP1 RETURN JUMPDEST CALLVALUE DUP1 ISZERO PUSH2 0x111 JUMPI PUSH0 DUP1 REVERT JUMPDEST POP PUSH2 0x11A PUSH2 0x2F9 JUMP JUMPDEST STOP JUMPDEST CALLVALUE DUP1 ISZERO PUSH2 0x127 JUMPI PUSH0 DUP1 REVERT JUMPDEST POP PUSH2 0x130 PUSH2 0x30C JUMP JUMPDEST PUSH1 0x40 MLOAD PUSH2 0x13D SWAP2 SWAP1 PUSH2 0x11F3 JUMP JUMPDEST PUSH1 0x40 MLOAD DUP1 SWAP2 SUB SWAP1 RETURN JUMPDEST CALLVALUE DUP1 ISZERO PUSH2 0x151 JUMPI PUSH0 DUP1 REVERT JUMPDEST POP PUSH2 0x15A PUSH2 0x311 JUMP JUMPDEST PUSH1 0x40 MLOAD PUSH2 0x167 SWAP2 SWAP1 PUSH2 0x121B JUMP JUMPDEST PUSH1 0x40 MLOAD DUP1 SWAP2 SUB SWAP1 RETURN JUMPDEST CALLVALUE DUP1 ISZERO PUSH2 0x17B JUMPI PUSH0 DUP1 REVERT JUMPDEST POP PUSH2 0x184 PUSH2 0x346 JUMP JUMPDEST PUSH1 0x40 MLOAD PUSH2 0x191 SWAP2 SWAP1 PUSH2 0x12AE JUMP JUMPDEST PUSH1 0x40 MLOAD DUP1 SWAP2 SUB SWAP1 RETURN JUMPDEST CALLVALUE DUP1 ISZERO PUSH2 0x1A5 JUMPI PUSH0 DUP1 REVERT JUMPDEST POP PUSH2 0x1C0 PUSH1 0x4 DUP1 CALLDATASIZE SUB DUP2 ADD SWAP1 PUSH2 0x1BB SWAP2 SWAP1 PUSH2 0x12F8 JUMP JUMPDEST PUSH2 0x37F JUMP JUMPDEST STOP JUMPDEST CALLVALUE DUP1 ISZERO PUSH2 0x1CD JUMPI PUSH0 DUP1 REVERT JUMPDEST POP PUSH2 0x1E8 PUSH1 0x4 DUP1 CALLDATASIZE SUB DUP2 ADD SWAP1 PUSH2 0x1E3 SWAP2 SWAP1 PUSH2 0x1150 JUMP JUMPDEST PUSH2 0x507 JUMP JUMPDEST PUSH1 0x40 MLOAD PUSH2 0x1F5 SWAP2 SWAP1 PUSH2 0x1388 JUMP JUMPDEST PUSH1 0x40 MLOAD DUP1 SWAP2 SUB SWAP1 RETURN JUMPDEST CALLVALUE DUP1 ISZERO PUSH2 0x209 JUMPI PUSH0 DUP1 REVERT JUMPDEST POP PUSH2 0x212 PUSH2 0x5A1 JUMP JUMPDEST PUSH1 0x40 MLOAD PUSH2 0x21F SWAP2 SWAP1 PUSH2 0x11F3 JUMP JUMPDEST PUSH1 0x40 MLOAD DUP1 SWAP2 SUB SWAP1 RETURN JUMPDEST CALLVALUE DUP1 ISZERO PUSH2 0x233 JUMPI PUSH0 DUP1 REVERT JUMPDEST POP PUSH2 0x24E PUSH1 0x4 DUP1 CALLDATASIZE SUB DUP2 ADD SWAP1 PUSH2 0x249 SWAP2 SWAP1 PUSH2 0x13A8 JUMP JUMPDEST PUSH2 0x5B1 JUMP JUMPDEST STOP JUMPDEST CALLVALUE DUP1 ISZERO PUSH2 0x25B JUMPI PUSH0 DUP1 REVERT JUMPDEST POP PUSH2 0x276 PUSH1 0x4 DUP1 CALLDATASIZE SUB DUP2 ADD SWAP1 PUSH2 0x271 SWAP2 SWAP1 PUSH2 0x1471 JUMP JUMPDEST PUSH2 0x635 JUMP JUMPDEST PUSH1 0x40 MLOAD PUSH2 0x283 SWAP2 SWAP1 PUSH2 0x1388 JUMP JUMPDEST PUSH1 0x40 MLOAD DUP1 SWAP2 SUB SWAP1 RETURN JUMPDEST PUSH2 0x294 PUSH2 0x74C JUMP JUMPDEST PUSH1 0x2 PUSH0 SLOAD PUSH2 0x2A2 SWAP2 SWAP1 PUSH2 0x150A JUMP JUMPDEST PUSH0 DUP2 SWAP1 SSTORE POP JUMP JUMPDEST PUSH2 0x2B1 PUSH2 0x74C JUMP JUMPDEST PUSH2 0x2BA DUP3 PUSH2 0x832 JUMP JUMPDEST PUSH2 0x2C4 DUP3 DUP3 PUSH2 0x83D JUMP JUMPDEST POP POP JUMP JUMPDEST PUSH0 PUSH2 0x2D1 PUSH2 0x95B JUMP JUMPDEST PUSH32 0x360894A13BA1A3210667C828492DB98DCA3E2076CC3735A920A3CA505D382BBC PUSH0 SHL SWAP1 POP SWAP1 JUMP JUMPDEST PUSH2 0x301 PUSH2 0x9E2 JUMP JUMPDEST PUSH2 0x30A PUSH0 PUSH2 0xA69 JUMP JUMPDEST JUMP JUMPDEST PUSH0 SLOAD DUP2 JUMP JUMPDEST PUSH0 DUP1 PUSH2 0x31B PUSH2 0xB3A JUMP JUMPDEST SWAP1 POP DUP1 PUSH0 ADD PUSH0 SWAP1 SLOAD SWAP1 PUSH2 0x100 EXP SWAP1 DIV PUSH20 0xFFFFFFFFFFFFFFFFFFFFFFFFFFFFFFFFFFFFFFFF AND SWAP2 POP POP SWAP1 JUMP JUMPDEST PUSH1 0x40 MLOAD DUP1 PUSH1 0x40 ADD PUSH1 0x40 MSTORE DUP1 PUSH1 0x5 DUP2 MSTORE PUSH1 0x20 ADD PUSH32 0x352E302E30000000000000000000000000000000000000000000000000000000 DUP2 MSTORE POP DUP2 JUMP JUMPDEST PUSH0 PUSH2 0x388 PUSH2 0xB61 JUMP JUMPDEST SWAP1 POP PUSH0 DUP2 PUSH0 ADD PUSH1 0x8 SWAP1 SLOAD SWAP1 PUSH2 0x100 EXP SWAP1 DIV PUSH1 0xFF AND ISZERO SWAP1 POP PUSH0 DUP3 PUSH0 ADD PUSH0 SWAP1 SLOAD SWAP1 PUSH2 0x100 EXP SWAP1 DIV PUSH8 0xFFFFFFFFFFFFFFFF AND SWAP1 POP PUSH0 DUP1 DUP3 PUSH8 0xFFFFFFFFFFFFFFFF AND EQ DUP1 ISZERO PUSH2 0x3D0 JUMPI POP DUP3 JUMPDEST SWAP1 POP PUSH0 PUSH1 0x1 DUP4 PUSH8 0xFFFFFFFFFFFFFFFF AND EQ DUP1 ISZERO PUSH2 0x403 JUMPI POP PUSH0 ADDRESS PUSH20 0xFFFFFFFFFFFFFFFFFFFFFFFFFFFFFFFFFFFFFFFF AND EXTCODESIZE EQ JUMPDEST SWAP1 POP DUP2 ISZERO DUP1 ISZERO PUSH2 0x411 JUMPI POP DUP1 ISZERO JUMPDEST ISZERO PUSH2 0x448 JUMPI PUSH1 0x40 MLOAD PUSH32 0xF92EE8A900000000000000000000000000000000000000000000000000000000 DUP2 MSTORE PUSH1 0x4 ADD PUSH1 0x40 MLOAD DUP1 SWAP2 SUB SWAP1 REVERT JUMPDEST PUSH1 0x1 DUP6 PUSH0 ADD PUSH0 PUSH2 0x100 EXP DUP2 SLOAD DUP2 PUSH8 0xFFFFFFFFFFFFFFFF MUL NOT AND SWAP1 DUP4 PUSH8 0xFFFFFFFFFFFFFFFF AND MUL OR SWAP1 SSTORE POP DUP4 ISZERO PUSH2 0x495 JUMPI PUSH1 0x1 DUP6 PUSH0 ADD PUSH1 0x8 PUSH2 0x100 EXP DUP2 SLOAD DUP2 PUSH1 0xFF MUL NOT AND SWAP1 DUP4 ISZERO ISZERO MUL OR SWAP1 SSTORE POP JUMPDEST PUSH2 0x49E DUP8 PUSH2 0xB88 JUMP JUMPDEST DUP6 PUSH0 DUP2 SWAP1 SSTORE POP DUP4 ISZERO PUSH2 0x4FE JUMPI PUSH0 DUP6 PUSH0 ADD PUSH1 0x8 PUSH2 0x100 EXP DUP2 SLOAD DUP2 PUSH1 0xFF MUL NOT AND SWAP1 DUP4 ISZERO ISZERO MUL OR SWAP1 SSTORE POP PUSH32 0xC7F505B2F371AE2175EE4913F4499E1F2633A7B5936321EED1CDAEB6115181D2 PUSH1 0x1 PUSH1 0x40 MLOAD PUSH2 0x4F5 SWAP2 SWAP1 PUSH2 0x15A0 JUMP JUMPDEST PUSH1 0x40 MLOAD DUP1 SWAP2 SUB SWAP1 LOG1 JUMPDEST POP POP POP POP POP POP POP JUMP JUMPDEST PUSH1 0x60 DUP3 DUP3 PUSH1 0x40 MLOAD PUSH1 0x24 ADD PUSH2 0x51C SWAP3 SWAP2 SWAP1 PUSH2 0x15B9 JUMP JUMPDEST PUSH1 0x40 MLOAD PUSH1 0x20 DUP2 DUP4 SUB SUB DUP2 MSTORE SWAP1 PUSH1 0x40 MSTORE PUSH32 0x4F1EF28600000000000000000000000000000000000000000000000000000000 PUSH28 0xFFFFFFFFFFFFFFFFFFFFFFFFFFFFFFFFFFFFFFFFFFFFFFFFFFFFFFFF NOT AND PUSH1 0x20 DUP3 ADD DUP1 MLOAD PUSH28 0xFFFFFFFFFFFFFFFFFFFFFFFFFFFFFFFFFFFFFFFFFFFFFFFFFFFFFFFF DUP4 DUP2 DUP4 AND OR DUP4 MSTORE POP POP POP POP SWAP1 POP SWAP3 SWAP2 POP POP JUMP JUMPDEST PUSH0 PUSH2 0x5AA PUSH2 0x74C JUMP JUMPDEST PUSH0 SLOAD SWAP1 POP SWAP1 JUMP JUMPDEST PUSH2 0x5B9 PUSH2 0x9E2 JUMP JUMPDEST PUSH0 PUSH20 0xFFFFFFFFFFFFFFFFFFFFFFFFFFFFFFFFFFFFFFFF AND DUP2 PUSH20 0xFFFFFFFFFFFFFFFFFFFFFFFFFFFFFFFFFFFFFFFF AND SUB PUSH2 0x629 JUMPI PUSH0 PUSH1 0x40 MLOAD PUSH32 0x1E4FBDF700000000000000000000000000000000000000000000000000000000 DUP2 MSTORE PUSH1 0x4 ADD PUSH2 0x620 SWAP2 SWAP1 PUSH2 0x121B JUMP JUMPDEST PUSH1 0x40 MLOAD DUP1 SWAP2 SUB SWAP1 REVERT JUMPDEST PUSH2 0x632 DUP2 PUSH2 0xA69 JUMP JUMPDEST POP JUMP JUMPDEST PUSH1 0x60 PUSH0 DUP3 EQ PUSH2 0x6C9 JUMPI DUP4 DUP4 DUP4 PUSH1 0x40 MLOAD PUSH1 0x24 ADD PUSH2 0x652 SWAP3 SWAP2 SWAP1 PUSH2 0x15E7 JUMP JUMPDEST PUSH1 0x40 MLOAD PUSH1 0x20 DUP2 DUP4 SUB SUB DUP2 MSTORE SWAP1 PUSH1 0x40 MSTORE SWAP1 PUSH1 0x40 MLOAD PUSH2 0x66F SWAP2 SWAP1 PUSH2 0x1648 JUMP JUMPDEST PUSH1 0x40 MLOAD DUP1 SWAP2 SUB SWAP1 KECCAK256 PUSH28 0xFFFFFFFFFFFFFFFFFFFFFFFFFFFFFFFFFFFFFFFFFFFFFFFFFFFFFFFF NOT AND PUSH1 0x20 DUP3 ADD DUP1 MLOAD PUSH28 0xFFFFFFFFFFFFFFFFFFFFFFFFFFFFFFFFFFFFFFFFFFFFFFFFFFFFFFFF DUP4 DUP2 DUP4 AND OR DUP4 MSTORE POP POP POP POP PUSH2 0x743 JUMP JUMPDEST DUP4 PUSH1 0x40 MLOAD PUSH1 0x24 ADD PUSH1 0x40 MLOAD PUSH1 0x20 DUP2 DUP4 SUB SUB DUP2 MSTORE SWAP1 PUSH1 0x40 MSTORE SWAP1 PUSH1 0x40 MLOAD PUSH2 0x6ED SWAP2 SWAP1 PUSH2 0x1648 JUMP JUMPDEST PUSH1 0x40 MLOAD DUP1 SWAP2 SUB SWAP1 KECCAK256 PUSH28 0xFFFFFFFFFFFFFFFFFFFFFFFFFFFFFFFFFFFFFFFFFFFFFFFFFFFFFFFF NOT AND PUSH1 0x20 DUP3 ADD DUP1 MLOAD PUSH28 0xFFFFFFFFFFFFFFFFFFFFFFFFFFFFFFFFFFFFFFFFFFFFFFFFFFFFFFFF DUP4 DUP2 DUP4 AND OR DUP4 MSTORE POP POP POP POP JUMPDEST SWAP1 POP SWAP4 SWAP3 POP POP POP JUMP JUMPDEST PUSH32 0x0 PUSH20 0xFFFFFFFFFFFFFFFFFFFFFFFFFFFFFFFFFFFFFFFF AND ADDRESS PUSH20 0xFFFFFFFFFFFFFFFFFFFFFFFFFFFFFFFFFFFFFFFF AND EQ DUP1 PUSH2 0x7F9 JUMPI POP PUSH32 0x0 PUSH20 0xFFFFFFFFFFFFFFFFFFFFFFFFFFFFFFFFFFFFFFFF AND PUSH2 0x7E0 PUSH2 0xB9C JUMP JUMPDEST PUSH20 0xFFFFFFFFFFFFFFFFFFFFFFFFFFFFFFFFFFFFFFFF AND EQ ISZERO JUMPDEST ISZERO PUSH2 0x830 JUMPI PUSH1 0x40 MLOAD PUSH32 0xE07C8DBA00000000000000000000000000000000000000000000000000000000 DUP2 MSTORE PUSH1 0x4 ADD PUSH1 0x40 MLOAD DUP1 SWAP2 SUB SWAP1 REVERT JUMPDEST JUMP JUMPDEST PUSH2 0x83A PUSH2 0x9E2 JUMP JUMPDEST POP JUMP JUMPDEST DUP2 PUSH20 0xFFFFFFFFFFFFFFFFFFFFFFFFFFFFFFFFFFFFFFFF AND PUSH4 0x52D1902D PUSH1 0x40 MLOAD DUP2 PUSH4 0xFFFFFFFF AND PUSH1 0xE0 SHL DUP2 MSTORE PUSH1 0x4 ADD PUSH1 0x20 PUSH1 0x40 MLOAD DUP1 DUP4 SUB DUP2 DUP7 GAS STATICCALL SWAP3 POP POP POP DUP1 ISZERO PUSH2 0x8A5 JUMPI POP PUSH1 0x40 MLOAD RETURNDATASIZE PUSH1 0x1F NOT PUSH1 0x1F DUP3 ADD AND DUP3 ADD DUP1 PUSH1 0x40 MSTORE POP DUP2 ADD SWAP1 PUSH2 0x8A2 SWAP2 SWAP1 PUSH2 0x1688 JUMP JUMPDEST PUSH1 0x1 JUMPDEST PUSH2 0x8E6 JUMPI DUP2 PUSH1 0x40 MLOAD PUSH32 0x4C9C8CE300000000000000000000000000000000000000000000000000000000 DUP2 MSTORE PUSH1 0x4 ADD PUSH2 0x8DD SWAP2 SWAP1 PUSH2 0x121B JUMP JUMPDEST PUSH1 0x40 MLOAD DUP1 SWAP2 SUB SWAP1 REVERT JUMPDEST PUSH32 0x360894A13BA1A3210667C828492DB98DCA3E2076CC3735A920A3CA505D382BBC PUSH0 SHL DUP2 EQ PUSH2 0x94C JUMPI DUP1 PUSH1 0x40 MLOAD PUSH32 0xAA1D49A400000000000000000000000000000000000000000000000000000000 DUP2 MSTORE PUSH1 0x4 ADD PUSH2 0x943 SWAP2 SWAP1 PUSH2 0x11C2 JUMP JUMPDEST PUSH1 0x40 MLOAD DUP1 SWAP2 SUB SWAP1 REVERT JUMPDEST PUSH2 0x956 DUP4 DUP4 PUSH2 0xBEF JUMP JUMPDEST POP POP POP JUMP JUMPDEST PUSH32 0x0 PUSH20 0xFFFFFFFFFFFFFFFFFFFFFFFFFFFFFFFFFFFFFFFF AND ADDRESS PUSH20 0xFFFFFFFFFFFFFFFFFFFFFFFFFFFFFFFFFFFFFFFF AND EQ PUSH2 0x9E0 JUMPI PUSH1 0x40 MLOAD PUSH32 0xE07C8DBA00000000000000000000000000000000000000000000000000000000 DUP2 MSTORE PUSH1 0x4 ADD PUSH1 0x40 MLOAD DUP1 SWAP2 SUB SWAP1 REVERT JUMPDEST JUMP JUMPDEST PUSH2 0x9EA PUSH2 0xC61 JUMP JUMPDEST PUSH20 0xFFFFFFFFFFFFFFFFFFFFFFFFFFFFFFFFFFFFFFFF AND PUSH2 0xA08 PUSH2 0x311 JUMP JUMPDEST PUSH20 0xFFFFFFFFFFFFFFFFFFFFFFFFFFFFFFFFFFFFFFFF AND EQ PUSH2 0xA67 JUMPI PUSH2 0xA2B PUSH2 0xC61 JUMP JUMPDEST PUSH1 0x40 MLOAD PUSH32 0x118CDAA700000000000000000000000000000000000000000000000000000000 DUP2 MSTORE PUSH1 0x4 ADD PUSH2 0xA5E SWAP2 SWAP1 PUSH2 0x121B JUMP JUMPDEST PUSH1 0x40 MLOAD DUP1 SWAP2 SUB SWAP1 REVERT JUMPDEST JUMP JUMPDEST PUSH0 PUSH2 0xA72 PUSH2 0xB3A JUMP JUMPDEST SWAP1 POP PUSH0 DUP2 PUSH0 ADD PUSH0 SWAP1 SLOAD SWAP1 PUSH2 0x100 EXP SWAP1 DIV PUSH20 0xFFFFFFFFFFFFFFFFFFFFFFFFFFFFFFFFFFFFFFFF AND SWAP1 POP DUP3 DUP3 PUSH0 ADD PUSH0 PUSH2 0x100 EXP DUP2 SLOAD DUP2 PUSH20 0xFFFFFFFFFFFFFFFFFFFFFFFFFFFFFFFFFFFFFFFF MUL NOT AND SWAP1 DUP4 PUSH20 0xFFFFFFFFFFFFFFFFFFFFFFFFFFFFFFFFFFFFFFFF AND MUL OR SWAP1 SSTORE POP DUP3 PUSH20 0xFFFFFFFFFFFFFFFFFFFFFFFFFFFFFFFFFFFFFFFF AND DUP2 PUSH20 0xFFFFFFFFFFFFFFFFFFFFFFFFFFFFFFFFFFFFFFFF AND PUSH32 0x8BE0079C531659141344CD1FD0A4F28419497F9722A3DAAFE3B4186F6B6457E0 PUSH1 0x40 MLOAD PUSH1 0x40 MLOAD DUP1 SWAP2 SUB SWAP1 LOG3 POP POP POP JUMP JUMPDEST PUSH0 PUSH32 0x9016D09D72D40FDAE2FD8CEAC6B6234C7706214FD39C1CD1E609A0528C199300 SWAP1 POP SWAP1 JUMP JUMPDEST PUSH0 PUSH32 0xF0C57E16840DF040F15088DC2F81FE391C3923BEC73E23A9662EFC9C229C6A00 SWAP1 POP SWAP1 JUMP JUMPDEST PUSH2 0xB90 PUSH2 0xC68 JUMP JUMPDEST PUSH2 0xB99 DUP2 PUSH2 0xCA8 JUMP JUMPDEST POP JUMP JUMPDEST PUSH0 PUSH2 0xBC8 PUSH32 0x360894A13BA1A3210667C828492DB98DCA3E2076CC3735A920A3CA505D382BBC PUSH0 SHL PUSH2 0xD2C JUMP JUMPDEST PUSH0 ADD PUSH0 SWAP1 SLOAD SWAP1 PUSH2 0x100 EXP SWAP1 DIV PUSH20 0xFFFFFFFFFFFFFFFFFFFFFFFFFFFFFFFFFFFFFFFF AND SWAP1 POP SWAP1 JUMP JUMPDEST PUSH2 0xBF8 DUP3 PUSH2 0xD35 JUMP JUMPDEST DUP2 PUSH20 0xFFFFFFFFFFFFFFFFFFFFFFFFFFFFFFFFFFFFFFFF AND PUSH32 0xBC7CD75A20EE27FD9ADEBAB32041F755214DBC6BFFA90CC0225B39DA2E5C2D3B PUSH1 0x40 MLOAD PUSH1 0x40 MLOAD DUP1 SWAP2 SUB SWAP1 LOG2 PUSH0 DUP2 MLOAD GT ISZERO PUSH2 0xC54 JUMPI PUSH2 0xC4E DUP3 DUP3 PUSH2 0xDFE JUMP JUMPDEST POP PUSH2 0xC5D JUMP JUMPDEST PUSH2 0xC5C PUSH2 0xE7E JUMP JUMPDEST JUMPDEST POP POP JUMP JUMPDEST PUSH0 CALLER SWAP1 POP SWAP1 JUMP JUMPDEST PUSH2 0xC70 PUSH2 0xEBA JUMP JUMPDEST PUSH2 0xCA6 JUMPI PUSH1 0x40 MLOAD PUSH32 0xD7E6BCF800000000000000000000000000000000000000000000000000000000 DUP2 MSTORE PUSH1 0x4 ADD PUSH1 0x40 MLOAD DUP1 SWAP2 SUB SWAP1 REVERT JUMPDEST JUMP JUMPDEST PUSH2 0xCB0 PUSH2 0xC68 JUMP JUMPDEST PUSH0 PUSH20 0xFFFFFFFFFFFFFFFFFFFFFFFFFFFFFFFFFFFFFFFF AND DUP2 PUSH20 0xFFFFFFFFFFFFFFFFFFFFFFFFFFFFFFFFFFFFFFFF AND SUB PUSH2 0xD20 JUMPI PUSH0 PUSH1 0x40 MLOAD PUSH32 0x1E4FBDF700000000000000000000000000000000000000000000000000000000 DUP2 MSTORE PUSH1 0x4 ADD PUSH2 0xD17 SWAP2 SWAP1 PUSH2 0x121B JUMP JUMPDEST PUSH1 0x40 MLOAD DUP1 SWAP2 SUB SWAP1 REVERT JUMPDEST PUSH2 0xD29 DUP2 PUSH2 0xA69 JUMP JUMPDEST POP JUMP JUMPDEST PUSH0 DUP2 SWAP1 POP SWAP2 SWAP1 POP JUMP JUMPDEST PUSH0 DUP2 PUSH20 0xFFFFFFFFFFFFFFFFFFFFFFFFFFFFFFFFFFFFFFFF AND EXTCODESIZE SUB PUSH2 0xD90 JUMPI DUP1 PUSH1 0x40 MLOAD PUSH32 0x4C9C8CE300000000000000000000000000000000000000000000000000000000 DUP2 MSTORE PUSH1 0x4 ADD PUSH2 0xD87 SWAP2 SWAP1 PUSH2 0x121B JUMP JUMPDEST PUSH1 0x40 MLOAD DUP1 SWAP2 SUB SWAP1 REVERT JUMPDEST DUP1 PUSH2 0xDBC PUSH32 0x360894A13BA1A3210667C828492DB98DCA3E2076CC3735A920A3CA505D382BBC PUSH0 SHL PUSH2 0xD2C JUMP JUMPDEST PUSH0 ADD PUSH0 PUSH2 0x100 EXP DUP2 SLOAD DUP2 PUSH20 0xFFFFFFFFFFFFFFFFFFFFFFFFFFFFFFFFFFFFFFFF MUL NOT AND SWAP1 DUP4 PUSH20 0xFFFFFFFFFFFFFFFFFFFFFFFFFFFFFFFFFFFFFFFF AND MUL OR SWAP1 SSTORE POP POP JUMP JUMPDEST PUSH1 0x60 PUSH0 DUP1 DUP5 PUSH20 0xFFFFFFFFFFFFFFFFFFFFFFFFFFFFFFFFFFFFFFFF AND DUP5 PUSH1 0x40 MLOAD PUSH2 0xE27 SWAP2 SWAP1 PUSH2 0x16ED JUMP JUMPDEST PUSH0 PUSH1 0x40 MLOAD DUP1 DUP4 SUB DUP2 DUP6 GAS DELEGATECALL SWAP2 POP POP RETURNDATASIZE DUP1 PUSH0 DUP2 EQ PUSH2 0xE5F JUMPI PUSH1 0x40 MLOAD SWAP2 POP PUSH1 0x1F NOT PUSH1 0x3F RETURNDATASIZE ADD AND DUP3 ADD PUSH1 0x40 MSTORE RETURNDATASIZE DUP3 MSTORE RETURNDATASIZE PUSH0 PUSH1 0x20 DUP5 ADD RETURNDATACOPY PUSH2 0xE64 JUMP JUMPDEST PUSH1 0x60 SWAP2 POP JUMPDEST POP SWAP2 POP SWAP2 POP PUSH2 0xE74 DUP6 DUP4 DUP4 PUSH2 0xED8 JUMP JUMPDEST SWAP3 POP POP POP SWAP3 SWAP2 POP POP JUMP JUMPDEST PUSH0 CALLVALUE GT ISZERO PUSH2 0xEB8 JUMPI PUSH1 0x40 MLOAD PUSH32 0xB398979F00000000000000000000000000000000000000000000000000000000 DUP2 MSTORE PUSH1 0x4 ADD PUSH1 0x40 MLOAD DUP1 SWAP2 SUB SWAP1 REVERT JUMPDEST JUMP JUMPDEST PUSH0 PUSH2 0xEC3 PUSH2 0xB61 JUMP JUMPDEST PUSH0 ADD PUSH1 0x8 SWAP1 SLOAD SWAP1 PUSH2 0x100 EXP SWAP1 DIV PUSH1 0xFF AND SWAP1 POP SWAP1 JUMP JUMPDEST PUSH1 0x60 DUP3 PUSH2 0xEED JUMPI PUSH2 0xEE8 DUP3 PUSH2 0xF65 JUMP JUMPDEST PUSH2 0xF5D JUMP JUMPDEST PUSH0 DUP3 MLOAD EQ DUP1 ISZERO PUSH2 0xF13 JUMPI POP PUSH0 DUP5 PUSH20 0xFFFFFFFFFFFFFFFFFFFFFFFFFFFFFFFFFFFFFFFF AND EXTCODESIZE EQ JUMPDEST ISZERO PUSH2 0xF55 JUMPI DUP4 PUSH1 0x40 MLOAD PUSH32 0x9996B31500000000000000000000000000000000000000000000000000000000 DUP2 MSTORE PUSH1 0x4 ADD PUSH2 0xF4C SWAP2 SWAP1 PUSH2 0x121B JUMP JUMPDEST PUSH1 0x40 MLOAD DUP1 SWAP2 SUB SWAP1 REVERT JUMPDEST DUP2 SWAP1 POP PUSH2 0xF5E JUMP JUMPDEST JUMPDEST SWAP4 SWAP3 POP POP POP JUMP JUMPDEST PUSH0 DUP2 MLOAD GT ISZERO PUSH2 0xF77 JUMPI DUP1 MLOAD DUP1 DUP3 PUSH1 0x20 ADD REVERT JUMPDEST PUSH1 0x40 MLOAD PUSH32 0x1425EA4200000000000000000000000000000000000000000000000000000000 DUP2 MSTORE PUSH1 0x4 ADD PUSH1 0x40 MLOAD DUP1 SWAP2 SUB SWAP1 REVERT JUMPDEST PUSH0 PUSH1 0x40 MLOAD SWAP1 POP SWAP1 JUMP JUMPDEST PUSH0 DUP1 REVERT JUMPDEST PUSH0 DUP1 REVERT JUMPDEST PUSH0 PUSH20 0xFFFFFFFFFFFFFFFFFFFFFFFFFFFFFFFFFFFFFFFF DUP3 AND SWAP1 POP SWAP2 SWAP1 POP JUMP JUMPDEST PUSH0 PUSH2 0xFE3 DUP3 PUSH2 0xFBA JUMP JUMPDEST SWAP1 POP SWAP2 SWAP1 POP JUMP JUMPDEST PUSH2 0xFF3 DUP2 PUSH2 0xFD9 JUMP JUMPDEST DUP2 EQ PUSH2 0xFFD JUMPI PUSH0 DUP1 REVERT JUMPDEST POP JUMP JUMPDEST PUSH0 DUP2 CALLDATALOAD SWAP1 POP PUSH2 0x100E DUP2 PUSH2 0xFEA JUMP JUMPDEST SWAP3 SWAP2 POP POP JUMP JUMPDEST PUSH0 DUP1 REVERT JUMPDEST PUSH0 DUP1 REVERT JUMPDEST PUSH0 PUSH1 0x1F NOT PUSH1 0x1F DUP4 ADD AND SWAP1 POP SWAP2 SWAP1 POP JUMP JUMPDEST PUSH32 0x4E487B7100000000000000000000000000000000000000000000000000000000 PUSH0 MSTORE PUSH1 0x41 PUSH1 0x4 MSTORE PUSH1 0x24 PUSH0 REVERT JUMPDEST PUSH2 0x1062 DUP3 PUSH2 0x101C JUMP JUMPDEST DUP2 ADD DUP2 DUP2 LT PUSH8 0xFFFFFFFFFFFFFFFF DUP3 GT OR ISZERO PUSH2 0x1081 JUMPI PUSH2 0x1080 PUSH2 0x102C JUMP JUMPDEST JUMPDEST DUP1 PUSH1 0x40 MSTORE POP POP POP JUMP JUMPDEST PUSH0 PUSH2 0x1093 PUSH2 0xFA9 JUMP JUMPDEST SWAP1 POP PUSH2 0x109F DUP3 DUP3 PUSH2 0x1059 JUMP JUMPDEST SWAP2 SWAP1 POP JUMP JUMPDEST PUSH0 PUSH8 0xFFFFFFFFFFFFFFFF DUP3 GT ISZERO PUSH2 0x10BE JUMPI PUSH2 0x10BD PUSH2 0x102C JUMP JUMPDEST JUMPDEST PUSH2 0x10C7 DUP3 PUSH2 0x101C JUMP JUMPDEST SWAP1 POP PUSH1 0x20 DUP2 ADD SWAP1 POP SWAP2 SWAP1 POP JUMP JUMPDEST DUP3 DUP2 DUP4 CALLDATACOPY PUSH0 DUP4 DUP4 ADD MSTORE POP POP POP JUMP JUMPDEST PUSH0 PUSH2 0x10F4 PUSH2 0x10EF DUP5 PUSH2 0x10A4 JUMP JUMPDEST PUSH2 0x108A JUMP JUMPDEST SWAP1 POP DUP3 DUP2 MSTORE PUSH1 0x20 DUP2 ADD DUP5 DUP5 DUP5 ADD GT ISZERO PUSH2 0x1110 JUMPI PUSH2 0x110F PUSH2 0x1018 JUMP JUMPDEST JUMPDEST PUSH2 0x111B DUP5 DUP3 DUP6 PUSH2 0x10D4 JUMP JUMPDEST POP SWAP4 SWAP3 POP POP POP JUMP JUMPDEST PUSH0 DUP3 PUSH1 0x1F DUP4 ADD SLT PUSH2 0x1137 JUMPI PUSH2 0x1136 PUSH2 0x1014 JUMP JUMPDEST JUMPDEST DUP2 CALLDATALOAD PUSH2 0x1147 DUP5 DUP3 PUSH1 0x20 DUP7 ADD PUSH2 0x10E2 JUMP JUMPDEST SWAP2 POP POP SWAP3 SWAP2 POP POP JUMP JUMPDEST PUSH0 DUP1 PUSH1 0x40 DUP4 DUP6 SUB SLT ISZERO PUSH2 0x1166 JUMPI PUSH2 0x1165 PUSH2 0xFB2 JUMP JUMPDEST JUMPDEST PUSH0 PUSH2 0x1173 DUP6 DUP3 DUP7 ADD PUSH2 0x1000 JUMP JUMPDEST SWAP3 POP POP PUSH1 0x20 DUP4 ADD CALLDATALOAD PUSH8 0xFFFFFFFFFFFFFFFF DUP2 GT ISZERO PUSH2 0x1194 JUMPI PUSH2 0x1193 PUSH2 0xFB6 JUMP JUMPDEST JUMPDEST PUSH2 0x11A0 DUP6 DUP3 DUP7 ADD PUSH2 0x1123 JUMP JUMPDEST SWAP2 POP POP SWAP3 POP SWAP3 SWAP1 POP JUMP JUMPDEST PUSH0 DUP2 SWAP1 POP SWAP2 SWAP1 POP JUMP JUMPDEST PUSH2 0x11BC DUP2 PUSH2 0x11AA JUMP JUMPDEST DUP3 MSTORE POP POP JUMP JUMPDEST PUSH0 PUSH1 0x20 DUP3 ADD SWAP1 POP PUSH2 0x11D5 PUSH0 DUP4 ADD DUP5 PUSH2 0x11B3 JUMP JUMPDEST SWAP3 SWAP2 POP POP JUMP JUMPDEST PUSH0 DUP2 SWAP1 POP SWAP2 SWAP1 POP JUMP JUMPDEST PUSH2 0x11ED DUP2 PUSH2 0x11DB JUMP JUMPDEST DUP3 MSTORE POP POP JUMP JUMPDEST PUSH0 PUSH1 0x20 DUP3 ADD SWAP1 POP PUSH2 0x1206 PUSH0 DUP4 ADD DUP5 PUSH2 0x11E4 JUMP JUMPDEST SWAP3 SWAP2 POP POP JUMP JUMPDEST PUSH2 0x1215 DUP2 PUSH2 0xFD9 JUMP JUMPDEST DUP3 MSTORE POP POP JUMP JUMPDEST PUSH0 PUSH1 0x20 DUP3 ADD SWAP1 POP PUSH2 0x122E PUSH0 DUP4 ADD DUP5 PUSH2 0x120C JUMP JUMPDEST SWAP3 SWAP2 POP POP JUMP JUMPDEST PUSH0 DUP2 MLOAD SWAP1 POP SWAP2 SWAP1 POP JUMP JUMPDEST PUSH0 DUP3 DUP3 MSTORE PUSH1 0x20 DUP3 ADD SWAP1 POP SWAP3 SWAP2 POP POP JUMP JUMPDEST PUSH0 JUMPDEST DUP4 DUP2 LT ISZERO PUSH2 0x126B JUMPI DUP1 DUP3 ADD MLOAD DUP2 DUP5 ADD MSTORE PUSH1 0x20 DUP2 ADD SWAP1 POP PUSH2 0x1250 JUMP JUMPDEST PUSH0 DUP5 DUP5 ADD MSTORE POP POP POP POP JUMP JUMPDEST PUSH0 PUSH2 0x1280 DUP3 PUSH2 0x1234 JUMP JUMPDEST PUSH2 0x128A DUP2 DUP6 PUSH2 0x123E JUMP JUMPDEST SWAP4 POP PUSH2 0x129A DUP2 DUP6 PUSH1 0x20 DUP7 ADD PUSH2 0x124E JUMP JUMPDEST PUSH2 0x12A3 DUP2 PUSH2 0x101C JUMP JUMPDEST DUP5 ADD SWAP2 POP POP SWAP3 SWAP2 POP POP JUMP JUMPDEST PUSH0 PUSH1 0x20 DUP3 ADD SWAP1 POP DUP2 DUP2 SUB PUSH0 DUP4 ADD MSTORE PUSH2 0x12C6 DUP2 DUP5 PUSH2 0x1276 JUMP JUMPDEST SWAP1 POP SWAP3 SWAP2 POP POP JUMP JUMPDEST PUSH2 0x12D7 DUP2 PUSH2 0x11DB JUMP JUMPDEST DUP2 EQ PUSH2 0x12E1 JUMPI PUSH0 DUP1 REVERT JUMPDEST POP JUMP JUMPDEST PUSH0 DUP2 CALLDATALOAD SWAP1 POP PUSH2 0x12F2 DUP2 PUSH2 0x12CE JUMP JUMPDEST SWAP3 SWAP2 POP POP JUMP JUMPDEST PUSH0 DUP1 PUSH1 0x40 DUP4 DUP6 SUB SLT ISZERO PUSH2 0x130E JUMPI PUSH2 0x130D PUSH2 0xFB2 JUMP JUMPDEST JUMPDEST PUSH0 PUSH2 0x131B DUP6 DUP3 DUP7 ADD PUSH2 0x1000 JUMP JUMPDEST SWAP3 POP POP PUSH1 0x20 PUSH2 0x132C DUP6 DUP3 DUP7 ADD PUSH2 0x12E4 JUMP JUMPDEST SWAP2 POP POP SWAP3 POP SWAP3 SWAP1 POP JUMP JUMPDEST PUSH0 DUP2 MLOAD SWAP1 POP SWAP2 SWAP1 POP JUMP JUMPDEST PUSH0 DUP3 DUP3 MSTORE PUSH1 0x20 DUP3 ADD SWAP1 POP SWAP3 SWAP2 POP POP JUMP JUMPDEST PUSH0 PUSH2 0x135A DUP3 PUSH2 0x1336 JUMP JUMPDEST PUSH2 0x1364 DUP2 DUP6 PUSH2 0x1340 JUMP JUMPDEST SWAP4 POP PUSH2 0x1374 DUP2 DUP6 PUSH1 0x20 DUP7 ADD PUSH2 0x124E JUMP JUMPDEST PUSH2 0x137D DUP2 PUSH2 0x101C JUMP JUMPDEST DUP5 ADD SWAP2 POP POP SWAP3 SWAP2 POP POP JUMP JUMPDEST PUSH0 PUSH1 0x20 DUP3 ADD SWAP1 POP DUP2 DUP2 SUB PUSH0 DUP4 ADD MSTORE PUSH2 0x13A0 DUP2 DUP5 PUSH2 0x1350 JUMP JUMPDEST SWAP1 POP SWAP3 SWAP2 POP POP JUMP JUMPDEST PUSH0 PUSH1 0x20 DUP3 DUP5 SUB SLT ISZERO PUSH2 0x13BD JUMPI PUSH2 0x13BC PUSH2 0xFB2 JUMP JUMPDEST JUMPDEST PUSH0 PUSH2 0x13CA DUP5 DUP3 DUP6 ADD PUSH2 0x1000 JUMP JUMPDEST SWAP2 POP POP SWAP3 SWAP2 POP POP JUMP JUMPDEST PUSH0 PUSH8 0xFFFFFFFFFFFFFFFF DUP3 GT ISZERO PUSH2 0x13ED JUMPI PUSH2 0x13EC PUSH2 0x102C JUMP JUMPDEST JUMPDEST PUSH2 0x13F6 DUP3 PUSH2 0x101C JUMP JUMPDEST SWAP1 POP PUSH1 0x20 DUP2 ADD SWAP1 POP SWAP2 SWAP1 POP JUMP JUMPDEST PUSH0 PUSH2 0x1415 PUSH2 0x1410 DUP5 PUSH2 0x13D3 JUMP JUMPDEST PUSH2 0x108A JUMP JUMPDEST SWAP1 POP DUP3 DUP2 MSTORE PUSH1 0x20 DUP2 ADD DUP5 DUP5 DUP5 ADD GT ISZERO PUSH2 0x1431 JUMPI PUSH2 0x1430 PUSH2 0x1018 JUMP JUMPDEST JUMPDEST PUSH2 0x143C DUP5 DUP3 DUP6 PUSH2 0x10D4 JUMP JUMPDEST POP SWAP4 SWAP3 POP POP POP JUMP JUMPDEST PUSH0 DUP3 PUSH1 0x1F DUP4 ADD SLT PUSH2 0x1458 JUMPI PUSH2 0x1457 PUSH2 0x1014 JUMP JUMPDEST JUMPDEST DUP2 CALLDATALOAD PUSH2 0x1468 DUP5 DUP3 PUSH1 0x20 DUP7 ADD PUSH2 0x1403 JUMP JUMPDEST SWAP2 POP POP SWAP3 SWAP2 POP POP JUMP JUMPDEST PUSH0 DUP1 PUSH0 PUSH1 0x60 DUP5 DUP7 SUB SLT ISZERO PUSH2 0x1488 JUMPI PUSH2 0x1487 PUSH2 0xFB2 JUMP JUMPDEST JUMPDEST PUSH0 DUP5 ADD CALLDATALOAD PUSH8 0xFFFFFFFFFFFFFFFF DUP2 GT ISZERO PUSH2 0x14A5 JUMPI PUSH2 0x14A4 PUSH2 0xFB6 JUMP JUMPDEST JUMPDEST PUSH2 0x14B1 DUP7 DUP3 DUP8 ADD PUSH2 0x1444 JUMP JUMPDEST SWAP4 POP POP PUSH1 0x20 PUSH2 0x14C2 DUP7 DUP3 DUP8 ADD PUSH2 0x1000 JUMP JUMPDEST SWAP3 POP POP PUSH1 0x40 PUSH2 0x14D3 DUP7 DUP3 DUP8 ADD PUSH2 0x12E4 JUMP JUMPDEST SWAP2 POP POP SWAP3 POP SWAP3 POP SWAP3 JUMP JUMPDEST PUSH32 0x4E487B7100000000000000000000000000000000000000000000000000000000 PUSH0 MSTORE PUSH1 0x11 PUSH1 0x4 MSTORE PUSH1 0x24 PUSH0 REVERT JUMPDEST PUSH0 PUSH2 0x1514 DUP3 PUSH2 0x11DB JUMP JUMPDEST SWAP2 POP PUSH2 0x151F DUP4 PUSH2 0x11DB JUMP JUMPDEST SWAP3 POP DUP3 DUP3 MUL PUSH2 0x152D DUP2 PUSH2 0x11DB JUMP JUMPDEST SWAP2 POP DUP3 DUP3 DIV DUP5 EQ DUP4 ISZERO OR PUSH2 0x1544 JUMPI PUSH2 0x1543 PUSH2 0x14DD JUMP JUMPDEST JUMPDEST POP SWAP3 SWAP2 POP POP JUMP JUMPDEST PUSH0 DUP2 SWAP1 POP SWAP2 SWAP1 POP JUMP JUMPDEST PUSH0 PUSH8 0xFFFFFFFFFFFFFFFF DUP3 AND SWAP1 POP SWAP2 SWAP1 POP JUMP JUMPDEST PUSH0 DUP2 SWAP1 POP SWAP2 SWAP1 POP JUMP JUMPDEST PUSH0 PUSH2 0x158A PUSH2 0x1585 PUSH2 0x1580 DUP5 PUSH2 0x154B JUMP JUMPDEST PUSH2 0x1567 JUMP JUMPDEST PUSH2 0x1554 JUMP JUMPDEST SWAP1 POP SWAP2 SWAP1 POP JUMP JUMPDEST PUSH2 0x159A DUP2 PUSH2 0x1570 JUMP JUMPDEST DUP3 MSTORE POP POP JUMP JUMPDEST PUSH0 PUSH1 0x20 DUP3 ADD SWAP1 POP PUSH2 0x15B3 PUSH0 DUP4 ADD DUP5 PUSH2 0x1591 JUMP JUMPDEST SWAP3 SWAP2 POP POP JUMP JUMPDEST PUSH0 PUSH1 0x40 DUP3 ADD SWAP1 POP PUSH2 0x15CC PUSH0 DUP4 ADD DUP6 PUSH2 0x120C JUMP JUMPDEST DUP2 DUP2 SUB PUSH1 0x20 DUP4 ADD MSTORE PUSH2 0x15DE DUP2 DUP5 PUSH2 0x1350 JUMP JUMPDEST SWAP1 POP SWAP4 SWAP3 POP POP POP JUMP JUMPDEST PUSH0 PUSH1 0x40 DUP3 ADD SWAP1 POP PUSH2 0x15FA PUSH0 DUP4 ADD DUP6 PUSH2 0x120C JUMP JUMPDEST PUSH2 0x1607 PUSH1 0x20 DUP4 ADD DUP5 PUSH2 0x11E4 JUMP JUMPDEST SWAP4 SWAP3 POP POP POP JUMP JUMPDEST PUSH0 DUP2 SWAP1 POP SWAP3 SWAP2 POP POP JUMP JUMPDEST PUSH0 PUSH2 0x1622 DUP3 PUSH2 0x1234 JUMP JUMPDEST PUSH2 0x162C DUP2 DUP6 PUSH2 0x160E JUMP JUMPDEST SWAP4 POP PUSH2 0x163C DUP2 DUP6 PUSH1 0x20 DUP7 ADD PUSH2 0x124E JUMP JUMPDEST DUP1 DUP5 ADD SWAP2 POP POP SWAP3 SWAP2 POP POP JUMP JUMPDEST PUSH0 PUSH2 0x1653 DUP3 DUP5 PUSH2 0x1618 JUMP JUMPDEST SWAP2 POP DUP2 SWAP1 POP SWAP3 SWAP2 POP POP JUMP JUMPDEST PUSH2 0x1667 DUP2 PUSH2 0x11AA JUMP JUMPDEST DUP2 EQ PUSH2 0x1671 JUMPI PUSH0 DUP1 REVERT JUMPDEST POP JUMP JUMPDEST PUSH0 DUP2 MLOAD SWAP1 POP PUSH2 0x1682 DUP2 PUSH2 0x165E JUMP JUMPDEST SWAP3 SWAP2 POP POP JUMP JUMPDEST PUSH0 PUSH1 0x20 DUP3 DUP5 SUB SLT ISZERO PUSH2 0x169D JUMPI PUSH2 0x169C PUSH2 0xFB2 JUMP JUMPDEST JUMPDEST PUSH0 PUSH2 0x16AA DUP5 DUP3 DUP6 ADD PUSH2 0x1674 JUMP JUMPDEST SWAP2 POP POP SWAP3 SWAP2 POP POP JUMP JUMPDEST PUSH0 DUP2 SWAP1 POP SWAP3 SWAP2 POP POP JUMP JUMPDEST PUSH0 PUSH2 0x16C7 DUP3 PUSH2 0x1336 JUMP JUMPDEST PUSH2 0x16D1 DUP2 DUP6 PUSH2 0x16B3 JUMP JUMPDEST SWAP4 POP PUSH2 0x16E1 DUP2 DUP6 PUSH1 0x20 DUP7 ADD PUSH2 0x124E JUMP JUMPDEST DUP1 DUP5 ADD SWAP2 POP POP SWAP3 SWAP2 POP POP JUMP JUMPDEST PUSH0 PUSH2 0x16F8 DUP3 DUP5 PUSH2 0x16BD JUMP JUMPDEST SWAP2 POP DUP2 SWAP1 POP SWAP3 SWAP2 POP POP JUMP INVALID LOG2 PUSH5 0x6970667358 0x22 SLT KECCAK256 0xBD DUP9 0xBC RETURN 0xF8 0xC9 SWAP1 0xCC NUMBER SELFBALANCE 0xB9 EXTCODECOPY 0xA5 PUSH30 0xA9E2916B18A2EE7D33C4D5F4A7E11F34DB0464736F6C6343000816003300 "
				},
				"gasEstimates": {
					"creation": {
						"codeDepositCost": "1189000",
						"executionCost": "infinite",
						"totalCost": "infinite"
					},
					"external": {
						"UPGRADE_INTERFACE_VERSION()": "infinite",
						"getNumber()": "infinite",
						"getSign(string,address,uint256)": "infinite",
						"helper(address,bytes)": "infinite",
						"initialize(address,uint256)": "infinite",
						"number()": "2513",
						"owner()": "2678",
						"proxiableUUID()": "infinite",
						"renounceOwnership()": "infinite",
						"setNumber()": "infinite",
						"transferOwnership(address)": "infinite",
						"upgradeToAndCall(address,bytes)": "infinite"
					},
					"internal": {
						"_authorizeUpgrade(address)": "infinite"
					}
				},
				"methodIdentifiers": {
					"UPGRADE_INTERFACE_VERSION()": "ad3cb1cc",
					"getNumber()": "f2c9ecd8",
					"getSign(string,address,uint256)": "f879333e",
					"helper(address,bytes)": "cdb6ed1b",
					"initialize(address,uint256)": "cd6dc687",
					"number()": "8381f58a",
					"owner()": "8da5cb5b",
					"proxiableUUID()": "52d1902d",
					"renounceOwnership()": "715018a6",
					"setNumber()": "4154b243",
					"transferOwnership(address)": "f2fde38b",
					"upgradeToAndCall(address,bytes)": "4f1ef286"
				}
			},
			"storageLayout": {
				"storage": [
					{
						"astId": 1375,
						"contract": "contracts/UUPSUpgrade/DemoV1.sol:Demo",
						"label": "number",
						"offset": 0,
						"slot": "0",
						"type": "t_uint256"
					}
				],
				"types": {
					"t_uint256": {
						"encoding": "inplace",
						"label": "uint256",
						"numberOfBytes": "32"
					}
				}
			},
			"userdoc": {
				"kind": "user",
				"methods": {},
				"version": 1
			}
		}
	}
}