{
	"contracts/UUPSUpgrade/MyProxy.sol": {
		"MyProxy": {
			"abi": [
				{
					"inputs": [
						{
							"internalType": "address",
							"name": "implementation",
							"type": "address"
						},
						{
							"internalType": "bytes",
							"name": "_data",
							"type": "bytes"
						}
					],
					"stateMutability": "nonpayable",
					"type": "constructor"
				},
				{
					"inputs": [
						{
							"internalType": "address",
							"name": "target",
							"type": "address"
						}
					],
					"name": "AddressEmptyCode",
					"type": "error"
				},
				{
					"inputs": [
						{
							"internalType": "address",
							"name": "implementation",
							"type": "address"
						}
					],
					"name": "ERC1967InvalidImplementation",
					"type": "error"
				},
				{
					"inputs": [],
					"name": "ERC1967NonPayable",
					"type": "error"
				},
				{
					"inputs": [],
					"name": "FailedInnerCall",
					"type": "error"
				},
				{
					"anonymous": false,
					"inputs": [
						{
							"indexed": true,
							"internalType": "address",
							"name": "implementation",
							"type": "address"
						}
					],
					"name": "Upgraded",
					"type": "event"
				},
				{
					"stateMutability": "payable",
					"type": "fallback"
				},
				{
					"inputs": [
						{
							"internalType": "uint256",
							"name": "solt",
							"type": "uint256"
						}
					],
					"name": "getAddressSlot",
					"outputs": [
						{
							"internalType": "address",
							"name": "",
							"type": "address"
						}
					],
					"stateMutability": "view",
					"type": "function"
				},
				{
					"inputs": [
						{
							"internalType": "uint256",
							"name": "solt",
							"type": "uint256"
						}
					],
					"name": "getUint256Slot",
					"outputs": [
						{
							"internalType": "uint256",
							"name": "",
							"type": "uint256"
						}
					],
					"stateMutability": "view",
					"type": "function"
				}
			],
			"devdoc": {
				"errors": {
					"AddressEmptyCode(address)": [
						{
							"details": "There's no code at `target` (it is not a contract)."
						}
					],
					"ERC1967InvalidImplementation(address)": [
						{
							"details": "The `implementation` of the proxy is invalid."
						}
					],
					"ERC1967NonPayable()": [
						{
							"details": "An upgrade function sees `msg.value > 0` that may be lost."
						}
					],
					"FailedInnerCall()": [
						{
							"details": "A call to an address target failed. The target may have reverted."
						}
					]
				},
				"events": {
					"Upgraded(address)": {
						"details": "Emitted when the implementation is upgraded."
					}
				},
				"kind": "dev",
				"methods": {},
				"version": 1
			},
			"evm": {
				"assembly": "    /* \"contracts/UUPSUpgrade/MyProxy.sol\":865:1315  contract MyProxy is ERC1967Proxy{... */\n  mstore(0x40, 0x80)\n    /* \"contracts/UUPSUpgrade/MyProxy.sol\":904:1015  constructor(address implementation, bytes memory _data) ... */\n  callvalue\n  dup1\n  iszero\n  tag_1\n  jumpi\n  0x00\n  dup1\n  revert\ntag_1:\n  pop\n  mload(0x40)\n  sub(codesize, bytecodeSize)\n  dup1\n  bytecodeSize\n  dup4\n  codecopy\n  dup2\n  dup2\n  add\n  0x40\n  mstore\n  dup2\n  add\n  swap1\n  tag_2\n  swap2\n  swap1\n  tag_3\n  jump\t// in\ntag_2:\n    /* \"contracts/UUPSUpgrade/MyProxy.sol\":983:997  implementation */\n  dup2\n    /* \"contracts/UUPSUpgrade/MyProxy.sol\":999:1004  _data */\n  dup2\n    /* \"@openzeppelin/contracts/proxy/ERC1967/ERC1967Proxy.sol\":1154:1206  ERC1967Utils.upgradeToAndCall(implementation, _data) */\n  tag_7\n    /* \"@openzeppelin/contracts/proxy/ERC1967/ERC1967Proxy.sol\":1184:1198  implementation */\n  dup3\n    /* \"@openzeppelin/contracts/proxy/ERC1967/ERC1967Proxy.sol\":1200:1205  _data */\n  dup3\n    /* \"@openzeppelin/contracts/proxy/ERC1967/ERC1967Proxy.sol\":1154:1183  ERC1967Utils.upgradeToAndCall */\n  shl(0x20, tag_8)\n    /* \"@openzeppelin/contracts/proxy/ERC1967/ERC1967Proxy.sol\":1154:1206  ERC1967Utils.upgradeToAndCall(implementation, _data) */\n  0x20\n  shr\n  jump\t// in\ntag_7:\n    /* \"@openzeppelin/contracts/proxy/ERC1967/ERC1967Proxy.sol\":1080:1213  constructor(address implementation, bytes memory _data) payable {... */\n  pop\n  pop\n    /* \"contracts/UUPSUpgrade/MyProxy.sol\":904:1015  constructor(address implementation, bytes memory _data) ... */\n  pop\n  pop\n    /* \"contracts/UUPSUpgrade/MyProxy.sol\":865:1315  contract MyProxy is ERC1967Proxy{... */\n  jump(tag_10)\n    /* \"@openzeppelin/contracts/proxy/ERC1967/ERC1967Utils.sol\":2779:3114  function upgradeToAndCall(address newImplementation, bytes memory data) internal {... */\ntag_8:\n    /* \"@openzeppelin/contracts/proxy/ERC1967/ERC1967Utils.sol\":2870:2907  _setImplementation(newImplementation) */\n  tag_12\n    /* \"@openzeppelin/contracts/proxy/ERC1967/ERC1967Utils.sol\":2889:2906  newImplementation */\n  dup3\n    /* \"@openzeppelin/contracts/proxy/ERC1967/ERC1967Utils.sol\":2870:2888  _setImplementation */\n  shl(0x20, tag_13)\n    /* \"@openzeppelin/contracts/proxy/ERC1967/ERC1967Utils.sol\":2870:2907  _setImplementation(newImplementation) */\n  0x20\n  shr\n  jump\t// in\ntag_12:\n    /* \"@openzeppelin/contracts/proxy/ERC1967/ERC1967Utils.sol\":2931:2948  newImplementation */\n  dup2\n    /* \"@openzeppelin/contracts/proxy/ERC1967/ERC1967Utils.sol\":2922:2949  Upgraded(newImplementation) */\n  0xffffffffffffffffffffffffffffffffffffffff\n  and\n  0xbc7cd75a20ee27fd9adebab32041f755214dbc6bffa90cc0225b39da2e5c2d3b\n  mload(0x40)\n  mload(0x40)\n  dup1\n  swap2\n  sub\n  swap1\n  log2\n    /* \"@openzeppelin/contracts/proxy/ERC1967/ERC1967Utils.sol\":2978:2979  0 */\n  0x00\n    /* \"@openzeppelin/contracts/proxy/ERC1967/ERC1967Utils.sol\":2964:2968  data */\n  dup2\n    /* \"@openzeppelin/contracts/proxy/ERC1967/ERC1967Utils.sol\":2964:2975  data.length */\n  mload\n    /* \"@openzeppelin/contracts/proxy/ERC1967/ERC1967Utils.sol\":2964:2979  data.length > 0 */\n  gt\n    /* \"@openzeppelin/contracts/proxy/ERC1967/ERC1967Utils.sol\":2960:3108  if (data.length > 0) {... */\n  iszero\n  tag_14\n  jumpi\n    /* \"@openzeppelin/contracts/proxy/ERC1967/ERC1967Utils.sol\":2995:3048  Address.functionDelegateCall(newImplementation, data) */\n  tag_15\n    /* \"@openzeppelin/contracts/proxy/ERC1967/ERC1967Utils.sol\":3024:3041  newImplementation */\n  dup3\n    /* \"@openzeppelin/contracts/proxy/ERC1967/ERC1967Utils.sol\":3043:3047  data */\n  dup3\n    /* \"@openzeppelin/contracts/proxy/ERC1967/ERC1967Utils.sol\":2995:3023  Address.functionDelegateCall */\n  shl(0x20, tag_16)\n    /* \"@openzeppelin/contracts/proxy/ERC1967/ERC1967Utils.sol\":2995:3048  Address.functionDelegateCall(newImplementation, data) */\n  0x20\n  shr\n  jump\t// in\ntag_15:\n  pop\n    /* \"@openzeppelin/contracts/proxy/ERC1967/ERC1967Utils.sol\":2960:3108  if (data.length > 0) {... */\n  jump(tag_17)\ntag_14:\n    /* \"@openzeppelin/contracts/proxy/ERC1967/ERC1967Utils.sol\":3079:3097  _checkNonPayable() */\n  tag_18\n    /* \"@openzeppelin/contracts/proxy/ERC1967/ERC1967Utils.sol\":3079:3095  _checkNonPayable */\n  shl(0x20, tag_19)\n    /* \"@openzeppelin/contracts/proxy/ERC1967/ERC1967Utils.sol\":3079:3097  _checkNonPayable() */\n  0x20\n  shr\n  jump\t// in\ntag_18:\n    /* \"@openzeppelin/contracts/proxy/ERC1967/ERC1967Utils.sol\":2960:3108  if (data.length > 0) {... */\ntag_17:\n    /* \"@openzeppelin/contracts/proxy/ERC1967/ERC1967Utils.sol\":2779:3114  function upgradeToAndCall(address newImplementation, bytes memory data) internal {... */\n  pop\n  pop\n  jump\t// out\n    /* \"@openzeppelin/contracts/proxy/ERC1967/ERC1967Utils.sol\":2186:2467  function _setImplementation(address newImplementation) private {... */\ntag_13:\n    /* \"@openzeppelin/contracts/proxy/ERC1967/ERC1967Utils.sol\":2296:2297  0 */\n  0x00\n    /* \"@openzeppelin/contracts/proxy/ERC1967/ERC1967Utils.sol\":2263:2280  newImplementation */\n  dup2\n    /* \"@openzeppelin/contracts/proxy/ERC1967/ERC1967Utils.sol\":2263:2292  newImplementation.code.length */\n  0xffffffffffffffffffffffffffffffffffffffff\n  and\n  extcodesize\n    /* \"@openzeppelin/contracts/proxy/ERC1967/ERC1967Utils.sol\":2263:2297  newImplementation.code.length == 0 */\n  sub\n    /* \"@openzeppelin/contracts/proxy/ERC1967/ERC1967Utils.sol\":2259:2378  if (newImplementation.code.length == 0) {... */\n  tag_21\n  jumpi\n    /* \"@openzeppelin/contracts/proxy/ERC1967/ERC1967Utils.sol\":2349:2366  newImplementation */\n  dup1\n    /* \"@openzeppelin/contracts/proxy/ERC1967/ERC1967Utils.sol\":2320:2367  ERC1967InvalidImplementation(newImplementation) */\n  mload(0x40)\n  0x4c9c8ce300000000000000000000000000000000000000000000000000000000\n  dup2\n  mstore\n  0x04\n  add\n  tag_22\n  swap2\n  swap1\n  tag_23\n  jump\t// in\ntag_22:\n  mload(0x40)\n  dup1\n  swap2\n  sub\n  swap1\n  revert\n    /* \"@openzeppelin/contracts/proxy/ERC1967/ERC1967Utils.sol\":2259:2378  if (newImplementation.code.length == 0) {... */\ntag_21:\n    /* \"@openzeppelin/contracts/proxy/ERC1967/ERC1967Utils.sol\":2443:2460  newImplementation */\n  dup1\n    /* \"@openzeppelin/contracts/proxy/ERC1967/ERC1967Utils.sol\":2387:2434  StorageSlot.getAddressSlot(IMPLEMENTATION_SLOT) */\n  tag_24\n    /* \"@openzeppelin/contracts/proxy/ERC1967/ERC1967Utils.sol\":1327:1393  0x360894a13ba1a3210667c828492db98dca3e2076cc3735a920a3ca505d382bbc */\n  0x360894a13ba1a3210667c828492db98dca3e2076cc3735a920a3ca505d382bbc\n    /* \"@openzeppelin/contracts/proxy/ERC1967/ERC1967Utils.sol\":2414:2433  IMPLEMENTATION_SLOT */\n  0x00\n  shl\n    /* \"@openzeppelin/contracts/proxy/ERC1967/ERC1967Utils.sol\":2387:2413  StorageSlot.getAddressSlot */\n  shl(0x20, tag_25)\n    /* \"@openzeppelin/contracts/proxy/ERC1967/ERC1967Utils.sol\":2387:2434  StorageSlot.getAddressSlot(IMPLEMENTATION_SLOT) */\n  0x20\n  shr\n  jump\t// in\ntag_24:\n    /* \"@openzeppelin/contracts/proxy/ERC1967/ERC1967Utils.sol\":2387:2440  StorageSlot.getAddressSlot(IMPLEMENTATION_SLOT).value */\n  0x00\n  add\n  0x00\n    /* \"@openzeppelin/contracts/proxy/ERC1967/ERC1967Utils.sol\":2387:2460  StorageSlot.getAddressSlot(IMPLEMENTATION_SLOT).value = newImplementation */\n  0x0100\n  exp\n  dup2\n  sload\n  dup2\n  0xffffffffffffffffffffffffffffffffffffffff\n  mul\n  not\n  and\n  swap1\n  dup4\n  0xffffffffffffffffffffffffffffffffffffffff\n  and\n  mul\n  or\n  swap1\n  sstore\n  pop\n    /* \"@openzeppelin/contracts/proxy/ERC1967/ERC1967Utils.sol\":2186:2467  function _setImplementation(address newImplementation) private {... */\n  pop\n  jump\t// out\n    /* \"@openzeppelin/contracts/utils/Address.sol\":4106:4359  function functionDelegateCall(address target, bytes memory data) internal returns (bytes memory) {... */\ntag_16:\n    /* \"@openzeppelin/contracts/utils/Address.sol\":4189:4201  bytes memory */\n  0x60\n    /* \"@openzeppelin/contracts/utils/Address.sol\":4214:4226  bool success */\n  0x00\n    /* \"@openzeppelin/contracts/utils/Address.sol\":4228:4251  bytes memory returndata */\n  dup1\n    /* \"@openzeppelin/contracts/utils/Address.sol\":4255:4261  target */\n  dup5\n    /* \"@openzeppelin/contracts/utils/Address.sol\":4255:4274  target.delegatecall */\n  0xffffffffffffffffffffffffffffffffffffffff\n  and\n    /* \"@openzeppelin/contracts/utils/Address.sol\":4275:4279  data */\n  dup5\n    /* \"@openzeppelin/contracts/utils/Address.sol\":4255:4280  target.delegatecall(data) */\n  mload(0x40)\n  tag_27\n  swap2\n  swap1\n  tag_28\n  jump\t// in\ntag_27:\n  0x00\n  mload(0x40)\n  dup1\n  dup4\n  sub\n  dup2\n  dup6\n  gas\n  delegatecall\n  swap2\n  pop\n  pop\n  returndatasize\n  dup1\n  0x00\n  dup2\n  eq\n  tag_31\n  jumpi\n  mload(0x40)\n  swap2\n  pop\n  and(add(returndatasize, 0x3f), not(0x1f))\n  dup3\n  add\n  0x40\n  mstore\n  returndatasize\n  dup3\n  mstore\n  returndatasize\n  0x00\n  0x20\n  dup5\n  add\n  returndatacopy\n  jump(tag_30)\ntag_31:\n  0x60\n  swap2\n  pop\ntag_30:\n  pop\n    /* \"@openzeppelin/contracts/utils/Address.sol\":4213:4280  (bool success, bytes memory returndata) = target.delegatecall(data) */\n  swap2\n  pop\n  swap2\n  pop\n    /* \"@openzeppelin/contracts/utils/Address.sol\":4297:4352  verifyCallResultFromTarget(target, success, returndata) */\n  tag_32\n    /* \"@openzeppelin/contracts/utils/Address.sol\":4324:4330  target */\n  dup6\n    /* \"@openzeppelin/contracts/utils/Address.sol\":4332:4339  success */\n  dup4\n    /* \"@openzeppelin/contracts/utils/Address.sol\":4341:4351  returndata */\n  dup4\n    /* \"@openzeppelin/contracts/utils/Address.sol\":4297:4323  verifyCallResultFromTarget */\n  shl(0x20, tag_33)\n    /* \"@openzeppelin/contracts/utils/Address.sol\":4297:4352  verifyCallResultFromTarget(target, success, returndata) */\n  0x20\n  shr\n  jump\t// in\ntag_32:\n    /* \"@openzeppelin/contracts/utils/Address.sol\":4290:4352  return verifyCallResultFromTarget(target, success, returndata) */\n  swap3\n  pop\n  pop\n  pop\n    /* \"@openzeppelin/contracts/utils/Address.sol\":4106:4359  function functionDelegateCall(address target, bytes memory data) internal returns (bytes memory) {... */\n  swap3\n  swap2\n  pop\n  pop\n  jump\t// out\n    /* \"@openzeppelin/contracts/proxy/ERC1967/ERC1967Utils.sol\":6598:6720  function _checkNonPayable() private {... */\ntag_19:\n    /* \"@openzeppelin/contracts/proxy/ERC1967/ERC1967Utils.sol\":6660:6661  0 */\n  0x00\n    /* \"@openzeppelin/contracts/proxy/ERC1967/ERC1967Utils.sol\":6648:6657  msg.value */\n  callvalue\n    /* \"@openzeppelin/contracts/proxy/ERC1967/ERC1967Utils.sol\":6648:6661  msg.value > 0 */\n  gt\n    /* \"@openzeppelin/contracts/proxy/ERC1967/ERC1967Utils.sol\":6644:6714  if (msg.value > 0) {... */\n  iszero\n  tag_35\n  jumpi\n    /* \"@openzeppelin/contracts/proxy/ERC1967/ERC1967Utils.sol\":6684:6703  ERC1967NonPayable() */\n  mload(0x40)\n  0xb398979f00000000000000000000000000000000000000000000000000000000\n  dup2\n  mstore\n  0x04\n  add\n  mload(0x40)\n  dup1\n  swap2\n  sub\n  swap1\n  revert\n    /* \"@openzeppelin/contracts/proxy/ERC1967/ERC1967Utils.sol\":6644:6714  if (msg.value > 0) {... */\ntag_35:\n    /* \"@openzeppelin/contracts/proxy/ERC1967/ERC1967Utils.sol\":6598:6720  function _checkNonPayable() private {... */\n  jump\t// out\n    /* \"@openzeppelin/contracts/utils/StorageSlot.sol\":1684:1874  function getAddressSlot(bytes32 slot) internal pure returns (AddressSlot storage r) {... */\ntag_25:\n    /* \"@openzeppelin/contracts/utils/StorageSlot.sol\":1745:1766  AddressSlot storage r */\n  0x00\n    /* \"@openzeppelin/contracts/utils/StorageSlot.sol\":1854:1858  slot */\n  dup2\n    /* \"@openzeppelin/contracts/utils/StorageSlot.sol\":1844:1858  r.slot := slot */\n  swap1\n  pop\n    /* \"@openzeppelin/contracts/utils/StorageSlot.sol\":1684:1874  function getAddressSlot(bytes32 slot) internal pure returns (AddressSlot storage r) {... */\n  swap2\n  swap1\n  pop\n  jump\t// out\n    /* \"@openzeppelin/contracts/utils/Address.sol\":4625:5207  function verifyCallResultFromTarget(... */\ntag_33:\n    /* \"@openzeppelin/contracts/utils/Address.sol\":4769:4781  bytes memory */\n  0x60\n    /* \"@openzeppelin/contracts/utils/Address.sol\":4798:4805  success */\n  dup3\n    /* \"@openzeppelin/contracts/utils/Address.sol\":4793:5201  if (!success) {... */\n  tag_38\n  jumpi\n    /* \"@openzeppelin/contracts/utils/Address.sol\":4821:4840  _revert(returndata) */\n  tag_39\n    /* \"@openzeppelin/contracts/utils/Address.sol\":4829:4839  returndata */\n  dup3\n    /* \"@openzeppelin/contracts/utils/Address.sol\":4821:4828  _revert */\n  shl(0x20, tag_40)\n    /* \"@openzeppelin/contracts/utils/Address.sol\":4821:4840  _revert(returndata) */\n  0x20\n  shr\n  jump\t// in\ntag_39:\n    /* \"@openzeppelin/contracts/utils/Address.sol\":4793:5201  if (!success) {... */\n  jump(tag_41)\ntag_38:\n    /* \"@openzeppelin/contracts/utils/Address.sol\":5066:5067  0 */\n  0x00\n    /* \"@openzeppelin/contracts/utils/Address.sol\":5045:5055  returndata */\n  dup3\n    /* \"@openzeppelin/contracts/utils/Address.sol\":5045:5062  returndata.length */\n  mload\n    /* \"@openzeppelin/contracts/utils/Address.sol\":5045:5067  returndata.length == 0 */\n  eq\n    /* \"@openzeppelin/contracts/utils/Address.sol\":5045:5094  returndata.length == 0 && target.code.length == 0 */\n  dup1\n  iszero\n  tag_42\n  jumpi\n  pop\n    /* \"@openzeppelin/contracts/utils/Address.sol\":5093:5094  0 */\n  0x00\n    /* \"@openzeppelin/contracts/utils/Address.sol\":5071:5077  target */\n  dup5\n    /* \"@openzeppelin/contracts/utils/Address.sol\":5071:5089  target.code.length */\n  0xffffffffffffffffffffffffffffffffffffffff\n  and\n  extcodesize\n    /* \"@openzeppelin/contracts/utils/Address.sol\":5071:5094  target.code.length == 0 */\n  eq\n    /* \"@openzeppelin/contracts/utils/Address.sol\":5045:5094  returndata.length == 0 && target.code.length == 0 */\ntag_42:\n    /* \"@openzeppelin/contracts/utils/Address.sol\":5041:5160  if (returndata.length == 0 && target.code.length == 0) {... */\n  iszero\n  tag_43\n  jumpi\n    /* \"@openzeppelin/contracts/utils/Address.sol\":5138:5144  target */\n  dup4\n    /* \"@openzeppelin/contracts/utils/Address.sol\":5121:5145  AddressEmptyCode(target) */\n  mload(0x40)\n  0x9996b31500000000000000000000000000000000000000000000000000000000\n  dup2\n  mstore\n  0x04\n  add\n  tag_44\n  swap2\n  swap1\n  tag_23\n  jump\t// in\ntag_44:\n  mload(0x40)\n  dup1\n  swap2\n  sub\n  swap1\n  revert\n    /* \"@openzeppelin/contracts/utils/Address.sol\":5041:5160  if (returndata.length == 0 && target.code.length == 0) {... */\ntag_43:\n    /* \"@openzeppelin/contracts/utils/Address.sol\":5180:5190  returndata */\n  dup2\n    /* \"@openzeppelin/contracts/utils/Address.sol\":5173:5190  return returndata */\n  swap1\n  pop\n  jump(tag_37)\n    /* \"@openzeppelin/contracts/utils/Address.sol\":4793:5201  if (!success) {... */\ntag_41:\n    /* \"@openzeppelin/contracts/utils/Address.sol\":4625:5207  function verifyCallResultFromTarget(... */\ntag_37:\n  swap4\n  swap3\n  pop\n  pop\n  pop\n  jump\t// out\n    /* \"@openzeppelin/contracts/utils/Address.sol\":5743:6259  function _revert(bytes memory returndata) private pure {... */\ntag_40:\n    /* \"@openzeppelin/contracts/utils/Address.sol\":5894:5895  0 */\n  0x00\n    /* \"@openzeppelin/contracts/utils/Address.sol\":5874:5884  returndata */\n  dup2\n    /* \"@openzeppelin/contracts/utils/Address.sol\":5874:5891  returndata.length */\n  mload\n    /* \"@openzeppelin/contracts/utils/Address.sol\":5874:5895  returndata.length > 0 */\n  gt\n    /* \"@openzeppelin/contracts/utils/Address.sol\":5870:6253  if (returndata.length > 0) {... */\n  iszero\n  tag_46\n  jumpi\n    /* \"@openzeppelin/contracts/utils/Address.sol\":6102:6112  returndata */\n  dup1\n    /* \"@openzeppelin/contracts/utils/Address.sol\":6096:6113  mload(returndata) */\n  mload\n    /* \"@openzeppelin/contracts/utils/Address.sol\":6158:6173  returndata_size */\n  dup1\n    /* \"@openzeppelin/contracts/utils/Address.sol\":6145:6155  returndata */\n  dup3\n    /* \"@openzeppelin/contracts/utils/Address.sol\":6141:6143  32 */\n  0x20\n    /* \"@openzeppelin/contracts/utils/Address.sol\":6137:6156  add(32, returndata) */\n  add\n    /* \"@openzeppelin/contracts/utils/Address.sol\":6130:6174  revert(add(32, returndata), returndata_size) */\n  revert\n    /* \"@openzeppelin/contracts/utils/Address.sol\":5870:6253  if (returndata.length > 0) {... */\ntag_46:\n    /* \"@openzeppelin/contracts/utils/Address.sol\":6225:6242  FailedInnerCall() */\n  mload(0x40)\n  0x1425ea4200000000000000000000000000000000000000000000000000000000\n  dup2\n  mstore\n  0x04\n  add\n  mload(0x40)\n  dup1\n  swap2\n  sub\n  swap1\n  revert\n    /* \"#utility.yul\":7:82   */\ntag_48:\n    /* \"#utility.yul\":40:46   */\n  0x00\n    /* \"#utility.yul\":73:75   */\n  0x40\n    /* \"#utility.yul\":67:76   */\n  mload\n    /* \"#utility.yul\":57:76   */\n  swap1\n  pop\n    /* \"#utility.yul\":7:82   */\n  swap1\n  jump\t// out\n    /* \"#utility.yul\":88:205   */\ntag_49:\n    /* \"#utility.yul\":197:198   */\n  0x00\n    /* \"#utility.yul\":194:195   */\n  dup1\n    /* \"#utility.yul\":187:199   */\n  revert\n    /* \"#utility.yul\":211:328   */\ntag_50:\n    /* \"#utility.yul\":320:321   */\n  0x00\n    /* \"#utility.yul\":317:318   */\n  dup1\n    /* \"#utility.yul\":310:322   */\n  revert\n    /* \"#utility.yul\":334:460   */\ntag_51:\n    /* \"#utility.yul\":371:378   */\n  0x00\n    /* \"#utility.yul\":411:453   */\n  0xffffffffffffffffffffffffffffffffffffffff\n    /* \"#utility.yul\":404:409   */\n  dup3\n    /* \"#utility.yul\":400:454   */\n  and\n    /* \"#utility.yul\":389:454   */\n  swap1\n  pop\n    /* \"#utility.yul\":334:460   */\n  swap2\n  swap1\n  pop\n  jump\t// out\n    /* \"#utility.yul\":466:562   */\ntag_52:\n    /* \"#utility.yul\":503:510   */\n  0x00\n    /* \"#utility.yul\":532:556   */\n  tag_75\n    /* \"#utility.yul\":550:555   */\n  dup3\n    /* \"#utility.yul\":532:556   */\n  tag_51\n  jump\t// in\ntag_75:\n    /* \"#utility.yul\":521:556   */\n  swap1\n  pop\n    /* \"#utility.yul\":466:562   */\n  swap2\n  swap1\n  pop\n  jump\t// out\n    /* \"#utility.yul\":568:690   */\ntag_53:\n    /* \"#utility.yul\":641:665   */\n  tag_77\n    /* \"#utility.yul\":659:664   */\n  dup2\n    /* \"#utility.yul\":641:665   */\n  tag_52\n  jump\t// in\ntag_77:\n    /* \"#utility.yul\":634:639   */\n  dup2\n    /* \"#utility.yul\":631:666   */\n  eq\n    /* \"#utility.yul\":621:684   */\n  tag_78\n  jumpi\n    /* \"#utility.yul\":680:681   */\n  0x00\n    /* \"#utility.yul\":677:678   */\n  dup1\n    /* \"#utility.yul\":670:682   */\n  revert\n    /* \"#utility.yul\":621:684   */\ntag_78:\n    /* \"#utility.yul\":568:690   */\n  pop\n  jump\t// out\n    /* \"#utility.yul\":696:839   */\ntag_54:\n    /* \"#utility.yul\":753:758   */\n  0x00\n    /* \"#utility.yul\":784:790   */\n  dup2\n    /* \"#utility.yul\":778:791   */\n  mload\n    /* \"#utility.yul\":769:791   */\n  swap1\n  pop\n    /* \"#utility.yul\":800:833   */\n  tag_80\n    /* \"#utility.yul\":827:832   */\n  dup2\n    /* \"#utility.yul\":800:833   */\n  tag_53\n  jump\t// in\ntag_80:\n    /* \"#utility.yul\":696:839   */\n  swap3\n  swap2\n  pop\n  pop\n  jump\t// out\n    /* \"#utility.yul\":845:962   */\ntag_55:\n    /* \"#utility.yul\":954:955   */\n  0x00\n    /* \"#utility.yul\":951:952   */\n  dup1\n    /* \"#utility.yul\":944:956   */\n  revert\n    /* \"#utility.yul\":968:1085   */\ntag_56:\n    /* \"#utility.yul\":1077:1078   */\n  0x00\n    /* \"#utility.yul\":1074:1075   */\n  dup1\n    /* \"#utility.yul\":1067:1079   */\n  revert\n    /* \"#utility.yul\":1091:1193   */\ntag_57:\n    /* \"#utility.yul\":1132:1138   */\n  0x00\n    /* \"#utility.yul\":1183:1185   */\n  0x1f\n    /* \"#utility.yul\":1179:1186   */\n  not\n    /* \"#utility.yul\":1174:1176   */\n  0x1f\n    /* \"#utility.yul\":1167:1172   */\n  dup4\n    /* \"#utility.yul\":1163:1177   */\n  add\n    /* \"#utility.yul\":1159:1187   */\n  and\n    /* \"#utility.yul\":1149:1187   */\n  swap1\n  pop\n    /* \"#utility.yul\":1091:1193   */\n  swap2\n  swap1\n  pop\n  jump\t// out\n    /* \"#utility.yul\":1199:1379   */\ntag_58:\n    /* \"#utility.yul\":1247:1324   */\n  0x4e487b7100000000000000000000000000000000000000000000000000000000\n    /* \"#utility.yul\":1244:1245   */\n  0x00\n    /* \"#utility.yul\":1237:1325   */\n  mstore\n    /* \"#utility.yul\":1344:1348   */\n  0x41\n    /* \"#utility.yul\":1341:1342   */\n  0x04\n    /* \"#utility.yul\":1334:1349   */\n  mstore\n    /* \"#utility.yul\":1368:1372   */\n  0x24\n    /* \"#utility.yul\":1365:1366   */\n  0x00\n    /* \"#utility.yul\":1358:1373   */\n  revert\n    /* \"#utility.yul\":1385:1666   */\ntag_59:\n    /* \"#utility.yul\":1468:1495   */\n  tag_86\n    /* \"#utility.yul\":1490:1494   */\n  dup3\n    /* \"#utility.yul\":1468:1495   */\n  tag_57\n  jump\t// in\ntag_86:\n    /* \"#utility.yul\":1460:1466   */\n  dup2\n    /* \"#utility.yul\":1456:1496   */\n  add\n    /* \"#utility.yul\":1598:1604   */\n  dup2\n    /* \"#utility.yul\":1586:1596   */\n  dup2\n    /* \"#utility.yul\":1583:1605   */\n  lt\n    /* \"#utility.yul\":1562:1580   */\n  0xffffffffffffffff\n    /* \"#utility.yul\":1550:1560   */\n  dup3\n    /* \"#utility.yul\":1547:1581   */\n  gt\n    /* \"#utility.yul\":1544:1606   */\n  or\n    /* \"#utility.yul\":1541:1629   */\n  iszero\n  tag_87\n  jumpi\n    /* \"#utility.yul\":1609:1627   */\n  tag_88\n  tag_58\n  jump\t// in\ntag_88:\n    /* \"#utility.yul\":1541:1629   */\ntag_87:\n    /* \"#utility.yul\":1649:1659   */\n  dup1\n    /* \"#utility.yul\":1645:1647   */\n  0x40\n    /* \"#utility.yul\":1638:1660   */\n  mstore\n    /* \"#utility.yul\":1428:1666   */\n  pop\n    /* \"#utility.yul\":1385:1666   */\n  pop\n  pop\n  jump\t// out\n    /* \"#utility.yul\":1672:1801   */\ntag_60:\n    /* \"#utility.yul\":1706:1712   */\n  0x00\n    /* \"#utility.yul\":1733:1753   */\n  tag_90\n  tag_48\n  jump\t// in\ntag_90:\n    /* \"#utility.yul\":1723:1753   */\n  swap1\n  pop\n    /* \"#utility.yul\":1762:1795   */\n  tag_91\n    /* \"#utility.yul\":1790:1794   */\n  dup3\n    /* \"#utility.yul\":1782:1788   */\n  dup3\n    /* \"#utility.yul\":1762:1795   */\n  tag_59\n  jump\t// in\ntag_91:\n    /* \"#utility.yul\":1672:1801   */\n  swap2\n  swap1\n  pop\n  jump\t// out\n    /* \"#utility.yul\":1807:2114   */\ntag_61:\n    /* \"#utility.yul\":1868:1872   */\n  0x00\n    /* \"#utility.yul\":1958:1976   */\n  0xffffffffffffffff\n    /* \"#utility.yul\":1950:1956   */\n  dup3\n    /* \"#utility.yul\":1947:1977   */\n  gt\n    /* \"#utility.yul\":1944:2000   */\n  iszero\n  tag_93\n  jumpi\n    /* \"#utility.yul\":1980:1998   */\n  tag_94\n  tag_58\n  jump\t// in\ntag_94:\n    /* \"#utility.yul\":1944:2000   */\ntag_93:\n    /* \"#utility.yul\":2018:2047   */\n  tag_95\n    /* \"#utility.yul\":2040:2046   */\n  dup3\n    /* \"#utility.yul\":2018:2047   */\n  tag_57\n  jump\t// in\ntag_95:\n    /* \"#utility.yul\":2010:2047   */\n  swap1\n  pop\n    /* \"#utility.yul\":2102:2106   */\n  0x20\n    /* \"#utility.yul\":2096:2100   */\n  dup2\n    /* \"#utility.yul\":2092:2107   */\n  add\n    /* \"#utility.yul\":2084:2107   */\n  swap1\n  pop\n    /* \"#utility.yul\":1807:2114   */\n  swap2\n  swap1\n  pop\n  jump\t// out\n    /* \"#utility.yul\":2120:2366   */\ntag_62:\n    /* \"#utility.yul\":2201:2202   */\n  0x00\n    /* \"#utility.yul\":2211:2324   */\ntag_97:\n    /* \"#utility.yul\":2225:2231   */\n  dup4\n    /* \"#utility.yul\":2222:2223   */\n  dup2\n    /* \"#utility.yul\":2219:2232   */\n  lt\n    /* \"#utility.yul\":2211:2324   */\n  iszero\n  tag_99\n  jumpi\n    /* \"#utility.yul\":2310:2311   */\n  dup1\n    /* \"#utility.yul\":2305:2308   */\n  dup3\n    /* \"#utility.yul\":2301:2312   */\n  add\n    /* \"#utility.yul\":2295:2313   */\n  mload\n    /* \"#utility.yul\":2291:2292   */\n  dup2\n    /* \"#utility.yul\":2286:2289   */\n  dup5\n    /* \"#utility.yul\":2282:2293   */\n  add\n    /* \"#utility.yul\":2275:2314   */\n  mstore\n    /* \"#utility.yul\":2247:2249   */\n  0x20\n    /* \"#utility.yul\":2244:2245   */\n  dup2\n    /* \"#utility.yul\":2240:2250   */\n  add\n    /* \"#utility.yul\":2235:2250   */\n  swap1\n  pop\n    /* \"#utility.yul\":2211:2324   */\n  jump(tag_97)\ntag_99:\n    /* \"#utility.yul\":2358:2359   */\n  0x00\n    /* \"#utility.yul\":2349:2355   */\n  dup5\n    /* \"#utility.yul\":2344:2347   */\n  dup5\n    /* \"#utility.yul\":2340:2356   */\n  add\n    /* \"#utility.yul\":2333:2360   */\n  mstore\n    /* \"#utility.yul\":2182:2366   */\n  pop\n    /* \"#utility.yul\":2120:2366   */\n  pop\n  pop\n  pop\n  jump\t// out\n    /* \"#utility.yul\":2372:2804   */\ntag_63:\n    /* \"#utility.yul\":2460:2465   */\n  0x00\n    /* \"#utility.yul\":2485:2550   */\n  tag_101\n    /* \"#utility.yul\":2501:2549   */\n  tag_102\n    /* \"#utility.yul\":2542:2548   */\n  dup5\n    /* \"#utility.yul\":2501:2549   */\n  tag_61\n  jump\t// in\ntag_102:\n    /* \"#utility.yul\":2485:2550   */\n  tag_60\n  jump\t// in\ntag_101:\n    /* \"#utility.yul\":2476:2550   */\n  swap1\n  pop\n    /* \"#utility.yul\":2573:2579   */\n  dup3\n    /* \"#utility.yul\":2566:2571   */\n  dup2\n    /* \"#utility.yul\":2559:2580   */\n  mstore\n    /* \"#utility.yul\":2611:2615   */\n  0x20\n    /* \"#utility.yul\":2604:2609   */\n  dup2\n    /* \"#utility.yul\":2600:2616   */\n  add\n    /* \"#utility.yul\":2649:2652   */\n  dup5\n    /* \"#utility.yul\":2640:2646   */\n  dup5\n    /* \"#utility.yul\":2635:2638   */\n  dup5\n    /* \"#utility.yul\":2631:2647   */\n  add\n    /* \"#utility.yul\":2628:2653   */\n  gt\n    /* \"#utility.yul\":2625:2737   */\n  iszero\n  tag_103\n  jumpi\n    /* \"#utility.yul\":2656:2735   */\n  tag_104\n  tag_56\n  jump\t// in\ntag_104:\n    /* \"#utility.yul\":2625:2737   */\ntag_103:\n    /* \"#utility.yul\":2746:2798   */\n  tag_105\n    /* \"#utility.yul\":2791:2797   */\n  dup5\n    /* \"#utility.yul\":2786:2789   */\n  dup3\n    /* \"#utility.yul\":2781:2784   */\n  dup6\n    /* \"#utility.yul\":2746:2798   */\n  tag_62\n  jump\t// in\ntag_105:\n    /* \"#utility.yul\":2466:2804   */\n  pop\n    /* \"#utility.yul\":2372:2804   */\n  swap4\n  swap3\n  pop\n  pop\n  pop\n  jump\t// out\n    /* \"#utility.yul\":2823:3176   */\ntag_64:\n    /* \"#utility.yul\":2889:2894   */\n  0x00\n    /* \"#utility.yul\":2938:2941   */\n  dup3\n    /* \"#utility.yul\":2931:2935   */\n  0x1f\n    /* \"#utility.yul\":2923:2929   */\n  dup4\n    /* \"#utility.yul\":2919:2936   */\n  add\n    /* \"#utility.yul\":2915:2942   */\n  slt\n    /* \"#utility.yul\":2905:3027   */\n  tag_107\n  jumpi\n    /* \"#utility.yul\":2946:3025   */\n  tag_108\n  tag_55\n  jump\t// in\ntag_108:\n    /* \"#utility.yul\":2905:3027   */\ntag_107:\n    /* \"#utility.yul\":3056:3062   */\n  dup2\n    /* \"#utility.yul\":3050:3063   */\n  mload\n    /* \"#utility.yul\":3081:3170   */\n  tag_109\n    /* \"#utility.yul\":3166:3169   */\n  dup5\n    /* \"#utility.yul\":3158:3164   */\n  dup3\n    /* \"#utility.yul\":3151:3155   */\n  0x20\n    /* \"#utility.yul\":3143:3149   */\n  dup7\n    /* \"#utility.yul\":3139:3156   */\n  add\n    /* \"#utility.yul\":3081:3170   */\n  tag_63\n  jump\t// in\ntag_109:\n    /* \"#utility.yul\":3072:3170   */\n  swap2\n  pop\n    /* \"#utility.yul\":2895:3176   */\n  pop\n    /* \"#utility.yul\":2823:3176   */\n  swap3\n  swap2\n  pop\n  pop\n  jump\t// out\n    /* \"#utility.yul\":3182:3860   */\ntag_3:\n    /* \"#utility.yul\":3270:3276   */\n  0x00\n    /* \"#utility.yul\":3278:3284   */\n  dup1\n    /* \"#utility.yul\":3327:3329   */\n  0x40\n    /* \"#utility.yul\":3315:3324   */\n  dup4\n    /* \"#utility.yul\":3306:3313   */\n  dup6\n    /* \"#utility.yul\":3302:3325   */\n  sub\n    /* \"#utility.yul\":3298:3330   */\n  slt\n    /* \"#utility.yul\":3295:3414   */\n  iszero\n  tag_111\n  jumpi\n    /* \"#utility.yul\":3333:3412   */\n  tag_112\n  tag_49\n  jump\t// in\ntag_112:\n    /* \"#utility.yul\":3295:3414   */\ntag_111:\n    /* \"#utility.yul\":3453:3454   */\n  0x00\n    /* \"#utility.yul\":3478:3542   */\n  tag_113\n    /* \"#utility.yul\":3534:3541   */\n  dup6\n    /* \"#utility.yul\":3525:3531   */\n  dup3\n    /* \"#utility.yul\":3514:3523   */\n  dup7\n    /* \"#utility.yul\":3510:3532   */\n  add\n    /* \"#utility.yul\":3478:3542   */\n  tag_54\n  jump\t// in\ntag_113:\n    /* \"#utility.yul\":3468:3542   */\n  swap3\n  pop\n    /* \"#utility.yul\":3424:3552   */\n  pop\n    /* \"#utility.yul\":3612:3614   */\n  0x20\n    /* \"#utility.yul\":3601:3610   */\n  dup4\n    /* \"#utility.yul\":3597:3615   */\n  add\n    /* \"#utility.yul\":3591:3616   */\n  mload\n    /* \"#utility.yul\":3643:3661   */\n  0xffffffffffffffff\n    /* \"#utility.yul\":3635:3641   */\n  dup2\n    /* \"#utility.yul\":3632:3662   */\n  gt\n    /* \"#utility.yul\":3629:3746   */\n  iszero\n  tag_114\n  jumpi\n    /* \"#utility.yul\":3665:3744   */\n  tag_115\n  tag_50\n  jump\t// in\ntag_115:\n    /* \"#utility.yul\":3629:3746   */\ntag_114:\n    /* \"#utility.yul\":3770:3843   */\n  tag_116\n    /* \"#utility.yul\":3835:3842   */\n  dup6\n    /* \"#utility.yul\":3826:3832   */\n  dup3\n    /* \"#utility.yul\":3815:3824   */\n  dup7\n    /* \"#utility.yul\":3811:3833   */\n  add\n    /* \"#utility.yul\":3770:3843   */\n  tag_64\n  jump\t// in\ntag_116:\n    /* \"#utility.yul\":3760:3843   */\n  swap2\n  pop\n    /* \"#utility.yul\":3562:3853   */\n  pop\n    /* \"#utility.yul\":3182:3860   */\n  swap3\n  pop\n  swap3\n  swap1\n  pop\n  jump\t// out\n    /* \"#utility.yul\":3866:3984   */\ntag_65:\n    /* \"#utility.yul\":3953:3977   */\n  tag_118\n    /* \"#utility.yul\":3971:3976   */\n  dup2\n    /* \"#utility.yul\":3953:3977   */\n  tag_52\n  jump\t// in\ntag_118:\n    /* \"#utility.yul\":3948:3951   */\n  dup3\n    /* \"#utility.yul\":3941:3978   */\n  mstore\n    /* \"#utility.yul\":3866:3984   */\n  pop\n  pop\n  jump\t// out\n    /* \"#utility.yul\":3990:4212   */\ntag_23:\n    /* \"#utility.yul\":4083:4087   */\n  0x00\n    /* \"#utility.yul\":4121:4123   */\n  0x20\n    /* \"#utility.yul\":4110:4119   */\n  dup3\n    /* \"#utility.yul\":4106:4124   */\n  add\n    /* \"#utility.yul\":4098:4124   */\n  swap1\n  pop\n    /* \"#utility.yul\":4134:4205   */\n  tag_120\n    /* \"#utility.yul\":4202:4203   */\n  0x00\n    /* \"#utility.yul\":4191:4200   */\n  dup4\n    /* \"#utility.yul\":4187:4204   */\n  add\n    /* \"#utility.yul\":4178:4184   */\n  dup5\n    /* \"#utility.yul\":4134:4205   */\n  tag_65\n  jump\t// in\ntag_120:\n    /* \"#utility.yul\":3990:4212   */\n  swap3\n  swap2\n  pop\n  pop\n  jump\t// out\n    /* \"#utility.yul\":4218:4316   */\ntag_66:\n    /* \"#utility.yul\":4269:4275   */\n  0x00\n    /* \"#utility.yul\":4303:4308   */\n  dup2\n    /* \"#utility.yul\":4297:4309   */\n  mload\n    /* \"#utility.yul\":4287:4309   */\n  swap1\n  pop\n    /* \"#utility.yul\":4218:4316   */\n  swap2\n  swap1\n  pop\n  jump\t// out\n    /* \"#utility.yul\":4322:4469   */\ntag_67:\n    /* \"#utility.yul\":4423:4434   */\n  0x00\n    /* \"#utility.yul\":4460:4463   */\n  dup2\n    /* \"#utility.yul\":4445:4463   */\n  swap1\n  pop\n    /* \"#utility.yul\":4322:4469   */\n  swap3\n  swap2\n  pop\n  pop\n  jump\t// out\n    /* \"#utility.yul\":4475:4861   */\ntag_68:\n    /* \"#utility.yul\":4579:4582   */\n  0x00\n    /* \"#utility.yul\":4607:4645   */\n  tag_124\n    /* \"#utility.yul\":4639:4644   */\n  dup3\n    /* \"#utility.yul\":4607:4645   */\n  tag_66\n  jump\t// in\ntag_124:\n    /* \"#utility.yul\":4661:4749   */\n  tag_125\n    /* \"#utility.yul\":4742:4748   */\n  dup2\n    /* \"#utility.yul\":4737:4740   */\n  dup6\n    /* \"#utility.yul\":4661:4749   */\n  tag_67\n  jump\t// in\ntag_125:\n    /* \"#utility.yul\":4654:4749   */\n  swap4\n  pop\n    /* \"#utility.yul\":4758:4823   */\n  tag_126\n    /* \"#utility.yul\":4816:4822   */\n  dup2\n    /* \"#utility.yul\":4811:4814   */\n  dup6\n    /* \"#utility.yul\":4804:4808   */\n  0x20\n    /* \"#utility.yul\":4797:4802   */\n  dup7\n    /* \"#utility.yul\":4793:4809   */\n  add\n    /* \"#utility.yul\":4758:4823   */\n  tag_62\n  jump\t// in\ntag_126:\n    /* \"#utility.yul\":4848:4854   */\n  dup1\n    /* \"#utility.yul\":4843:4846   */\n  dup5\n    /* \"#utility.yul\":4839:4855   */\n  add\n    /* \"#utility.yul\":4832:4855   */\n  swap2\n  pop\n    /* \"#utility.yul\":4583:4861   */\n  pop\n    /* \"#utility.yul\":4475:4861   */\n  swap3\n  swap2\n  pop\n  pop\n  jump\t// out\n    /* \"#utility.yul\":4867:5138   */\ntag_28:\n    /* \"#utility.yul\":4997:5000   */\n  0x00\n    /* \"#utility.yul\":5019:5112   */\n  tag_128\n    /* \"#utility.yul\":5108:5111   */\n  dup3\n    /* \"#utility.yul\":5099:5105   */\n  dup5\n    /* \"#utility.yul\":5019:5112   */\n  tag_68\n  jump\t// in\ntag_128:\n    /* \"#utility.yul\":5012:5112   */\n  swap2\n  pop\n    /* \"#utility.yul\":5129:5132   */\n  dup2\n    /* \"#utility.yul\":5122:5132   */\n  swap1\n  pop\n    /* \"#utility.yul\":4867:5138   */\n  swap3\n  swap2\n  pop\n  pop\n  jump\t// out\n    /* \"contracts/UUPSUpgrade/MyProxy.sol\":865:1315  contract MyProxy is ERC1967Proxy{... */\ntag_10:\n  dataSize(sub_0)\n  dup1\n  dataOffset(sub_0)\n  0x00\n  codecopy\n  0x00\n  return\nstop\n\nsub_0: assembly {\n        /* \"contracts/UUPSUpgrade/MyProxy.sol\":865:1315  contract MyProxy is ERC1967Proxy{... */\n      mstore(0x40, 0x80)\n      jumpi(tag_1, lt(calldatasize, 0x04))\n      shr(0xe0, calldataload(0x00))\n      dup1\n      0x6b75857b\n      eq\n      tag_3\n      jumpi\n      dup1\n      0x87c37f94\n      eq\n      tag_4\n      jumpi\n      jump(tag_2)\n    tag_1:\n    tag_2:\n        /* \"@openzeppelin/contracts/proxy/Proxy.sol\":2649:2660  _fallback() */\n      tag_7\n        /* \"@openzeppelin/contracts/proxy/Proxy.sol\":2649:2658  _fallback */\n      tag_8\n        /* \"@openzeppelin/contracts/proxy/Proxy.sol\":2649:2660  _fallback() */\n      jump\t// in\n    tag_7:\n        /* \"contracts/UUPSUpgrade/MyProxy.sol\":865:1315  contract MyProxy is ERC1967Proxy{... */\n      stop\n        /* \"contracts/UUPSUpgrade/MyProxy.sol\":1171:1310  function getAddressSlot(uint256 solt) public view returns(address){... */\n    tag_3:\n      callvalue\n      dup1\n      iszero\n      tag_9\n      jumpi\n      0x00\n      dup1\n      revert\n    tag_9:\n      pop\n      tag_10\n      0x04\n      dup1\n      calldatasize\n      sub\n      dup2\n      add\n      swap1\n      tag_11\n      swap2\n      swap1\n      tag_12\n      jump\t// in\n    tag_11:\n      tag_13\n      jump\t// in\n    tag_10:\n      mload(0x40)\n      tag_14\n      swap2\n      swap1\n      tag_15\n      jump\t// in\n    tag_14:\n      mload(0x40)\n      dup1\n      swap2\n      sub\n      swap1\n      return\n        /* \"contracts/UUPSUpgrade/MyProxy.sol\":1023:1163  function getUint256Slot(uint256 solt) public view  returns(uint256){... */\n    tag_4:\n      callvalue\n      dup1\n      iszero\n      tag_16\n      jumpi\n      0x00\n      dup1\n      revert\n    tag_16:\n      pop\n      tag_17\n      0x04\n      dup1\n      calldatasize\n      sub\n      dup2\n      add\n      swap1\n      tag_18\n      swap2\n      swap1\n      tag_12\n      jump\t// in\n    tag_18:\n      tag_19\n      jump\t// in\n    tag_17:\n      mload(0x40)\n      tag_20\n      swap2\n      swap1\n      tag_21\n      jump\t// in\n    tag_20:\n      mload(0x40)\n      dup1\n      swap2\n      sub\n      swap1\n      return\n        /* \"@openzeppelin/contracts/proxy/Proxy.sol\":2323:2406  function _fallback() internal virtual {... */\n    tag_8:\n        /* \"@openzeppelin/contracts/proxy/Proxy.sol\":2371:2399  _delegate(_implementation()) */\n      tag_23\n        /* \"@openzeppelin/contracts/proxy/Proxy.sol\":2381:2398  _implementation() */\n      tag_24\n        /* \"@openzeppelin/contracts/proxy/Proxy.sol\":2381:2396  _implementation */\n      tag_25\n        /* \"@openzeppelin/contracts/proxy/Proxy.sol\":2381:2398  _implementation() */\n      jump\t// in\n    tag_24:\n        /* \"@openzeppelin/contracts/proxy/Proxy.sol\":2371:2380  _delegate */\n      tag_26\n        /* \"@openzeppelin/contracts/proxy/Proxy.sol\":2371:2399  _delegate(_implementation()) */\n      jump\t// in\n    tag_23:\n        /* \"@openzeppelin/contracts/proxy/Proxy.sol\":2323:2406  function _fallback() internal virtual {... */\n      jump\t// out\n        /* \"contracts/UUPSUpgrade/MyProxy.sol\":1171:1310  function getAddressSlot(uint256 solt) public view returns(address){... */\n    tag_13:\n        /* \"contracts/UUPSUpgrade/MyProxy.sol\":1229:1236  address */\n      0x00\n        /* \"contracts/UUPSUpgrade/MyProxy.sol\":1255:1296  StorageSlot.getAddressSlot(bytes32(solt)) */\n      tag_28\n        /* \"contracts/UUPSUpgrade/MyProxy.sol\":1290:1294  solt */\n      dup3\n        /* \"contracts/UUPSUpgrade/MyProxy.sol\":1282:1295  bytes32(solt) */\n      0x00\n      shl\n        /* \"contracts/UUPSUpgrade/MyProxy.sol\":1255:1281  StorageSlot.getAddressSlot */\n      tag_29\n        /* \"contracts/UUPSUpgrade/MyProxy.sol\":1255:1296  StorageSlot.getAddressSlot(bytes32(solt)) */\n      jump\t// in\n    tag_28:\n        /* \"contracts/UUPSUpgrade/MyProxy.sol\":1255:1302  StorageSlot.getAddressSlot(bytes32(solt)).value */\n      0x00\n      add\n      0x00\n      swap1\n      sload\n      swap1\n      0x0100\n      exp\n      swap1\n      div\n      0xffffffffffffffffffffffffffffffffffffffff\n      and\n        /* \"contracts/UUPSUpgrade/MyProxy.sol\":1248:1302  return StorageSlot.getAddressSlot(bytes32(solt)).value */\n      swap1\n      pop\n        /* \"contracts/UUPSUpgrade/MyProxy.sol\":1171:1310  function getAddressSlot(uint256 solt) public view returns(address){... */\n      swap2\n      swap1\n      pop\n      jump\t// out\n        /* \"contracts/UUPSUpgrade/MyProxy.sol\":1023:1163  function getUint256Slot(uint256 solt) public view  returns(uint256){... */\n    tag_19:\n        /* \"contracts/UUPSUpgrade/MyProxy.sol\":1082:1089  uint256 */\n      0x00\n        /* \"contracts/UUPSUpgrade/MyProxy.sol\":1108:1149  StorageSlot.getUint256Slot(bytes32(solt)) */\n      tag_31\n        /* \"contracts/UUPSUpgrade/MyProxy.sol\":1143:1147  solt */\n      dup3\n        /* \"contracts/UUPSUpgrade/MyProxy.sol\":1135:1148  bytes32(solt) */\n      0x00\n      shl\n        /* \"contracts/UUPSUpgrade/MyProxy.sol\":1108:1134  StorageSlot.getUint256Slot */\n      tag_32\n        /* \"contracts/UUPSUpgrade/MyProxy.sol\":1108:1149  StorageSlot.getUint256Slot(bytes32(solt)) */\n      jump\t// in\n    tag_31:\n        /* \"contracts/UUPSUpgrade/MyProxy.sol\":1108:1155  StorageSlot.getUint256Slot(bytes32(solt)).value */\n      0x00\n      add\n      sload\n        /* \"contracts/UUPSUpgrade/MyProxy.sol\":1101:1155  return StorageSlot.getUint256Slot(bytes32(solt)).value */\n      swap1\n      pop\n        /* \"contracts/UUPSUpgrade/MyProxy.sol\":1023:1163  function getUint256Slot(uint256 solt) public view  returns(uint256){... */\n      swap2\n      swap1\n      pop\n      jump\t// out\n        /* \"@openzeppelin/contracts/proxy/ERC1967/ERC1967Proxy.sol\":1581:1713  function _implementation() internal view virtual override returns (address) {... */\n    tag_25:\n        /* \"@openzeppelin/contracts/proxy/ERC1967/ERC1967Proxy.sol\":1648:1655  address */\n      0x00\n        /* \"@openzeppelin/contracts/proxy/ERC1967/ERC1967Proxy.sol\":1674:1706  ERC1967Utils.getImplementation() */\n      tag_34\n        /* \"@openzeppelin/contracts/proxy/ERC1967/ERC1967Proxy.sol\":1674:1704  ERC1967Utils.getImplementation */\n      tag_35\n        /* \"@openzeppelin/contracts/proxy/ERC1967/ERC1967Proxy.sol\":1674:1706  ERC1967Utils.getImplementation() */\n      jump\t// in\n    tag_34:\n        /* \"@openzeppelin/contracts/proxy/ERC1967/ERC1967Proxy.sol\":1667:1706  return ERC1967Utils.getImplementation() */\n      swap1\n      pop\n        /* \"@openzeppelin/contracts/proxy/ERC1967/ERC1967Proxy.sol\":1581:1713  function _implementation() internal view virtual override returns (address) {... */\n      swap1\n      jump\t// out\n        /* \"@openzeppelin/contracts/proxy/Proxy.sol\":949:1844  function _delegate(address implementation) internal virtual {... */\n    tag_26:\n        /* \"@openzeppelin/contracts/proxy/Proxy.sol\":1287:1301  calldatasize() */\n      calldatasize\n        /* \"@openzeppelin/contracts/proxy/Proxy.sol\":1284:1285  0 */\n      0x00\n        /* \"@openzeppelin/contracts/proxy/Proxy.sol\":1281:1282  0 */\n      dup1\n        /* \"@openzeppelin/contracts/proxy/Proxy.sol\":1268:1302  calldatacopy(0, 0, calldatasize()) */\n      calldatacopy\n        /* \"@openzeppelin/contracts/proxy/Proxy.sol\":1501:1502  0 */\n      0x00\n        /* \"@openzeppelin/contracts/proxy/Proxy.sol\":1498:1499  0 */\n      dup1\n        /* \"@openzeppelin/contracts/proxy/Proxy.sol\":1482:1496  calldatasize() */\n      calldatasize\n        /* \"@openzeppelin/contracts/proxy/Proxy.sol\":1479:1480  0 */\n      0x00\n        /* \"@openzeppelin/contracts/proxy/Proxy.sol\":1463:1477  implementation */\n      dup5\n        /* \"@openzeppelin/contracts/proxy/Proxy.sol\":1456:1461  gas() */\n      gas\n        /* \"@openzeppelin/contracts/proxy/Proxy.sol\":1443:1503  delegatecall(gas(), implementation, 0, calldatasize(), 0, 0) */\n      delegatecall\n        /* \"@openzeppelin/contracts/proxy/Proxy.sol\":1577:1593  returndatasize() */\n      returndatasize\n        /* \"@openzeppelin/contracts/proxy/Proxy.sol\":1574:1575  0 */\n      0x00\n        /* \"@openzeppelin/contracts/proxy/Proxy.sol\":1571:1572  0 */\n      dup1\n        /* \"@openzeppelin/contracts/proxy/Proxy.sol\":1556:1594  returndatacopy(0, 0, returndatasize()) */\n      returndatacopy\n        /* \"@openzeppelin/contracts/proxy/Proxy.sol\":1615:1621  result */\n      dup1\n        /* \"@openzeppelin/contracts/proxy/Proxy.sol\":1687:1688  0 */\n      0x00\n        /* \"@openzeppelin/contracts/proxy/Proxy.sol\":1682:1748  case 0 {... */\n      dup2\n      eq\n      tag_38\n      jumpi\n        /* \"@openzeppelin/contracts/proxy/Proxy.sol\":1797:1813  returndatasize() */\n      returndatasize\n        /* \"@openzeppelin/contracts/proxy/Proxy.sol\":1794:1795  0 */\n      0x00\n        /* \"@openzeppelin/contracts/proxy/Proxy.sol\":1787:1814  return(0, returndatasize()) */\n      return\n        /* \"@openzeppelin/contracts/proxy/Proxy.sol\":1682:1748  case 0 {... */\n    tag_38:\n        /* \"@openzeppelin/contracts/proxy/Proxy.sol\":1717:1733  returndatasize() */\n      returndatasize\n        /* \"@openzeppelin/contracts/proxy/Proxy.sol\":1714:1715  0 */\n      0x00\n        /* \"@openzeppelin/contracts/proxy/Proxy.sol\":1707:1734  revert(0, returndatasize()) */\n      revert\n        /* \"@openzeppelin/contracts/utils/StorageSlot.sol\":1684:1874  function getAddressSlot(bytes32 slot) internal pure returns (AddressSlot storage r) {... */\n    tag_29:\n        /* \"@openzeppelin/contracts/utils/StorageSlot.sol\":1745:1766  AddressSlot storage r */\n      0x00\n        /* \"@openzeppelin/contracts/utils/StorageSlot.sol\":1854:1858  slot */\n      dup2\n        /* \"@openzeppelin/contracts/utils/StorageSlot.sol\":1844:1858  r.slot := slot */\n      swap1\n      pop\n        /* \"@openzeppelin/contracts/utils/StorageSlot.sol\":1684:1874  function getAddressSlot(bytes32 slot) internal pure returns (AddressSlot storage r) {... */\n      swap2\n      swap1\n      pop\n      jump\t// out\n        /* \"@openzeppelin/contracts/utils/StorageSlot.sol\":2548:2738  function getUint256Slot(bytes32 slot) internal pure returns (Uint256Slot storage r) {... */\n    tag_32:\n        /* \"@openzeppelin/contracts/utils/StorageSlot.sol\":2609:2630  Uint256Slot storage r */\n      0x00\n        /* \"@openzeppelin/contracts/utils/StorageSlot.sol\":2718:2722  slot */\n      dup2\n        /* \"@openzeppelin/contracts/utils/StorageSlot.sol\":2708:2722  r.slot := slot */\n      swap1\n      pop\n        /* \"@openzeppelin/contracts/utils/StorageSlot.sol\":2548:2738  function getUint256Slot(bytes32 slot) internal pure returns (Uint256Slot storage r) {... */\n      swap2\n      swap1\n      pop\n      jump\t// out\n        /* \"@openzeppelin/contracts/proxy/ERC1967/ERC1967Utils.sol\":1957:2095  function getImplementation() internal view returns (address) {... */\n    tag_35:\n        /* \"@openzeppelin/contracts/proxy/ERC1967/ERC1967Utils.sol\":2009:2016  address */\n      0x00\n        /* \"@openzeppelin/contracts/proxy/ERC1967/ERC1967Utils.sol\":2035:2082  StorageSlot.getAddressSlot(IMPLEMENTATION_SLOT) */\n      tag_42\n        /* \"@openzeppelin/contracts/proxy/ERC1967/ERC1967Utils.sol\":1327:1393  0x360894a13ba1a3210667c828492db98dca3e2076cc3735a920a3ca505d382bbc */\n      0x360894a13ba1a3210667c828492db98dca3e2076cc3735a920a3ca505d382bbc\n        /* \"@openzeppelin/contracts/proxy/ERC1967/ERC1967Utils.sol\":2062:2081  IMPLEMENTATION_SLOT */\n      0x00\n      shl\n        /* \"@openzeppelin/contracts/proxy/ERC1967/ERC1967Utils.sol\":2035:2061  StorageSlot.getAddressSlot */\n      tag_29\n        /* \"@openzeppelin/contracts/proxy/ERC1967/ERC1967Utils.sol\":2035:2082  StorageSlot.getAddressSlot(IMPLEMENTATION_SLOT) */\n      jump\t// in\n    tag_42:\n        /* \"@openzeppelin/contracts/proxy/ERC1967/ERC1967Utils.sol\":2035:2088  StorageSlot.getAddressSlot(IMPLEMENTATION_SLOT).value */\n      0x00\n      add\n      0x00\n      swap1\n      sload\n      swap1\n      0x0100\n      exp\n      swap1\n      div\n      0xffffffffffffffffffffffffffffffffffffffff\n      and\n        /* \"@openzeppelin/contracts/proxy/ERC1967/ERC1967Utils.sol\":2028:2088  return StorageSlot.getAddressSlot(IMPLEMENTATION_SLOT).value */\n      swap1\n      pop\n        /* \"@openzeppelin/contracts/proxy/ERC1967/ERC1967Utils.sol\":1957:2095  function getImplementation() internal view returns (address) {... */\n      swap1\n      jump\t// out\n        /* \"#utility.yul\":88:205   */\n    tag_44:\n        /* \"#utility.yul\":197:198   */\n      0x00\n        /* \"#utility.yul\":194:195   */\n      dup1\n        /* \"#utility.yul\":187:199   */\n      revert\n        /* \"#utility.yul\":334:411   */\n    tag_46:\n        /* \"#utility.yul\":371:378   */\n      0x00\n        /* \"#utility.yul\":400:405   */\n      dup2\n        /* \"#utility.yul\":389:405   */\n      swap1\n      pop\n        /* \"#utility.yul\":334:411   */\n      swap2\n      swap1\n      pop\n      jump\t// out\n        /* \"#utility.yul\":417:539   */\n    tag_47:\n        /* \"#utility.yul\":490:514   */\n      tag_59\n        /* \"#utility.yul\":508:513   */\n      dup2\n        /* \"#utility.yul\":490:514   */\n      tag_46\n      jump\t// in\n    tag_59:\n        /* \"#utility.yul\":483:488   */\n      dup2\n        /* \"#utility.yul\":480:515   */\n      eq\n        /* \"#utility.yul\":470:533   */\n      tag_60\n      jumpi\n        /* \"#utility.yul\":529:530   */\n      0x00\n        /* \"#utility.yul\":526:527   */\n      dup1\n        /* \"#utility.yul\":519:531   */\n      revert\n        /* \"#utility.yul\":470:533   */\n    tag_60:\n        /* \"#utility.yul\":417:539   */\n      pop\n      jump\t// out\n        /* \"#utility.yul\":545:684   */\n    tag_48:\n        /* \"#utility.yul\":591:596   */\n      0x00\n        /* \"#utility.yul\":629:635   */\n      dup2\n        /* \"#utility.yul\":616:636   */\n      calldataload\n        /* \"#utility.yul\":607:636   */\n      swap1\n      pop\n        /* \"#utility.yul\":645:678   */\n      tag_62\n        /* \"#utility.yul\":672:677   */\n      dup2\n        /* \"#utility.yul\":645:678   */\n      tag_47\n      jump\t// in\n    tag_62:\n        /* \"#utility.yul\":545:684   */\n      swap3\n      swap2\n      pop\n      pop\n      jump\t// out\n        /* \"#utility.yul\":690:1019   */\n    tag_12:\n        /* \"#utility.yul\":749:755   */\n      0x00\n        /* \"#utility.yul\":798:800   */\n      0x20\n        /* \"#utility.yul\":786:795   */\n      dup3\n        /* \"#utility.yul\":777:784   */\n      dup5\n        /* \"#utility.yul\":773:796   */\n      sub\n        /* \"#utility.yul\":769:801   */\n      slt\n        /* \"#utility.yul\":766:885   */\n      iszero\n      tag_64\n      jumpi\n        /* \"#utility.yul\":804:883   */\n      tag_65\n      tag_44\n      jump\t// in\n    tag_65:\n        /* \"#utility.yul\":766:885   */\n    tag_64:\n        /* \"#utility.yul\":924:925   */\n      0x00\n        /* \"#utility.yul\":949:1002   */\n      tag_66\n        /* \"#utility.yul\":994:1001   */\n      dup5\n        /* \"#utility.yul\":985:991   */\n      dup3\n        /* \"#utility.yul\":974:983   */\n      dup6\n        /* \"#utility.yul\":970:992   */\n      add\n        /* \"#utility.yul\":949:1002   */\n      tag_48\n      jump\t// in\n    tag_66:\n        /* \"#utility.yul\":939:1002   */\n      swap2\n      pop\n        /* \"#utility.yul\":895:1012   */\n      pop\n        /* \"#utility.yul\":690:1019   */\n      swap3\n      swap2\n      pop\n      pop\n      jump\t// out\n        /* \"#utility.yul\":1025:1151   */\n    tag_49:\n        /* \"#utility.yul\":1062:1069   */\n      0x00\n        /* \"#utility.yul\":1102:1144   */\n      0xffffffffffffffffffffffffffffffffffffffff\n        /* \"#utility.yul\":1095:1100   */\n      dup3\n        /* \"#utility.yul\":1091:1145   */\n      and\n        /* \"#utility.yul\":1080:1145   */\n      swap1\n      pop\n        /* \"#utility.yul\":1025:1151   */\n      swap2\n      swap1\n      pop\n      jump\t// out\n        /* \"#utility.yul\":1157:1253   */\n    tag_50:\n        /* \"#utility.yul\":1194:1201   */\n      0x00\n        /* \"#utility.yul\":1223:1247   */\n      tag_69\n        /* \"#utility.yul\":1241:1246   */\n      dup3\n        /* \"#utility.yul\":1223:1247   */\n      tag_49\n      jump\t// in\n    tag_69:\n        /* \"#utility.yul\":1212:1247   */\n      swap1\n      pop\n        /* \"#utility.yul\":1157:1253   */\n      swap2\n      swap1\n      pop\n      jump\t// out\n        /* \"#utility.yul\":1259:1377   */\n    tag_51:\n        /* \"#utility.yul\":1346:1370   */\n      tag_71\n        /* \"#utility.yul\":1364:1369   */\n      dup2\n        /* \"#utility.yul\":1346:1370   */\n      tag_50\n      jump\t// in\n    tag_71:\n        /* \"#utility.yul\":1341:1344   */\n      dup3\n        /* \"#utility.yul\":1334:1371   */\n      mstore\n        /* \"#utility.yul\":1259:1377   */\n      pop\n      pop\n      jump\t// out\n        /* \"#utility.yul\":1383:1605   */\n    tag_15:\n        /* \"#utility.yul\":1476:1480   */\n      0x00\n        /* \"#utility.yul\":1514:1516   */\n      0x20\n        /* \"#utility.yul\":1503:1512   */\n      dup3\n        /* \"#utility.yul\":1499:1517   */\n      add\n        /* \"#utility.yul\":1491:1517   */\n      swap1\n      pop\n        /* \"#utility.yul\":1527:1598   */\n      tag_73\n        /* \"#utility.yul\":1595:1596   */\n      0x00\n        /* \"#utility.yul\":1584:1593   */\n      dup4\n        /* \"#utility.yul\":1580:1597   */\n      add\n        /* \"#utility.yul\":1571:1577   */\n      dup5\n        /* \"#utility.yul\":1527:1598   */\n      tag_51\n      jump\t// in\n    tag_73:\n        /* \"#utility.yul\":1383:1605   */\n      swap3\n      swap2\n      pop\n      pop\n      jump\t// out\n        /* \"#utility.yul\":1611:1729   */\n    tag_52:\n        /* \"#utility.yul\":1698:1722   */\n      tag_75\n        /* \"#utility.yul\":1716:1721   */\n      dup2\n        /* \"#utility.yul\":1698:1722   */\n      tag_46\n      jump\t// in\n    tag_75:\n        /* \"#utility.yul\":1693:1696   */\n      dup3\n        /* \"#utility.yul\":1686:1723   */\n      mstore\n        /* \"#utility.yul\":1611:1729   */\n      pop\n      pop\n      jump\t// out\n        /* \"#utility.yul\":1735:1957   */\n    tag_21:\n        /* \"#utility.yul\":1828:1832   */\n      0x00\n        /* \"#utility.yul\":1866:1868   */\n      0x20\n        /* \"#utility.yul\":1855:1864   */\n      dup3\n        /* \"#utility.yul\":1851:1869   */\n      add\n        /* \"#utility.yul\":1843:1869   */\n      swap1\n      pop\n        /* \"#utility.yul\":1879:1950   */\n      tag_77\n        /* \"#utility.yul\":1947:1948   */\n      0x00\n        /* \"#utility.yul\":1936:1945   */\n      dup4\n        /* \"#utility.yul\":1932:1949   */\n      add\n        /* \"#utility.yul\":1923:1929   */\n      dup5\n        /* \"#utility.yul\":1879:1950   */\n      tag_52\n      jump\t// in\n    tag_77:\n        /* \"#utility.yul\":1735:1957   */\n      swap3\n      swap2\n      pop\n      pop\n      jump\t// out\n\n    auxdata: 0xa264697066735822122033a00fac778a98503acc3c1454af176c71a1a634e22697c9f34b0a766e4fbf8e64736f6c63430008160033\n}\n",
				"bytecode": {
					"linkReferences": {},
					"object": "608060405234801561000f575f80fd5b506040516108a13803806108a183398181016040528101906100319190610502565b8181610043828261004c60201b60201c565b505050506105de565b61005b826100d060201b60201c565b8173ffffffffffffffffffffffffffffffffffffffff167fbc7cd75a20ee27fd9adebab32041f755214dbc6bffa90cc0225b39da2e5c2d3b60405160405180910390a25f815111156100bd576100b7828261019f60201b60201c565b506100cc565b6100cb61022560201b60201c565b5b5050565b5f8173ffffffffffffffffffffffffffffffffffffffff163b0361012b57806040517f4c9c8ce3000000000000000000000000000000000000000000000000000000008152600401610122919061056b565b60405180910390fd5b8061015d7f360894a13ba1a3210667c828492db98dca3e2076cc3735a920a3ca505d382bbc5f1b61026160201b60201c565b5f015f6101000a81548173ffffffffffffffffffffffffffffffffffffffff021916908373ffffffffffffffffffffffffffffffffffffffff16021790555050565b60605f808473ffffffffffffffffffffffffffffffffffffffff16846040516101c891906105c8565b5f60405180830381855af49150503d805f8114610200576040519150601f19603f3d011682016040523d82523d5f602084013e610205565b606091505b509150915061021b85838361026a60201b60201c565b9250505092915050565b5f34111561025f576040517fb398979f00000000000000000000000000000000000000000000000000000000815260040160405180910390fd5b565b5f819050919050565b60608261028557610280826102fd60201b60201c565b6102f5565b5f82511480156102ab57505f8473ffffffffffffffffffffffffffffffffffffffff163b145b156102ed57836040517f9996b3150000000000000000000000000000000000000000000000000000000081526004016102e4919061056b565b60405180910390fd5b8190506102f6565b5b9392505050565b5f8151111561030f5780518082602001fd5b6040517f1425ea4200000000000000000000000000000000000000000000000000000000815260040160405180910390fd5b5f604051905090565b5f80fd5b5f80fd5b5f73ffffffffffffffffffffffffffffffffffffffff82169050919050565b5f61037b82610352565b9050919050565b61038b81610371565b8114610395575f80fd5b50565b5f815190506103a681610382565b92915050565b5f80fd5b5f80fd5b5f601f19601f8301169050919050565b7f4e487b71000000000000000000000000000000000000000000000000000000005f52604160045260245ffd5b6103fa826103b4565b810181811067ffffffffffffffff82111715610419576104186103c4565b5b80604052505050565b5f61042b610341565b905061043782826103f1565b919050565b5f67ffffffffffffffff821115610456576104556103c4565b5b61045f826103b4565b9050602081019050919050565b5f5b8381101561048957808201518184015260208101905061046e565b5f8484015250505050565b5f6104a66104a18461043c565b610422565b9050828152602081018484840111156104c2576104c16103b0565b5b6104cd84828561046c565b509392505050565b5f82601f8301126104e9576104e86103ac565b5b81516104f9848260208601610494565b91505092915050565b5f80604083850312156105185761051761034a565b5b5f61052585828601610398565b925050602083015167ffffffffffffffff8111156105465761054561034e565b5b610552858286016104d5565b9150509250929050565b61056581610371565b82525050565b5f60208201905061057e5f83018461055c565b92915050565b5f81519050919050565b5f81905092915050565b5f6105a282610584565b6105ac818561058e565b93506105bc81856020860161046c565b80840191505092915050565b5f6105d38284610598565b915081905092915050565b6102b6806105eb5f395ff3fe60806040526004361061002c575f3560e01c80636b75857b1461003757806387c37f94146100735761002d565b5b6100356100af565b005b348015610042575f80fd5b5061005d600480360381019061005891906101d5565b6100c1565b60405161006a919061023f565b60405180910390f35b34801561007e575f80fd5b50610099600480360381019061009491906101d5565b6100f6565b6040516100a69190610267565b60405180910390f35b6100bf6100ba61010c565b61011a565b565b5f6100cd825f1b610139565b5f015f9054906101000a900473ffffffffffffffffffffffffffffffffffffffff169050919050565b5f610102825f1b610142565b5f01549050919050565b5f61011561014b565b905090565b365f80375f80365f845af43d5f803e805f8114610135573d5ff35b3d5ffd5b5f819050919050565b5f819050919050565b5f6101777f360894a13ba1a3210667c828492db98dca3e2076cc3735a920a3ca505d382bbc5f1b610139565b5f015f9054906101000a900473ffffffffffffffffffffffffffffffffffffffff16905090565b5f80fd5b5f819050919050565b6101b4816101a2565b81146101be575f80fd5b50565b5f813590506101cf816101ab565b92915050565b5f602082840312156101ea576101e961019e565b5b5f6101f7848285016101c1565b91505092915050565b5f73ffffffffffffffffffffffffffffffffffffffff82169050919050565b5f61022982610200565b9050919050565b6102398161021f565b82525050565b5f6020820190506102525f830184610230565b92915050565b610261816101a2565b82525050565b5f60208201905061027a5f830184610258565b9291505056fea264697066735822122033a00fac778a98503acc3c1454af176c71a1a634e22697c9f34b0a766e4fbf8e64736f6c63430008160033",
					"opcodes": "PUSH1 0x80 PUSH1 0x40 MSTORE CALLVALUE DUP1 ISZERO PUSH2 0xF JUMPI PUSH0 DUP1 REVERT JUMPDEST POP PUSH1 0x40 MLOAD PUSH2 0x8A1 CODESIZE SUB DUP1 PUSH2 0x8A1 DUP4 CODECOPY DUP2 DUP2 ADD PUSH1 0x40 MSTORE DUP2 ADD SWAP1 PUSH2 0x31 SWAP2 SWAP1 PUSH2 0x502 JUMP JUMPDEST DUP2 DUP2 PUSH2 0x43 DUP3 DUP3 PUSH2 0x4C PUSH1 0x20 SHL PUSH1 0x20 SHR JUMP JUMPDEST POP POP POP POP PUSH2 0x5DE JUMP JUMPDEST PUSH2 0x5B DUP3 PUSH2 0xD0 PUSH1 0x20 SHL PUSH1 0x20 SHR JUMP JUMPDEST DUP2 PUSH20 0xFFFFFFFFFFFFFFFFFFFFFFFFFFFFFFFFFFFFFFFF AND PUSH32 0xBC7CD75A20EE27FD9ADEBAB32041F755214DBC6BFFA90CC0225B39DA2E5C2D3B PUSH1 0x40 MLOAD PUSH1 0x40 MLOAD DUP1 SWAP2 SUB SWAP1 LOG2 PUSH0 DUP2 MLOAD GT ISZERO PUSH2 0xBD JUMPI PUSH2 0xB7 DUP3 DUP3 PUSH2 0x19F PUSH1 0x20 SHL PUSH1 0x20 SHR JUMP JUMPDEST POP PUSH2 0xCC JUMP JUMPDEST PUSH2 0xCB PUSH2 0x225 PUSH1 0x20 SHL PUSH1 0x20 SHR JUMP JUMPDEST JUMPDEST POP POP JUMP JUMPDEST PUSH0 DUP2 PUSH20 0xFFFFFFFFFFFFFFFFFFFFFFFFFFFFFFFFFFFFFFFF AND EXTCODESIZE SUB PUSH2 0x12B JUMPI DUP1 PUSH1 0x40 MLOAD PUSH32 0x4C9C8CE300000000000000000000000000000000000000000000000000000000 DUP2 MSTORE PUSH1 0x4 ADD PUSH2 0x122 SWAP2 SWAP1 PUSH2 0x56B JUMP JUMPDEST PUSH1 0x40 MLOAD DUP1 SWAP2 SUB SWAP1 REVERT JUMPDEST DUP1 PUSH2 0x15D PUSH32 0x360894A13BA1A3210667C828492DB98DCA3E2076CC3735A920A3CA505D382BBC PUSH0 SHL PUSH2 0x261 PUSH1 0x20 SHL PUSH1 0x20 SHR JUMP JUMPDEST PUSH0 ADD PUSH0 PUSH2 0x100 EXP DUP2 SLOAD DUP2 PUSH20 0xFFFFFFFFFFFFFFFFFFFFFFFFFFFFFFFFFFFFFFFF MUL NOT AND SWAP1 DUP4 PUSH20 0xFFFFFFFFFFFFFFFFFFFFFFFFFFFFFFFFFFFFFFFF AND MUL OR SWAP1 SSTORE POP POP JUMP JUMPDEST PUSH1 0x60 PUSH0 DUP1 DUP5 PUSH20 0xFFFFFFFFFFFFFFFFFFFFFFFFFFFFFFFFFFFFFFFF AND DUP5 PUSH1 0x40 MLOAD PUSH2 0x1C8 SWAP2 SWAP1 PUSH2 0x5C8 JUMP JUMPDEST PUSH0 PUSH1 0x40 MLOAD DUP1 DUP4 SUB DUP2 DUP6 GAS DELEGATECALL SWAP2 POP POP RETURNDATASIZE DUP1 PUSH0 DUP2 EQ PUSH2 0x200 JUMPI PUSH1 0x40 MLOAD SWAP2 POP PUSH1 0x1F NOT PUSH1 0x3F RETURNDATASIZE ADD AND DUP3 ADD PUSH1 0x40 MSTORE RETURNDATASIZE DUP3 MSTORE RETURNDATASIZE PUSH0 PUSH1 0x20 DUP5 ADD RETURNDATACOPY PUSH2 0x205 JUMP JUMPDEST PUSH1 0x60 SWAP2 POP JUMPDEST POP SWAP2 POP SWAP2 POP PUSH2 0x21B DUP6 DUP4 DUP4 PUSH2 0x26A PUSH1 0x20 SHL PUSH1 0x20 SHR JUMP JUMPDEST SWAP3 POP POP POP SWAP3 SWAP2 POP POP JUMP JUMPDEST PUSH0 CALLVALUE GT ISZERO PUSH2 0x25F JUMPI PUSH1 0x40 MLOAD PUSH32 0xB398979F00000000000000000000000000000000000000000000000000000000 DUP2 MSTORE PUSH1 0x4 ADD PUSH1 0x40 MLOAD DUP1 SWAP2 SUB SWAP1 REVERT JUMPDEST JUMP JUMPDEST PUSH0 DUP2 SWAP1 POP SWAP2 SWAP1 POP JUMP JUMPDEST PUSH1 0x60 DUP3 PUSH2 0x285 JUMPI PUSH2 0x280 DUP3 PUSH2 0x2FD PUSH1 0x20 SHL PUSH1 0x20 SHR JUMP JUMPDEST PUSH2 0x2F5 JUMP JUMPDEST PUSH0 DUP3 MLOAD EQ DUP1 ISZERO PUSH2 0x2AB JUMPI POP PUSH0 DUP5 PUSH20 0xFFFFFFFFFFFFFFFFFFFFFFFFFFFFFFFFFFFFFFFF AND EXTCODESIZE EQ JUMPDEST ISZERO PUSH2 0x2ED JUMPI DUP4 PUSH1 0x40 MLOAD PUSH32 0x9996B31500000000000000000000000000000000000000000000000000000000 DUP2 MSTORE PUSH1 0x4 ADD PUSH2 0x2E4 SWAP2 SWAP1 PUSH2 0x56B JUMP JUMPDEST PUSH1 0x40 MLOAD DUP1 SWAP2 SUB SWAP1 REVERT JUMPDEST DUP2 SWAP1 POP PUSH2 0x2F6 JUMP JUMPDEST JUMPDEST SWAP4 SWAP3 POP POP POP JUMP JUMPDEST PUSH0 DUP2 MLOAD GT ISZERO PUSH2 0x30F JUMPI DUP1 MLOAD DUP1 DUP3 PUSH1 0x20 ADD REVERT JUMPDEST PUSH1 0x40 MLOAD PUSH32 0x1425EA4200000000000000000000000000000000000000000000000000000000 DUP2 MSTORE PUSH1 0x4 ADD PUSH1 0x40 MLOAD DUP1 SWAP2 SUB SWAP1 REVERT JUMPDEST PUSH0 PUSH1 0x40 MLOAD SWAP1 POP SWAP1 JUMP JUMPDEST PUSH0 DUP1 REVERT JUMPDEST PUSH0 DUP1 REVERT JUMPDEST PUSH0 PUSH20 0xFFFFFFFFFFFFFFFFFFFFFFFFFFFFFFFFFFFFFFFF DUP3 AND SWAP1 POP SWAP2 SWAP1 POP JUMP JUMPDEST PUSH0 PUSH2 0x37B DUP3 PUSH2 0x352 JUMP JUMPDEST SWAP1 POP SWAP2 SWAP1 POP JUMP JUMPDEST PUSH2 0x38B DUP2 PUSH2 0x371 JUMP JUMPDEST DUP2 EQ PUSH2 0x395 JUMPI PUSH0 DUP1 REVERT JUMPDEST POP JUMP JUMPDEST PUSH0 DUP2 MLOAD SWAP1 POP PUSH2 0x3A6 DUP2 PUSH2 0x382 JUMP JUMPDEST SWAP3 SWAP2 POP POP JUMP JUMPDEST PUSH0 DUP1 REVERT JUMPDEST PUSH0 DUP1 REVERT JUMPDEST PUSH0 PUSH1 0x1F NOT PUSH1 0x1F DUP4 ADD AND SWAP1 POP SWAP2 SWAP1 POP JUMP JUMPDEST PUSH32 0x4E487B7100000000000000000000000000000000000000000000000000000000 PUSH0 MSTORE PUSH1 0x41 PUSH1 0x4 MSTORE PUSH1 0x24 PUSH0 REVERT JUMPDEST PUSH2 0x3FA DUP3 PUSH2 0x3B4 JUMP JUMPDEST DUP2 ADD DUP2 DUP2 LT PUSH8 0xFFFFFFFFFFFFFFFF DUP3 GT OR ISZERO PUSH2 0x419 JUMPI PUSH2 0x418 PUSH2 0x3C4 JUMP JUMPDEST JUMPDEST DUP1 PUSH1 0x40 MSTORE POP POP POP JUMP JUMPDEST PUSH0 PUSH2 0x42B PUSH2 0x341 JUMP JUMPDEST SWAP1 POP PUSH2 0x437 DUP3 DUP3 PUSH2 0x3F1 JUMP JUMPDEST SWAP2 SWAP1 POP JUMP JUMPDEST PUSH0 PUSH8 0xFFFFFFFFFFFFFFFF DUP3 GT ISZERO PUSH2 0x456 JUMPI PUSH2 0x455 PUSH2 0x3C4 JUMP JUMPDEST JUMPDEST PUSH2 0x45F DUP3 PUSH2 0x3B4 JUMP JUMPDEST SWAP1 POP PUSH1 0x20 DUP2 ADD SWAP1 POP SWAP2 SWAP1 POP JUMP JUMPDEST PUSH0 JUMPDEST DUP4 DUP2 LT ISZERO PUSH2 0x489 JUMPI DUP1 DUP3 ADD MLOAD DUP2 DUP5 ADD MSTORE PUSH1 0x20 DUP2 ADD SWAP1 POP PUSH2 0x46E JUMP JUMPDEST PUSH0 DUP5 DUP5 ADD MSTORE POP POP POP POP JUMP JUMPDEST PUSH0 PUSH2 0x4A6 PUSH2 0x4A1 DUP5 PUSH2 0x43C JUMP JUMPDEST PUSH2 0x422 JUMP JUMPDEST SWAP1 POP DUP3 DUP2 MSTORE PUSH1 0x20 DUP2 ADD DUP5 DUP5 DUP5 ADD GT ISZERO PUSH2 0x4C2 JUMPI PUSH2 0x4C1 PUSH2 0x3B0 JUMP JUMPDEST JUMPDEST PUSH2 0x4CD DUP5 DUP3 DUP6 PUSH2 0x46C JUMP JUMPDEST POP SWAP4 SWAP3 POP POP POP JUMP JUMPDEST PUSH0 DUP3 PUSH1 0x1F DUP4 ADD SLT PUSH2 0x4E9 JUMPI PUSH2 0x4E8 PUSH2 0x3AC JUMP JUMPDEST JUMPDEST DUP2 MLOAD PUSH2 0x4F9 DUP5 DUP3 PUSH1 0x20 DUP7 ADD PUSH2 0x494 JUMP JUMPDEST SWAP2 POP POP SWAP3 SWAP2 POP POP JUMP JUMPDEST PUSH0 DUP1 PUSH1 0x40 DUP4 DUP6 SUB SLT ISZERO PUSH2 0x518 JUMPI PUSH2 0x517 PUSH2 0x34A JUMP JUMPDEST JUMPDEST PUSH0 PUSH2 0x525 DUP6 DUP3 DUP7 ADD PUSH2 0x398 JUMP JUMPDEST SWAP3 POP POP PUSH1 0x20 DUP4 ADD MLOAD PUSH8 0xFFFFFFFFFFFFFFFF DUP2 GT ISZERO PUSH2 0x546 JUMPI PUSH2 0x545 PUSH2 0x34E JUMP JUMPDEST JUMPDEST PUSH2 0x552 DUP6 DUP3 DUP7 ADD PUSH2 0x4D5 JUMP JUMPDEST SWAP2 POP POP SWAP3 POP SWAP3 SWAP1 POP JUMP JUMPDEST PUSH2 0x565 DUP2 PUSH2 0x371 JUMP JUMPDEST DUP3 MSTORE POP POP JUMP JUMPDEST PUSH0 PUSH1 0x20 DUP3 ADD SWAP1 POP PUSH2 0x57E PUSH0 DUP4 ADD DUP5 PUSH2 0x55C JUMP JUMPDEST SWAP3 SWAP2 POP POP JUMP JUMPDEST PUSH0 DUP2 MLOAD SWAP1 POP SWAP2 SWAP1 POP JUMP JUMPDEST PUSH0 DUP2 SWAP1 POP SWAP3 SWAP2 POP POP JUMP JUMPDEST PUSH0 PUSH2 0x5A2 DUP3 PUSH2 0x584 JUMP JUMPDEST PUSH2 0x5AC DUP2 DUP6 PUSH2 0x58E JUMP JUMPDEST SWAP4 POP PUSH2 0x5BC DUP2 DUP6 PUSH1 0x20 DUP7 ADD PUSH2 0x46C JUMP JUMPDEST DUP1 DUP5 ADD SWAP2 POP POP SWAP3 SWAP2 POP POP JUMP JUMPDEST PUSH0 PUSH2 0x5D3 DUP3 DUP5 PUSH2 0x598 JUMP JUMPDEST SWAP2 POP DUP2 SWAP1 POP SWAP3 SWAP2 POP POP JUMP JUMPDEST PUSH2 0x2B6 DUP1 PUSH2 0x5EB PUSH0 CODECOPY PUSH0 RETURN INVALID PUSH1 0x80 PUSH1 0x40 MSTORE PUSH1 0x4 CALLDATASIZE LT PUSH2 0x2C JUMPI PUSH0 CALLDATALOAD PUSH1 0xE0 SHR DUP1 PUSH4 0x6B75857B EQ PUSH2 0x37 JUMPI DUP1 PUSH4 0x87C37F94 EQ PUSH2 0x73 JUMPI PUSH2 0x2D JUMP JUMPDEST JUMPDEST PUSH2 0x35 PUSH2 0xAF JUMP JUMPDEST STOP JUMPDEST CALLVALUE DUP1 ISZERO PUSH2 0x42 JUMPI PUSH0 DUP1 REVERT JUMPDEST POP PUSH2 0x5D PUSH1 0x4 DUP1 CALLDATASIZE SUB DUP2 ADD SWAP1 PUSH2 0x58 SWAP2 SWAP1 PUSH2 0x1D5 JUMP JUMPDEST PUSH2 0xC1 JUMP JUMPDEST PUSH1 0x40 MLOAD PUSH2 0x6A SWAP2 SWAP1 PUSH2 0x23F JUMP JUMPDEST PUSH1 0x40 MLOAD DUP1 SWAP2 SUB SWAP1 RETURN JUMPDEST CALLVALUE DUP1 ISZERO PUSH2 0x7E JUMPI PUSH0 DUP1 REVERT JUMPDEST POP PUSH2 0x99 PUSH1 0x4 DUP1 CALLDATASIZE SUB DUP2 ADD SWAP1 PUSH2 0x94 SWAP2 SWAP1 PUSH2 0x1D5 JUMP JUMPDEST PUSH2 0xF6 JUMP JUMPDEST PUSH1 0x40 MLOAD PUSH2 0xA6 SWAP2 SWAP1 PUSH2 0x267 JUMP JUMPDEST PUSH1 0x40 MLOAD DUP1 SWAP2 SUB SWAP1 RETURN JUMPDEST PUSH2 0xBF PUSH2 0xBA PUSH2 0x10C JUMP JUMPDEST PUSH2 0x11A JUMP JUMPDEST JUMP JUMPDEST PUSH0 PUSH2 0xCD DUP3 PUSH0 SHL PUSH2 0x139 JUMP JUMPDEST PUSH0 ADD PUSH0 SWAP1 SLOAD SWAP1 PUSH2 0x100 EXP SWAP1 DIV PUSH20 0xFFFFFFFFFFFFFFFFFFFFFFFFFFFFFFFFFFFFFFFF AND SWAP1 POP SWAP2 SWAP1 POP JUMP JUMPDEST PUSH0 PUSH2 0x102 DUP3 PUSH0 SHL PUSH2 0x142 JUMP JUMPDEST PUSH0 ADD SLOAD SWAP1 POP SWAP2 SWAP1 POP JUMP JUMPDEST PUSH0 PUSH2 0x115 PUSH2 0x14B JUMP JUMPDEST SWAP1 POP SWAP1 JUMP JUMPDEST CALLDATASIZE PUSH0 DUP1 CALLDATACOPY PUSH0 DUP1 CALLDATASIZE PUSH0 DUP5 GAS DELEGATECALL RETURNDATASIZE PUSH0 DUP1 RETURNDATACOPY DUP1 PUSH0 DUP2 EQ PUSH2 0x135 JUMPI RETURNDATASIZE PUSH0 RETURN JUMPDEST RETURNDATASIZE PUSH0 REVERT JUMPDEST PUSH0 DUP2 SWAP1 POP SWAP2 SWAP1 POP JUMP JUMPDEST PUSH0 DUP2 SWAP1 POP SWAP2 SWAP1 POP JUMP JUMPDEST PUSH0 PUSH2 0x177 PUSH32 0x360894A13BA1A3210667C828492DB98DCA3E2076CC3735A920A3CA505D382BBC PUSH0 SHL PUSH2 0x139 JUMP JUMPDEST PUSH0 ADD PUSH0 SWAP1 SLOAD SWAP1 PUSH2 0x100 EXP SWAP1 DIV PUSH20 0xFFFFFFFFFFFFFFFFFFFFFFFFFFFFFFFFFFFFFFFF AND SWAP1 POP SWAP1 JUMP JUMPDEST PUSH0 DUP1 REVERT JUMPDEST PUSH0 DUP2 SWAP1 POP SWAP2 SWAP1 POP JUMP JUMPDEST PUSH2 0x1B4 DUP2 PUSH2 0x1A2 JUMP JUMPDEST DUP2 EQ PUSH2 0x1BE JUMPI PUSH0 DUP1 REVERT JUMPDEST POP JUMP JUMPDEST PUSH0 DUP2 CALLDATALOAD SWAP1 POP PUSH2 0x1CF DUP2 PUSH2 0x1AB JUMP JUMPDEST SWAP3 SWAP2 POP POP JUMP JUMPDEST PUSH0 PUSH1 0x20 DUP3 DUP5 SUB SLT ISZERO PUSH2 0x1EA JUMPI PUSH2 0x1E9 PUSH2 0x19E JUMP JUMPDEST JUMPDEST PUSH0 PUSH2 0x1F7 DUP5 DUP3 DUP6 ADD PUSH2 0x1C1 JUMP JUMPDEST SWAP2 POP POP SWAP3 SWAP2 POP POP JUMP JUMPDEST PUSH0 PUSH20 0xFFFFFFFFFFFFFFFFFFFFFFFFFFFFFFFFFFFFFFFF DUP3 AND SWAP1 POP SWAP2 SWAP1 POP JUMP JUMPDEST PUSH0 PUSH2 0x229 DUP3 PUSH2 0x200 JUMP JUMPDEST SWAP1 POP SWAP2 SWAP1 POP JUMP JUMPDEST PUSH2 0x239 DUP2 PUSH2 0x21F JUMP JUMPDEST DUP3 MSTORE POP POP JUMP JUMPDEST PUSH0 PUSH1 0x20 DUP3 ADD SWAP1 POP PUSH2 0x252 PUSH0 DUP4 ADD DUP5 PUSH2 0x230 JUMP JUMPDEST SWAP3 SWAP2 POP POP JUMP JUMPDEST PUSH2 0x261 DUP2 PUSH2 0x1A2 JUMP JUMPDEST DUP3 MSTORE POP POP JUMP JUMPDEST PUSH0 PUSH1 0x20 DUP3 ADD SWAP1 POP PUSH2 0x27A PUSH0 DUP4 ADD DUP5 PUSH2 0x258 JUMP JUMPDEST SWAP3 SWAP2 POP POP JUMP INVALID LOG2 PUSH5 0x6970667358 0x22 SLT KECCAK256 CALLER LOG0 0xF 0xAC PUSH24 0x8A98503ACC3C1454AF176C71A1A634E22697C9F34B0A766E 0x4F 0xBF DUP15 PUSH5 0x736F6C6343 STOP ADDMOD AND STOP CALLER "
				},
				"gasEstimates": {
					"creation": {
						"codeDepositCost": "138800",
						"executionCost": "infinite",
						"totalCost": "infinite"
					},
					"external": {
						"": "infinite",
						"getAddressSlot(uint256)": "2806",
						"getUint256Slot(uint256)": "infinite"
					}
				},
				"methodIdentifiers": {
					"getAddressSlot(uint256)": "6b75857b",
					"getUint256Slot(uint256)": "87c37f94"
				}
			},
			"storageLayout": {
				"storage": [],
				"types": null
			},
			"userdoc": {
				"kind": "user",
				"methods": {},
				"version": 1
			}
		}
	}
}