{
	"contracts/UUPSUpgrade/DemoV2.sol": {
		"Demo": {
			"abi": [
				{
					"inputs": [
						{
							"internalType": "address",
							"name": "target",
							"type": "address"
						}
					],
					"name": "AddressEmptyCode",
					"type": "error"
				},
				{
					"inputs": [
						{
							"internalType": "address",
							"name": "implementation",
							"type": "address"
						}
					],
					"name": "ERC1967InvalidImplementation",
					"type": "error"
				},
				{
					"inputs": [],
					"name": "ERC1967NonPayable",
					"type": "error"
				},
				{
					"inputs": [],
					"name": "FailedInnerCall",
					"type": "error"
				},
				{
					"inputs": [],
					"name": "InvalidInitialization",
					"type": "error"
				},
				{
					"inputs": [],
					"name": "NotInitializing",
					"type": "error"
				},
				{
					"inputs": [
						{
							"internalType": "address",
							"name": "owner",
							"type": "address"
						}
					],
					"name": "OwnableInvalidOwner",
					"type": "error"
				},
				{
					"inputs": [
						{
							"internalType": "address",
							"name": "account",
							"type": "address"
						}
					],
					"name": "OwnableUnauthorizedAccount",
					"type": "error"
				},
				{
					"inputs": [],
					"name": "UUPSUnauthorizedCallContext",
					"type": "error"
				},
				{
					"inputs": [
						{
							"internalType": "bytes32",
							"name": "slot",
							"type": "bytes32"
						}
					],
					"name": "UUPSUnsupportedProxiableUUID",
					"type": "error"
				},
				{
					"anonymous": false,
					"inputs": [
						{
							"indexed": false,
							"internalType": "uint64",
							"name": "version",
							"type": "uint64"
						}
					],
					"name": "Initialized",
					"type": "event"
				},
				{
					"anonymous": false,
					"inputs": [
						{
							"indexed": true,
							"internalType": "address",
							"name": "previousOwner",
							"type": "address"
						},
						{
							"indexed": true,
							"internalType": "address",
							"name": "newOwner",
							"type": "address"
						}
					],
					"name": "OwnershipTransferred",
					"type": "event"
				},
				{
					"anonymous": false,
					"inputs": [
						{
							"indexed": true,
							"internalType": "address",
							"name": "implementation",
							"type": "address"
						}
					],
					"name": "Upgraded",
					"type": "event"
				},
				{
					"inputs": [],
					"name": "UPGRADE_INTERFACE_VERSION",
					"outputs": [
						{
							"internalType": "string",
							"name": "",
							"type": "string"
						}
					],
					"stateMutability": "view",
					"type": "function"
				},
				{
					"inputs": [],
					"name": "getNumber",
					"outputs": [
						{
							"internalType": "uint256",
							"name": "",
							"type": "uint256"
						}
					],
					"stateMutability": "view",
					"type": "function"
				},
				{
					"inputs": [],
					"name": "getNumber1",
					"outputs": [
						{
							"internalType": "uint256",
							"name": "",
							"type": "uint256"
						}
					],
					"stateMutability": "view",
					"type": "function"
				},
				{
					"inputs": [
						{
							"internalType": "string",
							"name": "str",
							"type": "string"
						},
						{
							"internalType": "uint256",
							"name": "_number",
							"type": "uint256"
						}
					],
					"name": "getSign",
					"outputs": [
						{
							"internalType": "bytes",
							"name": "",
							"type": "bytes"
						}
					],
					"stateMutability": "pure",
					"type": "function"
				},
				{
					"inputs": [
						{
							"internalType": "address",
							"name": "addr_",
							"type": "address"
						},
						{
							"internalType": "bytes",
							"name": "data",
							"type": "bytes"
						}
					],
					"name": "helper",
					"outputs": [
						{
							"internalType": "bytes",
							"name": "",
							"type": "bytes"
						}
					],
					"stateMutability": "pure",
					"type": "function"
				},
				{
					"inputs": [
						{
							"internalType": "uint256",
							"name": "_number",
							"type": "uint256"
						}
					],
					"name": "initialize",
					"outputs": [],
					"stateMutability": "nonpayable",
					"type": "function"
				},
				{
					"inputs": [],
					"name": "number",
					"outputs": [
						{
							"internalType": "uint256",
							"name": "",
							"type": "uint256"
						}
					],
					"stateMutability": "view",
					"type": "function"
				},
				{
					"inputs": [],
					"name": "number1",
					"outputs": [
						{
							"internalType": "uint256",
							"name": "",
							"type": "uint256"
						}
					],
					"stateMutability": "view",
					"type": "function"
				},
				{
					"inputs": [],
					"name": "owner",
					"outputs": [
						{
							"internalType": "address",
							"name": "",
							"type": "address"
						}
					],
					"stateMutability": "view",
					"type": "function"
				},
				{
					"inputs": [],
					"name": "proxiableUUID",
					"outputs": [
						{
							"internalType": "bytes32",
							"name": "",
							"type": "bytes32"
						}
					],
					"stateMutability": "view",
					"type": "function"
				},
				{
					"inputs": [],
					"name": "renounceOwnership",
					"outputs": [],
					"stateMutability": "nonpayable",
					"type": "function"
				},
				{
					"inputs": [],
					"name": "setNumber",
					"outputs": [],
					"stateMutability": "nonpayable",
					"type": "function"
				},
				{
					"inputs": [],
					"name": "setNumber1",
					"outputs": [],
					"stateMutability": "nonpayable",
					"type": "function"
				},
				{
					"inputs": [
						{
							"internalType": "address",
							"name": "newOwner",
							"type": "address"
						}
					],
					"name": "transferOwnership",
					"outputs": [],
					"stateMutability": "nonpayable",
					"type": "function"
				},
				{
					"inputs": [
						{
							"internalType": "address",
							"name": "newImplementation",
							"type": "address"
						},
						{
							"internalType": "bytes",
							"name": "data",
							"type": "bytes"
						}
					],
					"name": "upgradeToAndCall",
					"outputs": [],
					"stateMutability": "payable",
					"type": "function"
				}
			],
			"devdoc": {
				"errors": {
					"AddressEmptyCode(address)": [
						{
							"details": "There's no code at `target` (it is not a contract)."
						}
					],
					"ERC1967InvalidImplementation(address)": [
						{
							"details": "The `implementation` of the proxy is invalid."
						}
					],
					"ERC1967NonPayable()": [
						{
							"details": "An upgrade function sees `msg.value > 0` that may be lost."
						}
					],
					"FailedInnerCall()": [
						{
							"details": "A call to an address target failed. The target may have reverted."
						}
					],
					"InvalidInitialization()": [
						{
							"details": "The contract is already initialized."
						}
					],
					"NotInitializing()": [
						{
							"details": "The contract is not initializing."
						}
					],
					"OwnableInvalidOwner(address)": [
						{
							"details": "The owner is not a valid owner account. (eg. `address(0)`)"
						}
					],
					"OwnableUnauthorizedAccount(address)": [
						{
							"details": "The caller account is not authorized to perform an operation."
						}
					],
					"UUPSUnauthorizedCallContext()": [
						{
							"details": "The call is from an unauthorized context."
						}
					],
					"UUPSUnsupportedProxiableUUID(bytes32)": [
						{
							"details": "The storage `slot` is unsupported as a UUID."
						}
					]
				},
				"events": {
					"Initialized(uint64)": {
						"details": "Triggered when the contract has been initialized or reinitialized."
					},
					"Upgraded(address)": {
						"details": "Emitted when the implementation is upgraded."
					}
				},
				"kind": "dev",
				"methods": {
					"owner()": {
						"details": "Returns the address of the current owner."
					},
					"proxiableUUID()": {
						"details": "Implementation of the ERC1822 {proxiableUUID} function. This returns the storage slot used by the implementation. It is used to validate the implementation's compatibility when performing an upgrade. IMPORTANT: A proxy pointing at a proxiable contract should not be considered proxiable itself, because this risks bricking a proxy that upgrades to it, by delegating to itself until out of gas. Thus it is critical that this function revert if invoked through a proxy. This is guaranteed by the `notDelegated` modifier."
					},
					"renounceOwnership()": {
						"details": "Leaves the contract without owner. It will not be possible to call `onlyOwner` functions. Can only be called by the current owner. NOTE: Renouncing ownership will leave the contract without an owner, thereby disabling any functionality that is only available to the owner."
					},
					"transferOwnership(address)": {
						"details": "Transfers ownership of the contract to a new account (`newOwner`). Can only be called by the current owner."
					},
					"upgradeToAndCall(address,bytes)": {
						"custom:oz-upgrades-unsafe-allow-reachable": "delegatecall",
						"details": "Upgrade the implementation of the proxy to `newImplementation`, and subsequently execute the function call encoded in `data`. Calls {_authorizeUpgrade}. Emits an {Upgraded} event."
					}
				},
				"version": 1
			},
			"evm": {
				"assembly": "    /* \"contracts/UUPSUpgrade/DemoV2.sol\":309:1607  contract Demo is Initializable,UUPSUpgradeable,OwnableUpgradeable{... */\n  mstore(0x40, 0xa0)\n    /* \"@openzeppelin/contracts-upgradeable/proxy/utils/UUPSUpgradeable.sol\":1171:1175  this */\n  address\n    /* \"@openzeppelin/contracts-upgradeable/proxy/utils/UUPSUpgradeable.sol\":1128:1176  address private immutable __self = address(this) */\n  0xffffffffffffffffffffffffffffffffffffffff\n  and\n  0x80\n  swap1\n  0xffffffffffffffffffffffffffffffffffffffff\n  and\n  dup2\n  mstore\n  pop\n    /* \"contracts/UUPSUpgrade/DemoV2.sol\":309:1607  contract Demo is Initializable,UUPSUpgradeable,OwnableUpgradeable{... */\n  callvalue\n  dup1\n  iszero\n  tag_1\n  jumpi\n  0x00\n  dup1\n  revert\ntag_1:\n  pop\n  mload(0x80)\n  codecopy(0x00, dataOffset(sub_0), dataSize(sub_0))\n  0x00\n  assignImmutable(\"0x0b83f23a4eeb8c3f5f7d5934a2289bcf0186d09a12e1b7f20adf54e4b179db15\")\n  return(0x00, dataSize(sub_0))\nstop\n\nsub_0: assembly {\n        /* \"contracts/UUPSUpgrade/DemoV2.sol\":309:1607  contract Demo is Initializable,UUPSUpgradeable,OwnableUpgradeable{... */\n      mstore(0x40, 0x80)\n      jumpi(tag_1, lt(calldatasize, 0x04))\n      shr(0xe0, calldataload(0x00))\n      dup1\n      0x94f37149\n      gt\n      tag_17\n      jumpi\n      dup1\n      0xcdb6ed1b\n      gt\n      tag_18\n      jumpi\n      dup1\n      0xcdb6ed1b\n      eq\n      tag_13\n      jumpi\n      dup1\n      0xf2c9ecd8\n      eq\n      tag_14\n      jumpi\n      dup1\n      0xf2fde38b\n      eq\n      tag_15\n      jumpi\n      dup1\n      0xfe4b84df\n      eq\n      tag_16\n      jumpi\n      jump(tag_1)\n    tag_18:\n      dup1\n      0x94f37149\n      eq\n      tag_9\n      jumpi\n      dup1\n      0x9e911f4c\n      eq\n      tag_10\n      jumpi\n      dup1\n      0xad3cb1cc\n      eq\n      tag_11\n      jumpi\n      dup1\n      0xc223a39e\n      eq\n      tag_12\n      jumpi\n      jump(tag_1)\n    tag_17:\n      dup1\n      0x52d1902d\n      gt\n      tag_19\n      jumpi\n      dup1\n      0x52d1902d\n      eq\n      tag_5\n      jumpi\n      dup1\n      0x715018a6\n      eq\n      tag_6\n      jumpi\n      dup1\n      0x8381f58a\n      eq\n      tag_7\n      jumpi\n      dup1\n      0x8da5cb5b\n      eq\n      tag_8\n      jumpi\n      jump(tag_1)\n    tag_19:\n      dup1\n      0x3aeb111a\n      eq\n      tag_2\n      jumpi\n      dup1\n      0x4154b243\n      eq\n      tag_3\n      jumpi\n      dup1\n      0x4f1ef286\n      eq\n      tag_4\n      jumpi\n    tag_1:\n      0x00\n      dup1\n      revert\n        /* \"contracts/UUPSUpgrade/DemoV2.sol\":910:986  function setNumber1() public onlyProxy{... */\n    tag_2:\n      callvalue\n      dup1\n      iszero\n      tag_20\n      jumpi\n      0x00\n      dup1\n      revert\n    tag_20:\n      pop\n      tag_21\n      tag_22\n      jump\t// in\n    tag_21:\n      stop\n        /* \"contracts/UUPSUpgrade/DemoV2.sol\":726:801  function setNumber() public onlyProxy{... */\n    tag_3:\n      callvalue\n      dup1\n      iszero\n      tag_23\n      jumpi\n      0x00\n      dup1\n      revert\n    tag_23:\n      pop\n      tag_24\n      tag_25\n      jump\t// in\n    tag_24:\n      stop\n        /* \"@openzeppelin/contracts-upgradeable/proxy/utils/UUPSUpgradeable.sol\":4158:4372  function upgradeToAndCall(address newImplementation, bytes memory data) public payable virtual onlyProxy {... */\n    tag_4:\n      tag_26\n      0x04\n      dup1\n      calldatasize\n      sub\n      dup2\n      add\n      swap1\n      tag_27\n      swap2\n      swap1\n      tag_28\n      jump\t// in\n    tag_27:\n      tag_29\n      jump\t// in\n    tag_26:\n      stop\n        /* \"@openzeppelin/contracts-upgradeable/proxy/utils/UUPSUpgradeable.sol\":3705:3839  function proxiableUUID() external view virtual notDelegated returns (bytes32) {... */\n    tag_5:\n      callvalue\n      dup1\n      iszero\n      tag_30\n      jumpi\n      0x00\n      dup1\n      revert\n    tag_30:\n      pop\n      tag_31\n      tag_32\n      jump\t// in\n    tag_31:\n      mload(0x40)\n      tag_33\n      swap2\n      swap1\n      tag_34\n      jump\t// in\n    tag_33:\n      mload(0x40)\n      dup1\n      swap2\n      sub\n      swap1\n      return\n        /* \"@openzeppelin/contracts-upgradeable/access/OwnableUpgradeable.sol\":3155:3256  function renounceOwnership() public virtual onlyOwner {... */\n    tag_6:\n      callvalue\n      dup1\n      iszero\n      tag_35\n      jumpi\n      0x00\n      dup1\n      revert\n    tag_35:\n      pop\n      tag_36\n      tag_37\n      jump\t// in\n    tag_36:\n      stop\n        /* \"contracts/UUPSUpgrade/DemoV2.sol\":381:402  uint256 public number */\n    tag_7:\n      callvalue\n      dup1\n      iszero\n      tag_38\n      jumpi\n      0x00\n      dup1\n      revert\n    tag_38:\n      pop\n      tag_39\n      tag_40\n      jump\t// in\n    tag_39:\n      mload(0x40)\n      tag_41\n      swap2\n      swap1\n      tag_42\n      jump\t// in\n    tag_41:\n      mload(0x40)\n      dup1\n      swap2\n      sub\n      swap1\n      return\n        /* \"@openzeppelin/contracts-upgradeable/access/OwnableUpgradeable.sol\":2441:2585  function owner() public view virtual returns (address) {... */\n    tag_8:\n      callvalue\n      dup1\n      iszero\n      tag_43\n      jumpi\n      0x00\n      dup1\n      revert\n    tag_43:\n      pop\n      tag_44\n      tag_45\n      jump\t// in\n    tag_44:\n      mload(0x40)\n      tag_46\n      swap2\n      swap1\n      tag_47\n      jump\t// in\n    tag_46:\n      mload(0x40)\n      dup1\n      swap2\n      sub\n      swap1\n      return\n        /* \"contracts/UUPSUpgrade/DemoV2.sol\":994:1184  function getSign(string memory str,uint256 _number) public pure returns(bytes memory){... */\n    tag_9:\n      callvalue\n      dup1\n      iszero\n      tag_48\n      jumpi\n      0x00\n      dup1\n      revert\n    tag_48:\n      pop\n      tag_49\n      0x04\n      dup1\n      calldatasize\n      sub\n      dup2\n      add\n      swap1\n      tag_50\n      swap2\n      swap1\n      tag_51\n      jump\t// in\n    tag_50:\n      tag_52\n      jump\t// in\n    tag_49:\n      mload(0x40)\n      tag_53\n      swap2\n      swap1\n      tag_54\n      jump\t// in\n    tag_53:\n      mload(0x40)\n      dup1\n      swap2\n      sub\n      swap1\n      return\n        /* \"contracts/UUPSUpgrade/DemoV2.sol\":809:902  function getNumber1() public view onlyProxy returns(uint256) {... */\n    tag_10:\n      callvalue\n      dup1\n      iszero\n      tag_55\n      jumpi\n      0x00\n      dup1\n      revert\n    tag_55:\n      pop\n      tag_56\n      tag_57\n      jump\t// in\n    tag_56:\n      mload(0x40)\n      tag_58\n      swap2\n      swap1\n      tag_42\n      jump\t// in\n    tag_58:\n      mload(0x40)\n      dup1\n      swap2\n      sub\n      swap1\n      return\n        /* \"@openzeppelin/contracts-upgradeable/proxy/utils/UUPSUpgradeable.sol\":1819:1877  string public constant UPGRADE_INTERFACE_VERSION = \"5.0.0\" */\n    tag_11:\n      callvalue\n      dup1\n      iszero\n      tag_59\n      jumpi\n      0x00\n      dup1\n      revert\n    tag_59:\n      pop\n      tag_60\n      tag_61\n      jump\t// in\n    tag_60:\n      mload(0x40)\n      tag_62\n      swap2\n      swap1\n      tag_63\n      jump\t// in\n    tag_62:\n      mload(0x40)\n      dup1\n      swap2\n      sub\n      swap1\n      return\n        /* \"contracts/UUPSUpgrade/DemoV2.sol\":409:431  uint256 public number1 */\n    tag_12:\n      callvalue\n      dup1\n      iszero\n      tag_64\n      jumpi\n      0x00\n      dup1\n      revert\n    tag_64:\n      pop\n      tag_65\n      tag_66\n      jump\t// in\n    tag_65:\n      mload(0x40)\n      tag_67\n      swap2\n      swap1\n      tag_42\n      jump\t// in\n    tag_67:\n      mload(0x40)\n      dup1\n      swap2\n      sub\n      swap1\n      return\n        /* \"contracts/UUPSUpgrade/DemoV2.sol\":1192:1480  function helper(address addr_,bytes memory data) public  pure returns(bytes memory){... */\n    tag_13:\n      callvalue\n      dup1\n      iszero\n      tag_68\n      jumpi\n      0x00\n      dup1\n      revert\n    tag_68:\n      pop\n      tag_69\n      0x04\n      dup1\n      calldatasize\n      sub\n      dup2\n      add\n      swap1\n      tag_70\n      swap2\n      swap1\n      tag_28\n      jump\t// in\n    tag_70:\n      tag_71\n      jump\t// in\n    tag_69:\n      mload(0x40)\n      tag_72\n      swap2\n      swap1\n      tag_54\n      jump\t// in\n    tag_72:\n      mload(0x40)\n      dup1\n      swap2\n      sub\n      swap1\n      return\n        /* \"contracts/UUPSUpgrade/DemoV2.sol\":626:718  function getNumber() public view onlyProxy returns(uint256) {... */\n    tag_14:\n      callvalue\n      dup1\n      iszero\n      tag_73\n      jumpi\n      0x00\n      dup1\n      revert\n    tag_73:\n      pop\n      tag_74\n      tag_75\n      jump\t// in\n    tag_74:\n      mload(0x40)\n      tag_76\n      swap2\n      swap1\n      tag_42\n      jump\t// in\n    tag_76:\n      mload(0x40)\n      dup1\n      swap2\n      sub\n      swap1\n      return\n        /* \"@openzeppelin/contracts-upgradeable/access/OwnableUpgradeable.sol\":3405:3620  function transferOwnership(address newOwner) public virtual onlyOwner {... */\n    tag_15:\n      callvalue\n      dup1\n      iszero\n      tag_77\n      jumpi\n      0x00\n      dup1\n      revert\n    tag_77:\n      pop\n      tag_78\n      0x04\n      dup1\n      calldatasize\n      sub\n      dup2\n      add\n      swap1\n      tag_79\n      swap2\n      swap1\n      tag_80\n      jump\t// in\n    tag_79:\n      tag_81\n      jump\t// in\n    tag_78:\n      stop\n        /* \"contracts/UUPSUpgrade/DemoV2.sol\":521:618  function initialize(uint256 _number) public reinitializer(2) {... */\n    tag_16:\n      callvalue\n      dup1\n      iszero\n      tag_82\n      jumpi\n      0x00\n      dup1\n      revert\n    tag_82:\n      pop\n      tag_83\n      0x04\n      dup1\n      calldatasize\n      sub\n      dup2\n      add\n      swap1\n      tag_84\n      swap2\n      swap1\n      tag_85\n      jump\t// in\n    tag_84:\n      tag_86\n      jump\t// in\n    tag_83:\n      stop\n        /* \"contracts/UUPSUpgrade/DemoV2.sol\":910:986  function setNumber1() public onlyProxy{... */\n    tag_22:\n        /* \"@openzeppelin/contracts-upgradeable/proxy/utils/UUPSUpgradeable.sol\":2653:2666  _checkProxy() */\n      tag_88\n        /* \"@openzeppelin/contracts-upgradeable/proxy/utils/UUPSUpgradeable.sol\":2653:2664  _checkProxy */\n      tag_89\n        /* \"@openzeppelin/contracts-upgradeable/proxy/utils/UUPSUpgradeable.sol\":2653:2666  _checkProxy() */\n      jump\t// in\n    tag_88:\n        /* \"contracts/UUPSUpgrade/DemoV2.sol\":977:978  2 */\n      0x02\n        /* \"contracts/UUPSUpgrade/DemoV2.sol\":968:974  number */\n      sload(0x00)\n        /* \"contracts/UUPSUpgrade/DemoV2.sol\":968:978  number + 2 */\n      tag_91\n      swap2\n      swap1\n      tag_92\n      jump\t// in\n    tag_91:\n        /* \"contracts/UUPSUpgrade/DemoV2.sol\":959:965  number */\n      0x00\n        /* \"contracts/UUPSUpgrade/DemoV2.sol\":959:978  number = number + 2 */\n      dup2\n      swap1\n      sstore\n      pop\n        /* \"contracts/UUPSUpgrade/DemoV2.sol\":910:986  function setNumber1() public onlyProxy{... */\n      jump\t// out\n        /* \"contracts/UUPSUpgrade/DemoV2.sol\":726:801  function setNumber() public onlyProxy{... */\n    tag_25:\n        /* \"@openzeppelin/contracts-upgradeable/proxy/utils/UUPSUpgradeable.sol\":2653:2666  _checkProxy() */\n      tag_94\n        /* \"@openzeppelin/contracts-upgradeable/proxy/utils/UUPSUpgradeable.sol\":2653:2664  _checkProxy */\n      tag_89\n        /* \"@openzeppelin/contracts-upgradeable/proxy/utils/UUPSUpgradeable.sol\":2653:2666  _checkProxy() */\n      jump\t// in\n    tag_94:\n        /* \"contracts/UUPSUpgrade/DemoV2.sol\":792:793  1 */\n      0x01\n        /* \"contracts/UUPSUpgrade/DemoV2.sol\":783:789  number */\n      sload(0x00)\n        /* \"contracts/UUPSUpgrade/DemoV2.sol\":783:793  number + 1 */\n      tag_96\n      swap2\n      swap1\n      tag_92\n      jump\t// in\n    tag_96:\n        /* \"contracts/UUPSUpgrade/DemoV2.sol\":774:780  number */\n      0x00\n        /* \"contracts/UUPSUpgrade/DemoV2.sol\":774:793  number = number + 1 */\n      dup2\n      swap1\n      sstore\n      pop\n        /* \"contracts/UUPSUpgrade/DemoV2.sol\":726:801  function setNumber() public onlyProxy{... */\n      jump\t// out\n        /* \"@openzeppelin/contracts-upgradeable/proxy/utils/UUPSUpgradeable.sol\":4158:4372  function upgradeToAndCall(address newImplementation, bytes memory data) public payable virtual onlyProxy {... */\n    tag_29:\n        /* \"@openzeppelin/contracts-upgradeable/proxy/utils/UUPSUpgradeable.sol\":2653:2666  _checkProxy() */\n      tag_98\n        /* \"@openzeppelin/contracts-upgradeable/proxy/utils/UUPSUpgradeable.sol\":2653:2664  _checkProxy */\n      tag_89\n        /* \"@openzeppelin/contracts-upgradeable/proxy/utils/UUPSUpgradeable.sol\":2653:2666  _checkProxy() */\n      jump\t// in\n    tag_98:\n        /* \"@openzeppelin/contracts-upgradeable/proxy/utils/UUPSUpgradeable.sol\":4273:4309  _authorizeUpgrade(newImplementation) */\n      tag_100\n        /* \"@openzeppelin/contracts-upgradeable/proxy/utils/UUPSUpgradeable.sol\":4291:4308  newImplementation */\n      dup3\n        /* \"@openzeppelin/contracts-upgradeable/proxy/utils/UUPSUpgradeable.sol\":4273:4290  _authorizeUpgrade */\n      tag_101\n        /* \"@openzeppelin/contracts-upgradeable/proxy/utils/UUPSUpgradeable.sol\":4273:4309  _authorizeUpgrade(newImplementation) */\n      jump\t// in\n    tag_100:\n        /* \"@openzeppelin/contracts-upgradeable/proxy/utils/UUPSUpgradeable.sol\":4319:4365  _upgradeToAndCallUUPS(newImplementation, data) */\n      tag_102\n        /* \"@openzeppelin/contracts-upgradeable/proxy/utils/UUPSUpgradeable.sol\":4341:4358  newImplementation */\n      dup3\n        /* \"@openzeppelin/contracts-upgradeable/proxy/utils/UUPSUpgradeable.sol\":4360:4364  data */\n      dup3\n        /* \"@openzeppelin/contracts-upgradeable/proxy/utils/UUPSUpgradeable.sol\":4319:4340  _upgradeToAndCallUUPS */\n      tag_103\n        /* \"@openzeppelin/contracts-upgradeable/proxy/utils/UUPSUpgradeable.sol\":4319:4365  _upgradeToAndCallUUPS(newImplementation, data) */\n      jump\t// in\n    tag_102:\n        /* \"@openzeppelin/contracts-upgradeable/proxy/utils/UUPSUpgradeable.sol\":4158:4372  function upgradeToAndCall(address newImplementation, bytes memory data) public payable virtual onlyProxy {... */\n      pop\n      pop\n      jump\t// out\n        /* \"@openzeppelin/contracts-upgradeable/proxy/utils/UUPSUpgradeable.sol\":3705:3839  function proxiableUUID() external view virtual notDelegated returns (bytes32) {... */\n    tag_32:\n        /* \"@openzeppelin/contracts-upgradeable/proxy/utils/UUPSUpgradeable.sol\":3774:3781  bytes32 */\n      0x00\n        /* \"@openzeppelin/contracts-upgradeable/proxy/utils/UUPSUpgradeable.sol\":2924:2944  _checkNotDelegated() */\n      tag_105\n        /* \"@openzeppelin/contracts-upgradeable/proxy/utils/UUPSUpgradeable.sol\":2924:2942  _checkNotDelegated */\n      tag_106\n        /* \"@openzeppelin/contracts-upgradeable/proxy/utils/UUPSUpgradeable.sol\":2924:2944  _checkNotDelegated() */\n      jump\t// in\n    tag_105:\n        /* \"@openzeppelin/contracts/proxy/ERC1967/ERC1967Utils.sol\":1327:1393  0x360894a13ba1a3210667c828492db98dca3e2076cc3735a920a3ca505d382bbc */\n      0x360894a13ba1a3210667c828492db98dca3e2076cc3735a920a3ca505d382bbc\n        /* \"@openzeppelin/contracts-upgradeable/proxy/utils/UUPSUpgradeable.sol\":3800:3832  ERC1967Utils.IMPLEMENTATION_SLOT */\n      0x00\n      shl\n        /* \"@openzeppelin/contracts-upgradeable/proxy/utils/UUPSUpgradeable.sol\":3793:3832  return ERC1967Utils.IMPLEMENTATION_SLOT */\n      swap1\n      pop\n        /* \"@openzeppelin/contracts-upgradeable/proxy/utils/UUPSUpgradeable.sol\":3705:3839  function proxiableUUID() external view virtual notDelegated returns (bytes32) {... */\n      swap1\n      jump\t// out\n        /* \"@openzeppelin/contracts-upgradeable/access/OwnableUpgradeable.sol\":3155:3256  function renounceOwnership() public virtual onlyOwner {... */\n    tag_37:\n        /* \"@openzeppelin/contracts-upgradeable/access/OwnableUpgradeable.sol\":2334:2347  _checkOwner() */\n      tag_109\n        /* \"@openzeppelin/contracts-upgradeable/access/OwnableUpgradeable.sol\":2334:2345  _checkOwner */\n      tag_110\n        /* \"@openzeppelin/contracts-upgradeable/access/OwnableUpgradeable.sol\":2334:2347  _checkOwner() */\n      jump\t// in\n    tag_109:\n        /* \"@openzeppelin/contracts-upgradeable/access/OwnableUpgradeable.sol\":3219:3249  _transferOwnership(address(0)) */\n      tag_112\n        /* \"@openzeppelin/contracts-upgradeable/access/OwnableUpgradeable.sol\":3246:3247  0 */\n      0x00\n        /* \"@openzeppelin/contracts-upgradeable/access/OwnableUpgradeable.sol\":3219:3237  _transferOwnership */\n      tag_113\n        /* \"@openzeppelin/contracts-upgradeable/access/OwnableUpgradeable.sol\":3219:3249  _transferOwnership(address(0)) */\n      jump\t// in\n    tag_112:\n        /* \"@openzeppelin/contracts-upgradeable/access/OwnableUpgradeable.sol\":3155:3256  function renounceOwnership() public virtual onlyOwner {... */\n      jump\t// out\n        /* \"contracts/UUPSUpgrade/DemoV2.sol\":381:402  uint256 public number */\n    tag_40:\n      sload(0x00)\n      dup2\n      jump\t// out\n        /* \"@openzeppelin/contracts-upgradeable/access/OwnableUpgradeable.sol\":2441:2585  function owner() public view virtual returns (address) {... */\n    tag_45:\n        /* \"@openzeppelin/contracts-upgradeable/access/OwnableUpgradeable.sol\":2487:2494  address */\n      0x00\n        /* \"@openzeppelin/contracts-upgradeable/access/OwnableUpgradeable.sol\":2506:2530  OwnableStorage storage $ */\n      dup1\n        /* \"@openzeppelin/contracts-upgradeable/access/OwnableUpgradeable.sol\":2533:2553  _getOwnableStorage() */\n      tag_115\n        /* \"@openzeppelin/contracts-upgradeable/access/OwnableUpgradeable.sol\":2533:2551  _getOwnableStorage */\n      tag_116\n        /* \"@openzeppelin/contracts-upgradeable/access/OwnableUpgradeable.sol\":2533:2553  _getOwnableStorage() */\n      jump\t// in\n    tag_115:\n        /* \"@openzeppelin/contracts-upgradeable/access/OwnableUpgradeable.sol\":2506:2553  OwnableStorage storage $ = _getOwnableStorage() */\n      swap1\n      pop\n        /* \"@openzeppelin/contracts-upgradeable/access/OwnableUpgradeable.sol\":2570:2571  $ */\n      dup1\n        /* \"@openzeppelin/contracts-upgradeable/access/OwnableUpgradeable.sol\":2570:2578  $._owner */\n      0x00\n      add\n      0x00\n      swap1\n      sload\n      swap1\n      0x0100\n      exp\n      swap1\n      div\n      0xffffffffffffffffffffffffffffffffffffffff\n      and\n        /* \"@openzeppelin/contracts-upgradeable/access/OwnableUpgradeable.sol\":2563:2578  return $._owner */\n      swap2\n      pop\n      pop\n        /* \"@openzeppelin/contracts-upgradeable/access/OwnableUpgradeable.sol\":2441:2585  function owner() public view virtual returns (address) {... */\n      swap1\n      jump\t// out\n        /* \"contracts/UUPSUpgrade/DemoV2.sol\":994:1184  function getSign(string memory str,uint256 _number) public pure returns(bytes memory){... */\n    tag_52:\n        /* \"contracts/UUPSUpgrade/DemoV2.sol\":1066:1078  bytes memory */\n      0x60\n        /* \"contracts/UUPSUpgrade/DemoV2.sol\":1108:1109  0 */\n      0x00\n        /* \"contracts/UUPSUpgrade/DemoV2.sol\":1097:1104  _number */\n      dup3\n        /* \"contracts/UUPSUpgrade/DemoV2.sol\":1097:1109  _number == 0 */\n      eq\n        /* \"contracts/UUPSUpgrade/DemoV2.sol\":1097:1176  _number == 0 ?abi.encodeWithSignature(str):abi.encodeWithSignature(str,_number) */\n      tag_118\n      jumpi\n        /* \"contracts/UUPSUpgrade/DemoV2.sol\":1164:1167  str */\n      dup3\n        /* \"contracts/UUPSUpgrade/DemoV2.sol\":1168:1175  _number */\n      dup3\n        /* \"contracts/UUPSUpgrade/DemoV2.sol\":1140:1176  abi.encodeWithSignature(str,_number) */\n      add(0x24, mload(0x40))\n      tag_119\n      swap2\n      swap1\n      tag_42\n      jump\t// in\n    tag_119:\n      mload(0x40)\n      0x20\n      dup2\n      dup4\n      sub\n      sub\n      dup2\n      mstore\n      swap1\n      0x40\n      mstore\n      swap1\n      mload(0x40)\n      tag_120\n      swap2\n      swap1\n      tag_121\n      jump\t// in\n    tag_120:\n      mload(0x40)\n      dup1\n      swap2\n      sub\n      swap1\n      keccak256\n      not(0xffffffffffffffffffffffffffffffffffffffffffffffffffffffff)\n      and\n      0x20\n      dup3\n      add\n      dup1\n      mload\n      0xffffffffffffffffffffffffffffffffffffffffffffffffffffffff\n      dup4\n      dup2\n      dup4\n      and\n      or\n      dup4\n      mstore\n      pop\n      pop\n      pop\n      pop\n        /* \"contracts/UUPSUpgrade/DemoV2.sol\":1097:1176  _number == 0 ?abi.encodeWithSignature(str):abi.encodeWithSignature(str,_number) */\n      jump(tag_122)\n    tag_118:\n        /* \"contracts/UUPSUpgrade/DemoV2.sol\":1135:1138  str */\n      dup3\n        /* \"contracts/UUPSUpgrade/DemoV2.sol\":1111:1139  abi.encodeWithSignature(str) */\n      add(0x24, mload(0x40))\n      mload(0x40)\n      0x20\n      dup2\n      dup4\n      sub\n      sub\n      dup2\n      mstore\n      swap1\n      0x40\n      mstore\n      swap1\n      mload(0x40)\n      tag_123\n      swap2\n      swap1\n      tag_121\n      jump\t// in\n    tag_123:\n      mload(0x40)\n      dup1\n      swap2\n      sub\n      swap1\n      keccak256\n      not(0xffffffffffffffffffffffffffffffffffffffffffffffffffffffff)\n      and\n      0x20\n      dup3\n      add\n      dup1\n      mload\n      0xffffffffffffffffffffffffffffffffffffffffffffffffffffffff\n      dup4\n      dup2\n      dup4\n      and\n      or\n      dup4\n      mstore\n      pop\n      pop\n      pop\n      pop\n        /* \"contracts/UUPSUpgrade/DemoV2.sol\":1097:1176  _number == 0 ?abi.encodeWithSignature(str):abi.encodeWithSignature(str,_number) */\n    tag_122:\n        /* \"contracts/UUPSUpgrade/DemoV2.sol\":1090:1176  return _number == 0 ?abi.encodeWithSignature(str):abi.encodeWithSignature(str,_number) */\n      swap1\n      pop\n        /* \"contracts/UUPSUpgrade/DemoV2.sol\":994:1184  function getSign(string memory str,uint256 _number) public pure returns(bytes memory){... */\n      swap3\n      swap2\n      pop\n      pop\n      jump\t// out\n        /* \"contracts/UUPSUpgrade/DemoV2.sol\":809:902  function getNumber1() public view onlyProxy returns(uint256) {... */\n    tag_57:\n        /* \"contracts/UUPSUpgrade/DemoV2.sol\":861:868  uint256 */\n      0x00\n        /* \"@openzeppelin/contracts-upgradeable/proxy/utils/UUPSUpgradeable.sol\":2653:2666  _checkProxy() */\n      tag_125\n        /* \"@openzeppelin/contracts-upgradeable/proxy/utils/UUPSUpgradeable.sol\":2653:2664  _checkProxy */\n      tag_89\n        /* \"@openzeppelin/contracts-upgradeable/proxy/utils/UUPSUpgradeable.sol\":2653:2666  _checkProxy() */\n      jump\t// in\n    tag_125:\n        /* \"contracts/UUPSUpgrade/DemoV2.sol\":888:894  number */\n      sload(0x00)\n        /* \"contracts/UUPSUpgrade/DemoV2.sol\":881:894  return number */\n      swap1\n      pop\n        /* \"contracts/UUPSUpgrade/DemoV2.sol\":809:902  function getNumber1() public view onlyProxy returns(uint256) {... */\n      swap1\n      jump\t// out\n        /* \"@openzeppelin/contracts-upgradeable/proxy/utils/UUPSUpgradeable.sol\":1819:1877  string public constant UPGRADE_INTERFACE_VERSION = \"5.0.0\" */\n    tag_61:\n      mload(0x40)\n      dup1\n      0x40\n      add\n      0x40\n      mstore\n      dup1\n      0x05\n      dup2\n      mstore\n      0x20\n      add\n      0x352e302e30000000000000000000000000000000000000000000000000000000\n      dup2\n      mstore\n      pop\n      dup2\n      jump\t// out\n        /* \"contracts/UUPSUpgrade/DemoV2.sol\":409:431  uint256 public number1 */\n    tag_66:\n      sload(0x01)\n      dup2\n      jump\t// out\n        /* \"contracts/UUPSUpgrade/DemoV2.sol\":1192:1480  function helper(address addr_,bytes memory data) public  pure returns(bytes memory){... */\n    tag_71:\n        /* \"contracts/UUPSUpgrade/DemoV2.sol\":1262:1274  bytes memory */\n      0x60\n        /* \"contracts/UUPSUpgrade/DemoV2.sol\":1461:1466  addr_ */\n      dup3\n        /* \"contracts/UUPSUpgrade/DemoV2.sol\":1467:1471  data */\n      dup3\n        /* \"contracts/UUPSUpgrade/DemoV2.sol\":1403:1472  abi.encodeWithSignature(\"upgradeToAndCall(address,bytes)\",addr_,data) */\n      add(0x24, mload(0x40))\n      tag_128\n      swap3\n      swap2\n      swap1\n      tag_129\n      jump\t// in\n    tag_128:\n      mload(0x40)\n      0x20\n      dup2\n      dup4\n      sub\n      sub\n      dup2\n      mstore\n      swap1\n      0x40\n      mstore\n      and(not(0xffffffffffffffffffffffffffffffffffffffffffffffffffffffff), 0x4f1ef28600000000000000000000000000000000000000000000000000000000)\n      0x20\n      dup3\n      add\n      dup1\n      mload\n      0xffffffffffffffffffffffffffffffffffffffffffffffffffffffff\n      dup4\n      dup2\n      dup4\n      and\n      or\n      dup4\n      mstore\n      pop\n      pop\n      pop\n      pop\n        /* \"contracts/UUPSUpgrade/DemoV2.sol\":1396:1472  return abi.encodeWithSignature(\"upgradeToAndCall(address,bytes)\",addr_,data) */\n      swap1\n      pop\n        /* \"contracts/UUPSUpgrade/DemoV2.sol\":1192:1480  function helper(address addr_,bytes memory data) public  pure returns(bytes memory){... */\n      swap3\n      swap2\n      pop\n      pop\n      jump\t// out\n        /* \"contracts/UUPSUpgrade/DemoV2.sol\":626:718  function getNumber() public view onlyProxy returns(uint256) {... */\n    tag_75:\n        /* \"contracts/UUPSUpgrade/DemoV2.sol\":677:684  uint256 */\n      0x00\n        /* \"@openzeppelin/contracts-upgradeable/proxy/utils/UUPSUpgradeable.sol\":2653:2666  _checkProxy() */\n      tag_131\n        /* \"@openzeppelin/contracts-upgradeable/proxy/utils/UUPSUpgradeable.sol\":2653:2664  _checkProxy */\n      tag_89\n        /* \"@openzeppelin/contracts-upgradeable/proxy/utils/UUPSUpgradeable.sol\":2653:2666  _checkProxy() */\n      jump\t// in\n    tag_131:\n        /* \"contracts/UUPSUpgrade/DemoV2.sol\":704:710  number */\n      sload(0x00)\n        /* \"contracts/UUPSUpgrade/DemoV2.sol\":697:710  return number */\n      swap1\n      pop\n        /* \"contracts/UUPSUpgrade/DemoV2.sol\":626:718  function getNumber() public view onlyProxy returns(uint256) {... */\n      swap1\n      jump\t// out\n        /* \"@openzeppelin/contracts-upgradeable/access/OwnableUpgradeable.sol\":3405:3620  function transferOwnership(address newOwner) public virtual onlyOwner {... */\n    tag_81:\n        /* \"@openzeppelin/contracts-upgradeable/access/OwnableUpgradeable.sol\":2334:2347  _checkOwner() */\n      tag_134\n        /* \"@openzeppelin/contracts-upgradeable/access/OwnableUpgradeable.sol\":2334:2345  _checkOwner */\n      tag_110\n        /* \"@openzeppelin/contracts-upgradeable/access/OwnableUpgradeable.sol\":2334:2347  _checkOwner() */\n      jump\t// in\n    tag_134:\n        /* \"@openzeppelin/contracts-upgradeable/access/OwnableUpgradeable.sol\":3509:3510  0 */\n      0x00\n        /* \"@openzeppelin/contracts-upgradeable/access/OwnableUpgradeable.sol\":3489:3511  newOwner == address(0) */\n      0xffffffffffffffffffffffffffffffffffffffff\n      and\n        /* \"@openzeppelin/contracts-upgradeable/access/OwnableUpgradeable.sol\":3489:3497  newOwner */\n      dup2\n        /* \"@openzeppelin/contracts-upgradeable/access/OwnableUpgradeable.sol\":3489:3511  newOwner == address(0) */\n      0xffffffffffffffffffffffffffffffffffffffff\n      and\n      sub\n        /* \"@openzeppelin/contracts-upgradeable/access/OwnableUpgradeable.sol\":3485:3576  if (newOwner == address(0)) {... */\n      tag_136\n      jumpi\n        /* \"@openzeppelin/contracts-upgradeable/access/OwnableUpgradeable.sol\":3562:3563  0 */\n      0x00\n        /* \"@openzeppelin/contracts-upgradeable/access/OwnableUpgradeable.sol\":3534:3565  OwnableInvalidOwner(address(0)) */\n      mload(0x40)\n      0x1e4fbdf700000000000000000000000000000000000000000000000000000000\n      dup2\n      mstore\n      0x04\n      add\n      tag_137\n      swap2\n      swap1\n      tag_47\n      jump\t// in\n    tag_137:\n      mload(0x40)\n      dup1\n      swap2\n      sub\n      swap1\n      revert\n        /* \"@openzeppelin/contracts-upgradeable/access/OwnableUpgradeable.sol\":3485:3576  if (newOwner == address(0)) {... */\n    tag_136:\n        /* \"@openzeppelin/contracts-upgradeable/access/OwnableUpgradeable.sol\":3585:3613  _transferOwnership(newOwner) */\n      tag_138\n        /* \"@openzeppelin/contracts-upgradeable/access/OwnableUpgradeable.sol\":3604:3612  newOwner */\n      dup2\n        /* \"@openzeppelin/contracts-upgradeable/access/OwnableUpgradeable.sol\":3585:3603  _transferOwnership */\n      tag_113\n        /* \"@openzeppelin/contracts-upgradeable/access/OwnableUpgradeable.sol\":3585:3613  _transferOwnership(newOwner) */\n      jump\t// in\n    tag_138:\n        /* \"@openzeppelin/contracts-upgradeable/access/OwnableUpgradeable.sol\":3405:3620  function transferOwnership(address newOwner) public virtual onlyOwner {... */\n      pop\n      jump\t// out\n        /* \"contracts/UUPSUpgrade/DemoV2.sol\":521:618  function initialize(uint256 _number) public reinitializer(2) {... */\n    tag_86:\n        /* \"contracts/UUPSUpgrade/DemoV2.sol\":579:580  2 */\n      0x02\n        /* \"@openzeppelin/contracts-upgradeable/proxy/utils/Initializable.sol\":6357:6387  InitializableStorage storage $ */\n      0x00\n        /* \"@openzeppelin/contracts-upgradeable/proxy/utils/Initializable.sol\":6390:6416  _getInitializableStorage() */\n      tag_140\n        /* \"@openzeppelin/contracts-upgradeable/proxy/utils/Initializable.sol\":6390:6414  _getInitializableStorage */\n      tag_141\n        /* \"@openzeppelin/contracts-upgradeable/proxy/utils/Initializable.sol\":6390:6416  _getInitializableStorage() */\n      jump\t// in\n    tag_140:\n        /* \"@openzeppelin/contracts-upgradeable/proxy/utils/Initializable.sol\":6357:6416  InitializableStorage storage $ = _getInitializableStorage() */\n      swap1\n      pop\n        /* \"@openzeppelin/contracts-upgradeable/proxy/utils/Initializable.sol\":6431:6432  $ */\n      dup1\n        /* \"@openzeppelin/contracts-upgradeable/proxy/utils/Initializable.sol\":6431:6446  $._initializing */\n      0x00\n      add\n      0x08\n      swap1\n      sload\n      swap1\n      0x0100\n      exp\n      swap1\n      div\n      0xff\n      and\n        /* \"@openzeppelin/contracts-upgradeable/proxy/utils/Initializable.sol\":6431:6475  $._initializing || $._initialized >= version */\n      dup1\n      tag_142\n      jumpi\n      pop\n        /* \"@openzeppelin/contracts-upgradeable/proxy/utils/Initializable.sol\":6468:6475  version */\n      dup2\n        /* \"@openzeppelin/contracts-upgradeable/proxy/utils/Initializable.sol\":6450:6475  $._initialized >= version */\n      0xffffffffffffffff\n      and\n        /* \"@openzeppelin/contracts-upgradeable/proxy/utils/Initializable.sol\":6450:6451  $ */\n      dup2\n        /* \"@openzeppelin/contracts-upgradeable/proxy/utils/Initializable.sol\":6450:6464  $._initialized */\n      0x00\n      add\n      0x00\n      swap1\n      sload\n      swap1\n      0x0100\n      exp\n      swap1\n      div\n      0xffffffffffffffff\n      and\n        /* \"@openzeppelin/contracts-upgradeable/proxy/utils/Initializable.sol\":6450:6475  $._initialized >= version */\n      0xffffffffffffffff\n      and\n      lt\n      iszero\n        /* \"@openzeppelin/contracts-upgradeable/proxy/utils/Initializable.sol\":6431:6475  $._initializing || $._initialized >= version */\n    tag_142:\n        /* \"@openzeppelin/contracts-upgradeable/proxy/utils/Initializable.sol\":6427:6532  if ($._initializing || $._initialized >= version) {... */\n      iszero\n      tag_143\n      jumpi\n        /* \"@openzeppelin/contracts-upgradeable/proxy/utils/Initializable.sol\":6498:6521  InvalidInitialization() */\n      mload(0x40)\n      0xf92ee8a900000000000000000000000000000000000000000000000000000000\n      dup2\n      mstore\n      0x04\n      add\n      mload(0x40)\n      dup1\n      swap2\n      sub\n      swap1\n      revert\n        /* \"@openzeppelin/contracts-upgradeable/proxy/utils/Initializable.sol\":6427:6532  if ($._initializing || $._initialized >= version) {... */\n    tag_143:\n        /* \"@openzeppelin/contracts-upgradeable/proxy/utils/Initializable.sol\":6558:6565  version */\n      dup2\n        /* \"@openzeppelin/contracts-upgradeable/proxy/utils/Initializable.sol\":6541:6542  $ */\n      dup2\n        /* \"@openzeppelin/contracts-upgradeable/proxy/utils/Initializable.sol\":6541:6555  $._initialized */\n      0x00\n      add\n      0x00\n        /* \"@openzeppelin/contracts-upgradeable/proxy/utils/Initializable.sol\":6541:6565  $._initialized = version */\n      0x0100\n      exp\n      dup2\n      sload\n      dup2\n      0xffffffffffffffff\n      mul\n      not\n      and\n      swap1\n      dup4\n      0xffffffffffffffff\n      and\n      mul\n      or\n      swap1\n      sstore\n      pop\n        /* \"@openzeppelin/contracts-upgradeable/proxy/utils/Initializable.sol\":6593:6597  true */\n      0x01\n        /* \"@openzeppelin/contracts-upgradeable/proxy/utils/Initializable.sol\":6575:6576  $ */\n      dup2\n        /* \"@openzeppelin/contracts-upgradeable/proxy/utils/Initializable.sol\":6575:6590  $._initializing */\n      0x00\n      add\n      0x08\n        /* \"@openzeppelin/contracts-upgradeable/proxy/utils/Initializable.sol\":6575:6597  $._initializing = true */\n      0x0100\n      exp\n      dup2\n      sload\n      dup2\n      0xff\n      mul\n      not\n      and\n      swap1\n      dup4\n      iszero\n      iszero\n      mul\n      or\n      swap1\n      sstore\n      pop\n        /* \"contracts/UUPSUpgrade/DemoV2.sol\":603:610  _number */\n      dup3\n        /* \"contracts/UUPSUpgrade/DemoV2.sol\":593:600  number1 */\n      0x01\n        /* \"contracts/UUPSUpgrade/DemoV2.sol\":593:610  number1 = _number */\n      dup2\n      swap1\n      sstore\n      pop\n        /* \"@openzeppelin/contracts-upgradeable/proxy/utils/Initializable.sol\":6636:6641  false */\n      0x00\n        /* \"@openzeppelin/contracts-upgradeable/proxy/utils/Initializable.sol\":6618:6619  $ */\n      dup2\n        /* \"@openzeppelin/contracts-upgradeable/proxy/utils/Initializable.sol\":6618:6633  $._initializing */\n      0x00\n      add\n      0x08\n        /* \"@openzeppelin/contracts-upgradeable/proxy/utils/Initializable.sol\":6618:6641  $._initializing = false */\n      0x0100\n      exp\n      dup2\n      sload\n      dup2\n      0xff\n      mul\n      not\n      and\n      swap1\n      dup4\n      iszero\n      iszero\n      mul\n      or\n      swap1\n      sstore\n      pop\n        /* \"@openzeppelin/contracts-upgradeable/proxy/utils/Initializable.sol\":6656:6676  Initialized(version) */\n      0xc7f505b2f371ae2175ee4913f4499e1f2633a7b5936321eed1cdaeb6115181d2\n        /* \"@openzeppelin/contracts-upgradeable/proxy/utils/Initializable.sol\":6668:6675  version */\n      dup3\n        /* \"@openzeppelin/contracts-upgradeable/proxy/utils/Initializable.sol\":6656:6676  Initialized(version) */\n      mload(0x40)\n      tag_145\n      swap2\n      swap1\n      tag_146\n      jump\t// in\n    tag_145:\n      mload(0x40)\n      dup1\n      swap2\n      sub\n      swap1\n      log1\n        /* \"@openzeppelin/contracts-upgradeable/proxy/utils/Initializable.sol\":6291:6683  {... */\n      pop\n        /* \"contracts/UUPSUpgrade/DemoV2.sol\":521:618  function initialize(uint256 _number) public reinitializer(2) {... */\n      pop\n      pop\n      jump\t// out\n        /* \"@openzeppelin/contracts-upgradeable/proxy/utils/UUPSUpgradeable.sol\":4599:4911  function _checkProxy() internal view virtual {... */\n    tag_89:\n        /* \"@openzeppelin/contracts-upgradeable/proxy/utils/UUPSUpgradeable.sol\":4688:4694  __self */\n      immutable(\"0x0b83f23a4eeb8c3f5f7d5934a2289bcf0186d09a12e1b7f20adf54e4b179db15\")\n        /* \"@openzeppelin/contracts-upgradeable/proxy/utils/UUPSUpgradeable.sol\":4671:4694  address(this) == __self */\n      0xffffffffffffffffffffffffffffffffffffffff\n      and\n        /* \"@openzeppelin/contracts-upgradeable/proxy/utils/UUPSUpgradeable.sol\":4679:4683  this */\n      address\n        /* \"@openzeppelin/contracts-upgradeable/proxy/utils/UUPSUpgradeable.sol\":4671:4694  address(this) == __self */\n      0xffffffffffffffffffffffffffffffffffffffff\n      and\n      eq\n        /* \"@openzeppelin/contracts-upgradeable/proxy/utils/UUPSUpgradeable.sol\":4671:4791  address(this) == __self || // Must be called through delegatecall... */\n      dup1\n      tag_148\n      jumpi\n      pop\n        /* \"@openzeppelin/contracts-upgradeable/proxy/utils/UUPSUpgradeable.sol\":4785:4791  __self */\n      immutable(\"0x0b83f23a4eeb8c3f5f7d5934a2289bcf0186d09a12e1b7f20adf54e4b179db15\")\n        /* \"@openzeppelin/contracts-upgradeable/proxy/utils/UUPSUpgradeable.sol\":4749:4791  ERC1967Utils.getImplementation() != __self */\n      0xffffffffffffffffffffffffffffffffffffffff\n      and\n        /* \"@openzeppelin/contracts-upgradeable/proxy/utils/UUPSUpgradeable.sol\":4749:4781  ERC1967Utils.getImplementation() */\n      tag_149\n        /* \"@openzeppelin/contracts-upgradeable/proxy/utils/UUPSUpgradeable.sol\":4749:4779  ERC1967Utils.getImplementation */\n      tag_150\n        /* \"@openzeppelin/contracts-upgradeable/proxy/utils/UUPSUpgradeable.sol\":4749:4781  ERC1967Utils.getImplementation() */\n      jump\t// in\n    tag_149:\n        /* \"@openzeppelin/contracts-upgradeable/proxy/utils/UUPSUpgradeable.sol\":4749:4791  ERC1967Utils.getImplementation() != __self */\n      0xffffffffffffffffffffffffffffffffffffffff\n      and\n      eq\n      iszero\n        /* \"@openzeppelin/contracts-upgradeable/proxy/utils/UUPSUpgradeable.sol\":4671:4791  address(this) == __self || // Must be called through delegatecall... */\n    tag_148:\n        /* \"@openzeppelin/contracts-upgradeable/proxy/utils/UUPSUpgradeable.sol\":4654:4905  if (... */\n      iszero\n      tag_151\n      jumpi\n        /* \"@openzeppelin/contracts-upgradeable/proxy/utils/UUPSUpgradeable.sol\":4865:4894  UUPSUnauthorizedCallContext() */\n      mload(0x40)\n      0xe07c8dba00000000000000000000000000000000000000000000000000000000\n      dup2\n      mstore\n      0x04\n      add\n      mload(0x40)\n      dup1\n      swap2\n      sub\n      swap1\n      revert\n        /* \"@openzeppelin/contracts-upgradeable/proxy/utils/UUPSUpgradeable.sol\":4654:4905  if (... */\n    tag_151:\n        /* \"@openzeppelin/contracts-upgradeable/proxy/utils/UUPSUpgradeable.sol\":4599:4911  function _checkProxy() internal view virtual {... */\n      jump\t// out\n        /* \"contracts/UUPSUpgrade/DemoV2.sol\":1488:1604  function _authorizeUpgrade(address newImplementation)... */\n    tag_101:\n        /* \"@openzeppelin/contracts-upgradeable/access/OwnableUpgradeable.sol\":2334:2347  _checkOwner() */\n      tag_153\n        /* \"@openzeppelin/contracts-upgradeable/access/OwnableUpgradeable.sol\":2334:2345  _checkOwner */\n      tag_110\n        /* \"@openzeppelin/contracts-upgradeable/access/OwnableUpgradeable.sol\":2334:2347  _checkOwner() */\n      jump\t// in\n    tag_153:\n        /* \"contracts/UUPSUpgrade/DemoV2.sol\":1488:1604  function _authorizeUpgrade(address newImplementation)... */\n      pop\n      jump\t// out\n        /* \"@openzeppelin/contracts-upgradeable/proxy/utils/UUPSUpgradeable.sol\":6052:6590  function _upgradeToAndCallUUPS(address newImplementation, bytes memory data) private {... */\n    tag_103:\n        /* \"@openzeppelin/contracts-upgradeable/proxy/utils/UUPSUpgradeable.sol\":6169:6186  newImplementation */\n      dup2\n        /* \"@openzeppelin/contracts-upgradeable/proxy/utils/UUPSUpgradeable.sol\":6151:6201  IERC1822Proxiable(newImplementation).proxiableUUID */\n      0xffffffffffffffffffffffffffffffffffffffff\n      and\n      0x52d1902d\n        /* \"@openzeppelin/contracts-upgradeable/proxy/utils/UUPSUpgradeable.sol\":6151:6203  IERC1822Proxiable(newImplementation).proxiableUUID() */\n      mload(0x40)\n      dup2\n      0xffffffff\n      and\n      0xe0\n      shl\n      dup2\n      mstore\n      0x04\n      add\n      0x20\n      mload(0x40)\n      dup1\n      dup4\n      sub\n      dup2\n      dup7\n      gas\n      staticcall\n      swap3\n      pop\n      pop\n      pop\n      dup1\n      iszero\n      tag_156\n      jumpi\n      pop\n      mload(0x40)\n      returndatasize\n      not(0x1f)\n      0x1f\n      dup3\n      add\n      and\n      dup3\n      add\n      dup1\n      0x40\n      mstore\n      pop\n      dup2\n      add\n      swap1\n      tag_157\n      swap2\n      swap1\n      tag_158\n      jump\t// in\n    tag_157:\n      0x01\n    tag_156:\n        /* \"@openzeppelin/contracts-upgradeable/proxy/utils/UUPSUpgradeable.sol\":6147:6584  try IERC1822Proxiable(newImplementation).proxiableUUID() returns (bytes32 slot) {... */\n      tag_159\n      jumpi\n        /* \"@openzeppelin/contracts-upgradeable/proxy/utils/UUPSUpgradeable.sol\":6555:6572  newImplementation */\n      dup2\n        /* \"@openzeppelin/contracts-upgradeable/proxy/utils/UUPSUpgradeable.sol\":6513:6573  ERC1967Utils.ERC1967InvalidImplementation(newImplementation) */\n      mload(0x40)\n      0x4c9c8ce300000000000000000000000000000000000000000000000000000000\n      dup2\n      mstore\n      0x04\n      add\n      tag_163\n      swap2\n      swap1\n      tag_47\n      jump\t// in\n    tag_163:\n      mload(0x40)\n      dup1\n      swap2\n      sub\n      swap1\n      revert\n        /* \"@openzeppelin/contracts-upgradeable/proxy/utils/UUPSUpgradeable.sol\":6147:6584  try IERC1822Proxiable(newImplementation).proxiableUUID() returns (bytes32 slot) {... */\n    tag_159:\n        /* \"@openzeppelin/contracts/proxy/ERC1967/ERC1967Utils.sol\":1327:1393  0x360894a13ba1a3210667c828492db98dca3e2076cc3735a920a3ca505d382bbc */\n      0x360894a13ba1a3210667c828492db98dca3e2076cc3735a920a3ca505d382bbc\n        /* \"@openzeppelin/contracts-upgradeable/proxy/utils/UUPSUpgradeable.sol\":6253:6285  ERC1967Utils.IMPLEMENTATION_SLOT */\n      0x00\n      shl\n        /* \"@openzeppelin/contracts-upgradeable/proxy/utils/UUPSUpgradeable.sol\":6245:6249  slot */\n      dup2\n        /* \"@openzeppelin/contracts-upgradeable/proxy/utils/UUPSUpgradeable.sol\":6245:6285  slot != ERC1967Utils.IMPLEMENTATION_SLOT */\n      eq\n        /* \"@openzeppelin/contracts-upgradeable/proxy/utils/UUPSUpgradeable.sol\":6241:6361  if (slot != ERC1967Utils.IMPLEMENTATION_SLOT) {... */\n      tag_165\n      jumpi\n        /* \"@openzeppelin/contracts-upgradeable/proxy/utils/UUPSUpgradeable.sol\":6341:6345  slot */\n      dup1\n        /* \"@openzeppelin/contracts-upgradeable/proxy/utils/UUPSUpgradeable.sol\":6312:6346  UUPSUnsupportedProxiableUUID(slot) */\n      mload(0x40)\n      0xaa1d49a400000000000000000000000000000000000000000000000000000000\n      dup2\n      mstore\n      0x04\n      add\n      tag_166\n      swap2\n      swap1\n      tag_34\n      jump\t// in\n    tag_166:\n      mload(0x40)\n      dup1\n      swap2\n      sub\n      swap1\n      revert\n        /* \"@openzeppelin/contracts-upgradeable/proxy/utils/UUPSUpgradeable.sol\":6241:6361  if (slot != ERC1967Utils.IMPLEMENTATION_SLOT) {... */\n    tag_165:\n        /* \"@openzeppelin/contracts-upgradeable/proxy/utils/UUPSUpgradeable.sol\":6374:6428  ERC1967Utils.upgradeToAndCall(newImplementation, data) */\n      tag_167\n        /* \"@openzeppelin/contracts-upgradeable/proxy/utils/UUPSUpgradeable.sol\":6404:6421  newImplementation */\n      dup4\n        /* \"@openzeppelin/contracts-upgradeable/proxy/utils/UUPSUpgradeable.sol\":6423:6427  data */\n      dup4\n        /* \"@openzeppelin/contracts-upgradeable/proxy/utils/UUPSUpgradeable.sol\":6374:6403  ERC1967Utils.upgradeToAndCall */\n      tag_168\n        /* \"@openzeppelin/contracts-upgradeable/proxy/utils/UUPSUpgradeable.sol\":6374:6428  ERC1967Utils.upgradeToAndCall(newImplementation, data) */\n      jump\t// in\n    tag_167:\n        /* \"@openzeppelin/contracts-upgradeable/proxy/utils/UUPSUpgradeable.sol\":6204:6439  returns (bytes32 slot) {... */\n      pop\n        /* \"@openzeppelin/contracts-upgradeable/proxy/utils/UUPSUpgradeable.sol\":6052:6590  function _upgradeToAndCallUUPS(address newImplementation, bytes memory data) private {... */\n      pop\n      pop\n      jump\t// out\n        /* \"@openzeppelin/contracts-upgradeable/proxy/utils/UUPSUpgradeable.sol\":5028:5241  function _checkNotDelegated() internal view virtual {... */\n    tag_106:\n        /* \"@openzeppelin/contracts-upgradeable/proxy/utils/UUPSUpgradeable.sol\":5111:5117  __self */\n      immutable(\"0x0b83f23a4eeb8c3f5f7d5934a2289bcf0186d09a12e1b7f20adf54e4b179db15\")\n        /* \"@openzeppelin/contracts-upgradeable/proxy/utils/UUPSUpgradeable.sol\":5094:5117  address(this) != __self */\n      0xffffffffffffffffffffffffffffffffffffffff\n      and\n        /* \"@openzeppelin/contracts-upgradeable/proxy/utils/UUPSUpgradeable.sol\":5102:5106  this */\n      address\n        /* \"@openzeppelin/contracts-upgradeable/proxy/utils/UUPSUpgradeable.sol\":5094:5117  address(this) != __self */\n      0xffffffffffffffffffffffffffffffffffffffff\n      and\n      eq\n        /* \"@openzeppelin/contracts-upgradeable/proxy/utils/UUPSUpgradeable.sol\":5090:5235  if (address(this) != __self) {... */\n      tag_170\n      jumpi\n        /* \"@openzeppelin/contracts-upgradeable/proxy/utils/UUPSUpgradeable.sol\":5195:5224  UUPSUnauthorizedCallContext() */\n      mload(0x40)\n      0xe07c8dba00000000000000000000000000000000000000000000000000000000\n      dup2\n      mstore\n      0x04\n      add\n      mload(0x40)\n      dup1\n      swap2\n      sub\n      swap1\n      revert\n        /* \"@openzeppelin/contracts-upgradeable/proxy/utils/UUPSUpgradeable.sol\":5090:5235  if (address(this) != __self) {... */\n    tag_170:\n        /* \"@openzeppelin/contracts-upgradeable/proxy/utils/UUPSUpgradeable.sol\":5028:5241  function _checkNotDelegated() internal view virtual {... */\n      jump\t// out\n        /* \"@openzeppelin/contracts-upgradeable/access/OwnableUpgradeable.sol\":2658:2820  function _checkOwner() internal view virtual {... */\n    tag_110:\n        /* \"@openzeppelin/contracts-upgradeable/access/OwnableUpgradeable.sol\":2728:2740  _msgSender() */\n      tag_172\n        /* \"@openzeppelin/contracts-upgradeable/access/OwnableUpgradeable.sol\":2728:2738  _msgSender */\n      tag_173\n        /* \"@openzeppelin/contracts-upgradeable/access/OwnableUpgradeable.sol\":2728:2740  _msgSender() */\n      jump\t// in\n    tag_172:\n        /* \"@openzeppelin/contracts-upgradeable/access/OwnableUpgradeable.sol\":2717:2740  owner() != _msgSender() */\n      0xffffffffffffffffffffffffffffffffffffffff\n      and\n        /* \"@openzeppelin/contracts-upgradeable/access/OwnableUpgradeable.sol\":2717:2724  owner() */\n      tag_174\n        /* \"@openzeppelin/contracts-upgradeable/access/OwnableUpgradeable.sol\":2717:2722  owner */\n      tag_45\n        /* \"@openzeppelin/contracts-upgradeable/access/OwnableUpgradeable.sol\":2717:2724  owner() */\n      jump\t// in\n    tag_174:\n        /* \"@openzeppelin/contracts-upgradeable/access/OwnableUpgradeable.sol\":2717:2740  owner() != _msgSender() */\n      0xffffffffffffffffffffffffffffffffffffffff\n      and\n      eq\n        /* \"@openzeppelin/contracts-upgradeable/access/OwnableUpgradeable.sol\":2713:2814  if (owner() != _msgSender()) {... */\n      tag_175\n      jumpi\n        /* \"@openzeppelin/contracts-upgradeable/access/OwnableUpgradeable.sol\":2790:2802  _msgSender() */\n      tag_176\n        /* \"@openzeppelin/contracts-upgradeable/access/OwnableUpgradeable.sol\":2790:2800  _msgSender */\n      tag_173\n        /* \"@openzeppelin/contracts-upgradeable/access/OwnableUpgradeable.sol\":2790:2802  _msgSender() */\n      jump\t// in\n    tag_176:\n        /* \"@openzeppelin/contracts-upgradeable/access/OwnableUpgradeable.sol\":2763:2803  OwnableUnauthorizedAccount(_msgSender()) */\n      mload(0x40)\n      0x118cdaa700000000000000000000000000000000000000000000000000000000\n      dup2\n      mstore\n      0x04\n      add\n      tag_177\n      swap2\n      swap1\n      tag_47\n      jump\t// in\n    tag_177:\n      mload(0x40)\n      dup1\n      swap2\n      sub\n      swap1\n      revert\n        /* \"@openzeppelin/contracts-upgradeable/access/OwnableUpgradeable.sol\":2713:2814  if (owner() != _msgSender()) {... */\n    tag_175:\n        /* \"@openzeppelin/contracts-upgradeable/access/OwnableUpgradeable.sol\":2658:2820  function _checkOwner() internal view virtual {... */\n      jump\t// out\n        /* \"@openzeppelin/contracts-upgradeable/access/OwnableUpgradeable.sol\":3774:4022  function _transferOwnership(address newOwner) internal virtual {... */\n    tag_113:\n        /* \"@openzeppelin/contracts-upgradeable/access/OwnableUpgradeable.sol\":3847:3871  OwnableStorage storage $ */\n      0x00\n        /* \"@openzeppelin/contracts-upgradeable/access/OwnableUpgradeable.sol\":3874:3894  _getOwnableStorage() */\n      tag_179\n        /* \"@openzeppelin/contracts-upgradeable/access/OwnableUpgradeable.sol\":3874:3892  _getOwnableStorage */\n      tag_116\n        /* \"@openzeppelin/contracts-upgradeable/access/OwnableUpgradeable.sol\":3874:3894  _getOwnableStorage() */\n      jump\t// in\n    tag_179:\n        /* \"@openzeppelin/contracts-upgradeable/access/OwnableUpgradeable.sol\":3847:3894  OwnableStorage storage $ = _getOwnableStorage() */\n      swap1\n      pop\n        /* \"@openzeppelin/contracts-upgradeable/access/OwnableUpgradeable.sol\":3904:3920  address oldOwner */\n      0x00\n        /* \"@openzeppelin/contracts-upgradeable/access/OwnableUpgradeable.sol\":3923:3924  $ */\n      dup2\n        /* \"@openzeppelin/contracts-upgradeable/access/OwnableUpgradeable.sol\":3923:3931  $._owner */\n      0x00\n      add\n      0x00\n      swap1\n      sload\n      swap1\n      0x0100\n      exp\n      swap1\n      div\n      0xffffffffffffffffffffffffffffffffffffffff\n      and\n        /* \"@openzeppelin/contracts-upgradeable/access/OwnableUpgradeable.sol\":3904:3931  address oldOwner = $._owner */\n      swap1\n      pop\n        /* \"@openzeppelin/contracts-upgradeable/access/OwnableUpgradeable.sol\":3952:3960  newOwner */\n      dup3\n        /* \"@openzeppelin/contracts-upgradeable/access/OwnableUpgradeable.sol\":3941:3942  $ */\n      dup3\n        /* \"@openzeppelin/contracts-upgradeable/access/OwnableUpgradeable.sol\":3941:3949  $._owner */\n      0x00\n      add\n      0x00\n        /* \"@openzeppelin/contracts-upgradeable/access/OwnableUpgradeable.sol\":3941:3960  $._owner = newOwner */\n      0x0100\n      exp\n      dup2\n      sload\n      dup2\n      0xffffffffffffffffffffffffffffffffffffffff\n      mul\n      not\n      and\n      swap1\n      dup4\n      0xffffffffffffffffffffffffffffffffffffffff\n      and\n      mul\n      or\n      swap1\n      sstore\n      pop\n        /* \"@openzeppelin/contracts-upgradeable/access/OwnableUpgradeable.sol\":4006:4014  newOwner */\n      dup3\n        /* \"@openzeppelin/contracts-upgradeable/access/OwnableUpgradeable.sol\":3975:4015  OwnershipTransferred(oldOwner, newOwner) */\n      0xffffffffffffffffffffffffffffffffffffffff\n      and\n        /* \"@openzeppelin/contracts-upgradeable/access/OwnableUpgradeable.sol\":3996:4004  oldOwner */\n      dup2\n        /* \"@openzeppelin/contracts-upgradeable/access/OwnableUpgradeable.sol\":3975:4015  OwnershipTransferred(oldOwner, newOwner) */\n      0xffffffffffffffffffffffffffffffffffffffff\n      and\n      0x8be0079c531659141344cd1fd0a4f28419497f9722a3daafe3b4186f6b6457e0\n      mload(0x40)\n      mload(0x40)\n      dup1\n      swap2\n      sub\n      swap1\n      log3\n        /* \"@openzeppelin/contracts-upgradeable/access/OwnableUpgradeable.sol\":3837:4022  {... */\n      pop\n      pop\n        /* \"@openzeppelin/contracts-upgradeable/access/OwnableUpgradeable.sol\":3774:4022  function _transferOwnership(address newOwner) internal virtual {... */\n      pop\n      jump\t// out\n        /* \"@openzeppelin/contracts-upgradeable/access/OwnableUpgradeable.sol\":1192:1351  function _getOwnableStorage() private pure returns (OwnableStorage storage $) {... */\n    tag_116:\n        /* \"@openzeppelin/contracts-upgradeable/access/OwnableUpgradeable.sol\":1244:1268  OwnableStorage storage $ */\n      0x00\n        /* \"@openzeppelin/contracts-upgradeable/access/OwnableUpgradeable.sol\":1313:1335  OwnableStorageLocation */\n      0x9016d09d72d40fdae2fd8ceac6b6234c7706214fd39c1cd1e609a0528c199300\n        /* \"@openzeppelin/contracts-upgradeable/access/OwnableUpgradeable.sol\":1303:1335  $.slot := OwnableStorageLocation */\n      swap1\n      pop\n        /* \"@openzeppelin/contracts-upgradeable/access/OwnableUpgradeable.sol\":1192:1351  function _getOwnableStorage() private pure returns (OwnableStorage storage $) {... */\n      swap1\n      jump\t// out\n        /* \"@openzeppelin/contracts-upgradeable/proxy/utils/Initializable.sol\":8737:8907  function _getInitializableStorage() private pure returns (InitializableStorage storage $) {... */\n    tag_141:\n        /* \"@openzeppelin/contracts-upgradeable/proxy/utils/Initializable.sol\":8795:8825  InitializableStorage storage $ */\n      0x00\n        /* \"@openzeppelin/contracts-upgradeable/proxy/utils/Initializable.sol\":8870:8891  INITIALIZABLE_STORAGE */\n      0xf0c57e16840df040f15088dc2f81fe391c3923bec73e23a9662efc9c229c6a00\n        /* \"@openzeppelin/contracts-upgradeable/proxy/utils/Initializable.sol\":8860:8891  $.slot := INITIALIZABLE_STORAGE */\n      swap1\n      pop\n        /* \"@openzeppelin/contracts-upgradeable/proxy/utils/Initializable.sol\":8737:8907  function _getInitializableStorage() private pure returns (InitializableStorage storage $) {... */\n      swap1\n      jump\t// out\n        /* \"@openzeppelin/contracts/proxy/ERC1967/ERC1967Utils.sol\":1957:2095  function getImplementation() internal view returns (address) {... */\n    tag_150:\n        /* \"@openzeppelin/contracts/proxy/ERC1967/ERC1967Utils.sol\":2009:2016  address */\n      0x00\n        /* \"@openzeppelin/contracts/proxy/ERC1967/ERC1967Utils.sol\":2035:2082  StorageSlot.getAddressSlot(IMPLEMENTATION_SLOT) */\n      tag_183\n        /* \"@openzeppelin/contracts/proxy/ERC1967/ERC1967Utils.sol\":1327:1393  0x360894a13ba1a3210667c828492db98dca3e2076cc3735a920a3ca505d382bbc */\n      0x360894a13ba1a3210667c828492db98dca3e2076cc3735a920a3ca505d382bbc\n        /* \"@openzeppelin/contracts/proxy/ERC1967/ERC1967Utils.sol\":2062:2081  IMPLEMENTATION_SLOT */\n      0x00\n      shl\n        /* \"@openzeppelin/contracts/proxy/ERC1967/ERC1967Utils.sol\":2035:2061  StorageSlot.getAddressSlot */\n      tag_184\n        /* \"@openzeppelin/contracts/proxy/ERC1967/ERC1967Utils.sol\":2035:2082  StorageSlot.getAddressSlot(IMPLEMENTATION_SLOT) */\n      jump\t// in\n    tag_183:\n        /* \"@openzeppelin/contracts/proxy/ERC1967/ERC1967Utils.sol\":2035:2088  StorageSlot.getAddressSlot(IMPLEMENTATION_SLOT).value */\n      0x00\n      add\n      0x00\n      swap1\n      sload\n      swap1\n      0x0100\n      exp\n      swap1\n      div\n      0xffffffffffffffffffffffffffffffffffffffff\n      and\n        /* \"@openzeppelin/contracts/proxy/ERC1967/ERC1967Utils.sol\":2028:2088  return StorageSlot.getAddressSlot(IMPLEMENTATION_SLOT).value */\n      swap1\n      pop\n        /* \"@openzeppelin/contracts/proxy/ERC1967/ERC1967Utils.sol\":1957:2095  function getImplementation() internal view returns (address) {... */\n      swap1\n      jump\t// out\n        /* \"@openzeppelin/contracts/proxy/ERC1967/ERC1967Utils.sol\":2779:3114  function upgradeToAndCall(address newImplementation, bytes memory data) internal {... */\n    tag_168:\n        /* \"@openzeppelin/contracts/proxy/ERC1967/ERC1967Utils.sol\":2870:2907  _setImplementation(newImplementation) */\n      tag_186\n        /* \"@openzeppelin/contracts/proxy/ERC1967/ERC1967Utils.sol\":2889:2906  newImplementation */\n      dup3\n        /* \"@openzeppelin/contracts/proxy/ERC1967/ERC1967Utils.sol\":2870:2888  _setImplementation */\n      tag_187\n        /* \"@openzeppelin/contracts/proxy/ERC1967/ERC1967Utils.sol\":2870:2907  _setImplementation(newImplementation) */\n      jump\t// in\n    tag_186:\n        /* \"@openzeppelin/contracts/proxy/ERC1967/ERC1967Utils.sol\":2931:2948  newImplementation */\n      dup2\n        /* \"@openzeppelin/contracts/proxy/ERC1967/ERC1967Utils.sol\":2922:2949  Upgraded(newImplementation) */\n      0xffffffffffffffffffffffffffffffffffffffff\n      and\n      0xbc7cd75a20ee27fd9adebab32041f755214dbc6bffa90cc0225b39da2e5c2d3b\n      mload(0x40)\n      mload(0x40)\n      dup1\n      swap2\n      sub\n      swap1\n      log2\n        /* \"@openzeppelin/contracts/proxy/ERC1967/ERC1967Utils.sol\":2978:2979  0 */\n      0x00\n        /* \"@openzeppelin/contracts/proxy/ERC1967/ERC1967Utils.sol\":2964:2968  data */\n      dup2\n        /* \"@openzeppelin/contracts/proxy/ERC1967/ERC1967Utils.sol\":2964:2975  data.length */\n      mload\n        /* \"@openzeppelin/contracts/proxy/ERC1967/ERC1967Utils.sol\":2964:2979  data.length > 0 */\n      gt\n        /* \"@openzeppelin/contracts/proxy/ERC1967/ERC1967Utils.sol\":2960:3108  if (data.length > 0) {... */\n      iszero\n      tag_188\n      jumpi\n        /* \"@openzeppelin/contracts/proxy/ERC1967/ERC1967Utils.sol\":2995:3048  Address.functionDelegateCall(newImplementation, data) */\n      tag_189\n        /* \"@openzeppelin/contracts/proxy/ERC1967/ERC1967Utils.sol\":3024:3041  newImplementation */\n      dup3\n        /* \"@openzeppelin/contracts/proxy/ERC1967/ERC1967Utils.sol\":3043:3047  data */\n      dup3\n        /* \"@openzeppelin/contracts/proxy/ERC1967/ERC1967Utils.sol\":2995:3023  Address.functionDelegateCall */\n      tag_190\n        /* \"@openzeppelin/contracts/proxy/ERC1967/ERC1967Utils.sol\":2995:3048  Address.functionDelegateCall(newImplementation, data) */\n      jump\t// in\n    tag_189:\n      pop\n        /* \"@openzeppelin/contracts/proxy/ERC1967/ERC1967Utils.sol\":2960:3108  if (data.length > 0) {... */\n      jump(tag_191)\n    tag_188:\n        /* \"@openzeppelin/contracts/proxy/ERC1967/ERC1967Utils.sol\":3079:3097  _checkNonPayable() */\n      tag_192\n        /* \"@openzeppelin/contracts/proxy/ERC1967/ERC1967Utils.sol\":3079:3095  _checkNonPayable */\n      tag_193\n        /* \"@openzeppelin/contracts/proxy/ERC1967/ERC1967Utils.sol\":3079:3097  _checkNonPayable() */\n      jump\t// in\n    tag_192:\n        /* \"@openzeppelin/contracts/proxy/ERC1967/ERC1967Utils.sol\":2960:3108  if (data.length > 0) {... */\n    tag_191:\n        /* \"@openzeppelin/contracts/proxy/ERC1967/ERC1967Utils.sol\":2779:3114  function upgradeToAndCall(address newImplementation, bytes memory data) internal {... */\n      pop\n      pop\n      jump\t// out\n        /* \"@openzeppelin/contracts-upgradeable/utils/ContextUpgradeable.sol\":887:983  function _msgSender() internal view virtual returns (address) {... */\n    tag_173:\n        /* \"@openzeppelin/contracts-upgradeable/utils/ContextUpgradeable.sol\":940:947  address */\n      0x00\n        /* \"@openzeppelin/contracts-upgradeable/utils/ContextUpgradeable.sol\":966:976  msg.sender */\n      caller\n        /* \"@openzeppelin/contracts-upgradeable/utils/ContextUpgradeable.sol\":959:976  return msg.sender */\n      swap1\n      pop\n        /* \"@openzeppelin/contracts-upgradeable/utils/ContextUpgradeable.sol\":887:983  function _msgSender() internal view virtual returns (address) {... */\n      swap1\n      jump\t// out\n        /* \"@openzeppelin/contracts/utils/StorageSlot.sol\":1684:1874  function getAddressSlot(bytes32 slot) internal pure returns (AddressSlot storage r) {... */\n    tag_184:\n        /* \"@openzeppelin/contracts/utils/StorageSlot.sol\":1745:1766  AddressSlot storage r */\n      0x00\n        /* \"@openzeppelin/contracts/utils/StorageSlot.sol\":1854:1858  slot */\n      dup2\n        /* \"@openzeppelin/contracts/utils/StorageSlot.sol\":1844:1858  r.slot := slot */\n      swap1\n      pop\n        /* \"@openzeppelin/contracts/utils/StorageSlot.sol\":1684:1874  function getAddressSlot(bytes32 slot) internal pure returns (AddressSlot storage r) {... */\n      swap2\n      swap1\n      pop\n      jump\t// out\n        /* \"@openzeppelin/contracts/proxy/ERC1967/ERC1967Utils.sol\":2186:2467  function _setImplementation(address newImplementation) private {... */\n    tag_187:\n        /* \"@openzeppelin/contracts/proxy/ERC1967/ERC1967Utils.sol\":2296:2297  0 */\n      0x00\n        /* \"@openzeppelin/contracts/proxy/ERC1967/ERC1967Utils.sol\":2263:2280  newImplementation */\n      dup2\n        /* \"@openzeppelin/contracts/proxy/ERC1967/ERC1967Utils.sol\":2263:2292  newImplementation.code.length */\n      0xffffffffffffffffffffffffffffffffffffffff\n      and\n      extcodesize\n        /* \"@openzeppelin/contracts/proxy/ERC1967/ERC1967Utils.sol\":2263:2297  newImplementation.code.length == 0 */\n      sub\n        /* \"@openzeppelin/contracts/proxy/ERC1967/ERC1967Utils.sol\":2259:2378  if (newImplementation.code.length == 0) {... */\n      tag_197\n      jumpi\n        /* \"@openzeppelin/contracts/proxy/ERC1967/ERC1967Utils.sol\":2349:2366  newImplementation */\n      dup1\n        /* \"@openzeppelin/contracts/proxy/ERC1967/ERC1967Utils.sol\":2320:2367  ERC1967InvalidImplementation(newImplementation) */\n      mload(0x40)\n      0x4c9c8ce300000000000000000000000000000000000000000000000000000000\n      dup2\n      mstore\n      0x04\n      add\n      tag_198\n      swap2\n      swap1\n      tag_47\n      jump\t// in\n    tag_198:\n      mload(0x40)\n      dup1\n      swap2\n      sub\n      swap1\n      revert\n        /* \"@openzeppelin/contracts/proxy/ERC1967/ERC1967Utils.sol\":2259:2378  if (newImplementation.code.length == 0) {... */\n    tag_197:\n        /* \"@openzeppelin/contracts/proxy/ERC1967/ERC1967Utils.sol\":2443:2460  newImplementation */\n      dup1\n        /* \"@openzeppelin/contracts/proxy/ERC1967/ERC1967Utils.sol\":2387:2434  StorageSlot.getAddressSlot(IMPLEMENTATION_SLOT) */\n      tag_199\n        /* \"@openzeppelin/contracts/proxy/ERC1967/ERC1967Utils.sol\":1327:1393  0x360894a13ba1a3210667c828492db98dca3e2076cc3735a920a3ca505d382bbc */\n      0x360894a13ba1a3210667c828492db98dca3e2076cc3735a920a3ca505d382bbc\n        /* \"@openzeppelin/contracts/proxy/ERC1967/ERC1967Utils.sol\":2414:2433  IMPLEMENTATION_SLOT */\n      0x00\n      shl\n        /* \"@openzeppelin/contracts/proxy/ERC1967/ERC1967Utils.sol\":2387:2413  StorageSlot.getAddressSlot */\n      tag_184\n        /* \"@openzeppelin/contracts/proxy/ERC1967/ERC1967Utils.sol\":2387:2434  StorageSlot.getAddressSlot(IMPLEMENTATION_SLOT) */\n      jump\t// in\n    tag_199:\n        /* \"@openzeppelin/contracts/proxy/ERC1967/ERC1967Utils.sol\":2387:2440  StorageSlot.getAddressSlot(IMPLEMENTATION_SLOT).value */\n      0x00\n      add\n      0x00\n        /* \"@openzeppelin/contracts/proxy/ERC1967/ERC1967Utils.sol\":2387:2460  StorageSlot.getAddressSlot(IMPLEMENTATION_SLOT).value = newImplementation */\n      0x0100\n      exp\n      dup2\n      sload\n      dup2\n      0xffffffffffffffffffffffffffffffffffffffff\n      mul\n      not\n      and\n      swap1\n      dup4\n      0xffffffffffffffffffffffffffffffffffffffff\n      and\n      mul\n      or\n      swap1\n      sstore\n      pop\n        /* \"@openzeppelin/contracts/proxy/ERC1967/ERC1967Utils.sol\":2186:2467  function _setImplementation(address newImplementation) private {... */\n      pop\n      jump\t// out\n        /* \"@openzeppelin/contracts/utils/Address.sol\":4106:4359  function functionDelegateCall(address target, bytes memory data) internal returns (bytes memory) {... */\n    tag_190:\n        /* \"@openzeppelin/contracts/utils/Address.sol\":4189:4201  bytes memory */\n      0x60\n        /* \"@openzeppelin/contracts/utils/Address.sol\":4214:4226  bool success */\n      0x00\n        /* \"@openzeppelin/contracts/utils/Address.sol\":4228:4251  bytes memory returndata */\n      dup1\n        /* \"@openzeppelin/contracts/utils/Address.sol\":4255:4261  target */\n      dup5\n        /* \"@openzeppelin/contracts/utils/Address.sol\":4255:4274  target.delegatecall */\n      0xffffffffffffffffffffffffffffffffffffffff\n      and\n        /* \"@openzeppelin/contracts/utils/Address.sol\":4275:4279  data */\n      dup5\n        /* \"@openzeppelin/contracts/utils/Address.sol\":4255:4280  target.delegatecall(data) */\n      mload(0x40)\n      tag_201\n      swap2\n      swap1\n      tag_202\n      jump\t// in\n    tag_201:\n      0x00\n      mload(0x40)\n      dup1\n      dup4\n      sub\n      dup2\n      dup6\n      gas\n      delegatecall\n      swap2\n      pop\n      pop\n      returndatasize\n      dup1\n      0x00\n      dup2\n      eq\n      tag_205\n      jumpi\n      mload(0x40)\n      swap2\n      pop\n      and(add(returndatasize, 0x3f), not(0x1f))\n      dup3\n      add\n      0x40\n      mstore\n      returndatasize\n      dup3\n      mstore\n      returndatasize\n      0x00\n      0x20\n      dup5\n      add\n      returndatacopy\n      jump(tag_204)\n    tag_205:\n      0x60\n      swap2\n      pop\n    tag_204:\n      pop\n        /* \"@openzeppelin/contracts/utils/Address.sol\":4213:4280  (bool success, bytes memory returndata) = target.delegatecall(data) */\n      swap2\n      pop\n      swap2\n      pop\n        /* \"@openzeppelin/contracts/utils/Address.sol\":4297:4352  verifyCallResultFromTarget(target, success, returndata) */\n      tag_206\n        /* \"@openzeppelin/contracts/utils/Address.sol\":4324:4330  target */\n      dup6\n        /* \"@openzeppelin/contracts/utils/Address.sol\":4332:4339  success */\n      dup4\n        /* \"@openzeppelin/contracts/utils/Address.sol\":4341:4351  returndata */\n      dup4\n        /* \"@openzeppelin/contracts/utils/Address.sol\":4297:4323  verifyCallResultFromTarget */\n      tag_207\n        /* \"@openzeppelin/contracts/utils/Address.sol\":4297:4352  verifyCallResultFromTarget(target, success, returndata) */\n      jump\t// in\n    tag_206:\n        /* \"@openzeppelin/contracts/utils/Address.sol\":4290:4352  return verifyCallResultFromTarget(target, success, returndata) */\n      swap3\n      pop\n      pop\n      pop\n        /* \"@openzeppelin/contracts/utils/Address.sol\":4106:4359  function functionDelegateCall(address target, bytes memory data) internal returns (bytes memory) {... */\n      swap3\n      swap2\n      pop\n      pop\n      jump\t// out\n        /* \"@openzeppelin/contracts/proxy/ERC1967/ERC1967Utils.sol\":6598:6720  function _checkNonPayable() private {... */\n    tag_193:\n        /* \"@openzeppelin/contracts/proxy/ERC1967/ERC1967Utils.sol\":6660:6661  0 */\n      0x00\n        /* \"@openzeppelin/contracts/proxy/ERC1967/ERC1967Utils.sol\":6648:6657  msg.value */\n      callvalue\n        /* \"@openzeppelin/contracts/proxy/ERC1967/ERC1967Utils.sol\":6648:6661  msg.value > 0 */\n      gt\n        /* \"@openzeppelin/contracts/proxy/ERC1967/ERC1967Utils.sol\":6644:6714  if (msg.value > 0) {... */\n      iszero\n      tag_209\n      jumpi\n        /* \"@openzeppelin/contracts/proxy/ERC1967/ERC1967Utils.sol\":6684:6703  ERC1967NonPayable() */\n      mload(0x40)\n      0xb398979f00000000000000000000000000000000000000000000000000000000\n      dup2\n      mstore\n      0x04\n      add\n      mload(0x40)\n      dup1\n      swap2\n      sub\n      swap1\n      revert\n        /* \"@openzeppelin/contracts/proxy/ERC1967/ERC1967Utils.sol\":6644:6714  if (msg.value > 0) {... */\n    tag_209:\n        /* \"@openzeppelin/contracts/proxy/ERC1967/ERC1967Utils.sol\":6598:6720  function _checkNonPayable() private {... */\n      jump\t// out\n        /* \"@openzeppelin/contracts/utils/Address.sol\":4625:5207  function verifyCallResultFromTarget(... */\n    tag_207:\n        /* \"@openzeppelin/contracts/utils/Address.sol\":4769:4781  bytes memory */\n      0x60\n        /* \"@openzeppelin/contracts/utils/Address.sol\":4798:4805  success */\n      dup3\n        /* \"@openzeppelin/contracts/utils/Address.sol\":4793:5201  if (!success) {... */\n      tag_211\n      jumpi\n        /* \"@openzeppelin/contracts/utils/Address.sol\":4821:4840  _revert(returndata) */\n      tag_212\n        /* \"@openzeppelin/contracts/utils/Address.sol\":4829:4839  returndata */\n      dup3\n        /* \"@openzeppelin/contracts/utils/Address.sol\":4821:4828  _revert */\n      tag_213\n        /* \"@openzeppelin/contracts/utils/Address.sol\":4821:4840  _revert(returndata) */\n      jump\t// in\n    tag_212:\n        /* \"@openzeppelin/contracts/utils/Address.sol\":4793:5201  if (!success) {... */\n      jump(tag_214)\n    tag_211:\n        /* \"@openzeppelin/contracts/utils/Address.sol\":5066:5067  0 */\n      0x00\n        /* \"@openzeppelin/contracts/utils/Address.sol\":5045:5055  returndata */\n      dup3\n        /* \"@openzeppelin/contracts/utils/Address.sol\":5045:5062  returndata.length */\n      mload\n        /* \"@openzeppelin/contracts/utils/Address.sol\":5045:5067  returndata.length == 0 */\n      eq\n        /* \"@openzeppelin/contracts/utils/Address.sol\":5045:5094  returndata.length == 0 && target.code.length == 0 */\n      dup1\n      iszero\n      tag_215\n      jumpi\n      pop\n        /* \"@openzeppelin/contracts/utils/Address.sol\":5093:5094  0 */\n      0x00\n        /* \"@openzeppelin/contracts/utils/Address.sol\":5071:5077  target */\n      dup5\n        /* \"@openzeppelin/contracts/utils/Address.sol\":5071:5089  target.code.length */\n      0xffffffffffffffffffffffffffffffffffffffff\n      and\n      extcodesize\n        /* \"@openzeppelin/contracts/utils/Address.sol\":5071:5094  target.code.length == 0 */\n      eq\n        /* \"@openzeppelin/contracts/utils/Address.sol\":5045:5094  returndata.length == 0 && target.code.length == 0 */\n    tag_215:\n        /* \"@openzeppelin/contracts/utils/Address.sol\":5041:5160  if (returndata.length == 0 && target.code.length == 0) {... */\n      iszero\n      tag_216\n      jumpi\n        /* \"@openzeppelin/contracts/utils/Address.sol\":5138:5144  target */\n      dup4\n        /* \"@openzeppelin/contracts/utils/Address.sol\":5121:5145  AddressEmptyCode(target) */\n      mload(0x40)\n      0x9996b31500000000000000000000000000000000000000000000000000000000\n      dup2\n      mstore\n      0x04\n      add\n      tag_217\n      swap2\n      swap1\n      tag_47\n      jump\t// in\n    tag_217:\n      mload(0x40)\n      dup1\n      swap2\n      sub\n      swap1\n      revert\n        /* \"@openzeppelin/contracts/utils/Address.sol\":5041:5160  if (returndata.length == 0 && target.code.length == 0) {... */\n    tag_216:\n        /* \"@openzeppelin/contracts/utils/Address.sol\":5180:5190  returndata */\n      dup2\n        /* \"@openzeppelin/contracts/utils/Address.sol\":5173:5190  return returndata */\n      swap1\n      pop\n      jump(tag_210)\n        /* \"@openzeppelin/contracts/utils/Address.sol\":4793:5201  if (!success) {... */\n    tag_214:\n        /* \"@openzeppelin/contracts/utils/Address.sol\":4625:5207  function verifyCallResultFromTarget(... */\n    tag_210:\n      swap4\n      swap3\n      pop\n      pop\n      pop\n      jump\t// out\n        /* \"@openzeppelin/contracts/utils/Address.sol\":5743:6259  function _revert(bytes memory returndata) private pure {... */\n    tag_213:\n        /* \"@openzeppelin/contracts/utils/Address.sol\":5894:5895  0 */\n      0x00\n        /* \"@openzeppelin/contracts/utils/Address.sol\":5874:5884  returndata */\n      dup2\n        /* \"@openzeppelin/contracts/utils/Address.sol\":5874:5891  returndata.length */\n      mload\n        /* \"@openzeppelin/contracts/utils/Address.sol\":5874:5895  returndata.length > 0 */\n      gt\n        /* \"@openzeppelin/contracts/utils/Address.sol\":5870:6253  if (returndata.length > 0) {... */\n      iszero\n      tag_219\n      jumpi\n        /* \"@openzeppelin/contracts/utils/Address.sol\":6102:6112  returndata */\n      dup1\n        /* \"@openzeppelin/contracts/utils/Address.sol\":6096:6113  mload(returndata) */\n      mload\n        /* \"@openzeppelin/contracts/utils/Address.sol\":6158:6173  returndata_size */\n      dup1\n        /* \"@openzeppelin/contracts/utils/Address.sol\":6145:6155  returndata */\n      dup3\n        /* \"@openzeppelin/contracts/utils/Address.sol\":6141:6143  32 */\n      0x20\n        /* \"@openzeppelin/contracts/utils/Address.sol\":6137:6156  add(32, returndata) */\n      add\n        /* \"@openzeppelin/contracts/utils/Address.sol\":6130:6174  revert(add(32, returndata), returndata_size) */\n      revert\n        /* \"@openzeppelin/contracts/utils/Address.sol\":5870:6253  if (returndata.length > 0) {... */\n    tag_219:\n        /* \"@openzeppelin/contracts/utils/Address.sol\":6225:6242  FailedInnerCall() */\n      mload(0x40)\n      0x1425ea4200000000000000000000000000000000000000000000000000000000\n      dup2\n      mstore\n      0x04\n      add\n      mload(0x40)\n      dup1\n      swap2\n      sub\n      swap1\n      revert\n        /* \"#utility.yul\":7:82   */\n    tag_221:\n        /* \"#utility.yul\":40:46   */\n      0x00\n        /* \"#utility.yul\":73:75   */\n      0x40\n        /* \"#utility.yul\":67:76   */\n      mload\n        /* \"#utility.yul\":57:76   */\n      swap1\n      pop\n        /* \"#utility.yul\":7:82   */\n      swap1\n      jump\t// out\n        /* \"#utility.yul\":88:205   */\n    tag_222:\n        /* \"#utility.yul\":197:198   */\n      0x00\n        /* \"#utility.yul\":194:195   */\n      dup1\n        /* \"#utility.yul\":187:199   */\n      revert\n        /* \"#utility.yul\":211:328   */\n    tag_223:\n        /* \"#utility.yul\":320:321   */\n      0x00\n        /* \"#utility.yul\":317:318   */\n      dup1\n        /* \"#utility.yul\":310:322   */\n      revert\n        /* \"#utility.yul\":334:460   */\n    tag_224:\n        /* \"#utility.yul\":371:378   */\n      0x00\n        /* \"#utility.yul\":411:453   */\n      0xffffffffffffffffffffffffffffffffffffffff\n        /* \"#utility.yul\":404:409   */\n      dup3\n        /* \"#utility.yul\":400:454   */\n      and\n        /* \"#utility.yul\":389:454   */\n      swap1\n      pop\n        /* \"#utility.yul\":334:460   */\n      swap2\n      swap1\n      pop\n      jump\t// out\n        /* \"#utility.yul\":466:562   */\n    tag_225:\n        /* \"#utility.yul\":503:510   */\n      0x00\n        /* \"#utility.yul\":532:556   */\n      tag_270\n        /* \"#utility.yul\":550:555   */\n      dup3\n        /* \"#utility.yul\":532:556   */\n      tag_224\n      jump\t// in\n    tag_270:\n        /* \"#utility.yul\":521:556   */\n      swap1\n      pop\n        /* \"#utility.yul\":466:562   */\n      swap2\n      swap1\n      pop\n      jump\t// out\n        /* \"#utility.yul\":568:690   */\n    tag_226:\n        /* \"#utility.yul\":641:665   */\n      tag_272\n        /* \"#utility.yul\":659:664   */\n      dup2\n        /* \"#utility.yul\":641:665   */\n      tag_225\n      jump\t// in\n    tag_272:\n        /* \"#utility.yul\":634:639   */\n      dup2\n        /* \"#utility.yul\":631:666   */\n      eq\n        /* \"#utility.yul\":621:684   */\n      tag_273\n      jumpi\n        /* \"#utility.yul\":680:681   */\n      0x00\n        /* \"#utility.yul\":677:678   */\n      dup1\n        /* \"#utility.yul\":670:682   */\n      revert\n        /* \"#utility.yul\":621:684   */\n    tag_273:\n        /* \"#utility.yul\":568:690   */\n      pop\n      jump\t// out\n        /* \"#utility.yul\":696:835   */\n    tag_227:\n        /* \"#utility.yul\":742:747   */\n      0x00\n        /* \"#utility.yul\":780:786   */\n      dup2\n        /* \"#utility.yul\":767:787   */\n      calldataload\n        /* \"#utility.yul\":758:787   */\n      swap1\n      pop\n        /* \"#utility.yul\":796:829   */\n      tag_275\n        /* \"#utility.yul\":823:828   */\n      dup2\n        /* \"#utility.yul\":796:829   */\n      tag_226\n      jump\t// in\n    tag_275:\n        /* \"#utility.yul\":696:835   */\n      swap3\n      swap2\n      pop\n      pop\n      jump\t// out\n        /* \"#utility.yul\":841:958   */\n    tag_228:\n        /* \"#utility.yul\":950:951   */\n      0x00\n        /* \"#utility.yul\":947:948   */\n      dup1\n        /* \"#utility.yul\":940:952   */\n      revert\n        /* \"#utility.yul\":964:1081   */\n    tag_229:\n        /* \"#utility.yul\":1073:1074   */\n      0x00\n        /* \"#utility.yul\":1070:1071   */\n      dup1\n        /* \"#utility.yul\":1063:1075   */\n      revert\n        /* \"#utility.yul\":1087:1189   */\n    tag_230:\n        /* \"#utility.yul\":1128:1134   */\n      0x00\n        /* \"#utility.yul\":1179:1181   */\n      0x1f\n        /* \"#utility.yul\":1175:1182   */\n      not\n        /* \"#utility.yul\":1170:1172   */\n      0x1f\n        /* \"#utility.yul\":1163:1168   */\n      dup4\n        /* \"#utility.yul\":1159:1173   */\n      add\n        /* \"#utility.yul\":1155:1183   */\n      and\n        /* \"#utility.yul\":1145:1183   */\n      swap1\n      pop\n        /* \"#utility.yul\":1087:1189   */\n      swap2\n      swap1\n      pop\n      jump\t// out\n        /* \"#utility.yul\":1195:1375   */\n    tag_231:\n        /* \"#utility.yul\":1243:1320   */\n      0x4e487b7100000000000000000000000000000000000000000000000000000000\n        /* \"#utility.yul\":1240:1241   */\n      0x00\n        /* \"#utility.yul\":1233:1321   */\n      mstore\n        /* \"#utility.yul\":1340:1344   */\n      0x41\n        /* \"#utility.yul\":1337:1338   */\n      0x04\n        /* \"#utility.yul\":1330:1345   */\n      mstore\n        /* \"#utility.yul\":1364:1368   */\n      0x24\n        /* \"#utility.yul\":1361:1362   */\n      0x00\n        /* \"#utility.yul\":1354:1369   */\n      revert\n        /* \"#utility.yul\":1381:1662   */\n    tag_232:\n        /* \"#utility.yul\":1464:1491   */\n      tag_281\n        /* \"#utility.yul\":1486:1490   */\n      dup3\n        /* \"#utility.yul\":1464:1491   */\n      tag_230\n      jump\t// in\n    tag_281:\n        /* \"#utility.yul\":1456:1462   */\n      dup2\n        /* \"#utility.yul\":1452:1492   */\n      add\n        /* \"#utility.yul\":1594:1600   */\n      dup2\n        /* \"#utility.yul\":1582:1592   */\n      dup2\n        /* \"#utility.yul\":1579:1601   */\n      lt\n        /* \"#utility.yul\":1558:1576   */\n      0xffffffffffffffff\n        /* \"#utility.yul\":1546:1556   */\n      dup3\n        /* \"#utility.yul\":1543:1577   */\n      gt\n        /* \"#utility.yul\":1540:1602   */\n      or\n        /* \"#utility.yul\":1537:1625   */\n      iszero\n      tag_282\n      jumpi\n        /* \"#utility.yul\":1605:1623   */\n      tag_283\n      tag_231\n      jump\t// in\n    tag_283:\n        /* \"#utility.yul\":1537:1625   */\n    tag_282:\n        /* \"#utility.yul\":1645:1655   */\n      dup1\n        /* \"#utility.yul\":1641:1643   */\n      0x40\n        /* \"#utility.yul\":1634:1656   */\n      mstore\n        /* \"#utility.yul\":1424:1662   */\n      pop\n        /* \"#utility.yul\":1381:1662   */\n      pop\n      pop\n      jump\t// out\n        /* \"#utility.yul\":1668:1797   */\n    tag_233:\n        /* \"#utility.yul\":1702:1708   */\n      0x00\n        /* \"#utility.yul\":1729:1749   */\n      tag_285\n      tag_221\n      jump\t// in\n    tag_285:\n        /* \"#utility.yul\":1719:1749   */\n      swap1\n      pop\n        /* \"#utility.yul\":1758:1791   */\n      tag_286\n        /* \"#utility.yul\":1786:1790   */\n      dup3\n        /* \"#utility.yul\":1778:1784   */\n      dup3\n        /* \"#utility.yul\":1758:1791   */\n      tag_232\n      jump\t// in\n    tag_286:\n        /* \"#utility.yul\":1668:1797   */\n      swap2\n      swap1\n      pop\n      jump\t// out\n        /* \"#utility.yul\":1803:2110   */\n    tag_234:\n        /* \"#utility.yul\":1864:1868   */\n      0x00\n        /* \"#utility.yul\":1954:1972   */\n      0xffffffffffffffff\n        /* \"#utility.yul\":1946:1952   */\n      dup3\n        /* \"#utility.yul\":1943:1973   */\n      gt\n        /* \"#utility.yul\":1940:1996   */\n      iszero\n      tag_288\n      jumpi\n        /* \"#utility.yul\":1976:1994   */\n      tag_289\n      tag_231\n      jump\t// in\n    tag_289:\n        /* \"#utility.yul\":1940:1996   */\n    tag_288:\n        /* \"#utility.yul\":2014:2043   */\n      tag_290\n        /* \"#utility.yul\":2036:2042   */\n      dup3\n        /* \"#utility.yul\":2014:2043   */\n      tag_230\n      jump\t// in\n    tag_290:\n        /* \"#utility.yul\":2006:2043   */\n      swap1\n      pop\n        /* \"#utility.yul\":2098:2102   */\n      0x20\n        /* \"#utility.yul\":2092:2096   */\n      dup2\n        /* \"#utility.yul\":2088:2103   */\n      add\n        /* \"#utility.yul\":2080:2103   */\n      swap1\n      pop\n        /* \"#utility.yul\":1803:2110   */\n      swap2\n      swap1\n      pop\n      jump\t// out\n        /* \"#utility.yul\":2116:2262   */\n    tag_235:\n        /* \"#utility.yul\":2213:2219   */\n      dup3\n        /* \"#utility.yul\":2208:2211   */\n      dup2\n        /* \"#utility.yul\":2203:2206   */\n      dup4\n        /* \"#utility.yul\":2190:2220   */\n      calldatacopy\n        /* \"#utility.yul\":2254:2255   */\n      0x00\n        /* \"#utility.yul\":2245:2251   */\n      dup4\n        /* \"#utility.yul\":2240:2243   */\n      dup4\n        /* \"#utility.yul\":2236:2252   */\n      add\n        /* \"#utility.yul\":2229:2256   */\n      mstore\n        /* \"#utility.yul\":2116:2262   */\n      pop\n      pop\n      pop\n      jump\t// out\n        /* \"#utility.yul\":2268:2691   */\n    tag_236:\n        /* \"#utility.yul\":2345:2350   */\n      0x00\n        /* \"#utility.yul\":2370:2435   */\n      tag_293\n        /* \"#utility.yul\":2386:2434   */\n      tag_294\n        /* \"#utility.yul\":2427:2433   */\n      dup5\n        /* \"#utility.yul\":2386:2434   */\n      tag_234\n      jump\t// in\n    tag_294:\n        /* \"#utility.yul\":2370:2435   */\n      tag_233\n      jump\t// in\n    tag_293:\n        /* \"#utility.yul\":2361:2435   */\n      swap1\n      pop\n        /* \"#utility.yul\":2458:2464   */\n      dup3\n        /* \"#utility.yul\":2451:2456   */\n      dup2\n        /* \"#utility.yul\":2444:2465   */\n      mstore\n        /* \"#utility.yul\":2496:2500   */\n      0x20\n        /* \"#utility.yul\":2489:2494   */\n      dup2\n        /* \"#utility.yul\":2485:2501   */\n      add\n        /* \"#utility.yul\":2534:2537   */\n      dup5\n        /* \"#utility.yul\":2525:2531   */\n      dup5\n        /* \"#utility.yul\":2520:2523   */\n      dup5\n        /* \"#utility.yul\":2516:2532   */\n      add\n        /* \"#utility.yul\":2513:2538   */\n      gt\n        /* \"#utility.yul\":2510:2622   */\n      iszero\n      tag_295\n      jumpi\n        /* \"#utility.yul\":2541:2620   */\n      tag_296\n      tag_229\n      jump\t// in\n    tag_296:\n        /* \"#utility.yul\":2510:2622   */\n    tag_295:\n        /* \"#utility.yul\":2631:2685   */\n      tag_297\n        /* \"#utility.yul\":2678:2684   */\n      dup5\n        /* \"#utility.yul\":2673:2676   */\n      dup3\n        /* \"#utility.yul\":2668:2671   */\n      dup6\n        /* \"#utility.yul\":2631:2685   */\n      tag_235\n      jump\t// in\n    tag_297:\n        /* \"#utility.yul\":2351:2691   */\n      pop\n        /* \"#utility.yul\":2268:2691   */\n      swap4\n      swap3\n      pop\n      pop\n      pop\n      jump\t// out\n        /* \"#utility.yul\":2710:3048   */\n    tag_237:\n        /* \"#utility.yul\":2765:2770   */\n      0x00\n        /* \"#utility.yul\":2814:2817   */\n      dup3\n        /* \"#utility.yul\":2807:2811   */\n      0x1f\n        /* \"#utility.yul\":2799:2805   */\n      dup4\n        /* \"#utility.yul\":2795:2812   */\n      add\n        /* \"#utility.yul\":2791:2818   */\n      slt\n        /* \"#utility.yul\":2781:2903   */\n      tag_299\n      jumpi\n        /* \"#utility.yul\":2822:2901   */\n      tag_300\n      tag_228\n      jump\t// in\n    tag_300:\n        /* \"#utility.yul\":2781:2903   */\n    tag_299:\n        /* \"#utility.yul\":2939:2945   */\n      dup2\n        /* \"#utility.yul\":2926:2946   */\n      calldataload\n        /* \"#utility.yul\":2964:3042   */\n      tag_301\n        /* \"#utility.yul\":3038:3041   */\n      dup5\n        /* \"#utility.yul\":3030:3036   */\n      dup3\n        /* \"#utility.yul\":3023:3027   */\n      0x20\n        /* \"#utility.yul\":3015:3021   */\n      dup7\n        /* \"#utility.yul\":3011:3028   */\n      add\n        /* \"#utility.yul\":2964:3042   */\n      tag_236\n      jump\t// in\n    tag_301:\n        /* \"#utility.yul\":2955:3042   */\n      swap2\n      pop\n        /* \"#utility.yul\":2771:3048   */\n      pop\n        /* \"#utility.yul\":2710:3048   */\n      swap3\n      swap2\n      pop\n      pop\n      jump\t// out\n        /* \"#utility.yul\":3054:3706   */\n    tag_28:\n        /* \"#utility.yul\":3131:3137   */\n      0x00\n        /* \"#utility.yul\":3139:3145   */\n      dup1\n        /* \"#utility.yul\":3188:3190   */\n      0x40\n        /* \"#utility.yul\":3176:3185   */\n      dup4\n        /* \"#utility.yul\":3167:3174   */\n      dup6\n        /* \"#utility.yul\":3163:3186   */\n      sub\n        /* \"#utility.yul\":3159:3191   */\n      slt\n        /* \"#utility.yul\":3156:3275   */\n      iszero\n      tag_303\n      jumpi\n        /* \"#utility.yul\":3194:3273   */\n      tag_304\n      tag_222\n      jump\t// in\n    tag_304:\n        /* \"#utility.yul\":3156:3275   */\n    tag_303:\n        /* \"#utility.yul\":3314:3315   */\n      0x00\n        /* \"#utility.yul\":3339:3392   */\n      tag_305\n        /* \"#utility.yul\":3384:3391   */\n      dup6\n        /* \"#utility.yul\":3375:3381   */\n      dup3\n        /* \"#utility.yul\":3364:3373   */\n      dup7\n        /* \"#utility.yul\":3360:3382   */\n      add\n        /* \"#utility.yul\":3339:3392   */\n      tag_227\n      jump\t// in\n    tag_305:\n        /* \"#utility.yul\":3329:3392   */\n      swap3\n      pop\n        /* \"#utility.yul\":3285:3402   */\n      pop\n        /* \"#utility.yul\":3469:3471   */\n      0x20\n        /* \"#utility.yul\":3458:3467   */\n      dup4\n        /* \"#utility.yul\":3454:3472   */\n      add\n        /* \"#utility.yul\":3441:3473   */\n      calldataload\n        /* \"#utility.yul\":3500:3518   */\n      0xffffffffffffffff\n        /* \"#utility.yul\":3492:3498   */\n      dup2\n        /* \"#utility.yul\":3489:3519   */\n      gt\n        /* \"#utility.yul\":3486:3603   */\n      iszero\n      tag_306\n      jumpi\n        /* \"#utility.yul\":3522:3601   */\n      tag_307\n      tag_223\n      jump\t// in\n    tag_307:\n        /* \"#utility.yul\":3486:3603   */\n    tag_306:\n        /* \"#utility.yul\":3627:3689   */\n      tag_308\n        /* \"#utility.yul\":3681:3688   */\n      dup6\n        /* \"#utility.yul\":3672:3678   */\n      dup3\n        /* \"#utility.yul\":3661:3670   */\n      dup7\n        /* \"#utility.yul\":3657:3679   */\n      add\n        /* \"#utility.yul\":3627:3689   */\n      tag_237\n      jump\t// in\n    tag_308:\n        /* \"#utility.yul\":3617:3689   */\n      swap2\n      pop\n        /* \"#utility.yul\":3412:3699   */\n      pop\n        /* \"#utility.yul\":3054:3706   */\n      swap3\n      pop\n      swap3\n      swap1\n      pop\n      jump\t// out\n        /* \"#utility.yul\":3712:3789   */\n    tag_238:\n        /* \"#utility.yul\":3749:3756   */\n      0x00\n        /* \"#utility.yul\":3778:3783   */\n      dup2\n        /* \"#utility.yul\":3767:3783   */\n      swap1\n      pop\n        /* \"#utility.yul\":3712:3789   */\n      swap2\n      swap1\n      pop\n      jump\t// out\n        /* \"#utility.yul\":3795:3913   */\n    tag_239:\n        /* \"#utility.yul\":3882:3906   */\n      tag_311\n        /* \"#utility.yul\":3900:3905   */\n      dup2\n        /* \"#utility.yul\":3882:3906   */\n      tag_238\n      jump\t// in\n    tag_311:\n        /* \"#utility.yul\":3877:3880   */\n      dup3\n        /* \"#utility.yul\":3870:3907   */\n      mstore\n        /* \"#utility.yul\":3795:3913   */\n      pop\n      pop\n      jump\t// out\n        /* \"#utility.yul\":3919:4141   */\n    tag_34:\n        /* \"#utility.yul\":4012:4016   */\n      0x00\n        /* \"#utility.yul\":4050:4052   */\n      0x20\n        /* \"#utility.yul\":4039:4048   */\n      dup3\n        /* \"#utility.yul\":4035:4053   */\n      add\n        /* \"#utility.yul\":4027:4053   */\n      swap1\n      pop\n        /* \"#utility.yul\":4063:4134   */\n      tag_313\n        /* \"#utility.yul\":4131:4132   */\n      0x00\n        /* \"#utility.yul\":4120:4129   */\n      dup4\n        /* \"#utility.yul\":4116:4133   */\n      add\n        /* \"#utility.yul\":4107:4113   */\n      dup5\n        /* \"#utility.yul\":4063:4134   */\n      tag_239\n      jump\t// in\n    tag_313:\n        /* \"#utility.yul\":3919:4141   */\n      swap3\n      swap2\n      pop\n      pop\n      jump\t// out\n        /* \"#utility.yul\":4147:4224   */\n    tag_240:\n        /* \"#utility.yul\":4184:4191   */\n      0x00\n        /* \"#utility.yul\":4213:4218   */\n      dup2\n        /* \"#utility.yul\":4202:4218   */\n      swap1\n      pop\n        /* \"#utility.yul\":4147:4224   */\n      swap2\n      swap1\n      pop\n      jump\t// out\n        /* \"#utility.yul\":4230:4348   */\n    tag_241:\n        /* \"#utility.yul\":4317:4341   */\n      tag_316\n        /* \"#utility.yul\":4335:4340   */\n      dup2\n        /* \"#utility.yul\":4317:4341   */\n      tag_240\n      jump\t// in\n    tag_316:\n        /* \"#utility.yul\":4312:4315   */\n      dup3\n        /* \"#utility.yul\":4305:4342   */\n      mstore\n        /* \"#utility.yul\":4230:4348   */\n      pop\n      pop\n      jump\t// out\n        /* \"#utility.yul\":4354:4576   */\n    tag_42:\n        /* \"#utility.yul\":4447:4451   */\n      0x00\n        /* \"#utility.yul\":4485:4487   */\n      0x20\n        /* \"#utility.yul\":4474:4483   */\n      dup3\n        /* \"#utility.yul\":4470:4488   */\n      add\n        /* \"#utility.yul\":4462:4488   */\n      swap1\n      pop\n        /* \"#utility.yul\":4498:4569   */\n      tag_318\n        /* \"#utility.yul\":4566:4567   */\n      0x00\n        /* \"#utility.yul\":4555:4564   */\n      dup4\n        /* \"#utility.yul\":4551:4568   */\n      add\n        /* \"#utility.yul\":4542:4548   */\n      dup5\n        /* \"#utility.yul\":4498:4569   */\n      tag_241\n      jump\t// in\n    tag_318:\n        /* \"#utility.yul\":4354:4576   */\n      swap3\n      swap2\n      pop\n      pop\n      jump\t// out\n        /* \"#utility.yul\":4582:4700   */\n    tag_242:\n        /* \"#utility.yul\":4669:4693   */\n      tag_320\n        /* \"#utility.yul\":4687:4692   */\n      dup2\n        /* \"#utility.yul\":4669:4693   */\n      tag_225\n      jump\t// in\n    tag_320:\n        /* \"#utility.yul\":4664:4667   */\n      dup3\n        /* \"#utility.yul\":4657:4694   */\n      mstore\n        /* \"#utility.yul\":4582:4700   */\n      pop\n      pop\n      jump\t// out\n        /* \"#utility.yul\":4706:4928   */\n    tag_47:\n        /* \"#utility.yul\":4799:4803   */\n      0x00\n        /* \"#utility.yul\":4837:4839   */\n      0x20\n        /* \"#utility.yul\":4826:4835   */\n      dup3\n        /* \"#utility.yul\":4822:4840   */\n      add\n        /* \"#utility.yul\":4814:4840   */\n      swap1\n      pop\n        /* \"#utility.yul\":4850:4921   */\n      tag_322\n        /* \"#utility.yul\":4918:4919   */\n      0x00\n        /* \"#utility.yul\":4907:4916   */\n      dup4\n        /* \"#utility.yul\":4903:4920   */\n      add\n        /* \"#utility.yul\":4894:4900   */\n      dup5\n        /* \"#utility.yul\":4850:4921   */\n      tag_242\n      jump\t// in\n    tag_322:\n        /* \"#utility.yul\":4706:4928   */\n      swap3\n      swap2\n      pop\n      pop\n      jump\t// out\n        /* \"#utility.yul\":4934:5242   */\n    tag_243:\n        /* \"#utility.yul\":4996:5000   */\n      0x00\n        /* \"#utility.yul\":5086:5104   */\n      0xffffffffffffffff\n        /* \"#utility.yul\":5078:5084   */\n      dup3\n        /* \"#utility.yul\":5075:5105   */\n      gt\n        /* \"#utility.yul\":5072:5128   */\n      iszero\n      tag_324\n      jumpi\n        /* \"#utility.yul\":5108:5126   */\n      tag_325\n      tag_231\n      jump\t// in\n    tag_325:\n        /* \"#utility.yul\":5072:5128   */\n    tag_324:\n        /* \"#utility.yul\":5146:5175   */\n      tag_326\n        /* \"#utility.yul\":5168:5174   */\n      dup3\n        /* \"#utility.yul\":5146:5175   */\n      tag_230\n      jump\t// in\n    tag_326:\n        /* \"#utility.yul\":5138:5175   */\n      swap1\n      pop\n        /* \"#utility.yul\":5230:5234   */\n      0x20\n        /* \"#utility.yul\":5224:5228   */\n      dup2\n        /* \"#utility.yul\":5220:5235   */\n      add\n        /* \"#utility.yul\":5212:5235   */\n      swap1\n      pop\n        /* \"#utility.yul\":4934:5242   */\n      swap2\n      swap1\n      pop\n      jump\t// out\n        /* \"#utility.yul\":5248:5673   */\n    tag_244:\n        /* \"#utility.yul\":5326:5331   */\n      0x00\n        /* \"#utility.yul\":5351:5417   */\n      tag_328\n        /* \"#utility.yul\":5367:5416   */\n      tag_329\n        /* \"#utility.yul\":5409:5415   */\n      dup5\n        /* \"#utility.yul\":5367:5416   */\n      tag_243\n      jump\t// in\n    tag_329:\n        /* \"#utility.yul\":5351:5417   */\n      tag_233\n      jump\t// in\n    tag_328:\n        /* \"#utility.yul\":5342:5417   */\n      swap1\n      pop\n        /* \"#utility.yul\":5440:5446   */\n      dup3\n        /* \"#utility.yul\":5433:5438   */\n      dup2\n        /* \"#utility.yul\":5426:5447   */\n      mstore\n        /* \"#utility.yul\":5478:5482   */\n      0x20\n        /* \"#utility.yul\":5471:5476   */\n      dup2\n        /* \"#utility.yul\":5467:5483   */\n      add\n        /* \"#utility.yul\":5516:5519   */\n      dup5\n        /* \"#utility.yul\":5507:5513   */\n      dup5\n        /* \"#utility.yul\":5502:5505   */\n      dup5\n        /* \"#utility.yul\":5498:5514   */\n      add\n        /* \"#utility.yul\":5495:5520   */\n      gt\n        /* \"#utility.yul\":5492:5604   */\n      iszero\n      tag_330\n      jumpi\n        /* \"#utility.yul\":5523:5602   */\n      tag_331\n      tag_229\n      jump\t// in\n    tag_331:\n        /* \"#utility.yul\":5492:5604   */\n    tag_330:\n        /* \"#utility.yul\":5613:5667   */\n      tag_332\n        /* \"#utility.yul\":5660:5666   */\n      dup5\n        /* \"#utility.yul\":5655:5658   */\n      dup3\n        /* \"#utility.yul\":5650:5653   */\n      dup6\n        /* \"#utility.yul\":5613:5667   */\n      tag_235\n      jump\t// in\n    tag_332:\n        /* \"#utility.yul\":5332:5673   */\n      pop\n        /* \"#utility.yul\":5248:5673   */\n      swap4\n      swap3\n      pop\n      pop\n      pop\n      jump\t// out\n        /* \"#utility.yul\":5693:6033   */\n    tag_245:\n        /* \"#utility.yul\":5749:5754   */\n      0x00\n        /* \"#utility.yul\":5798:5801   */\n      dup3\n        /* \"#utility.yul\":5791:5795   */\n      0x1f\n        /* \"#utility.yul\":5783:5789   */\n      dup4\n        /* \"#utility.yul\":5779:5796   */\n      add\n        /* \"#utility.yul\":5775:5802   */\n      slt\n        /* \"#utility.yul\":5765:5887   */\n      tag_334\n      jumpi\n        /* \"#utility.yul\":5806:5885   */\n      tag_335\n      tag_228\n      jump\t// in\n    tag_335:\n        /* \"#utility.yul\":5765:5887   */\n    tag_334:\n        /* \"#utility.yul\":5923:5929   */\n      dup2\n        /* \"#utility.yul\":5910:5930   */\n      calldataload\n        /* \"#utility.yul\":5948:6027   */\n      tag_336\n        /* \"#utility.yul\":6023:6026   */\n      dup5\n        /* \"#utility.yul\":6015:6021   */\n      dup3\n        /* \"#utility.yul\":6008:6012   */\n      0x20\n        /* \"#utility.yul\":6000:6006   */\n      dup7\n        /* \"#utility.yul\":5996:6013   */\n      add\n        /* \"#utility.yul\":5948:6027   */\n      tag_244\n      jump\t// in\n    tag_336:\n        /* \"#utility.yul\":5939:6027   */\n      swap2\n      pop\n        /* \"#utility.yul\":5755:6033   */\n      pop\n        /* \"#utility.yul\":5693:6033   */\n      swap3\n      swap2\n      pop\n      pop\n      jump\t// out\n        /* \"#utility.yul\":6039:6161   */\n    tag_246:\n        /* \"#utility.yul\":6112:6136   */\n      tag_338\n        /* \"#utility.yul\":6130:6135   */\n      dup2\n        /* \"#utility.yul\":6112:6136   */\n      tag_240\n      jump\t// in\n    tag_338:\n        /* \"#utility.yul\":6105:6110   */\n      dup2\n        /* \"#utility.yul\":6102:6137   */\n      eq\n        /* \"#utility.yul\":6092:6155   */\n      tag_339\n      jumpi\n        /* \"#utility.yul\":6151:6152   */\n      0x00\n        /* \"#utility.yul\":6148:6149   */\n      dup1\n        /* \"#utility.yul\":6141:6153   */\n      revert\n        /* \"#utility.yul\":6092:6155   */\n    tag_339:\n        /* \"#utility.yul\":6039:6161   */\n      pop\n      jump\t// out\n        /* \"#utility.yul\":6167:6306   */\n    tag_247:\n        /* \"#utility.yul\":6213:6218   */\n      0x00\n        /* \"#utility.yul\":6251:6257   */\n      dup2\n        /* \"#utility.yul\":6238:6258   */\n      calldataload\n        /* \"#utility.yul\":6229:6258   */\n      swap1\n      pop\n        /* \"#utility.yul\":6267:6300   */\n      tag_341\n        /* \"#utility.yul\":6294:6299   */\n      dup2\n        /* \"#utility.yul\":6267:6300   */\n      tag_246\n      jump\t// in\n    tag_341:\n        /* \"#utility.yul\":6167:6306   */\n      swap3\n      swap2\n      pop\n      pop\n      jump\t// out\n        /* \"#utility.yul\":6312:6966   */\n    tag_51:\n        /* \"#utility.yul\":6390:6396   */\n      0x00\n        /* \"#utility.yul\":6398:6404   */\n      dup1\n        /* \"#utility.yul\":6447:6449   */\n      0x40\n        /* \"#utility.yul\":6435:6444   */\n      dup4\n        /* \"#utility.yul\":6426:6433   */\n      dup6\n        /* \"#utility.yul\":6422:6445   */\n      sub\n        /* \"#utility.yul\":6418:6450   */\n      slt\n        /* \"#utility.yul\":6415:6534   */\n      iszero\n      tag_343\n      jumpi\n        /* \"#utility.yul\":6453:6532   */\n      tag_344\n      tag_222\n      jump\t// in\n    tag_344:\n        /* \"#utility.yul\":6415:6534   */\n    tag_343:\n        /* \"#utility.yul\":6601:6602   */\n      0x00\n        /* \"#utility.yul\":6590:6599   */\n      dup4\n        /* \"#utility.yul\":6586:6603   */\n      add\n        /* \"#utility.yul\":6573:6604   */\n      calldataload\n        /* \"#utility.yul\":6631:6649   */\n      0xffffffffffffffff\n        /* \"#utility.yul\":6623:6629   */\n      dup2\n        /* \"#utility.yul\":6620:6650   */\n      gt\n        /* \"#utility.yul\":6617:6734   */\n      iszero\n      tag_345\n      jumpi\n        /* \"#utility.yul\":6653:6732   */\n      tag_346\n      tag_223\n      jump\t// in\n    tag_346:\n        /* \"#utility.yul\":6617:6734   */\n    tag_345:\n        /* \"#utility.yul\":6758:6821   */\n      tag_347\n        /* \"#utility.yul\":6813:6820   */\n      dup6\n        /* \"#utility.yul\":6804:6810   */\n      dup3\n        /* \"#utility.yul\":6793:6802   */\n      dup7\n        /* \"#utility.yul\":6789:6811   */\n      add\n        /* \"#utility.yul\":6758:6821   */\n      tag_245\n      jump\t// in\n    tag_347:\n        /* \"#utility.yul\":6748:6821   */\n      swap3\n      pop\n        /* \"#utility.yul\":6544:6831   */\n      pop\n        /* \"#utility.yul\":6870:6872   */\n      0x20\n        /* \"#utility.yul\":6896:6949   */\n      tag_348\n        /* \"#utility.yul\":6941:6948   */\n      dup6\n        /* \"#utility.yul\":6932:6938   */\n      dup3\n        /* \"#utility.yul\":6921:6930   */\n      dup7\n        /* \"#utility.yul\":6917:6939   */\n      add\n        /* \"#utility.yul\":6896:6949   */\n      tag_247\n      jump\t// in\n    tag_348:\n        /* \"#utility.yul\":6886:6949   */\n      swap2\n      pop\n        /* \"#utility.yul\":6841:6959   */\n      pop\n        /* \"#utility.yul\":6312:6966   */\n      swap3\n      pop\n      swap3\n      swap1\n      pop\n      jump\t// out\n        /* \"#utility.yul\":6972:7070   */\n    tag_248:\n        /* \"#utility.yul\":7023:7029   */\n      0x00\n        /* \"#utility.yul\":7057:7062   */\n      dup2\n        /* \"#utility.yul\":7051:7063   */\n      mload\n        /* \"#utility.yul\":7041:7063   */\n      swap1\n      pop\n        /* \"#utility.yul\":6972:7070   */\n      swap2\n      swap1\n      pop\n      jump\t// out\n        /* \"#utility.yul\":7076:7244   */\n    tag_249:\n        /* \"#utility.yul\":7159:7170   */\n      0x00\n        /* \"#utility.yul\":7193:7199   */\n      dup3\n        /* \"#utility.yul\":7188:7191   */\n      dup3\n        /* \"#utility.yul\":7181:7200   */\n      mstore\n        /* \"#utility.yul\":7233:7237   */\n      0x20\n        /* \"#utility.yul\":7228:7231   */\n      dup3\n        /* \"#utility.yul\":7224:7238   */\n      add\n        /* \"#utility.yul\":7209:7238   */\n      swap1\n      pop\n        /* \"#utility.yul\":7076:7244   */\n      swap3\n      swap2\n      pop\n      pop\n      jump\t// out\n        /* \"#utility.yul\":7250:7496   */\n    tag_250:\n        /* \"#utility.yul\":7331:7332   */\n      0x00\n        /* \"#utility.yul\":7341:7454   */\n    tag_352:\n        /* \"#utility.yul\":7355:7361   */\n      dup4\n        /* \"#utility.yul\":7352:7353   */\n      dup2\n        /* \"#utility.yul\":7349:7362   */\n      lt\n        /* \"#utility.yul\":7341:7454   */\n      iszero\n      tag_354\n      jumpi\n        /* \"#utility.yul\":7440:7441   */\n      dup1\n        /* \"#utility.yul\":7435:7438   */\n      dup3\n        /* \"#utility.yul\":7431:7442   */\n      add\n        /* \"#utility.yul\":7425:7443   */\n      mload\n        /* \"#utility.yul\":7421:7422   */\n      dup2\n        /* \"#utility.yul\":7416:7419   */\n      dup5\n        /* \"#utility.yul\":7412:7423   */\n      add\n        /* \"#utility.yul\":7405:7444   */\n      mstore\n        /* \"#utility.yul\":7377:7379   */\n      0x20\n        /* \"#utility.yul\":7374:7375   */\n      dup2\n        /* \"#utility.yul\":7370:7380   */\n      add\n        /* \"#utility.yul\":7365:7380   */\n      swap1\n      pop\n        /* \"#utility.yul\":7341:7454   */\n      jump(tag_352)\n    tag_354:\n        /* \"#utility.yul\":7488:7489   */\n      0x00\n        /* \"#utility.yul\":7479:7485   */\n      dup5\n        /* \"#utility.yul\":7474:7477   */\n      dup5\n        /* \"#utility.yul\":7470:7486   */\n      add\n        /* \"#utility.yul\":7463:7490   */\n      mstore\n        /* \"#utility.yul\":7312:7496   */\n      pop\n        /* \"#utility.yul\":7250:7496   */\n      pop\n      pop\n      pop\n      jump\t// out\n        /* \"#utility.yul\":7502:7875   */\n    tag_251:\n        /* \"#utility.yul\":7588:7591   */\n      0x00\n        /* \"#utility.yul\":7616:7654   */\n      tag_356\n        /* \"#utility.yul\":7648:7653   */\n      dup3\n        /* \"#utility.yul\":7616:7654   */\n      tag_248\n      jump\t// in\n    tag_356:\n        /* \"#utility.yul\":7670:7740   */\n      tag_357\n        /* \"#utility.yul\":7733:7739   */\n      dup2\n        /* \"#utility.yul\":7728:7731   */\n      dup6\n        /* \"#utility.yul\":7670:7740   */\n      tag_249\n      jump\t// in\n    tag_357:\n        /* \"#utility.yul\":7663:7740   */\n      swap4\n      pop\n        /* \"#utility.yul\":7749:7814   */\n      tag_358\n        /* \"#utility.yul\":7807:7813   */\n      dup2\n        /* \"#utility.yul\":7802:7805   */\n      dup6\n        /* \"#utility.yul\":7795:7799   */\n      0x20\n        /* \"#utility.yul\":7788:7793   */\n      dup7\n        /* \"#utility.yul\":7784:7800   */\n      add\n        /* \"#utility.yul\":7749:7814   */\n      tag_250\n      jump\t// in\n    tag_358:\n        /* \"#utility.yul\":7839:7868   */\n      tag_359\n        /* \"#utility.yul\":7861:7867   */\n      dup2\n        /* \"#utility.yul\":7839:7868   */\n      tag_230\n      jump\t// in\n    tag_359:\n        /* \"#utility.yul\":7834:7837   */\n      dup5\n        /* \"#utility.yul\":7830:7869   */\n      add\n        /* \"#utility.yul\":7823:7869   */\n      swap2\n      pop\n        /* \"#utility.yul\":7592:7875   */\n      pop\n        /* \"#utility.yul\":7502:7875   */\n      swap3\n      swap2\n      pop\n      pop\n      jump\t// out\n        /* \"#utility.yul\":7881:8190   */\n    tag_54:\n        /* \"#utility.yul\":7992:7996   */\n      0x00\n        /* \"#utility.yul\":8030:8032   */\n      0x20\n        /* \"#utility.yul\":8019:8028   */\n      dup3\n        /* \"#utility.yul\":8015:8033   */\n      add\n        /* \"#utility.yul\":8007:8033   */\n      swap1\n      pop\n        /* \"#utility.yul\":8079:8088   */\n      dup2\n        /* \"#utility.yul\":8073:8077   */\n      dup2\n        /* \"#utility.yul\":8069:8089   */\n      sub\n        /* \"#utility.yul\":8065:8066   */\n      0x00\n        /* \"#utility.yul\":8054:8063   */\n      dup4\n        /* \"#utility.yul\":8050:8067   */\n      add\n        /* \"#utility.yul\":8043:8090   */\n      mstore\n        /* \"#utility.yul\":8107:8183   */\n      tag_361\n        /* \"#utility.yul\":8178:8182   */\n      dup2\n        /* \"#utility.yul\":8169:8175   */\n      dup5\n        /* \"#utility.yul\":8107:8183   */\n      tag_251\n      jump\t// in\n    tag_361:\n        /* \"#utility.yul\":8099:8183   */\n      swap1\n      pop\n        /* \"#utility.yul\":7881:8190   */\n      swap3\n      swap2\n      pop\n      pop\n      jump\t// out\n        /* \"#utility.yul\":8196:8295   */\n    tag_252:\n        /* \"#utility.yul\":8248:8254   */\n      0x00\n        /* \"#utility.yul\":8282:8287   */\n      dup2\n        /* \"#utility.yul\":8276:8288   */\n      mload\n        /* \"#utility.yul\":8266:8288   */\n      swap1\n      pop\n        /* \"#utility.yul\":8196:8295   */\n      swap2\n      swap1\n      pop\n      jump\t// out\n        /* \"#utility.yul\":8301:8470   */\n    tag_253:\n        /* \"#utility.yul\":8385:8396   */\n      0x00\n        /* \"#utility.yul\":8419:8425   */\n      dup3\n        /* \"#utility.yul\":8414:8417   */\n      dup3\n        /* \"#utility.yul\":8407:8426   */\n      mstore\n        /* \"#utility.yul\":8459:8463   */\n      0x20\n        /* \"#utility.yul\":8454:8457   */\n      dup3\n        /* \"#utility.yul\":8450:8464   */\n      add\n        /* \"#utility.yul\":8435:8464   */\n      swap1\n      pop\n        /* \"#utility.yul\":8301:8470   */\n      swap3\n      swap2\n      pop\n      pop\n      jump\t// out\n        /* \"#utility.yul\":8476:8853   */\n    tag_254:\n        /* \"#utility.yul\":8564:8567   */\n      0x00\n        /* \"#utility.yul\":8592:8631   */\n      tag_365\n        /* \"#utility.yul\":8625:8630   */\n      dup3\n        /* \"#utility.yul\":8592:8631   */\n      tag_252\n      jump\t// in\n    tag_365:\n        /* \"#utility.yul\":8647:8718   */\n      tag_366\n        /* \"#utility.yul\":8711:8717   */\n      dup2\n        /* \"#utility.yul\":8706:8709   */\n      dup6\n        /* \"#utility.yul\":8647:8718   */\n      tag_253\n      jump\t// in\n    tag_366:\n        /* \"#utility.yul\":8640:8718   */\n      swap4\n      pop\n        /* \"#utility.yul\":8727:8792   */\n      tag_367\n        /* \"#utility.yul\":8785:8791   */\n      dup2\n        /* \"#utility.yul\":8780:8783   */\n      dup6\n        /* \"#utility.yul\":8773:8777   */\n      0x20\n        /* \"#utility.yul\":8766:8771   */\n      dup7\n        /* \"#utility.yul\":8762:8778   */\n      add\n        /* \"#utility.yul\":8727:8792   */\n      tag_250\n      jump\t// in\n    tag_367:\n        /* \"#utility.yul\":8817:8846   */\n      tag_368\n        /* \"#utility.yul\":8839:8845   */\n      dup2\n        /* \"#utility.yul\":8817:8846   */\n      tag_230\n      jump\t// in\n    tag_368:\n        /* \"#utility.yul\":8812:8815   */\n      dup5\n        /* \"#utility.yul\":8808:8847   */\n      add\n        /* \"#utility.yul\":8801:8847   */\n      swap2\n      pop\n        /* \"#utility.yul\":8568:8853   */\n      pop\n        /* \"#utility.yul\":8476:8853   */\n      swap3\n      swap2\n      pop\n      pop\n      jump\t// out\n        /* \"#utility.yul\":8859:9172   */\n    tag_63:\n        /* \"#utility.yul\":8972:8976   */\n      0x00\n        /* \"#utility.yul\":9010:9012   */\n      0x20\n        /* \"#utility.yul\":8999:9008   */\n      dup3\n        /* \"#utility.yul\":8995:9013   */\n      add\n        /* \"#utility.yul\":8987:9013   */\n      swap1\n      pop\n        /* \"#utility.yul\":9059:9068   */\n      dup2\n        /* \"#utility.yul\":9053:9057   */\n      dup2\n        /* \"#utility.yul\":9049:9069   */\n      sub\n        /* \"#utility.yul\":9045:9046   */\n      0x00\n        /* \"#utility.yul\":9034:9043   */\n      dup4\n        /* \"#utility.yul\":9030:9047   */\n      add\n        /* \"#utility.yul\":9023:9070   */\n      mstore\n        /* \"#utility.yul\":9087:9165   */\n      tag_370\n        /* \"#utility.yul\":9160:9164   */\n      dup2\n        /* \"#utility.yul\":9151:9157   */\n      dup5\n        /* \"#utility.yul\":9087:9165   */\n      tag_254\n      jump\t// in\n    tag_370:\n        /* \"#utility.yul\":9079:9165   */\n      swap1\n      pop\n        /* \"#utility.yul\":8859:9172   */\n      swap3\n      swap2\n      pop\n      pop\n      jump\t// out\n        /* \"#utility.yul\":9178:9507   */\n    tag_80:\n        /* \"#utility.yul\":9237:9243   */\n      0x00\n        /* \"#utility.yul\":9286:9288   */\n      0x20\n        /* \"#utility.yul\":9274:9283   */\n      dup3\n        /* \"#utility.yul\":9265:9272   */\n      dup5\n        /* \"#utility.yul\":9261:9284   */\n      sub\n        /* \"#utility.yul\":9257:9289   */\n      slt\n        /* \"#utility.yul\":9254:9373   */\n      iszero\n      tag_372\n      jumpi\n        /* \"#utility.yul\":9292:9371   */\n      tag_373\n      tag_222\n      jump\t// in\n    tag_373:\n        /* \"#utility.yul\":9254:9373   */\n    tag_372:\n        /* \"#utility.yul\":9412:9413   */\n      0x00\n        /* \"#utility.yul\":9437:9490   */\n      tag_374\n        /* \"#utility.yul\":9482:9489   */\n      dup5\n        /* \"#utility.yul\":9473:9479   */\n      dup3\n        /* \"#utility.yul\":9462:9471   */\n      dup6\n        /* \"#utility.yul\":9458:9480   */\n      add\n        /* \"#utility.yul\":9437:9490   */\n      tag_227\n      jump\t// in\n    tag_374:\n        /* \"#utility.yul\":9427:9490   */\n      swap2\n      pop\n        /* \"#utility.yul\":9383:9500   */\n      pop\n        /* \"#utility.yul\":9178:9507   */\n      swap3\n      swap2\n      pop\n      pop\n      jump\t// out\n        /* \"#utility.yul\":9513:9842   */\n    tag_85:\n        /* \"#utility.yul\":9572:9578   */\n      0x00\n        /* \"#utility.yul\":9621:9623   */\n      0x20\n        /* \"#utility.yul\":9609:9618   */\n      dup3\n        /* \"#utility.yul\":9600:9607   */\n      dup5\n        /* \"#utility.yul\":9596:9619   */\n      sub\n        /* \"#utility.yul\":9592:9624   */\n      slt\n        /* \"#utility.yul\":9589:9708   */\n      iszero\n      tag_376\n      jumpi\n        /* \"#utility.yul\":9627:9706   */\n      tag_377\n      tag_222\n      jump\t// in\n    tag_377:\n        /* \"#utility.yul\":9589:9708   */\n    tag_376:\n        /* \"#utility.yul\":9747:9748   */\n      0x00\n        /* \"#utility.yul\":9772:9825   */\n      tag_378\n        /* \"#utility.yul\":9817:9824   */\n      dup5\n        /* \"#utility.yul\":9808:9814   */\n      dup3\n        /* \"#utility.yul\":9797:9806   */\n      dup6\n        /* \"#utility.yul\":9793:9815   */\n      add\n        /* \"#utility.yul\":9772:9825   */\n      tag_247\n      jump\t// in\n    tag_378:\n        /* \"#utility.yul\":9762:9825   */\n      swap2\n      pop\n        /* \"#utility.yul\":9718:9835   */\n      pop\n        /* \"#utility.yul\":9513:9842   */\n      swap3\n      swap2\n      pop\n      pop\n      jump\t// out\n        /* \"#utility.yul\":9848:10028   */\n    tag_255:\n        /* \"#utility.yul\":9896:9973   */\n      0x4e487b7100000000000000000000000000000000000000000000000000000000\n        /* \"#utility.yul\":9893:9894   */\n      0x00\n        /* \"#utility.yul\":9886:9974   */\n      mstore\n        /* \"#utility.yul\":9993:9997   */\n      0x11\n        /* \"#utility.yul\":9990:9991   */\n      0x04\n        /* \"#utility.yul\":9983:9998   */\n      mstore\n        /* \"#utility.yul\":10017:10021   */\n      0x24\n        /* \"#utility.yul\":10014:10015   */\n      0x00\n        /* \"#utility.yul\":10007:10022   */\n      revert\n        /* \"#utility.yul\":10034:10225   */\n    tag_92:\n        /* \"#utility.yul\":10074:10077   */\n      0x00\n        /* \"#utility.yul\":10093:10113   */\n      tag_381\n        /* \"#utility.yul\":10111:10112   */\n      dup3\n        /* \"#utility.yul\":10093:10113   */\n      tag_240\n      jump\t// in\n    tag_381:\n        /* \"#utility.yul\":10088:10113   */\n      swap2\n      pop\n        /* \"#utility.yul\":10127:10147   */\n      tag_382\n        /* \"#utility.yul\":10145:10146   */\n      dup4\n        /* \"#utility.yul\":10127:10147   */\n      tag_240\n      jump\t// in\n    tag_382:\n        /* \"#utility.yul\":10122:10147   */\n      swap3\n      pop\n        /* \"#utility.yul\":10170:10171   */\n      dup3\n        /* \"#utility.yul\":10167:10168   */\n      dup3\n        /* \"#utility.yul\":10163:10172   */\n      add\n        /* \"#utility.yul\":10156:10172   */\n      swap1\n      pop\n        /* \"#utility.yul\":10191:10194   */\n      dup1\n        /* \"#utility.yul\":10188:10189   */\n      dup3\n        /* \"#utility.yul\":10185:10195   */\n      gt\n        /* \"#utility.yul\":10182:10218   */\n      iszero\n      tag_383\n      jumpi\n        /* \"#utility.yul\":10198:10216   */\n      tag_384\n      tag_255\n      jump\t// in\n    tag_384:\n        /* \"#utility.yul\":10182:10218   */\n    tag_383:\n        /* \"#utility.yul\":10034:10225   */\n      swap3\n      swap2\n      pop\n      pop\n      jump\t// out\n        /* \"#utility.yul\":10231:10379   */\n    tag_256:\n        /* \"#utility.yul\":10333:10344   */\n      0x00\n        /* \"#utility.yul\":10370:10373   */\n      dup2\n        /* \"#utility.yul\":10355:10373   */\n      swap1\n      pop\n        /* \"#utility.yul\":10231:10379   */\n      swap3\n      swap2\n      pop\n      pop\n      jump\t// out\n        /* \"#utility.yul\":10385:10775   */\n    tag_257:\n        /* \"#utility.yul\":10491:10494   */\n      0x00\n        /* \"#utility.yul\":10519:10558   */\n      tag_387\n        /* \"#utility.yul\":10552:10557   */\n      dup3\n        /* \"#utility.yul\":10519:10558   */\n      tag_252\n      jump\t// in\n    tag_387:\n        /* \"#utility.yul\":10574:10663   */\n      tag_388\n        /* \"#utility.yul\":10656:10662   */\n      dup2\n        /* \"#utility.yul\":10651:10654   */\n      dup6\n        /* \"#utility.yul\":10574:10663   */\n      tag_256\n      jump\t// in\n    tag_388:\n        /* \"#utility.yul\":10567:10663   */\n      swap4\n      pop\n        /* \"#utility.yul\":10672:10737   */\n      tag_389\n        /* \"#utility.yul\":10730:10736   */\n      dup2\n        /* \"#utility.yul\":10725:10728   */\n      dup6\n        /* \"#utility.yul\":10718:10722   */\n      0x20\n        /* \"#utility.yul\":10711:10716   */\n      dup7\n        /* \"#utility.yul\":10707:10723   */\n      add\n        /* \"#utility.yul\":10672:10737   */\n      tag_250\n      jump\t// in\n    tag_389:\n        /* \"#utility.yul\":10762:10768   */\n      dup1\n        /* \"#utility.yul\":10757:10760   */\n      dup5\n        /* \"#utility.yul\":10753:10769   */\n      add\n        /* \"#utility.yul\":10746:10769   */\n      swap2\n      pop\n        /* \"#utility.yul\":10495:10775   */\n      pop\n        /* \"#utility.yul\":10385:10775   */\n      swap3\n      swap2\n      pop\n      pop\n      jump\t// out\n        /* \"#utility.yul\":10781:11056   */\n    tag_121:\n        /* \"#utility.yul\":10913:10916   */\n      0x00\n        /* \"#utility.yul\":10935:11030   */\n      tag_391\n        /* \"#utility.yul\":11026:11029   */\n      dup3\n        /* \"#utility.yul\":11017:11023   */\n      dup5\n        /* \"#utility.yul\":10935:11030   */\n      tag_257\n      jump\t// in\n    tag_391:\n        /* \"#utility.yul\":10928:11030   */\n      swap2\n      pop\n        /* \"#utility.yul\":11047:11050   */\n      dup2\n        /* \"#utility.yul\":11040:11050   */\n      swap1\n      pop\n        /* \"#utility.yul\":10781:11056   */\n      swap3\n      swap2\n      pop\n      pop\n      jump\t// out\n        /* \"#utility.yul\":11062:11481   */\n    tag_129:\n        /* \"#utility.yul\":11201:11205   */\n      0x00\n        /* \"#utility.yul\":11239:11241   */\n      0x40\n        /* \"#utility.yul\":11228:11237   */\n      dup3\n        /* \"#utility.yul\":11224:11242   */\n      add\n        /* \"#utility.yul\":11216:11242   */\n      swap1\n      pop\n        /* \"#utility.yul\":11252:11323   */\n      tag_393\n        /* \"#utility.yul\":11320:11321   */\n      0x00\n        /* \"#utility.yul\":11309:11318   */\n      dup4\n        /* \"#utility.yul\":11305:11322   */\n      add\n        /* \"#utility.yul\":11296:11302   */\n      dup6\n        /* \"#utility.yul\":11252:11323   */\n      tag_242\n      jump\t// in\n    tag_393:\n        /* \"#utility.yul\":11370:11379   */\n      dup2\n        /* \"#utility.yul\":11364:11368   */\n      dup2\n        /* \"#utility.yul\":11360:11380   */\n      sub\n        /* \"#utility.yul\":11355:11357   */\n      0x20\n        /* \"#utility.yul\":11344:11353   */\n      dup4\n        /* \"#utility.yul\":11340:11358   */\n      add\n        /* \"#utility.yul\":11333:11381   */\n      mstore\n        /* \"#utility.yul\":11398:11474   */\n      tag_394\n        /* \"#utility.yul\":11469:11473   */\n      dup2\n        /* \"#utility.yul\":11460:11466   */\n      dup5\n        /* \"#utility.yul\":11398:11474   */\n      tag_251\n      jump\t// in\n    tag_394:\n        /* \"#utility.yul\":11390:11474   */\n      swap1\n      pop\n        /* \"#utility.yul\":11062:11481   */\n      swap4\n      swap3\n      pop\n      pop\n      pop\n      jump\t// out\n        /* \"#utility.yul\":11487:11588   */\n    tag_258:\n        /* \"#utility.yul\":11523:11530   */\n      0x00\n        /* \"#utility.yul\":11563:11581   */\n      0xffffffffffffffff\n        /* \"#utility.yul\":11556:11561   */\n      dup3\n        /* \"#utility.yul\":11552:11582   */\n      and\n        /* \"#utility.yul\":11541:11582   */\n      swap1\n      pop\n        /* \"#utility.yul\":11487:11588   */\n      swap2\n      swap1\n      pop\n      jump\t// out\n        /* \"#utility.yul\":11594:11709   */\n    tag_259:\n        /* \"#utility.yul\":11679:11702   */\n      tag_397\n        /* \"#utility.yul\":11696:11701   */\n      dup2\n        /* \"#utility.yul\":11679:11702   */\n      tag_258\n      jump\t// in\n    tag_397:\n        /* \"#utility.yul\":11674:11677   */\n      dup3\n        /* \"#utility.yul\":11667:11703   */\n      mstore\n        /* \"#utility.yul\":11594:11709   */\n      pop\n      pop\n      jump\t// out\n        /* \"#utility.yul\":11715:11933   */\n    tag_146:\n        /* \"#utility.yul\":11806:11810   */\n      0x00\n        /* \"#utility.yul\":11844:11846   */\n      0x20\n        /* \"#utility.yul\":11833:11842   */\n      dup3\n        /* \"#utility.yul\":11829:11847   */\n      add\n        /* \"#utility.yul\":11821:11847   */\n      swap1\n      pop\n        /* \"#utility.yul\":11857:11926   */\n      tag_399\n        /* \"#utility.yul\":11923:11924   */\n      0x00\n        /* \"#utility.yul\":11912:11921   */\n      dup4\n        /* \"#utility.yul\":11908:11925   */\n      add\n        /* \"#utility.yul\":11899:11905   */\n      dup5\n        /* \"#utility.yul\":11857:11926   */\n      tag_259\n      jump\t// in\n    tag_399:\n        /* \"#utility.yul\":11715:11933   */\n      swap3\n      swap2\n      pop\n      pop\n      jump\t// out\n        /* \"#utility.yul\":11939:12061   */\n    tag_260:\n        /* \"#utility.yul\":12012:12036   */\n      tag_401\n        /* \"#utility.yul\":12030:12035   */\n      dup2\n        /* \"#utility.yul\":12012:12036   */\n      tag_238\n      jump\t// in\n    tag_401:\n        /* \"#utility.yul\":12005:12010   */\n      dup2\n        /* \"#utility.yul\":12002:12037   */\n      eq\n        /* \"#utility.yul\":11992:12055   */\n      tag_402\n      jumpi\n        /* \"#utility.yul\":12051:12052   */\n      0x00\n        /* \"#utility.yul\":12048:12049   */\n      dup1\n        /* \"#utility.yul\":12041:12053   */\n      revert\n        /* \"#utility.yul\":11992:12055   */\n    tag_402:\n        /* \"#utility.yul\":11939:12061   */\n      pop\n      jump\t// out\n        /* \"#utility.yul\":12067:12210   */\n    tag_261:\n        /* \"#utility.yul\":12124:12129   */\n      0x00\n        /* \"#utility.yul\":12155:12161   */\n      dup2\n        /* \"#utility.yul\":12149:12162   */\n      mload\n        /* \"#utility.yul\":12140:12162   */\n      swap1\n      pop\n        /* \"#utility.yul\":12171:12204   */\n      tag_404\n        /* \"#utility.yul\":12198:12203   */\n      dup2\n        /* \"#utility.yul\":12171:12204   */\n      tag_260\n      jump\t// in\n    tag_404:\n        /* \"#utility.yul\":12067:12210   */\n      swap3\n      swap2\n      pop\n      pop\n      jump\t// out\n        /* \"#utility.yul\":12216:12567   */\n    tag_158:\n        /* \"#utility.yul\":12286:12292   */\n      0x00\n        /* \"#utility.yul\":12335:12337   */\n      0x20\n        /* \"#utility.yul\":12323:12332   */\n      dup3\n        /* \"#utility.yul\":12314:12321   */\n      dup5\n        /* \"#utility.yul\":12310:12333   */\n      sub\n        /* \"#utility.yul\":12306:12338   */\n      slt\n        /* \"#utility.yul\":12303:12422   */\n      iszero\n      tag_406\n      jumpi\n        /* \"#utility.yul\":12341:12420   */\n      tag_407\n      tag_222\n      jump\t// in\n    tag_407:\n        /* \"#utility.yul\":12303:12422   */\n    tag_406:\n        /* \"#utility.yul\":12461:12462   */\n      0x00\n        /* \"#utility.yul\":12486:12550   */\n      tag_408\n        /* \"#utility.yul\":12542:12549   */\n      dup5\n        /* \"#utility.yul\":12533:12539   */\n      dup3\n        /* \"#utility.yul\":12522:12531   */\n      dup6\n        /* \"#utility.yul\":12518:12540   */\n      add\n        /* \"#utility.yul\":12486:12550   */\n      tag_261\n      jump\t// in\n    tag_408:\n        /* \"#utility.yul\":12476:12550   */\n      swap2\n      pop\n        /* \"#utility.yul\":12432:12560   */\n      pop\n        /* \"#utility.yul\":12216:12567   */\n      swap3\n      swap2\n      pop\n      pop\n      jump\t// out\n        /* \"#utility.yul\":12573:12720   */\n    tag_262:\n        /* \"#utility.yul\":12674:12685   */\n      0x00\n        /* \"#utility.yul\":12711:12714   */\n      dup2\n        /* \"#utility.yul\":12696:12714   */\n      swap1\n      pop\n        /* \"#utility.yul\":12573:12720   */\n      swap3\n      swap2\n      pop\n      pop\n      jump\t// out\n        /* \"#utility.yul\":12726:13112   */\n    tag_263:\n        /* \"#utility.yul\":12830:12833   */\n      0x00\n        /* \"#utility.yul\":12858:12896   */\n      tag_411\n        /* \"#utility.yul\":12890:12895   */\n      dup3\n        /* \"#utility.yul\":12858:12896   */\n      tag_248\n      jump\t// in\n    tag_411:\n        /* \"#utility.yul\":12912:13000   */\n      tag_412\n        /* \"#utility.yul\":12993:12999   */\n      dup2\n        /* \"#utility.yul\":12988:12991   */\n      dup6\n        /* \"#utility.yul\":12912:13000   */\n      tag_262\n      jump\t// in\n    tag_412:\n        /* \"#utility.yul\":12905:13000   */\n      swap4\n      pop\n        /* \"#utility.yul\":13009:13074   */\n      tag_413\n        /* \"#utility.yul\":13067:13073   */\n      dup2\n        /* \"#utility.yul\":13062:13065   */\n      dup6\n        /* \"#utility.yul\":13055:13059   */\n      0x20\n        /* \"#utility.yul\":13048:13053   */\n      dup7\n        /* \"#utility.yul\":13044:13060   */\n      add\n        /* \"#utility.yul\":13009:13074   */\n      tag_250\n      jump\t// in\n    tag_413:\n        /* \"#utility.yul\":13099:13105   */\n      dup1\n        /* \"#utility.yul\":13094:13097   */\n      dup5\n        /* \"#utility.yul\":13090:13106   */\n      add\n        /* \"#utility.yul\":13083:13106   */\n      swap2\n      pop\n        /* \"#utility.yul\":12834:13112   */\n      pop\n        /* \"#utility.yul\":12726:13112   */\n      swap3\n      swap2\n      pop\n      pop\n      jump\t// out\n        /* \"#utility.yul\":13118:13389   */\n    tag_202:\n        /* \"#utility.yul\":13248:13251   */\n      0x00\n        /* \"#utility.yul\":13270:13363   */\n      tag_415\n        /* \"#utility.yul\":13359:13362   */\n      dup3\n        /* \"#utility.yul\":13350:13356   */\n      dup5\n        /* \"#utility.yul\":13270:13363   */\n      tag_263\n      jump\t// in\n    tag_415:\n        /* \"#utility.yul\":13263:13363   */\n      swap2\n      pop\n        /* \"#utility.yul\":13380:13383   */\n      dup2\n        /* \"#utility.yul\":13373:13383   */\n      swap1\n      pop\n        /* \"#utility.yul\":13118:13389   */\n      swap3\n      swap2\n      pop\n      pop\n      jump\t// out\n\n    auxdata: 0xa264697066735822122016ada21a743efb729f0bebfb53e8e478dd7a3362fbcaac83c01e3fcf0ed22cd064736f6c63430008160033\n}\n",
				"bytecode": {
					"linkReferences": {},
					"object": "60a06040523073ffffffffffffffffffffffffffffffffffffffff1660809073ffffffffffffffffffffffffffffffffffffffff16815250348015610042575f80fd5b506080516116366100695f395f81816107ce0152818161082301526109dd01526116365ff3fe6080604052600436106100e7575f3560e01c806394f3714911610089578063cdb6ed1b11610058578063cdb6ed1b14610281578063f2c9ecd8146102bd578063f2fde38b146102e7578063fe4b84df1461030f576100e7565b806394f37149146101c75780639e911f4c14610203578063ad3cb1cc1461022d578063c223a39e14610257576100e7565b806352d1902d116100c557806352d1902d14610133578063715018a61461015d5780638381f58a146101735780638da5cb5b1461019d576100e7565b80633aeb111a146100eb5780634154b243146101015780634f1ef28614610117575b5f80fd5b3480156100f6575f80fd5b506100ff610337565b005b34801561010c575f80fd5b50610115610354565b005b610131600480360381019061012c91906110da565b610371565b005b34801561013e575f80fd5b50610147610390565b604051610154919061114c565b60405180910390f35b348015610168575f80fd5b506101716103c1565b005b34801561017e575f80fd5b506101876103d4565b604051610194919061117d565b60405180910390f35b3480156101a8575f80fd5b506101b16103d9565b6040516101be91906111a5565b60405180910390f35b3480156101d2575f80fd5b506101ed60048036038101906101e89190611286565b61040e565b6040516101fa919061135a565b60405180910390f35b34801561020e575f80fd5b50610217610522565b604051610224919061117d565b60405180910390f35b348015610238575f80fd5b50610241610532565b60405161024e91906113cc565b60405180910390f35b348015610262575f80fd5b5061026b61056b565b604051610278919061117d565b60405180910390f35b34801561028c575f80fd5b506102a760048036038101906102a291906110da565b610571565b6040516102b4919061135a565b60405180910390f35b3480156102c8575f80fd5b506102d161060b565b6040516102de919061117d565b60405180910390f35b3480156102f2575f80fd5b5061030d600480360381019061030891906113ec565b61061b565b005b34801561031a575f80fd5b5061033560048036038101906103309190611417565b61069f565b005b61033f6107cc565b60025f5461034d919061146f565b5f81905550565b61035c6107cc565b60015f5461036a919061146f565b5f81905550565b6103796107cc565b610382826108b2565b61038c82826108bd565b5050565b5f6103996109db565b7f360894a13ba1a3210667c828492db98dca3e2076cc3735a920a3ca505d382bbc5f1b905090565b6103c9610a62565b6103d25f610ae9565b565b5f5481565b5f806103e3610bba565b9050805f015f9054906101000a900473ffffffffffffffffffffffffffffffffffffffff1691505090565b60605f82146104a0578282604051602401610429919061117d565b6040516020818303038152906040529060405161044691906114dc565b60405180910390207bffffffffffffffffffffffffffffffffffffffffffffffffffffffff19166020820180517bffffffffffffffffffffffffffffffffffffffffffffffffffffffff838183161783525050505061051a565b82604051602401604051602081830303815290604052906040516104c491906114dc565b60405180910390207bffffffffffffffffffffffffffffffffffffffffffffffffffffffff19166020820180517bffffffffffffffffffffffffffffffffffffffffffffffffffffffff83818316178352505050505b905092915050565b5f61052b6107cc565b5f54905090565b6040518060400160405280600581526020017f352e302e3000000000000000000000000000000000000000000000000000000081525081565b60015481565b606082826040516024016105869291906114f2565b6040516020818303038152906040527f4f1ef286000000000000000000000000000000000000000000000000000000007bffffffffffffffffffffffffffffffffffffffffffffffffffffffff19166020820180517bffffffffffffffffffffffffffffffffffffffffffffffffffffffff8381831617835250505050905092915050565b5f6106146107cc565b5f54905090565b610623610a62565b5f73ffffffffffffffffffffffffffffffffffffffff168173ffffffffffffffffffffffffffffffffffffffff1603610693575f6040517f1e4fbdf700000000000000000000000000000000000000000000000000000000815260040161068a91906111a5565b60405180910390fd5b61069c81610ae9565b50565b60025f6106aa610be1565b9050805f0160089054906101000a900460ff16806106f257508167ffffffffffffffff16815f015f9054906101000a900467ffffffffffffffff1667ffffffffffffffff1610155b15610729576040517ff92ee8a900000000000000000000000000000000000000000000000000000000815260040160405180910390fd5b81815f015f6101000a81548167ffffffffffffffff021916908367ffffffffffffffff1602179055506001815f0160086101000a81548160ff021916908315150217905550826001819055505f815f0160086101000a81548160ff0219169083151502179055507fc7f505b2f371ae2175ee4913f4499e1f2633a7b5936321eed1cdaeb6115181d2826040516107bf9190611542565b60405180910390a1505050565b7f000000000000000000000000000000000000000000000000000000000000000073ffffffffffffffffffffffffffffffffffffffff163073ffffffffffffffffffffffffffffffffffffffff16148061087957507f000000000000000000000000000000000000000000000000000000000000000073ffffffffffffffffffffffffffffffffffffffff16610860610c08565b73ffffffffffffffffffffffffffffffffffffffff1614155b156108b0576040517fe07c8dba00000000000000000000000000000000000000000000000000000000815260040160405180910390fd5b565b6108ba610a62565b50565b8173ffffffffffffffffffffffffffffffffffffffff166352d1902d6040518163ffffffff1660e01b8152600401602060405180830381865afa92505050801561092557506040513d601f19601f820116820180604052508101906109229190611585565b60015b61096657816040517f4c9c8ce300000000000000000000000000000000000000000000000000000000815260040161095d91906111a5565b60405180910390fd5b7f360894a13ba1a3210667c828492db98dca3e2076cc3735a920a3ca505d382bbc5f1b81146109cc57806040517faa1d49a40000000000000000000000000000000000000000000000000000000081526004016109c3919061114c565b60405180910390fd5b6109d68383610c5b565b505050565b7f000000000000000000000000000000000000000000000000000000000000000073ffffffffffffffffffffffffffffffffffffffff163073ffffffffffffffffffffffffffffffffffffffff1614610a60576040517fe07c8dba00000000000000000000000000000000000000000000000000000000815260040160405180910390fd5b565b610a6a610ccd565b73ffffffffffffffffffffffffffffffffffffffff16610a886103d9565b73ffffffffffffffffffffffffffffffffffffffff1614610ae757610aab610ccd565b6040517f118cdaa7000000000000000000000000000000000000000000000000000000008152600401610ade91906111a5565b60405180910390fd5b565b5f610af2610bba565b90505f815f015f9054906101000a900473ffffffffffffffffffffffffffffffffffffffff16905082825f015f6101000a81548173ffffffffffffffffffffffffffffffffffffffff021916908373ffffffffffffffffffffffffffffffffffffffff1602179055508273ffffffffffffffffffffffffffffffffffffffff168173ffffffffffffffffffffffffffffffffffffffff167f8be0079c531659141344cd1fd0a4f28419497f9722a3daafe3b4186f6b6457e060405160405180910390a3505050565b5f7f9016d09d72d40fdae2fd8ceac6b6234c7706214fd39c1cd1e609a0528c199300905090565b5f7ff0c57e16840df040f15088dc2f81fe391c3923bec73e23a9662efc9c229c6a00905090565b5f610c347f360894a13ba1a3210667c828492db98dca3e2076cc3735a920a3ca505d382bbc5f1b610cd4565b5f015f9054906101000a900473ffffffffffffffffffffffffffffffffffffffff16905090565b610c6482610cdd565b8173ffffffffffffffffffffffffffffffffffffffff167fbc7cd75a20ee27fd9adebab32041f755214dbc6bffa90cc0225b39da2e5c2d3b60405160405180910390a25f81511115610cc057610cba8282610da6565b50610cc9565b610cc8610e26565b5b5050565b5f33905090565b5f819050919050565b5f8173ffffffffffffffffffffffffffffffffffffffff163b03610d3857806040517f4c9c8ce3000000000000000000000000000000000000000000000000000000008152600401610d2f91906111a5565b60405180910390fd5b80610d647f360894a13ba1a3210667c828492db98dca3e2076cc3735a920a3ca505d382bbc5f1b610cd4565b5f015f6101000a81548173ffffffffffffffffffffffffffffffffffffffff021916908373ffffffffffffffffffffffffffffffffffffffff16021790555050565b60605f808473ffffffffffffffffffffffffffffffffffffffff1684604051610dcf91906115ea565b5f60405180830381855af49150503d805f8114610e07576040519150601f19603f3d011682016040523d82523d5f602084013e610e0c565b606091505b5091509150610e1c858383610e62565b9250505092915050565b5f341115610e60576040517fb398979f00000000000000000000000000000000000000000000000000000000815260040160405180910390fd5b565b606082610e7757610e7282610eef565b610ee7565b5f8251148015610e9d57505f8473ffffffffffffffffffffffffffffffffffffffff163b145b15610edf57836040517f9996b315000000000000000000000000000000000000000000000000000000008152600401610ed691906111a5565b60405180910390fd5b819050610ee8565b5b9392505050565b5f81511115610f015780518082602001fd5b6040517f1425ea4200000000000000000000000000000000000000000000000000000000815260040160405180910390fd5b5f604051905090565b5f80fd5b5f80fd5b5f73ffffffffffffffffffffffffffffffffffffffff82169050919050565b5f610f6d82610f44565b9050919050565b610f7d81610f63565b8114610f87575f80fd5b50565b5f81359050610f9881610f74565b92915050565b5f80fd5b5f80fd5b5f601f19601f8301169050919050565b7f4e487b71000000000000000000000000000000000000000000000000000000005f52604160045260245ffd5b610fec82610fa6565b810181811067ffffffffffffffff8211171561100b5761100a610fb6565b5b80604052505050565b5f61101d610f33565b90506110298282610fe3565b919050565b5f67ffffffffffffffff82111561104857611047610fb6565b5b61105182610fa6565b9050602081019050919050565b828183375f83830152505050565b5f61107e6110798461102e565b611014565b90508281526020810184848401111561109a57611099610fa2565b5b6110a584828561105e565b509392505050565b5f82601f8301126110c1576110c0610f9e565b5b81356110d184826020860161106c565b91505092915050565b5f80604083850312156110f0576110ef610f3c565b5b5f6110fd85828601610f8a565b925050602083013567ffffffffffffffff81111561111e5761111d610f40565b5b61112a858286016110ad565b9150509250929050565b5f819050919050565b61114681611134565b82525050565b5f60208201905061115f5f83018461113d565b92915050565b5f819050919050565b61117781611165565b82525050565b5f6020820190506111905f83018461116e565b92915050565b61119f81610f63565b82525050565b5f6020820190506111b85f830184611196565b92915050565b5f67ffffffffffffffff8211156111d8576111d7610fb6565b5b6111e182610fa6565b9050602081019050919050565b5f6112006111fb846111be565b611014565b90508281526020810184848401111561121c5761121b610fa2565b5b61122784828561105e565b509392505050565b5f82601f83011261124357611242610f9e565b5b81356112538482602086016111ee565b91505092915050565b61126581611165565b811461126f575f80fd5b50565b5f813590506112808161125c565b92915050565b5f806040838503121561129c5761129b610f3c565b5b5f83013567ffffffffffffffff8111156112b9576112b8610f40565b5b6112c58582860161122f565b92505060206112d685828601611272565b9150509250929050565b5f81519050919050565b5f82825260208201905092915050565b5f5b838110156113175780820151818401526020810190506112fc565b5f8484015250505050565b5f61132c826112e0565b61133681856112ea565b93506113468185602086016112fa565b61134f81610fa6565b840191505092915050565b5f6020820190508181035f8301526113728184611322565b905092915050565b5f81519050919050565b5f82825260208201905092915050565b5f61139e8261137a565b6113a88185611384565b93506113b88185602086016112fa565b6113c181610fa6565b840191505092915050565b5f6020820190508181035f8301526113e48184611394565b905092915050565b5f6020828403121561140157611400610f3c565b5b5f61140e84828501610f8a565b91505092915050565b5f6020828403121561142c5761142b610f3c565b5b5f61143984828501611272565b91505092915050565b7f4e487b71000000000000000000000000000000000000000000000000000000005f52601160045260245ffd5b5f61147982611165565b915061148483611165565b925082820190508082111561149c5761149b611442565b5b92915050565b5f81905092915050565b5f6114b68261137a565b6114c081856114a2565b93506114d08185602086016112fa565b80840191505092915050565b5f6114e782846114ac565b915081905092915050565b5f6040820190506115055f830185611196565b81810360208301526115178184611322565b90509392505050565b5f67ffffffffffffffff82169050919050565b61153c81611520565b82525050565b5f6020820190506115555f830184611533565b92915050565b61156481611134565b811461156e575f80fd5b50565b5f8151905061157f8161155b565b92915050565b5f6020828403121561159a57611599610f3c565b5b5f6115a784828501611571565b91505092915050565b5f81905092915050565b5f6115c4826112e0565b6115ce81856115b0565b93506115de8185602086016112fa565b80840191505092915050565b5f6115f582846115ba565b91508190509291505056fea264697066735822122016ada21a743efb729f0bebfb53e8e478dd7a3362fbcaac83c01e3fcf0ed22cd064736f6c63430008160033",
					"opcodes": "PUSH1 0xA0 PUSH1 0x40 MSTORE ADDRESS PUSH20 0xFFFFFFFFFFFFFFFFFFFFFFFFFFFFFFFFFFFFFFFF AND PUSH1 0x80 SWAP1 PUSH20 0xFFFFFFFFFFFFFFFFFFFFFFFFFFFFFFFFFFFFFFFF AND DUP2 MSTORE POP CALLVALUE DUP1 ISZERO PUSH2 0x42 JUMPI PUSH0 DUP1 REVERT JUMPDEST POP PUSH1 0x80 MLOAD PUSH2 0x1636 PUSH2 0x69 PUSH0 CODECOPY PUSH0 DUP2 DUP2 PUSH2 0x7CE ADD MSTORE DUP2 DUP2 PUSH2 0x823 ADD MSTORE PUSH2 0x9DD ADD MSTORE PUSH2 0x1636 PUSH0 RETURN INVALID PUSH1 0x80 PUSH1 0x40 MSTORE PUSH1 0x4 CALLDATASIZE LT PUSH2 0xE7 JUMPI PUSH0 CALLDATALOAD PUSH1 0xE0 SHR DUP1 PUSH4 0x94F37149 GT PUSH2 0x89 JUMPI DUP1 PUSH4 0xCDB6ED1B GT PUSH2 0x58 JUMPI DUP1 PUSH4 0xCDB6ED1B EQ PUSH2 0x281 JUMPI DUP1 PUSH4 0xF2C9ECD8 EQ PUSH2 0x2BD JUMPI DUP1 PUSH4 0xF2FDE38B EQ PUSH2 0x2E7 JUMPI DUP1 PUSH4 0xFE4B84DF EQ PUSH2 0x30F JUMPI PUSH2 0xE7 JUMP JUMPDEST DUP1 PUSH4 0x94F37149 EQ PUSH2 0x1C7 JUMPI DUP1 PUSH4 0x9E911F4C EQ PUSH2 0x203 JUMPI DUP1 PUSH4 0xAD3CB1CC EQ PUSH2 0x22D JUMPI DUP1 PUSH4 0xC223A39E EQ PUSH2 0x257 JUMPI PUSH2 0xE7 JUMP JUMPDEST DUP1 PUSH4 0x52D1902D GT PUSH2 0xC5 JUMPI DUP1 PUSH4 0x52D1902D EQ PUSH2 0x133 JUMPI DUP1 PUSH4 0x715018A6 EQ PUSH2 0x15D JUMPI DUP1 PUSH4 0x8381F58A EQ PUSH2 0x173 JUMPI DUP1 PUSH4 0x8DA5CB5B EQ PUSH2 0x19D JUMPI PUSH2 0xE7 JUMP JUMPDEST DUP1 PUSH4 0x3AEB111A EQ PUSH2 0xEB JUMPI DUP1 PUSH4 0x4154B243 EQ PUSH2 0x101 JUMPI DUP1 PUSH4 0x4F1EF286 EQ PUSH2 0x117 JUMPI JUMPDEST PUSH0 DUP1 REVERT JUMPDEST CALLVALUE DUP1 ISZERO PUSH2 0xF6 JUMPI PUSH0 DUP1 REVERT JUMPDEST POP PUSH2 0xFF PUSH2 0x337 JUMP JUMPDEST STOP JUMPDEST CALLVALUE DUP1 ISZERO PUSH2 0x10C JUMPI PUSH0 DUP1 REVERT JUMPDEST POP PUSH2 0x115 PUSH2 0x354 JUMP JUMPDEST STOP JUMPDEST PUSH2 0x131 PUSH1 0x4 DUP1 CALLDATASIZE SUB DUP2 ADD SWAP1 PUSH2 0x12C SWAP2 SWAP1 PUSH2 0x10DA JUMP JUMPDEST PUSH2 0x371 JUMP JUMPDEST STOP JUMPDEST CALLVALUE DUP1 ISZERO PUSH2 0x13E JUMPI PUSH0 DUP1 REVERT JUMPDEST POP PUSH2 0x147 PUSH2 0x390 JUMP JUMPDEST PUSH1 0x40 MLOAD PUSH2 0x154 SWAP2 SWAP1 PUSH2 0x114C JUMP JUMPDEST PUSH1 0x40 MLOAD DUP1 SWAP2 SUB SWAP1 RETURN JUMPDEST CALLVALUE DUP1 ISZERO PUSH2 0x168 JUMPI PUSH0 DUP1 REVERT JUMPDEST POP PUSH2 0x171 PUSH2 0x3C1 JUMP JUMPDEST STOP JUMPDEST CALLVALUE DUP1 ISZERO PUSH2 0x17E JUMPI PUSH0 DUP1 REVERT JUMPDEST POP PUSH2 0x187 PUSH2 0x3D4 JUMP JUMPDEST PUSH1 0x40 MLOAD PUSH2 0x194 SWAP2 SWAP1 PUSH2 0x117D JUMP JUMPDEST PUSH1 0x40 MLOAD DUP1 SWAP2 SUB SWAP1 RETURN JUMPDEST CALLVALUE DUP1 ISZERO PUSH2 0x1A8 JUMPI PUSH0 DUP1 REVERT JUMPDEST POP PUSH2 0x1B1 PUSH2 0x3D9 JUMP JUMPDEST PUSH1 0x40 MLOAD PUSH2 0x1BE SWAP2 SWAP1 PUSH2 0x11A5 JUMP JUMPDEST PUSH1 0x40 MLOAD DUP1 SWAP2 SUB SWAP1 RETURN JUMPDEST CALLVALUE DUP1 ISZERO PUSH2 0x1D2 JUMPI PUSH0 DUP1 REVERT JUMPDEST POP PUSH2 0x1ED PUSH1 0x4 DUP1 CALLDATASIZE SUB DUP2 ADD SWAP1 PUSH2 0x1E8 SWAP2 SWAP1 PUSH2 0x1286 JUMP JUMPDEST PUSH2 0x40E JUMP JUMPDEST PUSH1 0x40 MLOAD PUSH2 0x1FA SWAP2 SWAP1 PUSH2 0x135A JUMP JUMPDEST PUSH1 0x40 MLOAD DUP1 SWAP2 SUB SWAP1 RETURN JUMPDEST CALLVALUE DUP1 ISZERO PUSH2 0x20E JUMPI PUSH0 DUP1 REVERT JUMPDEST POP PUSH2 0x217 PUSH2 0x522 JUMP JUMPDEST PUSH1 0x40 MLOAD PUSH2 0x224 SWAP2 SWAP1 PUSH2 0x117D JUMP JUMPDEST PUSH1 0x40 MLOAD DUP1 SWAP2 SUB SWAP1 RETURN JUMPDEST CALLVALUE DUP1 ISZERO PUSH2 0x238 JUMPI PUSH0 DUP1 REVERT JUMPDEST POP PUSH2 0x241 PUSH2 0x532 JUMP JUMPDEST PUSH1 0x40 MLOAD PUSH2 0x24E SWAP2 SWAP1 PUSH2 0x13CC JUMP JUMPDEST PUSH1 0x40 MLOAD DUP1 SWAP2 SUB SWAP1 RETURN JUMPDEST CALLVALUE DUP1 ISZERO PUSH2 0x262 JUMPI PUSH0 DUP1 REVERT JUMPDEST POP PUSH2 0x26B PUSH2 0x56B JUMP JUMPDEST PUSH1 0x40 MLOAD PUSH2 0x278 SWAP2 SWAP1 PUSH2 0x117D JUMP JUMPDEST PUSH1 0x40 MLOAD DUP1 SWAP2 SUB SWAP1 RETURN JUMPDEST CALLVALUE DUP1 ISZERO PUSH2 0x28C JUMPI PUSH0 DUP1 REVERT JUMPDEST POP PUSH2 0x2A7 PUSH1 0x4 DUP1 CALLDATASIZE SUB DUP2 ADD SWAP1 PUSH2 0x2A2 SWAP2 SWAP1 PUSH2 0x10DA JUMP JUMPDEST PUSH2 0x571 JUMP JUMPDEST PUSH1 0x40 MLOAD PUSH2 0x2B4 SWAP2 SWAP1 PUSH2 0x135A JUMP JUMPDEST PUSH1 0x40 MLOAD DUP1 SWAP2 SUB SWAP1 RETURN JUMPDEST CALLVALUE DUP1 ISZERO PUSH2 0x2C8 JUMPI PUSH0 DUP1 REVERT JUMPDEST POP PUSH2 0x2D1 PUSH2 0x60B JUMP JUMPDEST PUSH1 0x40 MLOAD PUSH2 0x2DE SWAP2 SWAP1 PUSH2 0x117D JUMP JUMPDEST PUSH1 0x40 MLOAD DUP1 SWAP2 SUB SWAP1 RETURN JUMPDEST CALLVALUE DUP1 ISZERO PUSH2 0x2F2 JUMPI PUSH0 DUP1 REVERT JUMPDEST POP PUSH2 0x30D PUSH1 0x4 DUP1 CALLDATASIZE SUB DUP2 ADD SWAP1 PUSH2 0x308 SWAP2 SWAP1 PUSH2 0x13EC JUMP JUMPDEST PUSH2 0x61B JUMP JUMPDEST STOP JUMPDEST CALLVALUE DUP1 ISZERO PUSH2 0x31A JUMPI PUSH0 DUP1 REVERT JUMPDEST POP PUSH2 0x335 PUSH1 0x4 DUP1 CALLDATASIZE SUB DUP2 ADD SWAP1 PUSH2 0x330 SWAP2 SWAP1 PUSH2 0x1417 JUMP JUMPDEST PUSH2 0x69F JUMP JUMPDEST STOP JUMPDEST PUSH2 0x33F PUSH2 0x7CC JUMP JUMPDEST PUSH1 0x2 PUSH0 SLOAD PUSH2 0x34D SWAP2 SWAP1 PUSH2 0x146F JUMP JUMPDEST PUSH0 DUP2 SWAP1 SSTORE POP JUMP JUMPDEST PUSH2 0x35C PUSH2 0x7CC JUMP JUMPDEST PUSH1 0x1 PUSH0 SLOAD PUSH2 0x36A SWAP2 SWAP1 PUSH2 0x146F JUMP JUMPDEST PUSH0 DUP2 SWAP1 SSTORE POP JUMP JUMPDEST PUSH2 0x379 PUSH2 0x7CC JUMP JUMPDEST PUSH2 0x382 DUP3 PUSH2 0x8B2 JUMP JUMPDEST PUSH2 0x38C DUP3 DUP3 PUSH2 0x8BD JUMP JUMPDEST POP POP JUMP JUMPDEST PUSH0 PUSH2 0x399 PUSH2 0x9DB JUMP JUMPDEST PUSH32 0x360894A13BA1A3210667C828492DB98DCA3E2076CC3735A920A3CA505D382BBC PUSH0 SHL SWAP1 POP SWAP1 JUMP JUMPDEST PUSH2 0x3C9 PUSH2 0xA62 JUMP JUMPDEST PUSH2 0x3D2 PUSH0 PUSH2 0xAE9 JUMP JUMPDEST JUMP JUMPDEST PUSH0 SLOAD DUP2 JUMP JUMPDEST PUSH0 DUP1 PUSH2 0x3E3 PUSH2 0xBBA JUMP JUMPDEST SWAP1 POP DUP1 PUSH0 ADD PUSH0 SWAP1 SLOAD SWAP1 PUSH2 0x100 EXP SWAP1 DIV PUSH20 0xFFFFFFFFFFFFFFFFFFFFFFFFFFFFFFFFFFFFFFFF AND SWAP2 POP POP SWAP1 JUMP JUMPDEST PUSH1 0x60 PUSH0 DUP3 EQ PUSH2 0x4A0 JUMPI DUP3 DUP3 PUSH1 0x40 MLOAD PUSH1 0x24 ADD PUSH2 0x429 SWAP2 SWAP1 PUSH2 0x117D JUMP JUMPDEST PUSH1 0x40 MLOAD PUSH1 0x20 DUP2 DUP4 SUB SUB DUP2 MSTORE SWAP1 PUSH1 0x40 MSTORE SWAP1 PUSH1 0x40 MLOAD PUSH2 0x446 SWAP2 SWAP1 PUSH2 0x14DC JUMP JUMPDEST PUSH1 0x40 MLOAD DUP1 SWAP2 SUB SWAP1 KECCAK256 PUSH28 0xFFFFFFFFFFFFFFFFFFFFFFFFFFFFFFFFFFFFFFFFFFFFFFFFFFFFFFFF NOT AND PUSH1 0x20 DUP3 ADD DUP1 MLOAD PUSH28 0xFFFFFFFFFFFFFFFFFFFFFFFFFFFFFFFFFFFFFFFFFFFFFFFFFFFFFFFF DUP4 DUP2 DUP4 AND OR DUP4 MSTORE POP POP POP POP PUSH2 0x51A JUMP JUMPDEST DUP3 PUSH1 0x40 MLOAD PUSH1 0x24 ADD PUSH1 0x40 MLOAD PUSH1 0x20 DUP2 DUP4 SUB SUB DUP2 MSTORE SWAP1 PUSH1 0x40 MSTORE SWAP1 PUSH1 0x40 MLOAD PUSH2 0x4C4 SWAP2 SWAP1 PUSH2 0x14DC JUMP JUMPDEST PUSH1 0x40 MLOAD DUP1 SWAP2 SUB SWAP1 KECCAK256 PUSH28 0xFFFFFFFFFFFFFFFFFFFFFFFFFFFFFFFFFFFFFFFFFFFFFFFFFFFFFFFF NOT AND PUSH1 0x20 DUP3 ADD DUP1 MLOAD PUSH28 0xFFFFFFFFFFFFFFFFFFFFFFFFFFFFFFFFFFFFFFFFFFFFFFFFFFFFFFFF DUP4 DUP2 DUP4 AND OR DUP4 MSTORE POP POP POP POP JUMPDEST SWAP1 POP SWAP3 SWAP2 POP POP JUMP JUMPDEST PUSH0 PUSH2 0x52B PUSH2 0x7CC JUMP JUMPDEST PUSH0 SLOAD SWAP1 POP SWAP1 JUMP JUMPDEST PUSH1 0x40 MLOAD DUP1 PUSH1 0x40 ADD PUSH1 0x40 MSTORE DUP1 PUSH1 0x5 DUP2 MSTORE PUSH1 0x20 ADD PUSH32 0x352E302E30000000000000000000000000000000000000000000000000000000 DUP2 MSTORE POP DUP2 JUMP JUMPDEST PUSH1 0x1 SLOAD DUP2 JUMP JUMPDEST PUSH1 0x60 DUP3 DUP3 PUSH1 0x40 MLOAD PUSH1 0x24 ADD PUSH2 0x586 SWAP3 SWAP2 SWAP1 PUSH2 0x14F2 JUMP JUMPDEST PUSH1 0x40 MLOAD PUSH1 0x20 DUP2 DUP4 SUB SUB DUP2 MSTORE SWAP1 PUSH1 0x40 MSTORE PUSH32 0x4F1EF28600000000000000000000000000000000000000000000000000000000 PUSH28 0xFFFFFFFFFFFFFFFFFFFFFFFFFFFFFFFFFFFFFFFFFFFFFFFFFFFFFFFF NOT AND PUSH1 0x20 DUP3 ADD DUP1 MLOAD PUSH28 0xFFFFFFFFFFFFFFFFFFFFFFFFFFFFFFFFFFFFFFFFFFFFFFFFFFFFFFFF DUP4 DUP2 DUP4 AND OR DUP4 MSTORE POP POP POP POP SWAP1 POP SWAP3 SWAP2 POP POP JUMP JUMPDEST PUSH0 PUSH2 0x614 PUSH2 0x7CC JUMP JUMPDEST PUSH0 SLOAD SWAP1 POP SWAP1 JUMP JUMPDEST PUSH2 0x623 PUSH2 0xA62 JUMP JUMPDEST PUSH0 PUSH20 0xFFFFFFFFFFFFFFFFFFFFFFFFFFFFFFFFFFFFFFFF AND DUP2 PUSH20 0xFFFFFFFFFFFFFFFFFFFFFFFFFFFFFFFFFFFFFFFF AND SUB PUSH2 0x693 JUMPI PUSH0 PUSH1 0x40 MLOAD PUSH32 0x1E4FBDF700000000000000000000000000000000000000000000000000000000 DUP2 MSTORE PUSH1 0x4 ADD PUSH2 0x68A SWAP2 SWAP1 PUSH2 0x11A5 JUMP JUMPDEST PUSH1 0x40 MLOAD DUP1 SWAP2 SUB SWAP1 REVERT JUMPDEST PUSH2 0x69C DUP2 PUSH2 0xAE9 JUMP JUMPDEST POP JUMP JUMPDEST PUSH1 0x2 PUSH0 PUSH2 0x6AA PUSH2 0xBE1 JUMP JUMPDEST SWAP1 POP DUP1 PUSH0 ADD PUSH1 0x8 SWAP1 SLOAD SWAP1 PUSH2 0x100 EXP SWAP1 DIV PUSH1 0xFF AND DUP1 PUSH2 0x6F2 JUMPI POP DUP2 PUSH8 0xFFFFFFFFFFFFFFFF AND DUP2 PUSH0 ADD PUSH0 SWAP1 SLOAD SWAP1 PUSH2 0x100 EXP SWAP1 DIV PUSH8 0xFFFFFFFFFFFFFFFF AND PUSH8 0xFFFFFFFFFFFFFFFF AND LT ISZERO JUMPDEST ISZERO PUSH2 0x729 JUMPI PUSH1 0x40 MLOAD PUSH32 0xF92EE8A900000000000000000000000000000000000000000000000000000000 DUP2 MSTORE PUSH1 0x4 ADD PUSH1 0x40 MLOAD DUP1 SWAP2 SUB SWAP1 REVERT JUMPDEST DUP2 DUP2 PUSH0 ADD PUSH0 PUSH2 0x100 EXP DUP2 SLOAD DUP2 PUSH8 0xFFFFFFFFFFFFFFFF MUL NOT AND SWAP1 DUP4 PUSH8 0xFFFFFFFFFFFFFFFF AND MUL OR SWAP1 SSTORE POP PUSH1 0x1 DUP2 PUSH0 ADD PUSH1 0x8 PUSH2 0x100 EXP DUP2 SLOAD DUP2 PUSH1 0xFF MUL NOT AND SWAP1 DUP4 ISZERO ISZERO MUL OR SWAP1 SSTORE POP DUP3 PUSH1 0x1 DUP2 SWAP1 SSTORE POP PUSH0 DUP2 PUSH0 ADD PUSH1 0x8 PUSH2 0x100 EXP DUP2 SLOAD DUP2 PUSH1 0xFF MUL NOT AND SWAP1 DUP4 ISZERO ISZERO MUL OR SWAP1 SSTORE POP PUSH32 0xC7F505B2F371AE2175EE4913F4499E1F2633A7B5936321EED1CDAEB6115181D2 DUP3 PUSH1 0x40 MLOAD PUSH2 0x7BF SWAP2 SWAP1 PUSH2 0x1542 JUMP JUMPDEST PUSH1 0x40 MLOAD DUP1 SWAP2 SUB SWAP1 LOG1 POP POP POP JUMP JUMPDEST PUSH32 0x0 PUSH20 0xFFFFFFFFFFFFFFFFFFFFFFFFFFFFFFFFFFFFFFFF AND ADDRESS PUSH20 0xFFFFFFFFFFFFFFFFFFFFFFFFFFFFFFFFFFFFFFFF AND EQ DUP1 PUSH2 0x879 JUMPI POP PUSH32 0x0 PUSH20 0xFFFFFFFFFFFFFFFFFFFFFFFFFFFFFFFFFFFFFFFF AND PUSH2 0x860 PUSH2 0xC08 JUMP JUMPDEST PUSH20 0xFFFFFFFFFFFFFFFFFFFFFFFFFFFFFFFFFFFFFFFF AND EQ ISZERO JUMPDEST ISZERO PUSH2 0x8B0 JUMPI PUSH1 0x40 MLOAD PUSH32 0xE07C8DBA00000000000000000000000000000000000000000000000000000000 DUP2 MSTORE PUSH1 0x4 ADD PUSH1 0x40 MLOAD DUP1 SWAP2 SUB SWAP1 REVERT JUMPDEST JUMP JUMPDEST PUSH2 0x8BA PUSH2 0xA62 JUMP JUMPDEST POP JUMP JUMPDEST DUP2 PUSH20 0xFFFFFFFFFFFFFFFFFFFFFFFFFFFFFFFFFFFFFFFF AND PUSH4 0x52D1902D PUSH1 0x40 MLOAD DUP2 PUSH4 0xFFFFFFFF AND PUSH1 0xE0 SHL DUP2 MSTORE PUSH1 0x4 ADD PUSH1 0x20 PUSH1 0x40 MLOAD DUP1 DUP4 SUB DUP2 DUP7 GAS STATICCALL SWAP3 POP POP POP DUP1 ISZERO PUSH2 0x925 JUMPI POP PUSH1 0x40 MLOAD RETURNDATASIZE PUSH1 0x1F NOT PUSH1 0x1F DUP3 ADD AND DUP3 ADD DUP1 PUSH1 0x40 MSTORE POP DUP2 ADD SWAP1 PUSH2 0x922 SWAP2 SWAP1 PUSH2 0x1585 JUMP JUMPDEST PUSH1 0x1 JUMPDEST PUSH2 0x966 JUMPI DUP2 PUSH1 0x40 MLOAD PUSH32 0x4C9C8CE300000000000000000000000000000000000000000000000000000000 DUP2 MSTORE PUSH1 0x4 ADD PUSH2 0x95D SWAP2 SWAP1 PUSH2 0x11A5 JUMP JUMPDEST PUSH1 0x40 MLOAD DUP1 SWAP2 SUB SWAP1 REVERT JUMPDEST PUSH32 0x360894A13BA1A3210667C828492DB98DCA3E2076CC3735A920A3CA505D382BBC PUSH0 SHL DUP2 EQ PUSH2 0x9CC JUMPI DUP1 PUSH1 0x40 MLOAD PUSH32 0xAA1D49A400000000000000000000000000000000000000000000000000000000 DUP2 MSTORE PUSH1 0x4 ADD PUSH2 0x9C3 SWAP2 SWAP1 PUSH2 0x114C JUMP JUMPDEST PUSH1 0x40 MLOAD DUP1 SWAP2 SUB SWAP1 REVERT JUMPDEST PUSH2 0x9D6 DUP4 DUP4 PUSH2 0xC5B JUMP JUMPDEST POP POP POP JUMP JUMPDEST PUSH32 0x0 PUSH20 0xFFFFFFFFFFFFFFFFFFFFFFFFFFFFFFFFFFFFFFFF AND ADDRESS PUSH20 0xFFFFFFFFFFFFFFFFFFFFFFFFFFFFFFFFFFFFFFFF AND EQ PUSH2 0xA60 JUMPI PUSH1 0x40 MLOAD PUSH32 0xE07C8DBA00000000000000000000000000000000000000000000000000000000 DUP2 MSTORE PUSH1 0x4 ADD PUSH1 0x40 MLOAD DUP1 SWAP2 SUB SWAP1 REVERT JUMPDEST JUMP JUMPDEST PUSH2 0xA6A PUSH2 0xCCD JUMP JUMPDEST PUSH20 0xFFFFFFFFFFFFFFFFFFFFFFFFFFFFFFFFFFFFFFFF AND PUSH2 0xA88 PUSH2 0x3D9 JUMP JUMPDEST PUSH20 0xFFFFFFFFFFFFFFFFFFFFFFFFFFFFFFFFFFFFFFFF AND EQ PUSH2 0xAE7 JUMPI PUSH2 0xAAB PUSH2 0xCCD JUMP JUMPDEST PUSH1 0x40 MLOAD PUSH32 0x118CDAA700000000000000000000000000000000000000000000000000000000 DUP2 MSTORE PUSH1 0x4 ADD PUSH2 0xADE SWAP2 SWAP1 PUSH2 0x11A5 JUMP JUMPDEST PUSH1 0x40 MLOAD DUP1 SWAP2 SUB SWAP1 REVERT JUMPDEST JUMP JUMPDEST PUSH0 PUSH2 0xAF2 PUSH2 0xBBA JUMP JUMPDEST SWAP1 POP PUSH0 DUP2 PUSH0 ADD PUSH0 SWAP1 SLOAD SWAP1 PUSH2 0x100 EXP SWAP1 DIV PUSH20 0xFFFFFFFFFFFFFFFFFFFFFFFFFFFFFFFFFFFFFFFF AND SWAP1 POP DUP3 DUP3 PUSH0 ADD PUSH0 PUSH2 0x100 EXP DUP2 SLOAD DUP2 PUSH20 0xFFFFFFFFFFFFFFFFFFFFFFFFFFFFFFFFFFFFFFFF MUL NOT AND SWAP1 DUP4 PUSH20 0xFFFFFFFFFFFFFFFFFFFFFFFFFFFFFFFFFFFFFFFF AND MUL OR SWAP1 SSTORE POP DUP3 PUSH20 0xFFFFFFFFFFFFFFFFFFFFFFFFFFFFFFFFFFFFFFFF AND DUP2 PUSH20 0xFFFFFFFFFFFFFFFFFFFFFFFFFFFFFFFFFFFFFFFF AND PUSH32 0x8BE0079C531659141344CD1FD0A4F28419497F9722A3DAAFE3B4186F6B6457E0 PUSH1 0x40 MLOAD PUSH1 0x40 MLOAD DUP1 SWAP2 SUB SWAP1 LOG3 POP POP POP JUMP JUMPDEST PUSH0 PUSH32 0x9016D09D72D40FDAE2FD8CEAC6B6234C7706214FD39C1CD1E609A0528C199300 SWAP1 POP SWAP1 JUMP JUMPDEST PUSH0 PUSH32 0xF0C57E16840DF040F15088DC2F81FE391C3923BEC73E23A9662EFC9C229C6A00 SWAP1 POP SWAP1 JUMP JUMPDEST PUSH0 PUSH2 0xC34 PUSH32 0x360894A13BA1A3210667C828492DB98DCA3E2076CC3735A920A3CA505D382BBC PUSH0 SHL PUSH2 0xCD4 JUMP JUMPDEST PUSH0 ADD PUSH0 SWAP1 SLOAD SWAP1 PUSH2 0x100 EXP SWAP1 DIV PUSH20 0xFFFFFFFFFFFFFFFFFFFFFFFFFFFFFFFFFFFFFFFF AND SWAP1 POP SWAP1 JUMP JUMPDEST PUSH2 0xC64 DUP3 PUSH2 0xCDD JUMP JUMPDEST DUP2 PUSH20 0xFFFFFFFFFFFFFFFFFFFFFFFFFFFFFFFFFFFFFFFF AND PUSH32 0xBC7CD75A20EE27FD9ADEBAB32041F755214DBC6BFFA90CC0225B39DA2E5C2D3B PUSH1 0x40 MLOAD PUSH1 0x40 MLOAD DUP1 SWAP2 SUB SWAP1 LOG2 PUSH0 DUP2 MLOAD GT ISZERO PUSH2 0xCC0 JUMPI PUSH2 0xCBA DUP3 DUP3 PUSH2 0xDA6 JUMP JUMPDEST POP PUSH2 0xCC9 JUMP JUMPDEST PUSH2 0xCC8 PUSH2 0xE26 JUMP JUMPDEST JUMPDEST POP POP JUMP JUMPDEST PUSH0 CALLER SWAP1 POP SWAP1 JUMP JUMPDEST PUSH0 DUP2 SWAP1 POP SWAP2 SWAP1 POP JUMP JUMPDEST PUSH0 DUP2 PUSH20 0xFFFFFFFFFFFFFFFFFFFFFFFFFFFFFFFFFFFFFFFF AND EXTCODESIZE SUB PUSH2 0xD38 JUMPI DUP1 PUSH1 0x40 MLOAD PUSH32 0x4C9C8CE300000000000000000000000000000000000000000000000000000000 DUP2 MSTORE PUSH1 0x4 ADD PUSH2 0xD2F SWAP2 SWAP1 PUSH2 0x11A5 JUMP JUMPDEST PUSH1 0x40 MLOAD DUP1 SWAP2 SUB SWAP1 REVERT JUMPDEST DUP1 PUSH2 0xD64 PUSH32 0x360894A13BA1A3210667C828492DB98DCA3E2076CC3735A920A3CA505D382BBC PUSH0 SHL PUSH2 0xCD4 JUMP JUMPDEST PUSH0 ADD PUSH0 PUSH2 0x100 EXP DUP2 SLOAD DUP2 PUSH20 0xFFFFFFFFFFFFFFFFFFFFFFFFFFFFFFFFFFFFFFFF MUL NOT AND SWAP1 DUP4 PUSH20 0xFFFFFFFFFFFFFFFFFFFFFFFFFFFFFFFFFFFFFFFF AND MUL OR SWAP1 SSTORE POP POP JUMP JUMPDEST PUSH1 0x60 PUSH0 DUP1 DUP5 PUSH20 0xFFFFFFFFFFFFFFFFFFFFFFFFFFFFFFFFFFFFFFFF AND DUP5 PUSH1 0x40 MLOAD PUSH2 0xDCF SWAP2 SWAP1 PUSH2 0x15EA JUMP JUMPDEST PUSH0 PUSH1 0x40 MLOAD DUP1 DUP4 SUB DUP2 DUP6 GAS DELEGATECALL SWAP2 POP POP RETURNDATASIZE DUP1 PUSH0 DUP2 EQ PUSH2 0xE07 JUMPI PUSH1 0x40 MLOAD SWAP2 POP PUSH1 0x1F NOT PUSH1 0x3F RETURNDATASIZE ADD AND DUP3 ADD PUSH1 0x40 MSTORE RETURNDATASIZE DUP3 MSTORE RETURNDATASIZE PUSH0 PUSH1 0x20 DUP5 ADD RETURNDATACOPY PUSH2 0xE0C JUMP JUMPDEST PUSH1 0x60 SWAP2 POP JUMPDEST POP SWAP2 POP SWAP2 POP PUSH2 0xE1C DUP6 DUP4 DUP4 PUSH2 0xE62 JUMP JUMPDEST SWAP3 POP POP POP SWAP3 SWAP2 POP POP JUMP JUMPDEST PUSH0 CALLVALUE GT ISZERO PUSH2 0xE60 JUMPI PUSH1 0x40 MLOAD PUSH32 0xB398979F00000000000000000000000000000000000000000000000000000000 DUP2 MSTORE PUSH1 0x4 ADD PUSH1 0x40 MLOAD DUP1 SWAP2 SUB SWAP1 REVERT JUMPDEST JUMP JUMPDEST PUSH1 0x60 DUP3 PUSH2 0xE77 JUMPI PUSH2 0xE72 DUP3 PUSH2 0xEEF JUMP JUMPDEST PUSH2 0xEE7 JUMP JUMPDEST PUSH0 DUP3 MLOAD EQ DUP1 ISZERO PUSH2 0xE9D JUMPI POP PUSH0 DUP5 PUSH20 0xFFFFFFFFFFFFFFFFFFFFFFFFFFFFFFFFFFFFFFFF AND EXTCODESIZE EQ JUMPDEST ISZERO PUSH2 0xEDF JUMPI DUP4 PUSH1 0x40 MLOAD PUSH32 0x9996B31500000000000000000000000000000000000000000000000000000000 DUP2 MSTORE PUSH1 0x4 ADD PUSH2 0xED6 SWAP2 SWAP1 PUSH2 0x11A5 JUMP JUMPDEST PUSH1 0x40 MLOAD DUP1 SWAP2 SUB SWAP1 REVERT JUMPDEST DUP2 SWAP1 POP PUSH2 0xEE8 JUMP JUMPDEST JUMPDEST SWAP4 SWAP3 POP POP POP JUMP JUMPDEST PUSH0 DUP2 MLOAD GT ISZERO PUSH2 0xF01 JUMPI DUP1 MLOAD DUP1 DUP3 PUSH1 0x20 ADD REVERT JUMPDEST PUSH1 0x40 MLOAD PUSH32 0x1425EA4200000000000000000000000000000000000000000000000000000000 DUP2 MSTORE PUSH1 0x4 ADD PUSH1 0x40 MLOAD DUP1 SWAP2 SUB SWAP1 REVERT JUMPDEST PUSH0 PUSH1 0x40 MLOAD SWAP1 POP SWAP1 JUMP JUMPDEST PUSH0 DUP1 REVERT JUMPDEST PUSH0 DUP1 REVERT JUMPDEST PUSH0 PUSH20 0xFFFFFFFFFFFFFFFFFFFFFFFFFFFFFFFFFFFFFFFF DUP3 AND SWAP1 POP SWAP2 SWAP1 POP JUMP JUMPDEST PUSH0 PUSH2 0xF6D DUP3 PUSH2 0xF44 JUMP JUMPDEST SWAP1 POP SWAP2 SWAP1 POP JUMP JUMPDEST PUSH2 0xF7D DUP2 PUSH2 0xF63 JUMP JUMPDEST DUP2 EQ PUSH2 0xF87 JUMPI PUSH0 DUP1 REVERT JUMPDEST POP JUMP JUMPDEST PUSH0 DUP2 CALLDATALOAD SWAP1 POP PUSH2 0xF98 DUP2 PUSH2 0xF74 JUMP JUMPDEST SWAP3 SWAP2 POP POP JUMP JUMPDEST PUSH0 DUP1 REVERT JUMPDEST PUSH0 DUP1 REVERT JUMPDEST PUSH0 PUSH1 0x1F NOT PUSH1 0x1F DUP4 ADD AND SWAP1 POP SWAP2 SWAP1 POP JUMP JUMPDEST PUSH32 0x4E487B7100000000000000000000000000000000000000000000000000000000 PUSH0 MSTORE PUSH1 0x41 PUSH1 0x4 MSTORE PUSH1 0x24 PUSH0 REVERT JUMPDEST PUSH2 0xFEC DUP3 PUSH2 0xFA6 JUMP JUMPDEST DUP2 ADD DUP2 DUP2 LT PUSH8 0xFFFFFFFFFFFFFFFF DUP3 GT OR ISZERO PUSH2 0x100B JUMPI PUSH2 0x100A PUSH2 0xFB6 JUMP JUMPDEST JUMPDEST DUP1 PUSH1 0x40 MSTORE POP POP POP JUMP JUMPDEST PUSH0 PUSH2 0x101D PUSH2 0xF33 JUMP JUMPDEST SWAP1 POP PUSH2 0x1029 DUP3 DUP3 PUSH2 0xFE3 JUMP JUMPDEST SWAP2 SWAP1 POP JUMP JUMPDEST PUSH0 PUSH8 0xFFFFFFFFFFFFFFFF DUP3 GT ISZERO PUSH2 0x1048 JUMPI PUSH2 0x1047 PUSH2 0xFB6 JUMP JUMPDEST JUMPDEST PUSH2 0x1051 DUP3 PUSH2 0xFA6 JUMP JUMPDEST SWAP1 POP PUSH1 0x20 DUP2 ADD SWAP1 POP SWAP2 SWAP1 POP JUMP JUMPDEST DUP3 DUP2 DUP4 CALLDATACOPY PUSH0 DUP4 DUP4 ADD MSTORE POP POP POP JUMP JUMPDEST PUSH0 PUSH2 0x107E PUSH2 0x1079 DUP5 PUSH2 0x102E JUMP JUMPDEST PUSH2 0x1014 JUMP JUMPDEST SWAP1 POP DUP3 DUP2 MSTORE PUSH1 0x20 DUP2 ADD DUP5 DUP5 DUP5 ADD GT ISZERO PUSH2 0x109A JUMPI PUSH2 0x1099 PUSH2 0xFA2 JUMP JUMPDEST JUMPDEST PUSH2 0x10A5 DUP5 DUP3 DUP6 PUSH2 0x105E JUMP JUMPDEST POP SWAP4 SWAP3 POP POP POP JUMP JUMPDEST PUSH0 DUP3 PUSH1 0x1F DUP4 ADD SLT PUSH2 0x10C1 JUMPI PUSH2 0x10C0 PUSH2 0xF9E JUMP JUMPDEST JUMPDEST DUP2 CALLDATALOAD PUSH2 0x10D1 DUP5 DUP3 PUSH1 0x20 DUP7 ADD PUSH2 0x106C JUMP JUMPDEST SWAP2 POP POP SWAP3 SWAP2 POP POP JUMP JUMPDEST PUSH0 DUP1 PUSH1 0x40 DUP4 DUP6 SUB SLT ISZERO PUSH2 0x10F0 JUMPI PUSH2 0x10EF PUSH2 0xF3C JUMP JUMPDEST JUMPDEST PUSH0 PUSH2 0x10FD DUP6 DUP3 DUP7 ADD PUSH2 0xF8A JUMP JUMPDEST SWAP3 POP POP PUSH1 0x20 DUP4 ADD CALLDATALOAD PUSH8 0xFFFFFFFFFFFFFFFF DUP2 GT ISZERO PUSH2 0x111E JUMPI PUSH2 0x111D PUSH2 0xF40 JUMP JUMPDEST JUMPDEST PUSH2 0x112A DUP6 DUP3 DUP7 ADD PUSH2 0x10AD JUMP JUMPDEST SWAP2 POP POP SWAP3 POP SWAP3 SWAP1 POP JUMP JUMPDEST PUSH0 DUP2 SWAP1 POP SWAP2 SWAP1 POP JUMP JUMPDEST PUSH2 0x1146 DUP2 PUSH2 0x1134 JUMP JUMPDEST DUP3 MSTORE POP POP JUMP JUMPDEST PUSH0 PUSH1 0x20 DUP3 ADD SWAP1 POP PUSH2 0x115F PUSH0 DUP4 ADD DUP5 PUSH2 0x113D JUMP JUMPDEST SWAP3 SWAP2 POP POP JUMP JUMPDEST PUSH0 DUP2 SWAP1 POP SWAP2 SWAP1 POP JUMP JUMPDEST PUSH2 0x1177 DUP2 PUSH2 0x1165 JUMP JUMPDEST DUP3 MSTORE POP POP JUMP JUMPDEST PUSH0 PUSH1 0x20 DUP3 ADD SWAP1 POP PUSH2 0x1190 PUSH0 DUP4 ADD DUP5 PUSH2 0x116E JUMP JUMPDEST SWAP3 SWAP2 POP POP JUMP JUMPDEST PUSH2 0x119F DUP2 PUSH2 0xF63 JUMP JUMPDEST DUP3 MSTORE POP POP JUMP JUMPDEST PUSH0 PUSH1 0x20 DUP3 ADD SWAP1 POP PUSH2 0x11B8 PUSH0 DUP4 ADD DUP5 PUSH2 0x1196 JUMP JUMPDEST SWAP3 SWAP2 POP POP JUMP JUMPDEST PUSH0 PUSH8 0xFFFFFFFFFFFFFFFF DUP3 GT ISZERO PUSH2 0x11D8 JUMPI PUSH2 0x11D7 PUSH2 0xFB6 JUMP JUMPDEST JUMPDEST PUSH2 0x11E1 DUP3 PUSH2 0xFA6 JUMP JUMPDEST SWAP1 POP PUSH1 0x20 DUP2 ADD SWAP1 POP SWAP2 SWAP1 POP JUMP JUMPDEST PUSH0 PUSH2 0x1200 PUSH2 0x11FB DUP5 PUSH2 0x11BE JUMP JUMPDEST PUSH2 0x1014 JUMP JUMPDEST SWAP1 POP DUP3 DUP2 MSTORE PUSH1 0x20 DUP2 ADD DUP5 DUP5 DUP5 ADD GT ISZERO PUSH2 0x121C JUMPI PUSH2 0x121B PUSH2 0xFA2 JUMP JUMPDEST JUMPDEST PUSH2 0x1227 DUP5 DUP3 DUP6 PUSH2 0x105E JUMP JUMPDEST POP SWAP4 SWAP3 POP POP POP JUMP JUMPDEST PUSH0 DUP3 PUSH1 0x1F DUP4 ADD SLT PUSH2 0x1243 JUMPI PUSH2 0x1242 PUSH2 0xF9E JUMP JUMPDEST JUMPDEST DUP2 CALLDATALOAD PUSH2 0x1253 DUP5 DUP3 PUSH1 0x20 DUP7 ADD PUSH2 0x11EE JUMP JUMPDEST SWAP2 POP POP SWAP3 SWAP2 POP POP JUMP JUMPDEST PUSH2 0x1265 DUP2 PUSH2 0x1165 JUMP JUMPDEST DUP2 EQ PUSH2 0x126F JUMPI PUSH0 DUP1 REVERT JUMPDEST POP JUMP JUMPDEST PUSH0 DUP2 CALLDATALOAD SWAP1 POP PUSH2 0x1280 DUP2 PUSH2 0x125C JUMP JUMPDEST SWAP3 SWAP2 POP POP JUMP JUMPDEST PUSH0 DUP1 PUSH1 0x40 DUP4 DUP6 SUB SLT ISZERO PUSH2 0x129C JUMPI PUSH2 0x129B PUSH2 0xF3C JUMP JUMPDEST JUMPDEST PUSH0 DUP4 ADD CALLDATALOAD PUSH8 0xFFFFFFFFFFFFFFFF DUP2 GT ISZERO PUSH2 0x12B9 JUMPI PUSH2 0x12B8 PUSH2 0xF40 JUMP JUMPDEST JUMPDEST PUSH2 0x12C5 DUP6 DUP3 DUP7 ADD PUSH2 0x122F JUMP JUMPDEST SWAP3 POP POP PUSH1 0x20 PUSH2 0x12D6 DUP6 DUP3 DUP7 ADD PUSH2 0x1272 JUMP JUMPDEST SWAP2 POP POP SWAP3 POP SWAP3 SWAP1 POP JUMP JUMPDEST PUSH0 DUP2 MLOAD SWAP1 POP SWAP2 SWAP1 POP JUMP JUMPDEST PUSH0 DUP3 DUP3 MSTORE PUSH1 0x20 DUP3 ADD SWAP1 POP SWAP3 SWAP2 POP POP JUMP JUMPDEST PUSH0 JUMPDEST DUP4 DUP2 LT ISZERO PUSH2 0x1317 JUMPI DUP1 DUP3 ADD MLOAD DUP2 DUP5 ADD MSTORE PUSH1 0x20 DUP2 ADD SWAP1 POP PUSH2 0x12FC JUMP JUMPDEST PUSH0 DUP5 DUP5 ADD MSTORE POP POP POP POP JUMP JUMPDEST PUSH0 PUSH2 0x132C DUP3 PUSH2 0x12E0 JUMP JUMPDEST PUSH2 0x1336 DUP2 DUP6 PUSH2 0x12EA JUMP JUMPDEST SWAP4 POP PUSH2 0x1346 DUP2 DUP6 PUSH1 0x20 DUP7 ADD PUSH2 0x12FA JUMP JUMPDEST PUSH2 0x134F DUP2 PUSH2 0xFA6 JUMP JUMPDEST DUP5 ADD SWAP2 POP POP SWAP3 SWAP2 POP POP JUMP JUMPDEST PUSH0 PUSH1 0x20 DUP3 ADD SWAP1 POP DUP2 DUP2 SUB PUSH0 DUP4 ADD MSTORE PUSH2 0x1372 DUP2 DUP5 PUSH2 0x1322 JUMP JUMPDEST SWAP1 POP SWAP3 SWAP2 POP POP JUMP JUMPDEST PUSH0 DUP2 MLOAD SWAP1 POP SWAP2 SWAP1 POP JUMP JUMPDEST PUSH0 DUP3 DUP3 MSTORE PUSH1 0x20 DUP3 ADD SWAP1 POP SWAP3 SWAP2 POP POP JUMP JUMPDEST PUSH0 PUSH2 0x139E DUP3 PUSH2 0x137A JUMP JUMPDEST PUSH2 0x13A8 DUP2 DUP6 PUSH2 0x1384 JUMP JUMPDEST SWAP4 POP PUSH2 0x13B8 DUP2 DUP6 PUSH1 0x20 DUP7 ADD PUSH2 0x12FA JUMP JUMPDEST PUSH2 0x13C1 DUP2 PUSH2 0xFA6 JUMP JUMPDEST DUP5 ADD SWAP2 POP POP SWAP3 SWAP2 POP POP JUMP JUMPDEST PUSH0 PUSH1 0x20 DUP3 ADD SWAP1 POP DUP2 DUP2 SUB PUSH0 DUP4 ADD MSTORE PUSH2 0x13E4 DUP2 DUP5 PUSH2 0x1394 JUMP JUMPDEST SWAP1 POP SWAP3 SWAP2 POP POP JUMP JUMPDEST PUSH0 PUSH1 0x20 DUP3 DUP5 SUB SLT ISZERO PUSH2 0x1401 JUMPI PUSH2 0x1400 PUSH2 0xF3C JUMP JUMPDEST JUMPDEST PUSH0 PUSH2 0x140E DUP5 DUP3 DUP6 ADD PUSH2 0xF8A JUMP JUMPDEST SWAP2 POP POP SWAP3 SWAP2 POP POP JUMP JUMPDEST PUSH0 PUSH1 0x20 DUP3 DUP5 SUB SLT ISZERO PUSH2 0x142C JUMPI PUSH2 0x142B PUSH2 0xF3C JUMP JUMPDEST JUMPDEST PUSH0 PUSH2 0x1439 DUP5 DUP3 DUP6 ADD PUSH2 0x1272 JUMP JUMPDEST SWAP2 POP POP SWAP3 SWAP2 POP POP JUMP JUMPDEST PUSH32 0x4E487B7100000000000000000000000000000000000000000000000000000000 PUSH0 MSTORE PUSH1 0x11 PUSH1 0x4 MSTORE PUSH1 0x24 PUSH0 REVERT JUMPDEST PUSH0 PUSH2 0x1479 DUP3 PUSH2 0x1165 JUMP JUMPDEST SWAP2 POP PUSH2 0x1484 DUP4 PUSH2 0x1165 JUMP JUMPDEST SWAP3 POP DUP3 DUP3 ADD SWAP1 POP DUP1 DUP3 GT ISZERO PUSH2 0x149C JUMPI PUSH2 0x149B PUSH2 0x1442 JUMP JUMPDEST JUMPDEST SWAP3 SWAP2 POP POP JUMP JUMPDEST PUSH0 DUP2 SWAP1 POP SWAP3 SWAP2 POP POP JUMP JUMPDEST PUSH0 PUSH2 0x14B6 DUP3 PUSH2 0x137A JUMP JUMPDEST PUSH2 0x14C0 DUP2 DUP6 PUSH2 0x14A2 JUMP JUMPDEST SWAP4 POP PUSH2 0x14D0 DUP2 DUP6 PUSH1 0x20 DUP7 ADD PUSH2 0x12FA JUMP JUMPDEST DUP1 DUP5 ADD SWAP2 POP POP SWAP3 SWAP2 POP POP JUMP JUMPDEST PUSH0 PUSH2 0x14E7 DUP3 DUP5 PUSH2 0x14AC JUMP JUMPDEST SWAP2 POP DUP2 SWAP1 POP SWAP3 SWAP2 POP POP JUMP JUMPDEST PUSH0 PUSH1 0x40 DUP3 ADD SWAP1 POP PUSH2 0x1505 PUSH0 DUP4 ADD DUP6 PUSH2 0x1196 JUMP JUMPDEST DUP2 DUP2 SUB PUSH1 0x20 DUP4 ADD MSTORE PUSH2 0x1517 DUP2 DUP5 PUSH2 0x1322 JUMP JUMPDEST SWAP1 POP SWAP4 SWAP3 POP POP POP JUMP JUMPDEST PUSH0 PUSH8 0xFFFFFFFFFFFFFFFF DUP3 AND SWAP1 POP SWAP2 SWAP1 POP JUMP JUMPDEST PUSH2 0x153C DUP2 PUSH2 0x1520 JUMP JUMPDEST DUP3 MSTORE POP POP JUMP JUMPDEST PUSH0 PUSH1 0x20 DUP3 ADD SWAP1 POP PUSH2 0x1555 PUSH0 DUP4 ADD DUP5 PUSH2 0x1533 JUMP JUMPDEST SWAP3 SWAP2 POP POP JUMP JUMPDEST PUSH2 0x1564 DUP2 PUSH2 0x1134 JUMP JUMPDEST DUP2 EQ PUSH2 0x156E JUMPI PUSH0 DUP1 REVERT JUMPDEST POP JUMP JUMPDEST PUSH0 DUP2 MLOAD SWAP1 POP PUSH2 0x157F DUP2 PUSH2 0x155B JUMP JUMPDEST SWAP3 SWAP2 POP POP JUMP JUMPDEST PUSH0 PUSH1 0x20 DUP3 DUP5 SUB SLT ISZERO PUSH2 0x159A JUMPI PUSH2 0x1599 PUSH2 0xF3C JUMP JUMPDEST JUMPDEST PUSH0 PUSH2 0x15A7 DUP5 DUP3 DUP6 ADD PUSH2 0x1571 JUMP JUMPDEST SWAP2 POP POP SWAP3 SWAP2 POP POP JUMP JUMPDEST PUSH0 DUP2 SWAP1 POP SWAP3 SWAP2 POP POP JUMP JUMPDEST PUSH0 PUSH2 0x15C4 DUP3 PUSH2 0x12E0 JUMP JUMPDEST PUSH2 0x15CE DUP2 DUP6 PUSH2 0x15B0 JUMP JUMPDEST SWAP4 POP PUSH2 0x15DE DUP2 DUP6 PUSH1 0x20 DUP7 ADD PUSH2 0x12FA JUMP JUMPDEST DUP1 DUP5 ADD SWAP2 POP POP SWAP3 SWAP2 POP POP JUMP JUMPDEST PUSH0 PUSH2 0x15F5 DUP3 DUP5 PUSH2 0x15BA JUMP JUMPDEST SWAP2 POP DUP2 SWAP1 POP SWAP3 SWAP2 POP POP JUMP INVALID LOG2 PUSH5 0x6970667358 0x22 SLT KECCAK256 AND 0xAD LOG2 BYTE PUSH21 0x3EFB729F0BEBFB53E8E478DD7A3362FBCAAC83C01E EXTCODEHASH 0xCF 0xE 0xD2 0x2C 0xD0 PUSH5 0x736F6C6343 STOP ADDMOD AND STOP CALLER "
				},
				"gasEstimates": {
					"creation": {
						"codeDepositCost": "1137200",
						"executionCost": "infinite",
						"totalCost": "infinite"
					},
					"external": {
						"UPGRADE_INTERFACE_VERSION()": "infinite",
						"getNumber()": "infinite",
						"getNumber1()": "infinite",
						"getSign(string,uint256)": "infinite",
						"helper(address,bytes)": "infinite",
						"initialize(uint256)": "101156",
						"number()": "2491",
						"number1()": "2514",
						"owner()": "2656",
						"proxiableUUID()": "infinite",
						"renounceOwnership()": "infinite",
						"setNumber()": "infinite",
						"setNumber1()": "infinite",
						"transferOwnership(address)": "infinite",
						"upgradeToAndCall(address,bytes)": "infinite"
					},
					"internal": {
						"_authorizeUpgrade(address)": "infinite"
					}
				},
				"methodIdentifiers": {
					"UPGRADE_INTERFACE_VERSION()": "ad3cb1cc",
					"getNumber()": "f2c9ecd8",
					"getNumber1()": "9e911f4c",
					"getSign(string,uint256)": "94f37149",
					"helper(address,bytes)": "cdb6ed1b",
					"initialize(uint256)": "fe4b84df",
					"number()": "8381f58a",
					"number1()": "c223a39e",
					"owner()": "8da5cb5b",
					"proxiableUUID()": "52d1902d",
					"renounceOwnership()": "715018a6",
					"setNumber()": "4154b243",
					"setNumber1()": "3aeb111a",
					"transferOwnership(address)": "f2fde38b",
					"upgradeToAndCall(address,bytes)": "4f1ef286"
				}
			},
			"storageLayout": {
				"storage": [
					{
						"astId": 1375,
						"contract": "contracts/UUPSUpgrade/DemoV2.sol:Demo",
						"label": "number",
						"offset": 0,
						"slot": "0",
						"type": "t_uint256"
					},
					{
						"astId": 1377,
						"contract": "contracts/UUPSUpgrade/DemoV2.sol:Demo",
						"label": "number1",
						"offset": 0,
						"slot": "1",
						"type": "t_uint256"
					}
				],
				"types": {
					"t_uint256": {
						"encoding": "inplace",
						"label": "uint256",
						"numberOfBytes": "32"
					}
				}
			},
			"userdoc": {
				"kind": "user",
				"methods": {},
				"version": 1
			}
		}
	}
}